{
	"data": {
		"bytecode": {
			"linkReferences": {},
			"object": "608060405234801561001057600080fd5b50336000806101000a81548173ffffffffffffffffffffffffffffffffffffffff021916908373ffffffffffffffffffffffffffffffffffffffff16021790555061126a806100606000396000f3fe608060405234801561001057600080fd5b506004361061004c5760003560e01c806335cc6c5b14610051578063b6ed33f11461006d578063c4f7ff041461009d578063d6cc0c08146100b9575b600080fd5b61006b60048036038101906100669190610b41565b6100d5565b005b61008760048036038101906100829190610bb0565b6103b6565b6040516100949190610bf8565b60405180910390f35b6100b760048036038101906100b29190610c71565b61047d565b005b6100d360048036038101906100ce9190610d95565b610536565b005b600015156002836040516100e99190610e62565b908152602001604051809103902060009054906101000a900460ff1615151461011157600080fd5b6003826040516101219190610e62565b908152602001604051809103902060009054906101000a900473ffffffffffffffffffffffffffffffffffffffff1673ffffffffffffffffffffffffffffffffffffffff163373ffffffffffffffffffffffffffffffffffffffff161461018757600080fd5b61022373822f17a9a5eecfd66dbaff7946a8071c265d1d0773ffffffffffffffffffffffffffffffffffffffff16630e89341c856040518263ffffffff1660e01b81526004016101d79190610e88565b600060405180830381865afa1580156101f4573d6000803e3d6000fd5b505050506040513d6000823e3d601f19601f8201168201806040525081019061021d9190610f13565b836106dc565b61022c57600080fd5b8073822f17a9a5eecfd66dbaff7946a8071c265d1d0773ffffffffffffffffffffffffffffffffffffffff166399f771a7856040518263ffffffff1660e01b815260040161027a9190610e88565b602060405180830381865afa158015610297573d6000803e3d6000fd5b505050506040513d601f19601f820116820180604052508101906102bb9190610f71565b146102c557600080fd5b60016002836040516102d79190610e62565b908152602001604051809103902060006101000a81548160ff02191690831515021790555073e492df5f551c8889adc1312793ab815e3f77371773ffffffffffffffffffffffffffffffffffffffff166323b872dd60008054906101000a900473ffffffffffffffffffffffffffffffffffffffff1633846040518463ffffffff1660e01b815260040161036d93929190610fad565b6020604051808303816000875af115801561038c573d6000803e3d6000fd5b505050506040513d601f19601f820116820180604052508101906103b09190611010565b50505050565b6000600273822f17a9a5eecfd66dbaff7946a8071c265d1d0773ffffffffffffffffffffffffffffffffffffffff16630e89341c846040518263ffffffff1660e01b81526004016104079190610e88565b600060405180830381865afa158015610424573d6000803e3d6000fd5b505050506040513d6000823e3d601f19601f8201168201806040525081019061044d9190610f13565b60405161045a9190610e62565b908152602001604051809103902060009054906101000a900460ff169050919050565b60008054906101000a900473ffffffffffffffffffffffffffffffffffffffff1673ffffffffffffffffffffffffffffffffffffffff163373ffffffffffffffffffffffffffffffffffffffff16146104d557600080fd5b806003836040516104e69190610e62565b908152602001604051809103902060006101000a81548173ffffffffffffffffffffffffffffffffffffffff021916908373ffffffffffffffffffffffffffffffffffffffff1602179055505050565b61053f82610704565b811461054a57600080fd5b73e492df5f551c8889adc1312793ab815e3f77371773ffffffffffffffffffffffffffffffffffffffff1663095ea7b330836040518363ffffffff1660e01b815260040161059992919061103d565b6020604051808303816000875af11580156105b8573d6000803e3d6000fd5b505050506040513d601f19601f820116820180604052508101906105dc9190611010565b5073e492df5f551c8889adc1312793ab815e3f77371773ffffffffffffffffffffffffffffffffffffffff166323b872dd3360008054906101000a900473ffffffffffffffffffffffffffffffffffffffff16846040518463ffffffff1660e01b815260040161064e93929190610fad565b6020604051808303816000875af115801561066d573d6000803e3d6000fd5b505050506040513d601f19601f820116820180604052508101906106919190611010565b5060006040518060400160405280600481526020017f746573740000000000000000000000000000000000000000000000000000000081525090506106d73384836107e9565b505050565b6000815183511480156106fc575081805190602001208380519060200120145b905092915050565b6000806000905060005b83518110156107df5773822f17a9a5eecfd66dbaff7946a8071c265d1d0773ffffffffffffffffffffffffffffffffffffffff166399f771a785838151811061075a57610759611066565b5b60200260200101516040518263ffffffff1660e01b815260040161077e9190610e88565b602060405180830381865afa15801561079b573d6000803e3d6000fd5b505050506040513d601f19601f820116820180604052508101906107bf9190610f71565b826107ca91906110c4565b915080806107d7906110f8565b91505061070e565b5080915050919050565b60005b82518110156109ab57600273822f17a9a5eecfd66dbaff7946a8071c265d1d0773ffffffffffffffffffffffffffffffffffffffff16630e89341c85848151811061083a57610839611066565b5b60200260200101516040518263ffffffff1660e01b815260040161085e9190610e88565b600060405180830381865afa15801561087b573d6000803e3d6000fd5b505050506040513d6000823e3d601f19601f820116820180604052508101906108a49190610f13565b6040516108b19190610e62565b908152602001604051809103902060009054906101000a900460ff166108d657600080fd5b73822f17a9a5eecfd66dbaff7946a8071c265d1d0773ffffffffffffffffffffffffffffffffffffffff1663f242432a60008054906101000a900473ffffffffffffffffffffffffffffffffffffffff168686858151811061093b5761093a611066565b5b60200260200101516001876040518663ffffffff1660e01b81526004016109669594939291906111da565b600060405180830381600087803b15801561098057600080fd5b505af1158015610994573d6000803e3d6000fd5b5050505080806109a3906110f8565b9150506107ec565b50505050565b6000604051905090565b600080fd5b600080fd5b6000819050919050565b6109d8816109c5565b81146109e357600080fd5b50565b6000813590506109f5816109cf565b92915050565b600080fd5b600080fd5b6000601f19601f8301169050919050565b7f4e487b7100000000000000000000000000000000000000000000000000000000600052604160045260246000fd5b610a4e82610a05565b810181811067ffffffffffffffff82111715610a6d57610a6c610a16565b5b80604052505050565b6000610a806109b1565b9050610a8c8282610a45565b919050565b600067ffffffffffffffff821115610aac57610aab610a16565b5b610ab582610a05565b9050602081019050919050565b82818337600083830152505050565b6000610ae4610adf84610a91565b610a76565b905082815260208101848484011115610b0057610aff610a00565b5b610b0b848285610ac2565b509392505050565b600082601f830112610b2857610b276109fb565b5b8135610b38848260208601610ad1565b91505092915050565b600080600060608486031215610b5a57610b596109bb565b5b6000610b68868287016109e6565b935050602084013567ffffffffffffffff811115610b8957610b886109c0565b5b610b9586828701610b13565b9250506040610ba6868287016109e6565b9150509250925092565b600060208284031215610bc657610bc56109bb565b5b6000610bd4848285016109e6565b91505092915050565b60008115159050919050565b610bf281610bdd565b82525050565b6000602082019050610c0d6000830184610be9565b92915050565b600073ffffffffffffffffffffffffffffffffffffffff82169050919050565b6000610c3e82610c13565b9050919050565b610c4e81610c33565b8114610c5957600080fd5b50565b600081359050610c6b81610c45565b92915050565b60008060408385031215610c8857610c876109bb565b5b600083013567ffffffffffffffff811115610ca657610ca56109c0565b5b610cb285828601610b13565b9250506020610cc385828601610c5c565b9150509250929050565b600067ffffffffffffffff821115610ce857610ce7610a16565b5b602082029050602081019050919050565b600080fd5b6000610d11610d0c84610ccd565b610a76565b90508083825260208201905060208402830185811115610d3457610d33610cf9565b5b835b81811015610d5d5780610d4988826109e6565b845260208401935050602081019050610d36565b5050509392505050565b600082601f830112610d7c57610d7b6109fb565b5b8135610d8c848260208601610cfe565b91505092915050565b60008060408385031215610dac57610dab6109bb565b5b600083013567ffffffffffffffff811115610dca57610dc96109c0565b5b610dd685828601610d67565b9250506020610de7858286016109e6565b9150509250929050565b600081519050919050565b600081905092915050565b60005b83811015610e25578082015181840152602081019050610e0a565b60008484015250505050565b6000610e3c82610df1565b610e468185610dfc565b9350610e56818560208601610e07565b80840191505092915050565b6000610e6e8284610e31565b915081905092915050565b610e82816109c5565b82525050565b6000602082019050610e9d6000830184610e79565b92915050565b6000610eb6610eb184610a91565b610a76565b905082815260208101848484011115610ed257610ed1610a00565b5b610edd848285610e07565b509392505050565b600082601f830112610efa57610ef96109fb565b5b8151610f0a848260208601610ea3565b91505092915050565b600060208284031215610f2957610f286109bb565b5b600082015167ffffffffffffffff811115610f4757610f466109c0565b5b610f5384828501610ee5565b91505092915050565b600081519050610f6b816109cf565b92915050565b600060208284031215610f8757610f866109bb565b5b6000610f9584828501610f5c565b91505092915050565b610fa781610c33565b82525050565b6000606082019050610fc26000830186610f9e565b610fcf6020830185610f9e565b610fdc6040830184610e79565b949350505050565b610fed81610bdd565b8114610ff857600080fd5b50565b60008151905061100a81610fe4565b92915050565b600060208284031215611026576110256109bb565b5b600061103484828501610ffb565b91505092915050565b60006040820190506110526000830185610f9e565b61105f6020830184610e79565b9392505050565b7f4e487b7100000000000000000000000000000000000000000000000000000000600052603260045260246000fd5b7f4e487b7100000000000000000000000000000000000000000000000000000000600052601160045260246000fd5b60006110cf826109c5565b91506110da836109c5565b92508282019050808211156110f2576110f1611095565b5b92915050565b6000611103826109c5565b91507fffffffffffffffffffffffffffffffffffffffffffffffffffffffffffffffff820361113557611134611095565b5b600182019050919050565b6000819050919050565b6000819050919050565b600061116f61116a61116584611140565b61114a565b6109c5565b9050919050565b61117f81611154565b82525050565b600081519050919050565b600082825260208201905092915050565b60006111ac82611185565b6111b68185611190565b93506111c6818560208601610e07565b6111cf81610a05565b840191505092915050565b600060a0820190506111ef6000830188610f9e565b6111fc6020830187610f9e565b6112096040830186610e79565b6112166060830185611176565b818103608083015261122881846111a1565b9050969550505050505056fea2646970667358221220480b30ab80b7feb991bc27e8f6336addd0e38c0fa56d7527b69d6df3105f474a64736f6c63430008100033",
			"opcodes": "PUSH1 0x80 PUSH1 0x40 MSTORE CALLVALUE DUP1 ISZERO PUSH2 0x10 JUMPI PUSH1 0x0 DUP1 REVERT JUMPDEST POP CALLER PUSH1 0x0 DUP1 PUSH2 0x100 EXP DUP2 SLOAD DUP2 PUSH20 0xFFFFFFFFFFFFFFFFFFFFFFFFFFFFFFFFFFFFFFFF MUL NOT AND SWAP1 DUP4 PUSH20 0xFFFFFFFFFFFFFFFFFFFFFFFFFFFFFFFFFFFFFFFF AND MUL OR SWAP1 SSTORE POP PUSH2 0x126A DUP1 PUSH2 0x60 PUSH1 0x0 CODECOPY PUSH1 0x0 RETURN INVALID PUSH1 0x80 PUSH1 0x40 MSTORE CALLVALUE DUP1 ISZERO PUSH2 0x10 JUMPI PUSH1 0x0 DUP1 REVERT JUMPDEST POP PUSH1 0x4 CALLDATASIZE LT PUSH2 0x4C JUMPI PUSH1 0x0 CALLDATALOAD PUSH1 0xE0 SHR DUP1 PUSH4 0x35CC6C5B EQ PUSH2 0x51 JUMPI DUP1 PUSH4 0xB6ED33F1 EQ PUSH2 0x6D JUMPI DUP1 PUSH4 0xC4F7FF04 EQ PUSH2 0x9D JUMPI DUP1 PUSH4 0xD6CC0C08 EQ PUSH2 0xB9 JUMPI JUMPDEST PUSH1 0x0 DUP1 REVERT JUMPDEST PUSH2 0x6B PUSH1 0x4 DUP1 CALLDATASIZE SUB DUP2 ADD SWAP1 PUSH2 0x66 SWAP2 SWAP1 PUSH2 0xB41 JUMP JUMPDEST PUSH2 0xD5 JUMP JUMPDEST STOP JUMPDEST PUSH2 0x87 PUSH1 0x4 DUP1 CALLDATASIZE SUB DUP2 ADD SWAP1 PUSH2 0x82 SWAP2 SWAP1 PUSH2 0xBB0 JUMP JUMPDEST PUSH2 0x3B6 JUMP JUMPDEST PUSH1 0x40 MLOAD PUSH2 0x94 SWAP2 SWAP1 PUSH2 0xBF8 JUMP JUMPDEST PUSH1 0x40 MLOAD DUP1 SWAP2 SUB SWAP1 RETURN JUMPDEST PUSH2 0xB7 PUSH1 0x4 DUP1 CALLDATASIZE SUB DUP2 ADD SWAP1 PUSH2 0xB2 SWAP2 SWAP1 PUSH2 0xC71 JUMP JUMPDEST PUSH2 0x47D JUMP JUMPDEST STOP JUMPDEST PUSH2 0xD3 PUSH1 0x4 DUP1 CALLDATASIZE SUB DUP2 ADD SWAP1 PUSH2 0xCE SWAP2 SWAP1 PUSH2 0xD95 JUMP JUMPDEST PUSH2 0x536 JUMP JUMPDEST STOP JUMPDEST PUSH1 0x0 ISZERO ISZERO PUSH1 0x2 DUP4 PUSH1 0x40 MLOAD PUSH2 0xE9 SWAP2 SWAP1 PUSH2 0xE62 JUMP JUMPDEST SWAP1 DUP2 MSTORE PUSH1 0x20 ADD PUSH1 0x40 MLOAD DUP1 SWAP2 SUB SWAP1 KECCAK256 PUSH1 0x0 SWAP1 SLOAD SWAP1 PUSH2 0x100 EXP SWAP1 DIV PUSH1 0xFF AND ISZERO ISZERO EQ PUSH2 0x111 JUMPI PUSH1 0x0 DUP1 REVERT JUMPDEST PUSH1 0x3 DUP3 PUSH1 0x40 MLOAD PUSH2 0x121 SWAP2 SWAP1 PUSH2 0xE62 JUMP JUMPDEST SWAP1 DUP2 MSTORE PUSH1 0x20 ADD PUSH1 0x40 MLOAD DUP1 SWAP2 SUB SWAP1 KECCAK256 PUSH1 0x0 SWAP1 SLOAD SWAP1 PUSH2 0x100 EXP SWAP1 DIV PUSH20 0xFFFFFFFFFFFFFFFFFFFFFFFFFFFFFFFFFFFFFFFF AND PUSH20 0xFFFFFFFFFFFFFFFFFFFFFFFFFFFFFFFFFFFFFFFF AND CALLER PUSH20 0xFFFFFFFFFFFFFFFFFFFFFFFFFFFFFFFFFFFFFFFF AND EQ PUSH2 0x187 JUMPI PUSH1 0x0 DUP1 REVERT JUMPDEST PUSH2 0x223 PUSH20 0x822F17A9A5EECFD66DBAFF7946A8071C265D1D07 PUSH20 0xFFFFFFFFFFFFFFFFFFFFFFFFFFFFFFFFFFFFFFFF AND PUSH4 0xE89341C DUP6 PUSH1 0x40 MLOAD DUP3 PUSH4 0xFFFFFFFF AND PUSH1 0xE0 SHL DUP2 MSTORE PUSH1 0x4 ADD PUSH2 0x1D7 SWAP2 SWAP1 PUSH2 0xE88 JUMP JUMPDEST PUSH1 0x0 PUSH1 0x40 MLOAD DUP1 DUP4 SUB DUP2 DUP7 GAS STATICCALL ISZERO DUP1 ISZERO PUSH2 0x1F4 JUMPI RETURNDATASIZE PUSH1 0x0 DUP1 RETURNDATACOPY RETURNDATASIZE PUSH1 0x0 REVERT JUMPDEST POP POP POP POP PUSH1 0x40 MLOAD RETURNDATASIZE PUSH1 0x0 DUP3 RETURNDATACOPY RETURNDATASIZE PUSH1 0x1F NOT PUSH1 0x1F DUP3 ADD AND DUP3 ADD DUP1 PUSH1 0x40 MSTORE POP DUP2 ADD SWAP1 PUSH2 0x21D SWAP2 SWAP1 PUSH2 0xF13 JUMP JUMPDEST DUP4 PUSH2 0x6DC JUMP JUMPDEST PUSH2 0x22C JUMPI PUSH1 0x0 DUP1 REVERT JUMPDEST DUP1 PUSH20 0x822F17A9A5EECFD66DBAFF7946A8071C265D1D07 PUSH20 0xFFFFFFFFFFFFFFFFFFFFFFFFFFFFFFFFFFFFFFFF AND PUSH4 0x99F771A7 DUP6 PUSH1 0x40 MLOAD DUP3 PUSH4 0xFFFFFFFF AND PUSH1 0xE0 SHL DUP2 MSTORE PUSH1 0x4 ADD PUSH2 0x27A SWAP2 SWAP1 PUSH2 0xE88 JUMP JUMPDEST PUSH1 0x20 PUSH1 0x40 MLOAD DUP1 DUP4 SUB DUP2 DUP7 GAS STATICCALL ISZERO DUP1 ISZERO PUSH2 0x297 JUMPI RETURNDATASIZE PUSH1 0x0 DUP1 RETURNDATACOPY RETURNDATASIZE PUSH1 0x0 REVERT JUMPDEST POP POP POP POP PUSH1 0x40 MLOAD RETURNDATASIZE PUSH1 0x1F NOT PUSH1 0x1F DUP3 ADD AND DUP3 ADD DUP1 PUSH1 0x40 MSTORE POP DUP2 ADD SWAP1 PUSH2 0x2BB SWAP2 SWAP1 PUSH2 0xF71 JUMP JUMPDEST EQ PUSH2 0x2C5 JUMPI PUSH1 0x0 DUP1 REVERT JUMPDEST PUSH1 0x1 PUSH1 0x2 DUP4 PUSH1 0x40 MLOAD PUSH2 0x2D7 SWAP2 SWAP1 PUSH2 0xE62 JUMP JUMPDEST SWAP1 DUP2 MSTORE PUSH1 0x20 ADD PUSH1 0x40 MLOAD DUP1 SWAP2 SUB SWAP1 KECCAK256 PUSH1 0x0 PUSH2 0x100 EXP DUP2 SLOAD DUP2 PUSH1 0xFF MUL NOT AND SWAP1 DUP4 ISZERO ISZERO MUL OR SWAP1 SSTORE POP PUSH20 0xE492DF5F551C8889ADC1312793AB815E3F773717 PUSH20 0xFFFFFFFFFFFFFFFFFFFFFFFFFFFFFFFFFFFFFFFF AND PUSH4 0x23B872DD PUSH1 0x0 DUP1 SLOAD SWAP1 PUSH2 0x100 EXP SWAP1 DIV PUSH20 0xFFFFFFFFFFFFFFFFFFFFFFFFFFFFFFFFFFFFFFFF AND CALLER DUP5 PUSH1 0x40 MLOAD DUP5 PUSH4 0xFFFFFFFF AND PUSH1 0xE0 SHL DUP2 MSTORE PUSH1 0x4 ADD PUSH2 0x36D SWAP4 SWAP3 SWAP2 SWAP1 PUSH2 0xFAD JUMP JUMPDEST PUSH1 0x20 PUSH1 0x40 MLOAD DUP1 DUP4 SUB DUP2 PUSH1 0x0 DUP8 GAS CALL ISZERO DUP1 ISZERO PUSH2 0x38C JUMPI RETURNDATASIZE PUSH1 0x0 DUP1 RETURNDATACOPY RETURNDATASIZE PUSH1 0x0 REVERT JUMPDEST POP POP POP POP PUSH1 0x40 MLOAD RETURNDATASIZE PUSH1 0x1F NOT PUSH1 0x1F DUP3 ADD AND DUP3 ADD DUP1 PUSH1 0x40 MSTORE POP DUP2 ADD SWAP1 PUSH2 0x3B0 SWAP2 SWAP1 PUSH2 0x1010 JUMP JUMPDEST POP POP POP POP JUMP JUMPDEST PUSH1 0x0 PUSH1 0x2 PUSH20 0x822F17A9A5EECFD66DBAFF7946A8071C265D1D07 PUSH20 0xFFFFFFFFFFFFFFFFFFFFFFFFFFFFFFFFFFFFFFFF AND PUSH4 0xE89341C DUP5 PUSH1 0x40 MLOAD DUP3 PUSH4 0xFFFFFFFF AND PUSH1 0xE0 SHL DUP2 MSTORE PUSH1 0x4 ADD PUSH2 0x407 SWAP2 SWAP1 PUSH2 0xE88 JUMP JUMPDEST PUSH1 0x0 PUSH1 0x40 MLOAD DUP1 DUP4 SUB DUP2 DUP7 GAS STATICCALL ISZERO DUP1 ISZERO PUSH2 0x424 JUMPI RETURNDATASIZE PUSH1 0x0 DUP1 RETURNDATACOPY RETURNDATASIZE PUSH1 0x0 REVERT JUMPDEST POP POP POP POP PUSH1 0x40 MLOAD RETURNDATASIZE PUSH1 0x0 DUP3 RETURNDATACOPY RETURNDATASIZE PUSH1 0x1F NOT PUSH1 0x1F DUP3 ADD AND DUP3 ADD DUP1 PUSH1 0x40 MSTORE POP DUP2 ADD SWAP1 PUSH2 0x44D SWAP2 SWAP1 PUSH2 0xF13 JUMP JUMPDEST PUSH1 0x40 MLOAD PUSH2 0x45A SWAP2 SWAP1 PUSH2 0xE62 JUMP JUMPDEST SWAP1 DUP2 MSTORE PUSH1 0x20 ADD PUSH1 0x40 MLOAD DUP1 SWAP2 SUB SWAP1 KECCAK256 PUSH1 0x0 SWAP1 SLOAD SWAP1 PUSH2 0x100 EXP SWAP1 DIV PUSH1 0xFF AND SWAP1 POP SWAP2 SWAP1 POP JUMP JUMPDEST PUSH1 0x0 DUP1 SLOAD SWAP1 PUSH2 0x100 EXP SWAP1 DIV PUSH20 0xFFFFFFFFFFFFFFFFFFFFFFFFFFFFFFFFFFFFFFFF AND PUSH20 0xFFFFFFFFFFFFFFFFFFFFFFFFFFFFFFFFFFFFFFFF AND CALLER PUSH20 0xFFFFFFFFFFFFFFFFFFFFFFFFFFFFFFFFFFFFFFFF AND EQ PUSH2 0x4D5 JUMPI PUSH1 0x0 DUP1 REVERT JUMPDEST DUP1 PUSH1 0x3 DUP4 PUSH1 0x40 MLOAD PUSH2 0x4E6 SWAP2 SWAP1 PUSH2 0xE62 JUMP JUMPDEST SWAP1 DUP2 MSTORE PUSH1 0x20 ADD PUSH1 0x40 MLOAD DUP1 SWAP2 SUB SWAP1 KECCAK256 PUSH1 0x0 PUSH2 0x100 EXP DUP2 SLOAD DUP2 PUSH20 0xFFFFFFFFFFFFFFFFFFFFFFFFFFFFFFFFFFFFFFFF MUL NOT AND SWAP1 DUP4 PUSH20 0xFFFFFFFFFFFFFFFFFFFFFFFFFFFFFFFFFFFFFFFF AND MUL OR SWAP1 SSTORE POP POP POP JUMP JUMPDEST PUSH2 0x53F DUP3 PUSH2 0x704 JUMP JUMPDEST DUP2 EQ PUSH2 0x54A JUMPI PUSH1 0x0 DUP1 REVERT JUMPDEST PUSH20 0xE492DF5F551C8889ADC1312793AB815E3F773717 PUSH20 0xFFFFFFFFFFFFFFFFFFFFFFFFFFFFFFFFFFFFFFFF AND PUSH4 0x95EA7B3 ADDRESS DUP4 PUSH1 0x40 MLOAD DUP4 PUSH4 0xFFFFFFFF AND PUSH1 0xE0 SHL DUP2 MSTORE PUSH1 0x4 ADD PUSH2 0x599 SWAP3 SWAP2 SWAP1 PUSH2 0x103D JUMP JUMPDEST PUSH1 0x20 PUSH1 0x40 MLOAD DUP1 DUP4 SUB DUP2 PUSH1 0x0 DUP8 GAS CALL ISZERO DUP1 ISZERO PUSH2 0x5B8 JUMPI RETURNDATASIZE PUSH1 0x0 DUP1 RETURNDATACOPY RETURNDATASIZE PUSH1 0x0 REVERT JUMPDEST POP POP POP POP PUSH1 0x40 MLOAD RETURNDATASIZE PUSH1 0x1F NOT PUSH1 0x1F DUP3 ADD AND DUP3 ADD DUP1 PUSH1 0x40 MSTORE POP DUP2 ADD SWAP1 PUSH2 0x5DC SWAP2 SWAP1 PUSH2 0x1010 JUMP JUMPDEST POP PUSH20 0xE492DF5F551C8889ADC1312793AB815E3F773717 PUSH20 0xFFFFFFFFFFFFFFFFFFFFFFFFFFFFFFFFFFFFFFFF AND PUSH4 0x23B872DD CALLER PUSH1 0x0 DUP1 SLOAD SWAP1 PUSH2 0x100 EXP SWAP1 DIV PUSH20 0xFFFFFFFFFFFFFFFFFFFFFFFFFFFFFFFFFFFFFFFF AND DUP5 PUSH1 0x40 MLOAD DUP5 PUSH4 0xFFFFFFFF AND PUSH1 0xE0 SHL DUP2 MSTORE PUSH1 0x4 ADD PUSH2 0x64E SWAP4 SWAP3 SWAP2 SWAP1 PUSH2 0xFAD JUMP JUMPDEST PUSH1 0x20 PUSH1 0x40 MLOAD DUP1 DUP4 SUB DUP2 PUSH1 0x0 DUP8 GAS CALL ISZERO DUP1 ISZERO PUSH2 0x66D JUMPI RETURNDATASIZE PUSH1 0x0 DUP1 RETURNDATACOPY RETURNDATASIZE PUSH1 0x0 REVERT JUMPDEST POP POP POP POP PUSH1 0x40 MLOAD RETURNDATASIZE PUSH1 0x1F NOT PUSH1 0x1F DUP3 ADD AND DUP3 ADD DUP1 PUSH1 0x40 MSTORE POP DUP2 ADD SWAP1 PUSH2 0x691 SWAP2 SWAP1 PUSH2 0x1010 JUMP JUMPDEST POP PUSH1 0x0 PUSH1 0x40 MLOAD DUP1 PUSH1 0x40 ADD PUSH1 0x40 MSTORE DUP1 PUSH1 0x4 DUP2 MSTORE PUSH1 0x20 ADD PUSH32 0x7465737400000000000000000000000000000000000000000000000000000000 DUP2 MSTORE POP SWAP1 POP PUSH2 0x6D7 CALLER DUP5 DUP4 PUSH2 0x7E9 JUMP JUMPDEST POP POP POP JUMP JUMPDEST PUSH1 0x0 DUP2 MLOAD DUP4 MLOAD EQ DUP1 ISZERO PUSH2 0x6FC JUMPI POP DUP2 DUP1 MLOAD SWAP1 PUSH1 0x20 ADD KECCAK256 DUP4 DUP1 MLOAD SWAP1 PUSH1 0x20 ADD KECCAK256 EQ JUMPDEST SWAP1 POP SWAP3 SWAP2 POP POP JUMP JUMPDEST PUSH1 0x0 DUP1 PUSH1 0x0 SWAP1 POP PUSH1 0x0 JUMPDEST DUP4 MLOAD DUP2 LT ISZERO PUSH2 0x7DF JUMPI PUSH20 0x822F17A9A5EECFD66DBAFF7946A8071C265D1D07 PUSH20 0xFFFFFFFFFFFFFFFFFFFFFFFFFFFFFFFFFFFFFFFF AND PUSH4 0x99F771A7 DUP6 DUP4 DUP2 MLOAD DUP2 LT PUSH2 0x75A JUMPI PUSH2 0x759 PUSH2 0x1066 JUMP JUMPDEST JUMPDEST PUSH1 0x20 MUL PUSH1 0x20 ADD ADD MLOAD PUSH1 0x40 MLOAD DUP3 PUSH4 0xFFFFFFFF AND PUSH1 0xE0 SHL DUP2 MSTORE PUSH1 0x4 ADD PUSH2 0x77E SWAP2 SWAP1 PUSH2 0xE88 JUMP JUMPDEST PUSH1 0x20 PUSH1 0x40 MLOAD DUP1 DUP4 SUB DUP2 DUP7 GAS STATICCALL ISZERO DUP1 ISZERO PUSH2 0x79B JUMPI RETURNDATASIZE PUSH1 0x0 DUP1 RETURNDATACOPY RETURNDATASIZE PUSH1 0x0 REVERT JUMPDEST POP POP POP POP PUSH1 0x40 MLOAD RETURNDATASIZE PUSH1 0x1F NOT PUSH1 0x1F DUP3 ADD AND DUP3 ADD DUP1 PUSH1 0x40 MSTORE POP DUP2 ADD SWAP1 PUSH2 0x7BF SWAP2 SWAP1 PUSH2 0xF71 JUMP JUMPDEST DUP3 PUSH2 0x7CA SWAP2 SWAP1 PUSH2 0x10C4 JUMP JUMPDEST SWAP2 POP DUP1 DUP1 PUSH2 0x7D7 SWAP1 PUSH2 0x10F8 JUMP JUMPDEST SWAP2 POP POP PUSH2 0x70E JUMP JUMPDEST POP DUP1 SWAP2 POP POP SWAP2 SWAP1 POP JUMP JUMPDEST PUSH1 0x0 JUMPDEST DUP3 MLOAD DUP2 LT ISZERO PUSH2 0x9AB JUMPI PUSH1 0x2 PUSH20 0x822F17A9A5EECFD66DBAFF7946A8071C265D1D07 PUSH20 0xFFFFFFFFFFFFFFFFFFFFFFFFFFFFFFFFFFFFFFFF AND PUSH4 0xE89341C DUP6 DUP5 DUP2 MLOAD DUP2 LT PUSH2 0x83A JUMPI PUSH2 0x839 PUSH2 0x1066 JUMP JUMPDEST JUMPDEST PUSH1 0x20 MUL PUSH1 0x20 ADD ADD MLOAD PUSH1 0x40 MLOAD DUP3 PUSH4 0xFFFFFFFF AND PUSH1 0xE0 SHL DUP2 MSTORE PUSH1 0x4 ADD PUSH2 0x85E SWAP2 SWAP1 PUSH2 0xE88 JUMP JUMPDEST PUSH1 0x0 PUSH1 0x40 MLOAD DUP1 DUP4 SUB DUP2 DUP7 GAS STATICCALL ISZERO DUP1 ISZERO PUSH2 0x87B JUMPI RETURNDATASIZE PUSH1 0x0 DUP1 RETURNDATACOPY RETURNDATASIZE PUSH1 0x0 REVERT JUMPDEST POP POP POP POP PUSH1 0x40 MLOAD RETURNDATASIZE PUSH1 0x0 DUP3 RETURNDATACOPY RETURNDATASIZE PUSH1 0x1F NOT PUSH1 0x1F DUP3 ADD AND DUP3 ADD DUP1 PUSH1 0x40 MSTORE POP DUP2 ADD SWAP1 PUSH2 0x8A4 SWAP2 SWAP1 PUSH2 0xF13 JUMP JUMPDEST PUSH1 0x40 MLOAD PUSH2 0x8B1 SWAP2 SWAP1 PUSH2 0xE62 JUMP JUMPDEST SWAP1 DUP2 MSTORE PUSH1 0x20 ADD PUSH1 0x40 MLOAD DUP1 SWAP2 SUB SWAP1 KECCAK256 PUSH1 0x0 SWAP1 SLOAD SWAP1 PUSH2 0x100 EXP SWAP1 DIV PUSH1 0xFF AND PUSH2 0x8D6 JUMPI PUSH1 0x0 DUP1 REVERT JUMPDEST PUSH20 0x822F17A9A5EECFD66DBAFF7946A8071C265D1D07 PUSH20 0xFFFFFFFFFFFFFFFFFFFFFFFFFFFFFFFFFFFFFFFF AND PUSH4 0xF242432A PUSH1 0x0 DUP1 SLOAD SWAP1 PUSH2 0x100 EXP SWAP1 DIV PUSH20 0xFFFFFFFFFFFFFFFFFFFFFFFFFFFFFFFFFFFFFFFF AND DUP7 DUP7 DUP6 DUP2 MLOAD DUP2 LT PUSH2 0x93B JUMPI PUSH2 0x93A PUSH2 0x1066 JUMP JUMPDEST JUMPDEST PUSH1 0x20 MUL PUSH1 0x20 ADD ADD MLOAD PUSH1 0x1 DUP8 PUSH1 0x40 MLOAD DUP7 PUSH4 0xFFFFFFFF AND PUSH1 0xE0 SHL DUP2 MSTORE PUSH1 0x4 ADD PUSH2 0x966 SWAP6 SWAP5 SWAP4 SWAP3 SWAP2 SWAP1 PUSH2 0x11DA JUMP JUMPDEST PUSH1 0x0 PUSH1 0x40 MLOAD DUP1 DUP4 SUB DUP2 PUSH1 0x0 DUP8 DUP1 EXTCODESIZE ISZERO DUP1 ISZERO PUSH2 0x980 JUMPI PUSH1 0x0 DUP1 REVERT JUMPDEST POP GAS CALL ISZERO DUP1 ISZERO PUSH2 0x994 JUMPI RETURNDATASIZE PUSH1 0x0 DUP1 RETURNDATACOPY RETURNDATASIZE PUSH1 0x0 REVERT JUMPDEST POP POP POP POP DUP1 DUP1 PUSH2 0x9A3 SWAP1 PUSH2 0x10F8 JUMP JUMPDEST SWAP2 POP POP PUSH2 0x7EC JUMP JUMPDEST POP POP POP POP JUMP JUMPDEST PUSH1 0x0 PUSH1 0x40 MLOAD SWAP1 POP SWAP1 JUMP JUMPDEST PUSH1 0x0 DUP1 REVERT JUMPDEST PUSH1 0x0 DUP1 REVERT JUMPDEST PUSH1 0x0 DUP2 SWAP1 POP SWAP2 SWAP1 POP JUMP JUMPDEST PUSH2 0x9D8 DUP2 PUSH2 0x9C5 JUMP JUMPDEST DUP2 EQ PUSH2 0x9E3 JUMPI PUSH1 0x0 DUP1 REVERT JUMPDEST POP JUMP JUMPDEST PUSH1 0x0 DUP2 CALLDATALOAD SWAP1 POP PUSH2 0x9F5 DUP2 PUSH2 0x9CF JUMP JUMPDEST SWAP3 SWAP2 POP POP JUMP JUMPDEST PUSH1 0x0 DUP1 REVERT JUMPDEST PUSH1 0x0 DUP1 REVERT JUMPDEST PUSH1 0x0 PUSH1 0x1F NOT PUSH1 0x1F DUP4 ADD AND SWAP1 POP SWAP2 SWAP1 POP JUMP JUMPDEST PUSH32 0x4E487B7100000000000000000000000000000000000000000000000000000000 PUSH1 0x0 MSTORE PUSH1 0x41 PUSH1 0x4 MSTORE PUSH1 0x24 PUSH1 0x0 REVERT JUMPDEST PUSH2 0xA4E DUP3 PUSH2 0xA05 JUMP JUMPDEST DUP2 ADD DUP2 DUP2 LT PUSH8 0xFFFFFFFFFFFFFFFF DUP3 GT OR ISZERO PUSH2 0xA6D JUMPI PUSH2 0xA6C PUSH2 0xA16 JUMP JUMPDEST JUMPDEST DUP1 PUSH1 0x40 MSTORE POP POP POP JUMP JUMPDEST PUSH1 0x0 PUSH2 0xA80 PUSH2 0x9B1 JUMP JUMPDEST SWAP1 POP PUSH2 0xA8C DUP3 DUP3 PUSH2 0xA45 JUMP JUMPDEST SWAP2 SWAP1 POP JUMP JUMPDEST PUSH1 0x0 PUSH8 0xFFFFFFFFFFFFFFFF DUP3 GT ISZERO PUSH2 0xAAC JUMPI PUSH2 0xAAB PUSH2 0xA16 JUMP JUMPDEST JUMPDEST PUSH2 0xAB5 DUP3 PUSH2 0xA05 JUMP JUMPDEST SWAP1 POP PUSH1 0x20 DUP2 ADD SWAP1 POP SWAP2 SWAP1 POP JUMP JUMPDEST DUP3 DUP2 DUP4 CALLDATACOPY PUSH1 0x0 DUP4 DUP4 ADD MSTORE POP POP POP JUMP JUMPDEST PUSH1 0x0 PUSH2 0xAE4 PUSH2 0xADF DUP5 PUSH2 0xA91 JUMP JUMPDEST PUSH2 0xA76 JUMP JUMPDEST SWAP1 POP DUP3 DUP2 MSTORE PUSH1 0x20 DUP2 ADD DUP5 DUP5 DUP5 ADD GT ISZERO PUSH2 0xB00 JUMPI PUSH2 0xAFF PUSH2 0xA00 JUMP JUMPDEST JUMPDEST PUSH2 0xB0B DUP5 DUP3 DUP6 PUSH2 0xAC2 JUMP JUMPDEST POP SWAP4 SWAP3 POP POP POP JUMP JUMPDEST PUSH1 0x0 DUP3 PUSH1 0x1F DUP4 ADD SLT PUSH2 0xB28 JUMPI PUSH2 0xB27 PUSH2 0x9FB JUMP JUMPDEST JUMPDEST DUP2 CALLDATALOAD PUSH2 0xB38 DUP5 DUP3 PUSH1 0x20 DUP7 ADD PUSH2 0xAD1 JUMP JUMPDEST SWAP2 POP POP SWAP3 SWAP2 POP POP JUMP JUMPDEST PUSH1 0x0 DUP1 PUSH1 0x0 PUSH1 0x60 DUP5 DUP7 SUB SLT ISZERO PUSH2 0xB5A JUMPI PUSH2 0xB59 PUSH2 0x9BB JUMP JUMPDEST JUMPDEST PUSH1 0x0 PUSH2 0xB68 DUP7 DUP3 DUP8 ADD PUSH2 0x9E6 JUMP JUMPDEST SWAP4 POP POP PUSH1 0x20 DUP5 ADD CALLDATALOAD PUSH8 0xFFFFFFFFFFFFFFFF DUP2 GT ISZERO PUSH2 0xB89 JUMPI PUSH2 0xB88 PUSH2 0x9C0 JUMP JUMPDEST JUMPDEST PUSH2 0xB95 DUP7 DUP3 DUP8 ADD PUSH2 0xB13 JUMP JUMPDEST SWAP3 POP POP PUSH1 0x40 PUSH2 0xBA6 DUP7 DUP3 DUP8 ADD PUSH2 0x9E6 JUMP JUMPDEST SWAP2 POP POP SWAP3 POP SWAP3 POP SWAP3 JUMP JUMPDEST PUSH1 0x0 PUSH1 0x20 DUP3 DUP5 SUB SLT ISZERO PUSH2 0xBC6 JUMPI PUSH2 0xBC5 PUSH2 0x9BB JUMP JUMPDEST JUMPDEST PUSH1 0x0 PUSH2 0xBD4 DUP5 DUP3 DUP6 ADD PUSH2 0x9E6 JUMP JUMPDEST SWAP2 POP POP SWAP3 SWAP2 POP POP JUMP JUMPDEST PUSH1 0x0 DUP2 ISZERO ISZERO SWAP1 POP SWAP2 SWAP1 POP JUMP JUMPDEST PUSH2 0xBF2 DUP2 PUSH2 0xBDD JUMP JUMPDEST DUP3 MSTORE POP POP JUMP JUMPDEST PUSH1 0x0 PUSH1 0x20 DUP3 ADD SWAP1 POP PUSH2 0xC0D PUSH1 0x0 DUP4 ADD DUP5 PUSH2 0xBE9 JUMP JUMPDEST SWAP3 SWAP2 POP POP JUMP JUMPDEST PUSH1 0x0 PUSH20 0xFFFFFFFFFFFFFFFFFFFFFFFFFFFFFFFFFFFFFFFF DUP3 AND SWAP1 POP SWAP2 SWAP1 POP JUMP JUMPDEST PUSH1 0x0 PUSH2 0xC3E DUP3 PUSH2 0xC13 JUMP JUMPDEST SWAP1 POP SWAP2 SWAP1 POP JUMP JUMPDEST PUSH2 0xC4E DUP2 PUSH2 0xC33 JUMP JUMPDEST DUP2 EQ PUSH2 0xC59 JUMPI PUSH1 0x0 DUP1 REVERT JUMPDEST POP JUMP JUMPDEST PUSH1 0x0 DUP2 CALLDATALOAD SWAP1 POP PUSH2 0xC6B DUP2 PUSH2 0xC45 JUMP JUMPDEST SWAP3 SWAP2 POP POP JUMP JUMPDEST PUSH1 0x0 DUP1 PUSH1 0x40 DUP4 DUP6 SUB SLT ISZERO PUSH2 0xC88 JUMPI PUSH2 0xC87 PUSH2 0x9BB JUMP JUMPDEST JUMPDEST PUSH1 0x0 DUP4 ADD CALLDATALOAD PUSH8 0xFFFFFFFFFFFFFFFF DUP2 GT ISZERO PUSH2 0xCA6 JUMPI PUSH2 0xCA5 PUSH2 0x9C0 JUMP JUMPDEST JUMPDEST PUSH2 0xCB2 DUP6 DUP3 DUP7 ADD PUSH2 0xB13 JUMP JUMPDEST SWAP3 POP POP PUSH1 0x20 PUSH2 0xCC3 DUP6 DUP3 DUP7 ADD PUSH2 0xC5C JUMP JUMPDEST SWAP2 POP POP SWAP3 POP SWAP3 SWAP1 POP JUMP JUMPDEST PUSH1 0x0 PUSH8 0xFFFFFFFFFFFFFFFF DUP3 GT ISZERO PUSH2 0xCE8 JUMPI PUSH2 0xCE7 PUSH2 0xA16 JUMP JUMPDEST JUMPDEST PUSH1 0x20 DUP3 MUL SWAP1 POP PUSH1 0x20 DUP2 ADD SWAP1 POP SWAP2 SWAP1 POP JUMP JUMPDEST PUSH1 0x0 DUP1 REVERT JUMPDEST PUSH1 0x0 PUSH2 0xD11 PUSH2 0xD0C DUP5 PUSH2 0xCCD JUMP JUMPDEST PUSH2 0xA76 JUMP JUMPDEST SWAP1 POP DUP1 DUP4 DUP3 MSTORE PUSH1 0x20 DUP3 ADD SWAP1 POP PUSH1 0x20 DUP5 MUL DUP4 ADD DUP6 DUP2 GT ISZERO PUSH2 0xD34 JUMPI PUSH2 0xD33 PUSH2 0xCF9 JUMP JUMPDEST JUMPDEST DUP4 JUMPDEST DUP2 DUP2 LT ISZERO PUSH2 0xD5D JUMPI DUP1 PUSH2 0xD49 DUP9 DUP3 PUSH2 0x9E6 JUMP JUMPDEST DUP5 MSTORE PUSH1 0x20 DUP5 ADD SWAP4 POP POP PUSH1 0x20 DUP2 ADD SWAP1 POP PUSH2 0xD36 JUMP JUMPDEST POP POP POP SWAP4 SWAP3 POP POP POP JUMP JUMPDEST PUSH1 0x0 DUP3 PUSH1 0x1F DUP4 ADD SLT PUSH2 0xD7C JUMPI PUSH2 0xD7B PUSH2 0x9FB JUMP JUMPDEST JUMPDEST DUP2 CALLDATALOAD PUSH2 0xD8C DUP5 DUP3 PUSH1 0x20 DUP7 ADD PUSH2 0xCFE JUMP JUMPDEST SWAP2 POP POP SWAP3 SWAP2 POP POP JUMP JUMPDEST PUSH1 0x0 DUP1 PUSH1 0x40 DUP4 DUP6 SUB SLT ISZERO PUSH2 0xDAC JUMPI PUSH2 0xDAB PUSH2 0x9BB JUMP JUMPDEST JUMPDEST PUSH1 0x0 DUP4 ADD CALLDATALOAD PUSH8 0xFFFFFFFFFFFFFFFF DUP2 GT ISZERO PUSH2 0xDCA JUMPI PUSH2 0xDC9 PUSH2 0x9C0 JUMP JUMPDEST JUMPDEST PUSH2 0xDD6 DUP6 DUP3 DUP7 ADD PUSH2 0xD67 JUMP JUMPDEST SWAP3 POP POP PUSH1 0x20 PUSH2 0xDE7 DUP6 DUP3 DUP7 ADD PUSH2 0x9E6 JUMP JUMPDEST SWAP2 POP POP SWAP3 POP SWAP3 SWAP1 POP JUMP JUMPDEST PUSH1 0x0 DUP2 MLOAD SWAP1 POP SWAP2 SWAP1 POP JUMP JUMPDEST PUSH1 0x0 DUP2 SWAP1 POP SWAP3 SWAP2 POP POP JUMP JUMPDEST PUSH1 0x0 JUMPDEST DUP4 DUP2 LT ISZERO PUSH2 0xE25 JUMPI DUP1 DUP3 ADD MLOAD DUP2 DUP5 ADD MSTORE PUSH1 0x20 DUP2 ADD SWAP1 POP PUSH2 0xE0A JUMP JUMPDEST PUSH1 0x0 DUP5 DUP5 ADD MSTORE POP POP POP POP JUMP JUMPDEST PUSH1 0x0 PUSH2 0xE3C DUP3 PUSH2 0xDF1 JUMP JUMPDEST PUSH2 0xE46 DUP2 DUP6 PUSH2 0xDFC JUMP JUMPDEST SWAP4 POP PUSH2 0xE56 DUP2 DUP6 PUSH1 0x20 DUP7 ADD PUSH2 0xE07 JUMP JUMPDEST DUP1 DUP5 ADD SWAP2 POP POP SWAP3 SWAP2 POP POP JUMP JUMPDEST PUSH1 0x0 PUSH2 0xE6E DUP3 DUP5 PUSH2 0xE31 JUMP JUMPDEST SWAP2 POP DUP2 SWAP1 POP SWAP3 SWAP2 POP POP JUMP JUMPDEST PUSH2 0xE82 DUP2 PUSH2 0x9C5 JUMP JUMPDEST DUP3 MSTORE POP POP JUMP JUMPDEST PUSH1 0x0 PUSH1 0x20 DUP3 ADD SWAP1 POP PUSH2 0xE9D PUSH1 0x0 DUP4 ADD DUP5 PUSH2 0xE79 JUMP JUMPDEST SWAP3 SWAP2 POP POP JUMP JUMPDEST PUSH1 0x0 PUSH2 0xEB6 PUSH2 0xEB1 DUP5 PUSH2 0xA91 JUMP JUMPDEST PUSH2 0xA76 JUMP JUMPDEST SWAP1 POP DUP3 DUP2 MSTORE PUSH1 0x20 DUP2 ADD DUP5 DUP5 DUP5 ADD GT ISZERO PUSH2 0xED2 JUMPI PUSH2 0xED1 PUSH2 0xA00 JUMP JUMPDEST JUMPDEST PUSH2 0xEDD DUP5 DUP3 DUP6 PUSH2 0xE07 JUMP JUMPDEST POP SWAP4 SWAP3 POP POP POP JUMP JUMPDEST PUSH1 0x0 DUP3 PUSH1 0x1F DUP4 ADD SLT PUSH2 0xEFA JUMPI PUSH2 0xEF9 PUSH2 0x9FB JUMP JUMPDEST JUMPDEST DUP2 MLOAD PUSH2 0xF0A DUP5 DUP3 PUSH1 0x20 DUP7 ADD PUSH2 0xEA3 JUMP JUMPDEST SWAP2 POP POP SWAP3 SWAP2 POP POP JUMP JUMPDEST PUSH1 0x0 PUSH1 0x20 DUP3 DUP5 SUB SLT ISZERO PUSH2 0xF29 JUMPI PUSH2 0xF28 PUSH2 0x9BB JUMP JUMPDEST JUMPDEST PUSH1 0x0 DUP3 ADD MLOAD PUSH8 0xFFFFFFFFFFFFFFFF DUP2 GT ISZERO PUSH2 0xF47 JUMPI PUSH2 0xF46 PUSH2 0x9C0 JUMP JUMPDEST JUMPDEST PUSH2 0xF53 DUP5 DUP3 DUP6 ADD PUSH2 0xEE5 JUMP JUMPDEST SWAP2 POP POP SWAP3 SWAP2 POP POP JUMP JUMPDEST PUSH1 0x0 DUP2 MLOAD SWAP1 POP PUSH2 0xF6B DUP2 PUSH2 0x9CF JUMP JUMPDEST SWAP3 SWAP2 POP POP JUMP JUMPDEST PUSH1 0x0 PUSH1 0x20 DUP3 DUP5 SUB SLT ISZERO PUSH2 0xF87 JUMPI PUSH2 0xF86 PUSH2 0x9BB JUMP JUMPDEST JUMPDEST PUSH1 0x0 PUSH2 0xF95 DUP5 DUP3 DUP6 ADD PUSH2 0xF5C JUMP JUMPDEST SWAP2 POP POP SWAP3 SWAP2 POP POP JUMP JUMPDEST PUSH2 0xFA7 DUP2 PUSH2 0xC33 JUMP JUMPDEST DUP3 MSTORE POP POP JUMP JUMPDEST PUSH1 0x0 PUSH1 0x60 DUP3 ADD SWAP1 POP PUSH2 0xFC2 PUSH1 0x0 DUP4 ADD DUP7 PUSH2 0xF9E JUMP JUMPDEST PUSH2 0xFCF PUSH1 0x20 DUP4 ADD DUP6 PUSH2 0xF9E JUMP JUMPDEST PUSH2 0xFDC PUSH1 0x40 DUP4 ADD DUP5 PUSH2 0xE79 JUMP JUMPDEST SWAP5 SWAP4 POP POP POP POP JUMP JUMPDEST PUSH2 0xFED DUP2 PUSH2 0xBDD JUMP JUMPDEST DUP2 EQ PUSH2 0xFF8 JUMPI PUSH1 0x0 DUP1 REVERT JUMPDEST POP JUMP JUMPDEST PUSH1 0x0 DUP2 MLOAD SWAP1 POP PUSH2 0x100A DUP2 PUSH2 0xFE4 JUMP JUMPDEST SWAP3 SWAP2 POP POP JUMP JUMPDEST PUSH1 0x0 PUSH1 0x20 DUP3 DUP5 SUB SLT ISZERO PUSH2 0x1026 JUMPI PUSH2 0x1025 PUSH2 0x9BB JUMP JUMPDEST JUMPDEST PUSH1 0x0 PUSH2 0x1034 DUP5 DUP3 DUP6 ADD PUSH2 0xFFB JUMP JUMPDEST SWAP2 POP POP SWAP3 SWAP2 POP POP JUMP JUMPDEST PUSH1 0x0 PUSH1 0x40 DUP3 ADD SWAP1 POP PUSH2 0x1052 PUSH1 0x0 DUP4 ADD DUP6 PUSH2 0xF9E JUMP JUMPDEST PUSH2 0x105F PUSH1 0x20 DUP4 ADD DUP5 PUSH2 0xE79 JUMP JUMPDEST SWAP4 SWAP3 POP POP POP JUMP JUMPDEST PUSH32 0x4E487B7100000000000000000000000000000000000000000000000000000000 PUSH1 0x0 MSTORE PUSH1 0x32 PUSH1 0x4 MSTORE PUSH1 0x24 PUSH1 0x0 REVERT JUMPDEST PUSH32 0x4E487B7100000000000000000000000000000000000000000000000000000000 PUSH1 0x0 MSTORE PUSH1 0x11 PUSH1 0x4 MSTORE PUSH1 0x24 PUSH1 0x0 REVERT JUMPDEST PUSH1 0x0 PUSH2 0x10CF DUP3 PUSH2 0x9C5 JUMP JUMPDEST SWAP2 POP PUSH2 0x10DA DUP4 PUSH2 0x9C5 JUMP JUMPDEST SWAP3 POP DUP3 DUP3 ADD SWAP1 POP DUP1 DUP3 GT ISZERO PUSH2 0x10F2 JUMPI PUSH2 0x10F1 PUSH2 0x1095 JUMP JUMPDEST JUMPDEST SWAP3 SWAP2 POP POP JUMP JUMPDEST PUSH1 0x0 PUSH2 0x1103 DUP3 PUSH2 0x9C5 JUMP JUMPDEST SWAP2 POP PUSH32 0xFFFFFFFFFFFFFFFFFFFFFFFFFFFFFFFFFFFFFFFFFFFFFFFFFFFFFFFFFFFFFFFF DUP3 SUB PUSH2 0x1135 JUMPI PUSH2 0x1134 PUSH2 0x1095 JUMP JUMPDEST JUMPDEST PUSH1 0x1 DUP3 ADD SWAP1 POP SWAP2 SWAP1 POP JUMP JUMPDEST PUSH1 0x0 DUP2 SWAP1 POP SWAP2 SWAP1 POP JUMP JUMPDEST PUSH1 0x0 DUP2 SWAP1 POP SWAP2 SWAP1 POP JUMP JUMPDEST PUSH1 0x0 PUSH2 0x116F PUSH2 0x116A PUSH2 0x1165 DUP5 PUSH2 0x1140 JUMP JUMPDEST PUSH2 0x114A JUMP JUMPDEST PUSH2 0x9C5 JUMP JUMPDEST SWAP1 POP SWAP2 SWAP1 POP JUMP JUMPDEST PUSH2 0x117F DUP2 PUSH2 0x1154 JUMP JUMPDEST DUP3 MSTORE POP POP JUMP JUMPDEST PUSH1 0x0 DUP2 MLOAD SWAP1 POP SWAP2 SWAP1 POP JUMP JUMPDEST PUSH1 0x0 DUP3 DUP3 MSTORE PUSH1 0x20 DUP3 ADD SWAP1 POP SWAP3 SWAP2 POP POP JUMP JUMPDEST PUSH1 0x0 PUSH2 0x11AC DUP3 PUSH2 0x1185 JUMP JUMPDEST PUSH2 0x11B6 DUP2 DUP6 PUSH2 0x1190 JUMP JUMPDEST SWAP4 POP PUSH2 0x11C6 DUP2 DUP6 PUSH1 0x20 DUP7 ADD PUSH2 0xE07 JUMP JUMPDEST PUSH2 0x11CF DUP2 PUSH2 0xA05 JUMP JUMPDEST DUP5 ADD SWAP2 POP POP SWAP3 SWAP2 POP POP JUMP JUMPDEST PUSH1 0x0 PUSH1 0xA0 DUP3 ADD SWAP1 POP PUSH2 0x11EF PUSH1 0x0 DUP4 ADD DUP9 PUSH2 0xF9E JUMP JUMPDEST PUSH2 0x11FC PUSH1 0x20 DUP4 ADD DUP8 PUSH2 0xF9E JUMP JUMPDEST PUSH2 0x1209 PUSH1 0x40 DUP4 ADD DUP7 PUSH2 0xE79 JUMP JUMPDEST PUSH2 0x1216 PUSH1 0x60 DUP4 ADD DUP6 PUSH2 0x1176 JUMP JUMPDEST DUP2 DUP2 SUB PUSH1 0x80 DUP4 ADD MSTORE PUSH2 0x1228 DUP2 DUP5 PUSH2 0x11A1 JUMP JUMPDEST SWAP1 POP SWAP7 SWAP6 POP POP POP POP POP POP JUMP INVALID LOG2 PUSH5 0x6970667358 0x22 SLT KECCAK256 BASEFEE SIGNEXTEND ADDRESS 0xAB DUP1 0xB7 INVALID 0xB9 SWAP2 0xBC 0x27 0xE8 0xF6 CALLER PUSH11 0xDDD0E38C0FA56D7527B69D PUSH14 0xF3105F474A64736F6C6343000810 STOP CALLER "
		},
		"gasEstimates": {
			"creation": {
				"codeDepositCost": "942800",
				"executionCost": "25247",
				"totalCost": "968047"
			},
			"external": {
				"buy(uint256[],uint256)": "infinite",
				"set_contributer(string,address)": "infinite",
				"token_is_verified(uint256)": "infinite",
				"verify(uint256,string,uint256)": "infinite"
			},
			"internal": {
				"_total_balance(uint256[] memory)": "infinite",
				"_transfer(address,uint256[] memory,bytes memory)": "infinite"
			}
		},
		"methodIdentifiers": {
			"buy(uint256[],uint256)": "d6cc0c08",
			"set_contributer(string,address)": "c4f7ff04",
			"token_is_verified(uint256)": "b6ed33f1",
			"verify(uint256,string,uint256)": "35cc6c5b"
		}
	},
	"abi": [
		{
			"inputs": [],
			"stateMutability": "nonpayable",
			"type": "constructor"
		},
		{
			"inputs": [
				{
					"internalType": "uint256[]",
					"name": "tokenID",
					"type": "uint256[]"
				},
				{
					"internalType": "uint256",
					"name": "amount",
					"type": "uint256"
				}
			],
			"name": "buy",
			"outputs": [],
			"stateMutability": "nonpayable",
			"type": "function"
		},
		{
			"inputs": [
				{
					"internalType": "string",
					"name": "uri",
					"type": "string"
				},
				{
					"internalType": "address",
					"name": "contributor",
					"type": "address"
				}
			],
			"name": "set_contributer",
			"outputs": [],
			"stateMutability": "nonpayable",
			"type": "function"
		},
		{
			"inputs": [
				{
					"internalType": "uint256",
					"name": "tokenID",
					"type": "uint256"
				}
			],
			"name": "token_is_verified",
			"outputs": [
				{
					"internalType": "bool",
					"name": "",
					"type": "bool"
				}
			],
			"stateMutability": "view",
			"type": "function"
		},
		{
			"inputs": [
				{
					"internalType": "uint256",
					"name": "tokenID",
					"type": "uint256"
				},
				{
					"internalType": "string",
					"name": "cid",
					"type": "string"
				},
				{
					"internalType": "uint256",
					"name": "amount",
					"type": "uint256"
				}
			],
			"name": "verify",
			"outputs": [],
			"stateMutability": "nonpayable",
			"type": "function"
		}
	]
}