{
	"HypercertMinter/src/AllowlistMinter.sol": {
		"AllowlistMinter": {
			"abi": [
				{
					"inputs": [],
					"name": "DoesNotExist",
					"type": "error"
				},
				{
					"anonymous": false,
					"inputs": [
						{
							"indexed": false,
							"internalType": "uint256",
							"name": "tokenID",
							"type": "uint256"
						},
						{
							"indexed": false,
							"internalType": "bytes32",
							"name": "root",
							"type": "bytes32"
						}
					],
					"name": "AllowlistCreated",
					"type": "event"
				},
				{
					"anonymous": false,
					"inputs": [
						{
							"indexed": false,
							"internalType": "uint256",
							"name": "tokenID",
							"type": "uint256"
						},
						{
							"indexed": false,
							"internalType": "bytes32",
							"name": "leaf",
							"type": "bytes32"
						}
					],
					"name": "LeafClaimed",
					"type": "event"
				},
				{
					"inputs": [
						{
							"internalType": "uint256",
							"name": "",
							"type": "uint256"
						},
						{
							"internalType": "bytes32",
							"name": "",
							"type": "bytes32"
						}
					],
					"name": "hasBeenClaimed",
					"outputs": [
						{
							"internalType": "bool",
							"name": "",
							"type": "bool"
						}
					],
					"stateMutability": "view",
					"type": "function"
				},
				{
					"inputs": [
						{
							"internalType": "bytes32[]",
							"name": "proof",
							"type": "bytes32[]"
						},
						{
							"internalType": "uint256",
							"name": "claimID",
							"type": "uint256"
						},
						{
							"internalType": "bytes32",
							"name": "leaf",
							"type": "bytes32"
						}
					],
					"name": "isAllowedToClaim",
					"outputs": [
						{
							"internalType": "bool",
							"name": "isAllowed",
							"type": "bool"
						}
					],
					"stateMutability": "view",
					"type": "function"
				}
			],
			"devdoc": {
				"author": "bitbeckers",
				"kind": "dev",
				"methods": {},
				"stateVariables": {
					"__gap": {
						"details": "This empty reserved space is put in place to allow future versions to add new variables without shifting down storage in the inheritance chain. See https://docs.openzeppelin.com/contracts/4.x/upgradeable#storage_gaps Assuming 30 available slots (slots cost space, cost gas) 1. merkleRoots 2. hasBeenClaimed 3. maxUnits 4. minted"
					}
				},
				"title": "Interface for hypercert token interactions",
				"version": 1
			},
			"evm": {
				"assembly": "    /* \"HypercertMinter/src/AllowlistMinter.sol\":551:2865  contract AllowlistMinter is IAllowlist {... */\n  mstore(0x40, 0x80)\n  callvalue\n  dup1\n  iszero\n  tag_1\n  jumpi\n  0x00\n  dup1\n  revert\ntag_1:\n  pop\n  dataSize(sub_0)\n  dup1\n  dataOffset(sub_0)\n  0x00\n  codecopy\n  0x00\n  return\nstop\n\nsub_0: assembly {\n        /* \"HypercertMinter/src/AllowlistMinter.sol\":551:2865  contract AllowlistMinter is IAllowlist {... */\n      mstore(0x40, 0x80)\n      callvalue\n      dup1\n      iszero\n      tag_1\n      jumpi\n      0x00\n      dup1\n      revert\n    tag_1:\n      pop\n      jumpi(tag_2, lt(calldatasize, 0x04))\n      shr(0xe0, calldataload(0x00))\n      dup1\n      0x3e11eefe\n      eq\n      tag_3\n      jumpi\n      dup1\n      0xa21ed980\n      eq\n      tag_4\n      jumpi\n    tag_2:\n      0x00\n      dup1\n      revert\n        /* \"HypercertMinter/src/AllowlistMinter.sol\":937:1266  function isAllowedToClaim(... */\n    tag_3:\n      tag_5\n      0x04\n      dup1\n      calldatasize\n      sub\n      dup2\n      add\n      swap1\n      tag_6\n      swap2\n      swap1\n      tag_7\n      jump\t// in\n    tag_6:\n      tag_8\n      jump\t// in\n    tag_5:\n      mload(0x40)\n      tag_9\n      swap2\n      swap1\n      tag_10\n      jump\t// in\n    tag_9:\n      mload(0x40)\n      dup1\n      swap2\n      sub\n      swap1\n      return\n        /* \"HypercertMinter/src/AllowlistMinter.sol\":764:830  mapping(uint256 => mapping(bytes32 => bool)) public hasBeenClaimed */\n    tag_4:\n      tag_11\n      0x04\n      dup1\n      calldatasize\n      sub\n      dup2\n      add\n      swap1\n      tag_12\n      swap2\n      swap1\n      tag_13\n      jump\t// in\n    tag_12:\n      tag_14\n      jump\t// in\n    tag_11:\n      mload(0x40)\n      tag_15\n      swap2\n      swap1\n      tag_10\n      jump\t// in\n    tag_15:\n      mload(0x40)\n      dup1\n      swap2\n      sub\n      swap1\n      return\n        /* \"HypercertMinter/src/AllowlistMinter.sol\":937:1266  function isAllowedToClaim(... */\n    tag_8:\n        /* \"HypercertMinter/src/AllowlistMinter.sol\":1073:1087  bool isAllowed */\n      0x00\n        /* \"HypercertMinter/src/AllowlistMinter.sol\":1134:1135  0 */\n      dup1\n        /* \"HypercertMinter/src/AllowlistMinter.sol\":1103:1114  merkleRoots */\n      0x00\n        /* \"HypercertMinter/src/AllowlistMinter.sol\":1103:1123  merkleRoots[claimID] */\n      dup1\n        /* \"HypercertMinter/src/AllowlistMinter.sol\":1115:1122  claimID */\n      dup6\n        /* \"HypercertMinter/src/AllowlistMinter.sol\":1103:1123  merkleRoots[claimID] */\n      dup2\n      mstore\n      0x20\n      add\n      swap1\n      dup2\n      mstore\n      0x20\n      add\n      0x00\n      keccak256\n      pop\n        /* \"HypercertMinter/src/AllowlistMinter.sol\":1103:1130  merkleRoots[claimID].length */\n      0x20\n        /* \"HypercertMinter/src/AllowlistMinter.sol\":1103:1135  merkleRoots[claimID].length == 0 */\n      0xff\n      and\n      sub\n        /* \"HypercertMinter/src/AllowlistMinter.sol\":1099:1165  if (merkleRoots[claimID].length == 0) revert Errors.DoesNotExist() */\n      tag_17\n      jumpi\n        /* \"HypercertMinter/src/AllowlistMinter.sol\":1144:1165  Errors.DoesNotExist() */\n      mload(0x40)\n      0xb0ce759100000000000000000000000000000000000000000000000000000000\n      dup2\n      mstore\n      0x04\n      add\n      mload(0x40)\n      dup1\n      swap2\n      sub\n      swap1\n      revert\n        /* \"HypercertMinter/src/AllowlistMinter.sol\":1099:1165  if (merkleRoots[claimID].length == 0) revert Errors.DoesNotExist() */\n    tag_17:\n        /* \"HypercertMinter/src/AllowlistMinter.sol\":1187:1259  MerkleProofUpgradeable.verifyCalldata(proof, merkleRoots[claimID], leaf) */\n      tag_18\n        /* \"HypercertMinter/src/AllowlistMinter.sol\":1225:1230  proof */\n      dup6\n      dup6\n        /* \"HypercertMinter/src/AllowlistMinter.sol\":1232:1243  merkleRoots */\n      0x00\n        /* \"HypercertMinter/src/AllowlistMinter.sol\":1232:1252  merkleRoots[claimID] */\n      dup1\n        /* \"HypercertMinter/src/AllowlistMinter.sol\":1244:1251  claimID */\n      dup8\n        /* \"HypercertMinter/src/AllowlistMinter.sol\":1232:1252  merkleRoots[claimID] */\n      dup2\n      mstore\n      0x20\n      add\n      swap1\n      dup2\n      mstore\n      0x20\n      add\n      0x00\n      keccak256\n      sload\n        /* \"HypercertMinter/src/AllowlistMinter.sol\":1254:1258  leaf */\n      dup6\n        /* \"HypercertMinter/src/AllowlistMinter.sol\":1187:1224  MerkleProofUpgradeable.verifyCalldata */\n      tag_19\n        /* \"HypercertMinter/src/AllowlistMinter.sol\":1187:1259  MerkleProofUpgradeable.verifyCalldata(proof, merkleRoots[claimID], leaf) */\n      jump\t// in\n    tag_18:\n        /* \"HypercertMinter/src/AllowlistMinter.sol\":1175:1259  isAllowed = MerkleProofUpgradeable.verifyCalldata(proof, merkleRoots[claimID], leaf) */\n      swap1\n      pop\n        /* \"HypercertMinter/src/AllowlistMinter.sol\":937:1266  function isAllowedToClaim(... */\n      swap5\n      swap4\n      pop\n      pop\n      pop\n      pop\n      jump\t// out\n        /* \"HypercertMinter/src/AllowlistMinter.sol\":764:830  mapping(uint256 => mapping(bytes32 => bool)) public hasBeenClaimed */\n    tag_14:\n      mstore(0x20, 0x01)\n      dup2\n      0x00\n      mstore\n      mstore(0x20, keccak256(0x00, 0x40))\n      dup1\n      0x00\n      mstore\n      keccak256(0x00, 0x40)\n      0x00\n      swap2\n      pop\n      swap2\n      pop\n      swap1\n      sload\n      swap1\n      0x0100\n      exp\n      swap1\n      div\n      0xff\n      and\n      dup2\n      jump\t// out\n        /* \"HypercertMinter/src/lib/openzeppelin-contracts-upgradeable/contracts/utils/cryptography/MerkleProofUpgradeable.sol\":1452:1654  function verifyCalldata(... */\n    tag_19:\n        /* \"HypercertMinter/src/lib/openzeppelin-contracts-upgradeable/contracts/utils/cryptography/MerkleProofUpgradeable.sol\":1583:1587  bool */\n      0x00\n        /* \"HypercertMinter/src/lib/openzeppelin-contracts-upgradeable/contracts/utils/cryptography/MerkleProofUpgradeable.sol\":1643:1647  root */\n      dup3\n        /* \"HypercertMinter/src/lib/openzeppelin-contracts-upgradeable/contracts/utils/cryptography/MerkleProofUpgradeable.sol\":1606:1639  processProofCalldata(proof, leaf) */\n      tag_21\n        /* \"HypercertMinter/src/lib/openzeppelin-contracts-upgradeable/contracts/utils/cryptography/MerkleProofUpgradeable.sol\":1627:1632  proof */\n      dup7\n      dup7\n        /* \"HypercertMinter/src/lib/openzeppelin-contracts-upgradeable/contracts/utils/cryptography/MerkleProofUpgradeable.sol\":1634:1638  leaf */\n      dup6\n        /* \"HypercertMinter/src/lib/openzeppelin-contracts-upgradeable/contracts/utils/cryptography/MerkleProofUpgradeable.sol\":1606:1626  processProofCalldata */\n      tag_22\n        /* \"HypercertMinter/src/lib/openzeppelin-contracts-upgradeable/contracts/utils/cryptography/MerkleProofUpgradeable.sol\":1606:1639  processProofCalldata(proof, leaf) */\n      jump\t// in\n    tag_21:\n        /* \"HypercertMinter/src/lib/openzeppelin-contracts-upgradeable/contracts/utils/cryptography/MerkleProofUpgradeable.sol\":1606:1647  processProofCalldata(proof, leaf) == root */\n      eq\n        /* \"HypercertMinter/src/lib/openzeppelin-contracts-upgradeable/contracts/utils/cryptography/MerkleProofUpgradeable.sol\":1599:1647  return processProofCalldata(proof, leaf) == root */\n      swap1\n      pop\n        /* \"HypercertMinter/src/lib/openzeppelin-contracts-upgradeable/contracts/utils/cryptography/MerkleProofUpgradeable.sol\":1452:1654  function verifyCalldata(... */\n      swap5\n      swap4\n      pop\n      pop\n      pop\n      pop\n      jump\t// out\n        /* \"HypercertMinter/src/lib/openzeppelin-contracts-upgradeable/contracts/utils/cryptography/MerkleProofUpgradeable.sol\":2402:2702  function processProofCalldata(bytes32[] calldata proof, bytes32 leaf) internal pure returns (bytes32) {... */\n    tag_22:\n        /* \"HypercertMinter/src/lib/openzeppelin-contracts-upgradeable/contracts/utils/cryptography/MerkleProofUpgradeable.sol\":2495:2502  bytes32 */\n      0x00\n        /* \"HypercertMinter/src/lib/openzeppelin-contracts-upgradeable/contracts/utils/cryptography/MerkleProofUpgradeable.sol\":2514:2534  bytes32 computedHash */\n      dup1\n        /* \"HypercertMinter/src/lib/openzeppelin-contracts-upgradeable/contracts/utils/cryptography/MerkleProofUpgradeable.sol\":2537:2541  leaf */\n      dup3\n        /* \"HypercertMinter/src/lib/openzeppelin-contracts-upgradeable/contracts/utils/cryptography/MerkleProofUpgradeable.sol\":2514:2541  bytes32 computedHash = leaf */\n      swap1\n      pop\n        /* \"HypercertMinter/src/lib/openzeppelin-contracts-upgradeable/contracts/utils/cryptography/MerkleProofUpgradeable.sol\":2556:2565  uint256 i */\n      0x00\n        /* \"HypercertMinter/src/lib/openzeppelin-contracts-upgradeable/contracts/utils/cryptography/MerkleProofUpgradeable.sol\":2551:2667  for (uint256 i = 0; i < proof.length; i++) {... */\n    tag_24:\n        /* \"HypercertMinter/src/lib/openzeppelin-contracts-upgradeable/contracts/utils/cryptography/MerkleProofUpgradeable.sol\":2575:2580  proof */\n      dup6\n      dup6\n        /* \"HypercertMinter/src/lib/openzeppelin-contracts-upgradeable/contracts/utils/cryptography/MerkleProofUpgradeable.sol\":2575:2587  proof.length */\n      swap1\n      pop\n        /* \"HypercertMinter/src/lib/openzeppelin-contracts-upgradeable/contracts/utils/cryptography/MerkleProofUpgradeable.sol\":2571:2572  i */\n      dup2\n        /* \"HypercertMinter/src/lib/openzeppelin-contracts-upgradeable/contracts/utils/cryptography/MerkleProofUpgradeable.sol\":2571:2587  i < proof.length */\n      lt\n        /* \"HypercertMinter/src/lib/openzeppelin-contracts-upgradeable/contracts/utils/cryptography/MerkleProofUpgradeable.sol\":2551:2667  for (uint256 i = 0; i < proof.length; i++) {... */\n      iszero\n      tag_25\n      jumpi\n        /* \"HypercertMinter/src/lib/openzeppelin-contracts-upgradeable/contracts/utils/cryptography/MerkleProofUpgradeable.sol\":2623:2656  _hashPair(computedHash, proof[i]) */\n      tag_27\n        /* \"HypercertMinter/src/lib/openzeppelin-contracts-upgradeable/contracts/utils/cryptography/MerkleProofUpgradeable.sol\":2633:2645  computedHash */\n      dup3\n        /* \"HypercertMinter/src/lib/openzeppelin-contracts-upgradeable/contracts/utils/cryptography/MerkleProofUpgradeable.sol\":2647:2652  proof */\n      dup8\n      dup8\n        /* \"HypercertMinter/src/lib/openzeppelin-contracts-upgradeable/contracts/utils/cryptography/MerkleProofUpgradeable.sol\":2653:2654  i */\n      dup5\n        /* \"HypercertMinter/src/lib/openzeppelin-contracts-upgradeable/contracts/utils/cryptography/MerkleProofUpgradeable.sol\":2647:2655  proof[i] */\n      dup2\n      dup2\n      lt\n      tag_28\n      jumpi\n      tag_29\n      tag_30\n      jump\t// in\n    tag_29:\n    tag_28:\n      swap1\n      pop\n      0x20\n      mul\n      add\n      calldataload\n        /* \"HypercertMinter/src/lib/openzeppelin-contracts-upgradeable/contracts/utils/cryptography/MerkleProofUpgradeable.sol\":2623:2632  _hashPair */\n      tag_31\n        /* \"HypercertMinter/src/lib/openzeppelin-contracts-upgradeable/contracts/utils/cryptography/MerkleProofUpgradeable.sol\":2623:2656  _hashPair(computedHash, proof[i]) */\n      jump\t// in\n    tag_27:\n        /* \"HypercertMinter/src/lib/openzeppelin-contracts-upgradeable/contracts/utils/cryptography/MerkleProofUpgradeable.sol\":2608:2656  computedHash = _hashPair(computedHash, proof[i]) */\n      swap2\n      pop\n        /* \"HypercertMinter/src/lib/openzeppelin-contracts-upgradeable/contracts/utils/cryptography/MerkleProofUpgradeable.sol\":2589:2592  i++ */\n      dup1\n      dup1\n      tag_32\n      swap1\n      tag_33\n      jump\t// in\n    tag_32:\n      swap2\n      pop\n      pop\n        /* \"HypercertMinter/src/lib/openzeppelin-contracts-upgradeable/contracts/utils/cryptography/MerkleProofUpgradeable.sol\":2551:2667  for (uint256 i = 0; i < proof.length; i++) {... */\n      jump(tag_24)\n    tag_25:\n      pop\n        /* \"HypercertMinter/src/lib/openzeppelin-contracts-upgradeable/contracts/utils/cryptography/MerkleProofUpgradeable.sol\":2683:2695  computedHash */\n      dup1\n        /* \"HypercertMinter/src/lib/openzeppelin-contracts-upgradeable/contracts/utils/cryptography/MerkleProofUpgradeable.sol\":2676:2695  return computedHash */\n      swap2\n      pop\n      pop\n        /* \"HypercertMinter/src/lib/openzeppelin-contracts-upgradeable/contracts/utils/cryptography/MerkleProofUpgradeable.sol\":2402:2702  function processProofCalldata(bytes32[] calldata proof, bytes32 leaf) internal pure returns (bytes32) {... */\n      swap4\n      swap3\n      pop\n      pop\n      pop\n      jump\t// out\n        /* \"HypercertMinter/src/lib/openzeppelin-contracts-upgradeable/contracts/utils/cryptography/MerkleProofUpgradeable.sol\":8890:9037  function _hashPair(bytes32 a, bytes32 b) private pure returns (bytes32) {... */\n    tag_31:\n        /* \"HypercertMinter/src/lib/openzeppelin-contracts-upgradeable/contracts/utils/cryptography/MerkleProofUpgradeable.sol\":8953:8960  bytes32 */\n      0x00\n        /* \"HypercertMinter/src/lib/openzeppelin-contracts-upgradeable/contracts/utils/cryptography/MerkleProofUpgradeable.sol\":8983:8984  b */\n      dup2\n        /* \"HypercertMinter/src/lib/openzeppelin-contracts-upgradeable/contracts/utils/cryptography/MerkleProofUpgradeable.sol\":8979:8980  a */\n      dup4\n        /* \"HypercertMinter/src/lib/openzeppelin-contracts-upgradeable/contracts/utils/cryptography/MerkleProofUpgradeable.sol\":8979:8984  a < b */\n      lt\n        /* \"HypercertMinter/src/lib/openzeppelin-contracts-upgradeable/contracts/utils/cryptography/MerkleProofUpgradeable.sol\":8979:9030  a < b ? _efficientHash(a, b) : _efficientHash(b, a) */\n      tag_35\n      jumpi\n        /* \"HypercertMinter/src/lib/openzeppelin-contracts-upgradeable/contracts/utils/cryptography/MerkleProofUpgradeable.sol\":9010:9030  _efficientHash(b, a) */\n      tag_36\n        /* \"HypercertMinter/src/lib/openzeppelin-contracts-upgradeable/contracts/utils/cryptography/MerkleProofUpgradeable.sol\":9025:9026  b */\n      dup3\n        /* \"HypercertMinter/src/lib/openzeppelin-contracts-upgradeable/contracts/utils/cryptography/MerkleProofUpgradeable.sol\":9028:9029  a */\n      dup5\n        /* \"HypercertMinter/src/lib/openzeppelin-contracts-upgradeable/contracts/utils/cryptography/MerkleProofUpgradeable.sol\":9010:9024  _efficientHash */\n      tag_37\n        /* \"HypercertMinter/src/lib/openzeppelin-contracts-upgradeable/contracts/utils/cryptography/MerkleProofUpgradeable.sol\":9010:9030  _efficientHash(b, a) */\n      jump\t// in\n    tag_36:\n        /* \"HypercertMinter/src/lib/openzeppelin-contracts-upgradeable/contracts/utils/cryptography/MerkleProofUpgradeable.sol\":8979:9030  a < b ? _efficientHash(a, b) : _efficientHash(b, a) */\n      jump(tag_38)\n    tag_35:\n        /* \"HypercertMinter/src/lib/openzeppelin-contracts-upgradeable/contracts/utils/cryptography/MerkleProofUpgradeable.sol\":8987:9007  _efficientHash(a, b) */\n      tag_39\n        /* \"HypercertMinter/src/lib/openzeppelin-contracts-upgradeable/contracts/utils/cryptography/MerkleProofUpgradeable.sol\":9002:9003  a */\n      dup4\n        /* \"HypercertMinter/src/lib/openzeppelin-contracts-upgradeable/contracts/utils/cryptography/MerkleProofUpgradeable.sol\":9005:9006  b */\n      dup4\n        /* \"HypercertMinter/src/lib/openzeppelin-contracts-upgradeable/contracts/utils/cryptography/MerkleProofUpgradeable.sol\":8987:9001  _efficientHash */\n      tag_37\n        /* \"HypercertMinter/src/lib/openzeppelin-contracts-upgradeable/contracts/utils/cryptography/MerkleProofUpgradeable.sol\":8987:9007  _efficientHash(a, b) */\n      jump\t// in\n    tag_39:\n        /* \"HypercertMinter/src/lib/openzeppelin-contracts-upgradeable/contracts/utils/cryptography/MerkleProofUpgradeable.sol\":8979:9030  a < b ? _efficientHash(a, b) : _efficientHash(b, a) */\n    tag_38:\n        /* \"HypercertMinter/src/lib/openzeppelin-contracts-upgradeable/contracts/utils/cryptography/MerkleProofUpgradeable.sol\":8972:9030  return a < b ? _efficientHash(a, b) : _efficientHash(b, a) */\n      swap1\n      pop\n        /* \"HypercertMinter/src/lib/openzeppelin-contracts-upgradeable/contracts/utils/cryptography/MerkleProofUpgradeable.sol\":8890:9037  function _hashPair(bytes32 a, bytes32 b) private pure returns (bytes32) {... */\n      swap3\n      swap2\n      pop\n      pop\n      jump\t// out\n        /* \"HypercertMinter/src/lib/openzeppelin-contracts-upgradeable/contracts/utils/cryptography/MerkleProofUpgradeable.sol\":9043:9304  function _efficientHash(bytes32 a, bytes32 b) private pure returns (bytes32 value) {... */\n    tag_37:\n        /* \"HypercertMinter/src/lib/openzeppelin-contracts-upgradeable/contracts/utils/cryptography/MerkleProofUpgradeable.sol\":9111:9124  bytes32 value */\n      0x00\n        /* \"HypercertMinter/src/lib/openzeppelin-contracts-upgradeable/contracts/utils/cryptography/MerkleProofUpgradeable.sol\":9215:9216  a */\n      dup3\n        /* \"HypercertMinter/src/lib/openzeppelin-contracts-upgradeable/contracts/utils/cryptography/MerkleProofUpgradeable.sol\":9209:9213  0x00 */\n      0x00\n        /* \"HypercertMinter/src/lib/openzeppelin-contracts-upgradeable/contracts/utils/cryptography/MerkleProofUpgradeable.sol\":9202:9217  mstore(0x00, a) */\n      mstore\n        /* \"HypercertMinter/src/lib/openzeppelin-contracts-upgradeable/contracts/utils/cryptography/MerkleProofUpgradeable.sol\":9243:9244  b */\n      dup2\n        /* \"HypercertMinter/src/lib/openzeppelin-contracts-upgradeable/contracts/utils/cryptography/MerkleProofUpgradeable.sol\":9237:9241  0x20 */\n      0x20\n        /* \"HypercertMinter/src/lib/openzeppelin-contracts-upgradeable/contracts/utils/cryptography/MerkleProofUpgradeable.sol\":9230:9245  mstore(0x20, b) */\n      mstore\n        /* \"HypercertMinter/src/lib/openzeppelin-contracts-upgradeable/contracts/utils/cryptography/MerkleProofUpgradeable.sol\":9283:9287  0x40 */\n      0x40\n        /* \"HypercertMinter/src/lib/openzeppelin-contracts-upgradeable/contracts/utils/cryptography/MerkleProofUpgradeable.sol\":9277:9281  0x00 */\n      0x00\n        /* \"HypercertMinter/src/lib/openzeppelin-contracts-upgradeable/contracts/utils/cryptography/MerkleProofUpgradeable.sol\":9267:9288  keccak256(0x00, 0x40) */\n      keccak256\n        /* \"HypercertMinter/src/lib/openzeppelin-contracts-upgradeable/contracts/utils/cryptography/MerkleProofUpgradeable.sol\":9258:9288  value := keccak256(0x00, 0x40) */\n      swap1\n      pop\n        /* \"HypercertMinter/src/lib/openzeppelin-contracts-upgradeable/contracts/utils/cryptography/MerkleProofUpgradeable.sol\":9043:9304  function _efficientHash(bytes32 a, bytes32 b) private pure returns (bytes32 value) {... */\n      swap3\n      swap2\n      pop\n      pop\n      jump\t// out\n        /* \"#utility.yul\":88:205   */\n    tag_42:\n        /* \"#utility.yul\":197:198   */\n      0x00\n        /* \"#utility.yul\":194:195   */\n      dup1\n        /* \"#utility.yul\":187:199   */\n      revert\n        /* \"#utility.yul\":211:328   */\n    tag_43:\n        /* \"#utility.yul\":320:321   */\n      0x00\n        /* \"#utility.yul\":317:318   */\n      dup1\n        /* \"#utility.yul\":310:322   */\n      revert\n        /* \"#utility.yul\":334:451   */\n    tag_44:\n        /* \"#utility.yul\":443:444   */\n      0x00\n        /* \"#utility.yul\":440:441   */\n      dup1\n        /* \"#utility.yul\":433:445   */\n      revert\n        /* \"#utility.yul\":457:574   */\n    tag_45:\n        /* \"#utility.yul\":566:567   */\n      0x00\n        /* \"#utility.yul\":563:564   */\n      dup1\n        /* \"#utility.yul\":556:568   */\n      revert\n        /* \"#utility.yul\":580:697   */\n    tag_46:\n        /* \"#utility.yul\":689:690   */\n      0x00\n        /* \"#utility.yul\":686:687   */\n      dup1\n        /* \"#utility.yul\":679:691   */\n      revert\n        /* \"#utility.yul\":720:1288   */\n    tag_47:\n        /* \"#utility.yul\":793:801   */\n      0x00\n        /* \"#utility.yul\":803:809   */\n      dup1\n        /* \"#utility.yul\":853:856   */\n      dup4\n        /* \"#utility.yul\":846:850   */\n      0x1f\n        /* \"#utility.yul\":838:844   */\n      dup5\n        /* \"#utility.yul\":834:851   */\n      add\n        /* \"#utility.yul\":830:857   */\n      slt\n        /* \"#utility.yul\":820:942   */\n      tag_65\n      jumpi\n        /* \"#utility.yul\":861:940   */\n      tag_66\n      tag_44\n      jump\t// in\n    tag_66:\n        /* \"#utility.yul\":820:942   */\n    tag_65:\n        /* \"#utility.yul\":974:980   */\n      dup3\n        /* \"#utility.yul\":961:981   */\n      calldataload\n        /* \"#utility.yul\":951:981   */\n      swap1\n      pop\n        /* \"#utility.yul\":1004:1022   */\n      0xffffffffffffffff\n        /* \"#utility.yul\":996:1002   */\n      dup2\n        /* \"#utility.yul\":993:1023   */\n      gt\n        /* \"#utility.yul\":990:1107   */\n      iszero\n      tag_67\n      jumpi\n        /* \"#utility.yul\":1026:1105   */\n      tag_68\n      tag_45\n      jump\t// in\n    tag_68:\n        /* \"#utility.yul\":990:1107   */\n    tag_67:\n        /* \"#utility.yul\":1140:1144   */\n      0x20\n        /* \"#utility.yul\":1132:1138   */\n      dup4\n        /* \"#utility.yul\":1128:1145   */\n      add\n        /* \"#utility.yul\":1116:1145   */\n      swap2\n      pop\n        /* \"#utility.yul\":1194:1197   */\n      dup4\n        /* \"#utility.yul\":1186:1190   */\n      0x20\n        /* \"#utility.yul\":1178:1184   */\n      dup3\n        /* \"#utility.yul\":1174:1191   */\n      mul\n        /* \"#utility.yul\":1164:1172   */\n      dup4\n        /* \"#utility.yul\":1160:1192   */\n      add\n        /* \"#utility.yul\":1157:1198   */\n      gt\n        /* \"#utility.yul\":1154:1282   */\n      iszero\n      tag_69\n      jumpi\n        /* \"#utility.yul\":1201:1280   */\n      tag_70\n      tag_46\n      jump\t// in\n    tag_70:\n        /* \"#utility.yul\":1154:1282   */\n    tag_69:\n        /* \"#utility.yul\":720:1288   */\n      swap3\n      pop\n      swap3\n      swap1\n      pop\n      jump\t// out\n        /* \"#utility.yul\":1294:1371   */\n    tag_48:\n        /* \"#utility.yul\":1331:1338   */\n      0x00\n        /* \"#utility.yul\":1360:1365   */\n      dup2\n        /* \"#utility.yul\":1349:1365   */\n      swap1\n      pop\n        /* \"#utility.yul\":1294:1371   */\n      swap2\n      swap1\n      pop\n      jump\t// out\n        /* \"#utility.yul\":1377:1499   */\n    tag_49:\n        /* \"#utility.yul\":1450:1474   */\n      tag_73\n        /* \"#utility.yul\":1468:1473   */\n      dup2\n        /* \"#utility.yul\":1450:1474   */\n      tag_48\n      jump\t// in\n    tag_73:\n        /* \"#utility.yul\":1443:1448   */\n      dup2\n        /* \"#utility.yul\":1440:1475   */\n      eq\n        /* \"#utility.yul\":1430:1493   */\n      tag_74\n      jumpi\n        /* \"#utility.yul\":1489:1490   */\n      0x00\n        /* \"#utility.yul\":1486:1487   */\n      dup1\n        /* \"#utility.yul\":1479:1491   */\n      revert\n        /* \"#utility.yul\":1430:1493   */\n    tag_74:\n        /* \"#utility.yul\":1377:1499   */\n      pop\n      jump\t// out\n        /* \"#utility.yul\":1505:1644   */\n    tag_50:\n        /* \"#utility.yul\":1551:1556   */\n      0x00\n        /* \"#utility.yul\":1589:1595   */\n      dup2\n        /* \"#utility.yul\":1576:1596   */\n      calldataload\n        /* \"#utility.yul\":1567:1596   */\n      swap1\n      pop\n        /* \"#utility.yul\":1605:1638   */\n      tag_76\n        /* \"#utility.yul\":1632:1637   */\n      dup2\n        /* \"#utility.yul\":1605:1638   */\n      tag_49\n      jump\t// in\n    tag_76:\n        /* \"#utility.yul\":1505:1644   */\n      swap3\n      swap2\n      pop\n      pop\n      jump\t// out\n        /* \"#utility.yul\":1650:1727   */\n    tag_51:\n        /* \"#utility.yul\":1687:1694   */\n      0x00\n        /* \"#utility.yul\":1716:1721   */\n      dup2\n        /* \"#utility.yul\":1705:1721   */\n      swap1\n      pop\n        /* \"#utility.yul\":1650:1727   */\n      swap2\n      swap1\n      pop\n      jump\t// out\n        /* \"#utility.yul\":1733:1855   */\n    tag_52:\n        /* \"#utility.yul\":1806:1830   */\n      tag_79\n        /* \"#utility.yul\":1824:1829   */\n      dup2\n        /* \"#utility.yul\":1806:1830   */\n      tag_51\n      jump\t// in\n    tag_79:\n        /* \"#utility.yul\":1799:1804   */\n      dup2\n        /* \"#utility.yul\":1796:1831   */\n      eq\n        /* \"#utility.yul\":1786:1849   */\n      tag_80\n      jumpi\n        /* \"#utility.yul\":1845:1846   */\n      0x00\n        /* \"#utility.yul\":1842:1843   */\n      dup1\n        /* \"#utility.yul\":1835:1847   */\n      revert\n        /* \"#utility.yul\":1786:1849   */\n    tag_80:\n        /* \"#utility.yul\":1733:1855   */\n      pop\n      jump\t// out\n        /* \"#utility.yul\":1861:2000   */\n    tag_53:\n        /* \"#utility.yul\":1907:1912   */\n      0x00\n        /* \"#utility.yul\":1945:1951   */\n      dup2\n        /* \"#utility.yul\":1932:1952   */\n      calldataload\n        /* \"#utility.yul\":1923:1952   */\n      swap1\n      pop\n        /* \"#utility.yul\":1961:1994   */\n      tag_82\n        /* \"#utility.yul\":1988:1993   */\n      dup2\n        /* \"#utility.yul\":1961:1994   */\n      tag_52\n      jump\t// in\n    tag_82:\n        /* \"#utility.yul\":1861:2000   */\n      swap3\n      swap2\n      pop\n      pop\n      jump\t// out\n        /* \"#utility.yul\":2006:2855   */\n    tag_7:\n        /* \"#utility.yul\":2110:2116   */\n      0x00\n        /* \"#utility.yul\":2118:2124   */\n      dup1\n        /* \"#utility.yul\":2126:2132   */\n      0x00\n        /* \"#utility.yul\":2134:2140   */\n      dup1\n        /* \"#utility.yul\":2183:2185   */\n      0x60\n        /* \"#utility.yul\":2171:2180   */\n      dup6\n        /* \"#utility.yul\":2162:2169   */\n      dup8\n        /* \"#utility.yul\":2158:2181   */\n      sub\n        /* \"#utility.yul\":2154:2186   */\n      slt\n        /* \"#utility.yul\":2151:2270   */\n      iszero\n      tag_84\n      jumpi\n        /* \"#utility.yul\":2189:2268   */\n      tag_85\n      tag_42\n      jump\t// in\n    tag_85:\n        /* \"#utility.yul\":2151:2270   */\n    tag_84:\n        /* \"#utility.yul\":2337:2338   */\n      0x00\n        /* \"#utility.yul\":2326:2335   */\n      dup6\n        /* \"#utility.yul\":2322:2339   */\n      add\n        /* \"#utility.yul\":2309:2340   */\n      calldataload\n        /* \"#utility.yul\":2367:2385   */\n      0xffffffffffffffff\n        /* \"#utility.yul\":2359:2365   */\n      dup2\n        /* \"#utility.yul\":2356:2386   */\n      gt\n        /* \"#utility.yul\":2353:2470   */\n      iszero\n      tag_86\n      jumpi\n        /* \"#utility.yul\":2389:2468   */\n      tag_87\n      tag_43\n      jump\t// in\n    tag_87:\n        /* \"#utility.yul\":2353:2470   */\n    tag_86:\n        /* \"#utility.yul\":2502:2582   */\n      tag_88\n        /* \"#utility.yul\":2574:2581   */\n      dup8\n        /* \"#utility.yul\":2565:2571   */\n      dup3\n        /* \"#utility.yul\":2554:2563   */\n      dup9\n        /* \"#utility.yul\":2550:2572   */\n      add\n        /* \"#utility.yul\":2502:2582   */\n      tag_47\n      jump\t// in\n    tag_88:\n        /* \"#utility.yul\":2484:2582   */\n      swap5\n      pop\n      swap5\n      pop\n        /* \"#utility.yul\":2280:2592   */\n      pop\n        /* \"#utility.yul\":2631:2633   */\n      0x20\n        /* \"#utility.yul\":2657:2710   */\n      tag_89\n        /* \"#utility.yul\":2702:2709   */\n      dup8\n        /* \"#utility.yul\":2693:2699   */\n      dup3\n        /* \"#utility.yul\":2682:2691   */\n      dup9\n        /* \"#utility.yul\":2678:2700   */\n      add\n        /* \"#utility.yul\":2657:2710   */\n      tag_50\n      jump\t// in\n    tag_89:\n        /* \"#utility.yul\":2647:2710   */\n      swap3\n      pop\n        /* \"#utility.yul\":2602:2720   */\n      pop\n        /* \"#utility.yul\":2759:2761   */\n      0x40\n        /* \"#utility.yul\":2785:2838   */\n      tag_90\n        /* \"#utility.yul\":2830:2837   */\n      dup8\n        /* \"#utility.yul\":2821:2827   */\n      dup3\n        /* \"#utility.yul\":2810:2819   */\n      dup9\n        /* \"#utility.yul\":2806:2828   */\n      add\n        /* \"#utility.yul\":2785:2838   */\n      tag_53\n      jump\t// in\n    tag_90:\n        /* \"#utility.yul\":2775:2838   */\n      swap2\n      pop\n        /* \"#utility.yul\":2730:2848   */\n      pop\n        /* \"#utility.yul\":2006:2855   */\n      swap3\n      swap6\n      swap2\n      swap5\n      pop\n      swap3\n      pop\n      jump\t// out\n        /* \"#utility.yul\":2861:2951   */\n    tag_54:\n        /* \"#utility.yul\":2895:2902   */\n      0x00\n        /* \"#utility.yul\":2938:2943   */\n      dup2\n        /* \"#utility.yul\":2931:2944   */\n      iszero\n        /* \"#utility.yul\":2924:2945   */\n      iszero\n        /* \"#utility.yul\":2913:2945   */\n      swap1\n      pop\n        /* \"#utility.yul\":2861:2951   */\n      swap2\n      swap1\n      pop\n      jump\t// out\n        /* \"#utility.yul\":2957:3066   */\n    tag_55:\n        /* \"#utility.yul\":3038:3059   */\n      tag_93\n        /* \"#utility.yul\":3053:3058   */\n      dup2\n        /* \"#utility.yul\":3038:3059   */\n      tag_54\n      jump\t// in\n    tag_93:\n        /* \"#utility.yul\":3033:3036   */\n      dup3\n        /* \"#utility.yul\":3026:3060   */\n      mstore\n        /* \"#utility.yul\":2957:3066   */\n      pop\n      pop\n      jump\t// out\n        /* \"#utility.yul\":3072:3282   */\n    tag_10:\n        /* \"#utility.yul\":3159:3163   */\n      0x00\n        /* \"#utility.yul\":3197:3199   */\n      0x20\n        /* \"#utility.yul\":3186:3195   */\n      dup3\n        /* \"#utility.yul\":3182:3200   */\n      add\n        /* \"#utility.yul\":3174:3200   */\n      swap1\n      pop\n        /* \"#utility.yul\":3210:3275   */\n      tag_95\n        /* \"#utility.yul\":3272:3273   */\n      0x00\n        /* \"#utility.yul\":3261:3270   */\n      dup4\n        /* \"#utility.yul\":3257:3274   */\n      add\n        /* \"#utility.yul\":3248:3254   */\n      dup5\n        /* \"#utility.yul\":3210:3275   */\n      tag_55\n      jump\t// in\n    tag_95:\n        /* \"#utility.yul\":3072:3282   */\n      swap3\n      swap2\n      pop\n      pop\n      jump\t// out\n        /* \"#utility.yul\":3288:3762   */\n    tag_13:\n        /* \"#utility.yul\":3356:3362   */\n      0x00\n        /* \"#utility.yul\":3364:3370   */\n      dup1\n        /* \"#utility.yul\":3413:3415   */\n      0x40\n        /* \"#utility.yul\":3401:3410   */\n      dup4\n        /* \"#utility.yul\":3392:3399   */\n      dup6\n        /* \"#utility.yul\":3388:3411   */\n      sub\n        /* \"#utility.yul\":3384:3416   */\n      slt\n        /* \"#utility.yul\":3381:3500   */\n      iszero\n      tag_97\n      jumpi\n        /* \"#utility.yul\":3419:3498   */\n      tag_98\n      tag_42\n      jump\t// in\n    tag_98:\n        /* \"#utility.yul\":3381:3500   */\n    tag_97:\n        /* \"#utility.yul\":3539:3540   */\n      0x00\n        /* \"#utility.yul\":3564:3617   */\n      tag_99\n        /* \"#utility.yul\":3609:3616   */\n      dup6\n        /* \"#utility.yul\":3600:3606   */\n      dup3\n        /* \"#utility.yul\":3589:3598   */\n      dup7\n        /* \"#utility.yul\":3585:3607   */\n      add\n        /* \"#utility.yul\":3564:3617   */\n      tag_50\n      jump\t// in\n    tag_99:\n        /* \"#utility.yul\":3554:3617   */\n      swap3\n      pop\n        /* \"#utility.yul\":3510:3627   */\n      pop\n        /* \"#utility.yul\":3666:3668   */\n      0x20\n        /* \"#utility.yul\":3692:3745   */\n      tag_100\n        /* \"#utility.yul\":3737:3744   */\n      dup6\n        /* \"#utility.yul\":3728:3734   */\n      dup3\n        /* \"#utility.yul\":3717:3726   */\n      dup7\n        /* \"#utility.yul\":3713:3735   */\n      add\n        /* \"#utility.yul\":3692:3745   */\n      tag_53\n      jump\t// in\n    tag_100:\n        /* \"#utility.yul\":3682:3745   */\n      swap2\n      pop\n        /* \"#utility.yul\":3637:3755   */\n      pop\n        /* \"#utility.yul\":3288:3762   */\n      swap3\n      pop\n      swap3\n      swap1\n      pop\n      jump\t// out\n        /* \"#utility.yul\":3768:3948   */\n    tag_30:\n        /* \"#utility.yul\":3816:3893   */\n      0x4e487b7100000000000000000000000000000000000000000000000000000000\n        /* \"#utility.yul\":3813:3814   */\n      0x00\n        /* \"#utility.yul\":3806:3894   */\n      mstore\n        /* \"#utility.yul\":3913:3917   */\n      0x32\n        /* \"#utility.yul\":3910:3911   */\n      0x04\n        /* \"#utility.yul\":3903:3918   */\n      mstore\n        /* \"#utility.yul\":3937:3941   */\n      0x24\n        /* \"#utility.yul\":3934:3935   */\n      0x00\n        /* \"#utility.yul\":3927:3942   */\n      revert\n        /* \"#utility.yul\":3954:4134   */\n    tag_56:\n        /* \"#utility.yul\":4002:4079   */\n      0x4e487b7100000000000000000000000000000000000000000000000000000000\n        /* \"#utility.yul\":3999:4000   */\n      0x00\n        /* \"#utility.yul\":3992:4080   */\n      mstore\n        /* \"#utility.yul\":4099:4103   */\n      0x11\n        /* \"#utility.yul\":4096:4097   */\n      0x04\n        /* \"#utility.yul\":4089:4104   */\n      mstore\n        /* \"#utility.yul\":4123:4127   */\n      0x24\n        /* \"#utility.yul\":4120:4121   */\n      0x00\n        /* \"#utility.yul\":4113:4128   */\n      revert\n        /* \"#utility.yul\":4140:4373   */\n    tag_33:\n        /* \"#utility.yul\":4179:4182   */\n      0x00\n        /* \"#utility.yul\":4202:4226   */\n      tag_104\n        /* \"#utility.yul\":4220:4225   */\n      dup3\n        /* \"#utility.yul\":4202:4226   */\n      tag_48\n      jump\t// in\n    tag_104:\n        /* \"#utility.yul\":4193:4226   */\n      swap2\n      pop\n        /* \"#utility.yul\":4248:4314   */\n      0xffffffffffffffffffffffffffffffffffffffffffffffffffffffffffffffff\n        /* \"#utility.yul\":4241:4246   */\n      dup3\n        /* \"#utility.yul\":4238:4315   */\n      sub\n        /* \"#utility.yul\":4235:4338   */\n      tag_105\n      jumpi\n        /* \"#utility.yul\":4318:4336   */\n      tag_106\n      tag_56\n      jump\t// in\n    tag_106:\n        /* \"#utility.yul\":4235:4338   */\n    tag_105:\n        /* \"#utility.yul\":4365:4366   */\n      0x01\n        /* \"#utility.yul\":4358:4363   */\n      dup3\n        /* \"#utility.yul\":4354:4367   */\n      add\n        /* \"#utility.yul\":4347:4367   */\n      swap1\n      pop\n        /* \"#utility.yul\":4140:4373   */\n      swap2\n      swap1\n      pop\n      jump\t// out\n\n    auxdata: 0xa26469706673582212204b78ae9f961d4cbd476da72b739fb0091ddd6be30cf71afa0a9218d27ff7ba3b64736f6c63430008100033\n}\n",
				"bytecode": {
					"linkReferences": {},
					"object": "608060405234801561001057600080fd5b50610498806100206000396000f3fe608060405234801561001057600080fd5b50600436106100365760003560e01c80633e11eefe1461003b578063a21ed9801461006b575b600080fd5b610055600480360381019061005091906102d2565b61009b565b6040516100629190610361565b60405180910390f35b6100856004803603810190610080919061037c565b610115565b6040516100929190610361565b60405180910390f35b60008060008085815260200190815260200160002050602060ff16036100ed576040517fb0ce759100000000000000000000000000000000000000000000000000000000815260040160405180910390fd5b61010b85856000808781526020019081526020016000205485610144565b9050949350505050565b60016020528160005260406000206020528060005260406000206000915091509054906101000a900460ff1681565b60008261015286868561015d565b149050949350505050565b60008082905060005b858590508110156101a95761019482878784818110610188576101876103bc565b5b905060200201356101b5565b915080806101a19061041a565b915050610166565b50809150509392505050565b60008183106101cd576101c882846101e0565b6101d8565b6101d783836101e0565b5b905092915050565b600082600052816020526040600020905092915050565b600080fd5b600080fd5b600080fd5b600080fd5b600080fd5b60008083601f84011261022657610225610201565b5b8235905067ffffffffffffffff81111561024357610242610206565b5b60208301915083602082028301111561025f5761025e61020b565b5b9250929050565b6000819050919050565b61027981610266565b811461028457600080fd5b50565b60008135905061029681610270565b92915050565b6000819050919050565b6102af8161029c565b81146102ba57600080fd5b50565b6000813590506102cc816102a6565b92915050565b600080600080606085870312156102ec576102eb6101f7565b5b600085013567ffffffffffffffff81111561030a576103096101fc565b5b61031687828801610210565b9450945050602061032987828801610287565b925050604061033a878288016102bd565b91505092959194509250565b60008115159050919050565b61035b81610346565b82525050565b60006020820190506103766000830184610352565b92915050565b60008060408385031215610393576103926101f7565b5b60006103a185828601610287565b92505060206103b2858286016102bd565b9150509250929050565b7f4e487b7100000000000000000000000000000000000000000000000000000000600052603260045260246000fd5b7f4e487b7100000000000000000000000000000000000000000000000000000000600052601160045260246000fd5b600061042582610266565b91507fffffffffffffffffffffffffffffffffffffffffffffffffffffffffffffffff8203610457576104566103eb565b5b60018201905091905056fea26469706673582212204b78ae9f961d4cbd476da72b739fb0091ddd6be30cf71afa0a9218d27ff7ba3b64736f6c63430008100033",
					"opcodes": "PUSH1 0x80 PUSH1 0x40 MSTORE CALLVALUE DUP1 ISZERO PUSH2 0x10 JUMPI PUSH1 0x0 DUP1 REVERT JUMPDEST POP PUSH2 0x498 DUP1 PUSH2 0x20 PUSH1 0x0 CODECOPY PUSH1 0x0 RETURN INVALID PUSH1 0x80 PUSH1 0x40 MSTORE CALLVALUE DUP1 ISZERO PUSH2 0x10 JUMPI PUSH1 0x0 DUP1 REVERT JUMPDEST POP PUSH1 0x4 CALLDATASIZE LT PUSH2 0x36 JUMPI PUSH1 0x0 CALLDATALOAD PUSH1 0xE0 SHR DUP1 PUSH4 0x3E11EEFE EQ PUSH2 0x3B JUMPI DUP1 PUSH4 0xA21ED980 EQ PUSH2 0x6B JUMPI JUMPDEST PUSH1 0x0 DUP1 REVERT JUMPDEST PUSH2 0x55 PUSH1 0x4 DUP1 CALLDATASIZE SUB DUP2 ADD SWAP1 PUSH2 0x50 SWAP2 SWAP1 PUSH2 0x2D2 JUMP JUMPDEST PUSH2 0x9B JUMP JUMPDEST PUSH1 0x40 MLOAD PUSH2 0x62 SWAP2 SWAP1 PUSH2 0x361 JUMP JUMPDEST PUSH1 0x40 MLOAD DUP1 SWAP2 SUB SWAP1 RETURN JUMPDEST PUSH2 0x85 PUSH1 0x4 DUP1 CALLDATASIZE SUB DUP2 ADD SWAP1 PUSH2 0x80 SWAP2 SWAP1 PUSH2 0x37C JUMP JUMPDEST PUSH2 0x115 JUMP JUMPDEST PUSH1 0x40 MLOAD PUSH2 0x92 SWAP2 SWAP1 PUSH2 0x361 JUMP JUMPDEST PUSH1 0x40 MLOAD DUP1 SWAP2 SUB SWAP1 RETURN JUMPDEST PUSH1 0x0 DUP1 PUSH1 0x0 DUP1 DUP6 DUP2 MSTORE PUSH1 0x20 ADD SWAP1 DUP2 MSTORE PUSH1 0x20 ADD PUSH1 0x0 KECCAK256 POP PUSH1 0x20 PUSH1 0xFF AND SUB PUSH2 0xED JUMPI PUSH1 0x40 MLOAD PUSH32 0xB0CE759100000000000000000000000000000000000000000000000000000000 DUP2 MSTORE PUSH1 0x4 ADD PUSH1 0x40 MLOAD DUP1 SWAP2 SUB SWAP1 REVERT JUMPDEST PUSH2 0x10B DUP6 DUP6 PUSH1 0x0 DUP1 DUP8 DUP2 MSTORE PUSH1 0x20 ADD SWAP1 DUP2 MSTORE PUSH1 0x20 ADD PUSH1 0x0 KECCAK256 SLOAD DUP6 PUSH2 0x144 JUMP JUMPDEST SWAP1 POP SWAP5 SWAP4 POP POP POP POP JUMP JUMPDEST PUSH1 0x1 PUSH1 0x20 MSTORE DUP2 PUSH1 0x0 MSTORE PUSH1 0x40 PUSH1 0x0 KECCAK256 PUSH1 0x20 MSTORE DUP1 PUSH1 0x0 MSTORE PUSH1 0x40 PUSH1 0x0 KECCAK256 PUSH1 0x0 SWAP2 POP SWAP2 POP SWAP1 SLOAD SWAP1 PUSH2 0x100 EXP SWAP1 DIV PUSH1 0xFF AND DUP2 JUMP JUMPDEST PUSH1 0x0 DUP3 PUSH2 0x152 DUP7 DUP7 DUP6 PUSH2 0x15D JUMP JUMPDEST EQ SWAP1 POP SWAP5 SWAP4 POP POP POP POP JUMP JUMPDEST PUSH1 0x0 DUP1 DUP3 SWAP1 POP PUSH1 0x0 JUMPDEST DUP6 DUP6 SWAP1 POP DUP2 LT ISZERO PUSH2 0x1A9 JUMPI PUSH2 0x194 DUP3 DUP8 DUP8 DUP5 DUP2 DUP2 LT PUSH2 0x188 JUMPI PUSH2 0x187 PUSH2 0x3BC JUMP JUMPDEST JUMPDEST SWAP1 POP PUSH1 0x20 MUL ADD CALLDATALOAD PUSH2 0x1B5 JUMP JUMPDEST SWAP2 POP DUP1 DUP1 PUSH2 0x1A1 SWAP1 PUSH2 0x41A JUMP JUMPDEST SWAP2 POP POP PUSH2 0x166 JUMP JUMPDEST POP DUP1 SWAP2 POP POP SWAP4 SWAP3 POP POP POP JUMP JUMPDEST PUSH1 0x0 DUP2 DUP4 LT PUSH2 0x1CD JUMPI PUSH2 0x1C8 DUP3 DUP5 PUSH2 0x1E0 JUMP JUMPDEST PUSH2 0x1D8 JUMP JUMPDEST PUSH2 0x1D7 DUP4 DUP4 PUSH2 0x1E0 JUMP JUMPDEST JUMPDEST SWAP1 POP SWAP3 SWAP2 POP POP JUMP JUMPDEST PUSH1 0x0 DUP3 PUSH1 0x0 MSTORE DUP2 PUSH1 0x20 MSTORE PUSH1 0x40 PUSH1 0x0 KECCAK256 SWAP1 POP SWAP3 SWAP2 POP POP JUMP JUMPDEST PUSH1 0x0 DUP1 REVERT JUMPDEST PUSH1 0x0 DUP1 REVERT JUMPDEST PUSH1 0x0 DUP1 REVERT JUMPDEST PUSH1 0x0 DUP1 REVERT JUMPDEST PUSH1 0x0 DUP1 REVERT JUMPDEST PUSH1 0x0 DUP1 DUP4 PUSH1 0x1F DUP5 ADD SLT PUSH2 0x226 JUMPI PUSH2 0x225 PUSH2 0x201 JUMP JUMPDEST JUMPDEST DUP3 CALLDATALOAD SWAP1 POP PUSH8 0xFFFFFFFFFFFFFFFF DUP2 GT ISZERO PUSH2 0x243 JUMPI PUSH2 0x242 PUSH2 0x206 JUMP JUMPDEST JUMPDEST PUSH1 0x20 DUP4 ADD SWAP2 POP DUP4 PUSH1 0x20 DUP3 MUL DUP4 ADD GT ISZERO PUSH2 0x25F JUMPI PUSH2 0x25E PUSH2 0x20B JUMP JUMPDEST JUMPDEST SWAP3 POP SWAP3 SWAP1 POP JUMP JUMPDEST PUSH1 0x0 DUP2 SWAP1 POP SWAP2 SWAP1 POP JUMP JUMPDEST PUSH2 0x279 DUP2 PUSH2 0x266 JUMP JUMPDEST DUP2 EQ PUSH2 0x284 JUMPI PUSH1 0x0 DUP1 REVERT JUMPDEST POP JUMP JUMPDEST PUSH1 0x0 DUP2 CALLDATALOAD SWAP1 POP PUSH2 0x296 DUP2 PUSH2 0x270 JUMP JUMPDEST SWAP3 SWAP2 POP POP JUMP JUMPDEST PUSH1 0x0 DUP2 SWAP1 POP SWAP2 SWAP1 POP JUMP JUMPDEST PUSH2 0x2AF DUP2 PUSH2 0x29C JUMP JUMPDEST DUP2 EQ PUSH2 0x2BA JUMPI PUSH1 0x0 DUP1 REVERT JUMPDEST POP JUMP JUMPDEST PUSH1 0x0 DUP2 CALLDATALOAD SWAP1 POP PUSH2 0x2CC DUP2 PUSH2 0x2A6 JUMP JUMPDEST SWAP3 SWAP2 POP POP JUMP JUMPDEST PUSH1 0x0 DUP1 PUSH1 0x0 DUP1 PUSH1 0x60 DUP6 DUP8 SUB SLT ISZERO PUSH2 0x2EC JUMPI PUSH2 0x2EB PUSH2 0x1F7 JUMP JUMPDEST JUMPDEST PUSH1 0x0 DUP6 ADD CALLDATALOAD PUSH8 0xFFFFFFFFFFFFFFFF DUP2 GT ISZERO PUSH2 0x30A JUMPI PUSH2 0x309 PUSH2 0x1FC JUMP JUMPDEST JUMPDEST PUSH2 0x316 DUP8 DUP3 DUP9 ADD PUSH2 0x210 JUMP JUMPDEST SWAP5 POP SWAP5 POP POP PUSH1 0x20 PUSH2 0x329 DUP8 DUP3 DUP9 ADD PUSH2 0x287 JUMP JUMPDEST SWAP3 POP POP PUSH1 0x40 PUSH2 0x33A DUP8 DUP3 DUP9 ADD PUSH2 0x2BD JUMP JUMPDEST SWAP2 POP POP SWAP3 SWAP6 SWAP2 SWAP5 POP SWAP3 POP JUMP JUMPDEST PUSH1 0x0 DUP2 ISZERO ISZERO SWAP1 POP SWAP2 SWAP1 POP JUMP JUMPDEST PUSH2 0x35B DUP2 PUSH2 0x346 JUMP JUMPDEST DUP3 MSTORE POP POP JUMP JUMPDEST PUSH1 0x0 PUSH1 0x20 DUP3 ADD SWAP1 POP PUSH2 0x376 PUSH1 0x0 DUP4 ADD DUP5 PUSH2 0x352 JUMP JUMPDEST SWAP3 SWAP2 POP POP JUMP JUMPDEST PUSH1 0x0 DUP1 PUSH1 0x40 DUP4 DUP6 SUB SLT ISZERO PUSH2 0x393 JUMPI PUSH2 0x392 PUSH2 0x1F7 JUMP JUMPDEST JUMPDEST PUSH1 0x0 PUSH2 0x3A1 DUP6 DUP3 DUP7 ADD PUSH2 0x287 JUMP JUMPDEST SWAP3 POP POP PUSH1 0x20 PUSH2 0x3B2 DUP6 DUP3 DUP7 ADD PUSH2 0x2BD JUMP JUMPDEST SWAP2 POP POP SWAP3 POP SWAP3 SWAP1 POP JUMP JUMPDEST PUSH32 0x4E487B7100000000000000000000000000000000000000000000000000000000 PUSH1 0x0 MSTORE PUSH1 0x32 PUSH1 0x4 MSTORE PUSH1 0x24 PUSH1 0x0 REVERT JUMPDEST PUSH32 0x4E487B7100000000000000000000000000000000000000000000000000000000 PUSH1 0x0 MSTORE PUSH1 0x11 PUSH1 0x4 MSTORE PUSH1 0x24 PUSH1 0x0 REVERT JUMPDEST PUSH1 0x0 PUSH2 0x425 DUP3 PUSH2 0x266 JUMP JUMPDEST SWAP2 POP PUSH32 0xFFFFFFFFFFFFFFFFFFFFFFFFFFFFFFFFFFFFFFFFFFFFFFFFFFFFFFFFFFFFFFFF DUP3 SUB PUSH2 0x457 JUMPI PUSH2 0x456 PUSH2 0x3EB JUMP JUMPDEST JUMPDEST PUSH1 0x1 DUP3 ADD SWAP1 POP SWAP2 SWAP1 POP JUMP INVALID LOG2 PUSH5 0x6970667358 0x22 SLT KECCAK256 0x4B PUSH25 0xAE9F961D4CBD476DA72B739FB0091DDD6BE30CF71AFA0A9218 0xD2 PUSH32 0xF7BA3B64736F6C63430008100033000000000000000000000000000000000000 "
				},
				"gasEstimates": {
					"creation": {
						"codeDepositCost": "235200",
						"executionCost": "275",
						"totalCost": "235475"
					},
					"external": {
						"hasBeenClaimed(uint256,bytes32)": "3038",
						"isAllowedToClaim(bytes32[],uint256,bytes32)": "infinite"
					},
					"internal": {
						"_calculateLeaf(address,uint256)": "infinite",
						"_createAllowlist(uint256,bytes32,uint256)": "infinite",
						"_processClaim(bytes32[] calldata,uint256,uint256)": "infinite"
					}
				},
				"methodIdentifiers": {
					"hasBeenClaimed(uint256,bytes32)": "a21ed980",
					"isAllowedToClaim(bytes32[],uint256,bytes32)": "3e11eefe"
				}
			},
			"storageLayout": {
				"storage": [
					{
						"astId": 26,
						"contract": "HypercertMinter/src/AllowlistMinter.sol:AllowlistMinter",
						"label": "merkleRoots",
						"offset": 0,
						"slot": "0",
						"type": "t_mapping(t_uint256,t_bytes32)"
					},
					{
						"astId": 32,
						"contract": "HypercertMinter/src/AllowlistMinter.sol:AllowlistMinter",
						"label": "hasBeenClaimed",
						"offset": 0,
						"slot": "1",
						"type": "t_mapping(t_uint256,t_mapping(t_bytes32,t_bool))"
					},
					{
						"astId": 36,
						"contract": "HypercertMinter/src/AllowlistMinter.sol:AllowlistMinter",
						"label": "maxUnits",
						"offset": 0,
						"slot": "2",
						"type": "t_mapping(t_uint256,t_uint256)"
					},
					{
						"astId": 40,
						"contract": "HypercertMinter/src/AllowlistMinter.sol:AllowlistMinter",
						"label": "minted",
						"offset": 0,
						"slot": "3",
						"type": "t_mapping(t_uint256,t_uint256)"
					},
					{
						"astId": 239,
						"contract": "HypercertMinter/src/AllowlistMinter.sol:AllowlistMinter",
						"label": "__gap",
						"offset": 0,
						"slot": "4",
						"type": "t_array(t_uint256)26_storage"
					}
				],
				"types": {
					"t_array(t_uint256)26_storage": {
						"base": "t_uint256",
						"encoding": "inplace",
						"label": "uint256[26]",
						"numberOfBytes": "832"
					},
					"t_bool": {
						"encoding": "inplace",
						"label": "bool",
						"numberOfBytes": "1"
					},
					"t_bytes32": {
						"encoding": "inplace",
						"label": "bytes32",
						"numberOfBytes": "32"
					},
					"t_mapping(t_bytes32,t_bool)": {
						"encoding": "mapping",
						"key": "t_bytes32",
						"label": "mapping(bytes32 => bool)",
						"numberOfBytes": "32",
						"value": "t_bool"
					},
					"t_mapping(t_uint256,t_bytes32)": {
						"encoding": "mapping",
						"key": "t_uint256",
						"label": "mapping(uint256 => bytes32)",
						"numberOfBytes": "32",
						"value": "t_bytes32"
					},
					"t_mapping(t_uint256,t_mapping(t_bytes32,t_bool))": {
						"encoding": "mapping",
						"key": "t_uint256",
						"label": "mapping(uint256 => mapping(bytes32 => bool))",
						"numberOfBytes": "32",
						"value": "t_mapping(t_bytes32,t_bool)"
					},
					"t_mapping(t_uint256,t_uint256)": {
						"encoding": "mapping",
						"key": "t_uint256",
						"label": "mapping(uint256 => uint256)",
						"numberOfBytes": "32",
						"value": "t_uint256"
					},
					"t_uint256": {
						"encoding": "inplace",
						"label": "uint256",
						"numberOfBytes": "32"
					}
				}
			},
			"userdoc": {
				"kind": "user",
				"methods": {},
				"notice": "This interface declares the required functionality for a hypercert tokenThis interface does not specify the underlying token type (e.g. 721 or 1155)",
				"version": 1
			}
		}
	}
}