{
	"data": {
		"bytecode": {
			"linkReferences": {},
			"object": "608060405234801561001057600080fd5b50610498806100206000396000f3fe608060405234801561001057600080fd5b50600436106100365760003560e01c80633e11eefe1461003b578063a21ed9801461006b575b600080fd5b610055600480360381019061005091906102d2565b61009b565b6040516100629190610361565b60405180910390f35b6100856004803603810190610080919061037c565b610115565b6040516100929190610361565b60405180910390f35b60008060008085815260200190815260200160002050602060ff16036100ed576040517fb0ce759100000000000000000000000000000000000000000000000000000000815260040160405180910390fd5b61010b85856000808781526020019081526020016000205485610144565b9050949350505050565b60016020528160005260406000206020528060005260406000206000915091509054906101000a900460ff1681565b60008261015286868561015d565b149050949350505050565b60008082905060005b858590508110156101a95761019482878784818110610188576101876103bc565b5b905060200201356101b5565b915080806101a19061041a565b915050610166565b50809150509392505050565b60008183106101cd576101c882846101e0565b6101d8565b6101d783836101e0565b5b905092915050565b600082600052816020526040600020905092915050565b600080fd5b600080fd5b600080fd5b600080fd5b600080fd5b60008083601f84011261022657610225610201565b5b8235905067ffffffffffffffff81111561024357610242610206565b5b60208301915083602082028301111561025f5761025e61020b565b5b9250929050565b6000819050919050565b61027981610266565b811461028457600080fd5b50565b60008135905061029681610270565b92915050565b6000819050919050565b6102af8161029c565b81146102ba57600080fd5b50565b6000813590506102cc816102a6565b92915050565b600080600080606085870312156102ec576102eb6101f7565b5b600085013567ffffffffffffffff81111561030a576103096101fc565b5b61031687828801610210565b9450945050602061032987828801610287565b925050604061033a878288016102bd565b91505092959194509250565b60008115159050919050565b61035b81610346565b82525050565b60006020820190506103766000830184610352565b92915050565b60008060408385031215610393576103926101f7565b5b60006103a185828601610287565b92505060206103b2858286016102bd565b9150509250929050565b7f4e487b7100000000000000000000000000000000000000000000000000000000600052603260045260246000fd5b7f4e487b7100000000000000000000000000000000000000000000000000000000600052601160045260246000fd5b600061042582610266565b91507fffffffffffffffffffffffffffffffffffffffffffffffffffffffffffffffff8203610457576104566103eb565b5b60018201905091905056fea26469706673582212204b78ae9f961d4cbd476da72b739fb0091ddd6be30cf71afa0a9218d27ff7ba3b64736f6c63430008100033",
			"opcodes": "PUSH1 0x80 PUSH1 0x40 MSTORE CALLVALUE DUP1 ISZERO PUSH2 0x10 JUMPI PUSH1 0x0 DUP1 REVERT JUMPDEST POP PUSH2 0x498 DUP1 PUSH2 0x20 PUSH1 0x0 CODECOPY PUSH1 0x0 RETURN INVALID PUSH1 0x80 PUSH1 0x40 MSTORE CALLVALUE DUP1 ISZERO PUSH2 0x10 JUMPI PUSH1 0x0 DUP1 REVERT JUMPDEST POP PUSH1 0x4 CALLDATASIZE LT PUSH2 0x36 JUMPI PUSH1 0x0 CALLDATALOAD PUSH1 0xE0 SHR DUP1 PUSH4 0x3E11EEFE EQ PUSH2 0x3B JUMPI DUP1 PUSH4 0xA21ED980 EQ PUSH2 0x6B JUMPI JUMPDEST PUSH1 0x0 DUP1 REVERT JUMPDEST PUSH2 0x55 PUSH1 0x4 DUP1 CALLDATASIZE SUB DUP2 ADD SWAP1 PUSH2 0x50 SWAP2 SWAP1 PUSH2 0x2D2 JUMP JUMPDEST PUSH2 0x9B JUMP JUMPDEST PUSH1 0x40 MLOAD PUSH2 0x62 SWAP2 SWAP1 PUSH2 0x361 JUMP JUMPDEST PUSH1 0x40 MLOAD DUP1 SWAP2 SUB SWAP1 RETURN JUMPDEST PUSH2 0x85 PUSH1 0x4 DUP1 CALLDATASIZE SUB DUP2 ADD SWAP1 PUSH2 0x80 SWAP2 SWAP1 PUSH2 0x37C JUMP JUMPDEST PUSH2 0x115 JUMP JUMPDEST PUSH1 0x40 MLOAD PUSH2 0x92 SWAP2 SWAP1 PUSH2 0x361 JUMP JUMPDEST PUSH1 0x40 MLOAD DUP1 SWAP2 SUB SWAP1 RETURN JUMPDEST PUSH1 0x0 DUP1 PUSH1 0x0 DUP1 DUP6 DUP2 MSTORE PUSH1 0x20 ADD SWAP1 DUP2 MSTORE PUSH1 0x20 ADD PUSH1 0x0 KECCAK256 POP PUSH1 0x20 PUSH1 0xFF AND SUB PUSH2 0xED JUMPI PUSH1 0x40 MLOAD PUSH32 0xB0CE759100000000000000000000000000000000000000000000000000000000 DUP2 MSTORE PUSH1 0x4 ADD PUSH1 0x40 MLOAD DUP1 SWAP2 SUB SWAP1 REVERT JUMPDEST PUSH2 0x10B DUP6 DUP6 PUSH1 0x0 DUP1 DUP8 DUP2 MSTORE PUSH1 0x20 ADD SWAP1 DUP2 MSTORE PUSH1 0x20 ADD PUSH1 0x0 KECCAK256 SLOAD DUP6 PUSH2 0x144 JUMP JUMPDEST SWAP1 POP SWAP5 SWAP4 POP POP POP POP JUMP JUMPDEST PUSH1 0x1 PUSH1 0x20 MSTORE DUP2 PUSH1 0x0 MSTORE PUSH1 0x40 PUSH1 0x0 KECCAK256 PUSH1 0x20 MSTORE DUP1 PUSH1 0x0 MSTORE PUSH1 0x40 PUSH1 0x0 KECCAK256 PUSH1 0x0 SWAP2 POP SWAP2 POP SWAP1 SLOAD SWAP1 PUSH2 0x100 EXP SWAP1 DIV PUSH1 0xFF AND DUP2 JUMP JUMPDEST PUSH1 0x0 DUP3 PUSH2 0x152 DUP7 DUP7 DUP6 PUSH2 0x15D JUMP JUMPDEST EQ SWAP1 POP SWAP5 SWAP4 POP POP POP POP JUMP JUMPDEST PUSH1 0x0 DUP1 DUP3 SWAP1 POP PUSH1 0x0 JUMPDEST DUP6 DUP6 SWAP1 POP DUP2 LT ISZERO PUSH2 0x1A9 JUMPI PUSH2 0x194 DUP3 DUP8 DUP8 DUP5 DUP2 DUP2 LT PUSH2 0x188 JUMPI PUSH2 0x187 PUSH2 0x3BC JUMP JUMPDEST JUMPDEST SWAP1 POP PUSH1 0x20 MUL ADD CALLDATALOAD PUSH2 0x1B5 JUMP JUMPDEST SWAP2 POP DUP1 DUP1 PUSH2 0x1A1 SWAP1 PUSH2 0x41A JUMP JUMPDEST SWAP2 POP POP PUSH2 0x166 JUMP JUMPDEST POP DUP1 SWAP2 POP POP SWAP4 SWAP3 POP POP POP JUMP JUMPDEST PUSH1 0x0 DUP2 DUP4 LT PUSH2 0x1CD JUMPI PUSH2 0x1C8 DUP3 DUP5 PUSH2 0x1E0 JUMP JUMPDEST PUSH2 0x1D8 JUMP JUMPDEST PUSH2 0x1D7 DUP4 DUP4 PUSH2 0x1E0 JUMP JUMPDEST JUMPDEST SWAP1 POP SWAP3 SWAP2 POP POP JUMP JUMPDEST PUSH1 0x0 DUP3 PUSH1 0x0 MSTORE DUP2 PUSH1 0x20 MSTORE PUSH1 0x40 PUSH1 0x0 KECCAK256 SWAP1 POP SWAP3 SWAP2 POP POP JUMP JUMPDEST PUSH1 0x0 DUP1 REVERT JUMPDEST PUSH1 0x0 DUP1 REVERT JUMPDEST PUSH1 0x0 DUP1 REVERT JUMPDEST PUSH1 0x0 DUP1 REVERT JUMPDEST PUSH1 0x0 DUP1 REVERT JUMPDEST PUSH1 0x0 DUP1 DUP4 PUSH1 0x1F DUP5 ADD SLT PUSH2 0x226 JUMPI PUSH2 0x225 PUSH2 0x201 JUMP JUMPDEST JUMPDEST DUP3 CALLDATALOAD SWAP1 POP PUSH8 0xFFFFFFFFFFFFFFFF DUP2 GT ISZERO PUSH2 0x243 JUMPI PUSH2 0x242 PUSH2 0x206 JUMP JUMPDEST JUMPDEST PUSH1 0x20 DUP4 ADD SWAP2 POP DUP4 PUSH1 0x20 DUP3 MUL DUP4 ADD GT ISZERO PUSH2 0x25F JUMPI PUSH2 0x25E PUSH2 0x20B JUMP JUMPDEST JUMPDEST SWAP3 POP SWAP3 SWAP1 POP JUMP JUMPDEST PUSH1 0x0 DUP2 SWAP1 POP SWAP2 SWAP1 POP JUMP JUMPDEST PUSH2 0x279 DUP2 PUSH2 0x266 JUMP JUMPDEST DUP2 EQ PUSH2 0x284 JUMPI PUSH1 0x0 DUP1 REVERT JUMPDEST POP JUMP JUMPDEST PUSH1 0x0 DUP2 CALLDATALOAD SWAP1 POP PUSH2 0x296 DUP2 PUSH2 0x270 JUMP JUMPDEST SWAP3 SWAP2 POP POP JUMP JUMPDEST PUSH1 0x0 DUP2 SWAP1 POP SWAP2 SWAP1 POP JUMP JUMPDEST PUSH2 0x2AF DUP2 PUSH2 0x29C JUMP JUMPDEST DUP2 EQ PUSH2 0x2BA JUMPI PUSH1 0x0 DUP1 REVERT JUMPDEST POP JUMP JUMPDEST PUSH1 0x0 DUP2 CALLDATALOAD SWAP1 POP PUSH2 0x2CC DUP2 PUSH2 0x2A6 JUMP JUMPDEST SWAP3 SWAP2 POP POP JUMP JUMPDEST PUSH1 0x0 DUP1 PUSH1 0x0 DUP1 PUSH1 0x60 DUP6 DUP8 SUB SLT ISZERO PUSH2 0x2EC JUMPI PUSH2 0x2EB PUSH2 0x1F7 JUMP JUMPDEST JUMPDEST PUSH1 0x0 DUP6 ADD CALLDATALOAD PUSH8 0xFFFFFFFFFFFFFFFF DUP2 GT ISZERO PUSH2 0x30A JUMPI PUSH2 0x309 PUSH2 0x1FC JUMP JUMPDEST JUMPDEST PUSH2 0x316 DUP8 DUP3 DUP9 ADD PUSH2 0x210 JUMP JUMPDEST SWAP5 POP SWAP5 POP POP PUSH1 0x20 PUSH2 0x329 DUP8 DUP3 DUP9 ADD PUSH2 0x287 JUMP JUMPDEST SWAP3 POP POP PUSH1 0x40 PUSH2 0x33A DUP8 DUP3 DUP9 ADD PUSH2 0x2BD JUMP JUMPDEST SWAP2 POP POP SWAP3 SWAP6 SWAP2 SWAP5 POP SWAP3 POP JUMP JUMPDEST PUSH1 0x0 DUP2 ISZERO ISZERO SWAP1 POP SWAP2 SWAP1 POP JUMP JUMPDEST PUSH2 0x35B DUP2 PUSH2 0x346 JUMP JUMPDEST DUP3 MSTORE POP POP JUMP JUMPDEST PUSH1 0x0 PUSH1 0x20 DUP3 ADD SWAP1 POP PUSH2 0x376 PUSH1 0x0 DUP4 ADD DUP5 PUSH2 0x352 JUMP JUMPDEST SWAP3 SWAP2 POP POP JUMP JUMPDEST PUSH1 0x0 DUP1 PUSH1 0x40 DUP4 DUP6 SUB SLT ISZERO PUSH2 0x393 JUMPI PUSH2 0x392 PUSH2 0x1F7 JUMP JUMPDEST JUMPDEST PUSH1 0x0 PUSH2 0x3A1 DUP6 DUP3 DUP7 ADD PUSH2 0x287 JUMP JUMPDEST SWAP3 POP POP PUSH1 0x20 PUSH2 0x3B2 DUP6 DUP3 DUP7 ADD PUSH2 0x2BD JUMP JUMPDEST SWAP2 POP POP SWAP3 POP SWAP3 SWAP1 POP JUMP JUMPDEST PUSH32 0x4E487B7100000000000000000000000000000000000000000000000000000000 PUSH1 0x0 MSTORE PUSH1 0x32 PUSH1 0x4 MSTORE PUSH1 0x24 PUSH1 0x0 REVERT JUMPDEST PUSH32 0x4E487B7100000000000000000000000000000000000000000000000000000000 PUSH1 0x0 MSTORE PUSH1 0x11 PUSH1 0x4 MSTORE PUSH1 0x24 PUSH1 0x0 REVERT JUMPDEST PUSH1 0x0 PUSH2 0x425 DUP3 PUSH2 0x266 JUMP JUMPDEST SWAP2 POP PUSH32 0xFFFFFFFFFFFFFFFFFFFFFFFFFFFFFFFFFFFFFFFFFFFFFFFFFFFFFFFFFFFFFFFF DUP3 SUB PUSH2 0x457 JUMPI PUSH2 0x456 PUSH2 0x3EB JUMP JUMPDEST JUMPDEST PUSH1 0x1 DUP3 ADD SWAP1 POP SWAP2 SWAP1 POP JUMP INVALID LOG2 PUSH5 0x6970667358 0x22 SLT KECCAK256 0x4B PUSH25 0xAE9F961D4CBD476DA72B739FB0091DDD6BE30CF71AFA0A9218 0xD2 PUSH32 0xF7BA3B64736F6C63430008100033000000000000000000000000000000000000 "
		},
		"gasEstimates": {
			"creation": {
				"codeDepositCost": "235200",
				"executionCost": "275",
				"totalCost": "235475"
			},
			"external": {
				"hasBeenClaimed(uint256,bytes32)": "3038",
				"isAllowedToClaim(bytes32[],uint256,bytes32)": "infinite"
			},
			"internal": {
				"_calculateLeaf(address,uint256)": "infinite",
				"_createAllowlist(uint256,bytes32,uint256)": "infinite",
				"_processClaim(bytes32[] calldata,uint256,uint256)": "infinite"
			}
		},
		"methodIdentifiers": {
			"hasBeenClaimed(uint256,bytes32)": "a21ed980",
			"isAllowedToClaim(bytes32[],uint256,bytes32)": "3e11eefe"
		}
	},
	"abi": [
		{
			"inputs": [],
			"name": "DoesNotExist",
			"type": "error"
		},
		{
			"anonymous": false,
			"inputs": [
				{
					"indexed": false,
					"internalType": "uint256",
					"name": "tokenID",
					"type": "uint256"
				},
				{
					"indexed": false,
					"internalType": "bytes32",
					"name": "root",
					"type": "bytes32"
				}
			],
			"name": "AllowlistCreated",
			"type": "event"
		},
		{
			"anonymous": false,
			"inputs": [
				{
					"indexed": false,
					"internalType": "uint256",
					"name": "tokenID",
					"type": "uint256"
				},
				{
					"indexed": false,
					"internalType": "bytes32",
					"name": "leaf",
					"type": "bytes32"
				}
			],
			"name": "LeafClaimed",
			"type": "event"
		},
		{
			"inputs": [
				{
					"internalType": "uint256",
					"name": "",
					"type": "uint256"
				},
				{
					"internalType": "bytes32",
					"name": "",
					"type": "bytes32"
				}
			],
			"name": "hasBeenClaimed",
			"outputs": [
				{
					"internalType": "bool",
					"name": "",
					"type": "bool"
				}
			],
			"stateMutability": "view",
			"type": "function"
		},
		{
			"inputs": [
				{
					"internalType": "bytes32[]",
					"name": "proof",
					"type": "bytes32[]"
				},
				{
					"internalType": "uint256",
					"name": "claimID",
					"type": "uint256"
				},
				{
					"internalType": "bytes32",
					"name": "leaf",
					"type": "bytes32"
				}
			],
			"name": "isAllowedToClaim",
			"outputs": [
				{
					"internalType": "bool",
					"name": "isAllowed",
					"type": "bool"
				}
			],
			"stateMutability": "view",
			"type": "function"
		}
	]
}