{
	"data": {
		"bytecode": {
			"linkReferences": {},
			"object": "60a0604052306080523480156200001557600080fd5b506200002062000026565b620000e7565b600054610100900460ff1615620000935760405162461bcd60e51b815260206004820152602760248201527f496e697469616c697a61626c653a20636f6e747261637420697320696e697469604482015266616c697a696e6760c81b606482015260840160405180910390fd5b60005460ff90811614620000e5576000805460ff191660ff9081179091556040519081527f7f26b83ff96e1f2b6a682f133852f6798a09c465da95921460cefb38474024989060200160405180910390a15b565b608051614e6f6200011f60003960008181610978015281816109b801528181610cb801528181610cf80152610d8b0152614e6f6000f3fe60806040526004361061020e5760003560e01c8063715018a611610118578063b316962f116100a0578063f242432a1161006f578063f242432a14610669578063f2fde38b14610689578063f5298aca146106a9578063f6b12293146106c9578063fda4823c146106e957600080fd5b8063b316962f146105c0578063c7b26c54146105e0578063e985e9c514610600578063f11690621461064957600080fd5b80638fc202dd116100e75780638fc202dd1461050f578063993de1841461052457806399f771a714610544578063a21ed98014610564578063a22cb465146105a057600080fd5b8063715018a6146104b25780638129fc1c146104c75780638456cb59146104dc5780638da5cb5b146104f157600080fd5b80633f4ba83a1161019b57806352d1902d1161016a57806352d1902d146103f55780635c975abb1461040a5780636352211e146104235780636b20c454146104725780636ebd893f1461049257600080fd5b80633f4ba83a146103805780633f71e944146103955780634e1273f4146103b55780634f1ef286146103e257600080fd5b80631a2e9824116101e25780631a2e9824146102de5780631e75a8b5146102fe5780632eb2c2d6146103205780633659cfe6146103405780633e11eefe1461036057600080fd5b8062fdd58e1461021357806301ffc9a71461024657806306fdde03146102765780630e89341c146102be575b600080fd5b34801561021f57600080fd5b5061023361022e366004613ba0565b610709565b6040519081526020015b60405180910390f35b34801561025257600080fd5b50610266610261366004613be0565b6107a4565b604051901515815260200161023d565b34801561028257600080fd5b506102b16040518060400160405280600f81526020016e243cb832b931b2b93a26b4b73a32b960891b81525081565b60405161023d9190613c4d565b3480156102ca57600080fd5b506102b16102d9366004613c60565b6107f4565b3480156102ea57600080fd5b506102336102f9366004613ba0565b6107ff565b34801561030a57600080fd5b5061031e610319366004613d88565b610812565b005b34801561032c57600080fd5b5061031e61033b366004613eae565b610922565b34801561034c57600080fd5b5061031e61035b366004613f57565b61096e565b34801561036c57600080fd5b5061026661037b366004613f72565b610a4d565b34801561038c57600080fd5b5061031e610a74565b3480156103a157600080fd5b506102b16103b0366004613c60565b610a86565b3480156103c157600080fd5b506103d56103d0366004613fc2565b610b85565b60405161023d91906140c7565b61031e6103f03660046140da565b610cae565b34801561040157600080fd5b50610233610d7e565b34801561041657600080fd5b506101cd5460ff16610266565b34801561042f57600080fd5b5061045a61043e366004613c60565b600090815261019260205260409020546001600160a01b031690565b6040516001600160a01b03909116815260200161023d565b34801561047e57600080fd5b5061031e61048d36600461411d565b610e32565b34801561049e57600080fd5b5061031e6104ad366004614190565b610e7a565b3480156104be57600080fd5b5061031e610e94565b3480156104d357600080fd5b5061031e610ea6565b3480156104e857600080fd5b5061031e610fbe565b3480156104fd57600080fd5b5060fb546001600160a01b031661045a565b34801561051b57600080fd5b5061031e610fce565b34801561053057600080fd5b5061031e61053f3660046141e9565b61102d565b34801561055057600080fd5b5061023361055f366004613c60565b611054565b34801561057057600080fd5b5061026661057f36600461424d565b6101b060209081526000928352604080842090915290825290205460ff1681565b3480156105ac57600080fd5b5061031e6105bb36600461426f565b611069565b3480156105cc57600080fd5b5061031e6105db3660046142ab565b611074565b3480156105ec57600080fd5b5061031e6105fb36600461431c565b611109565b34801561060c57600080fd5b5061026661061b36600461436e565b6001600160a01b03918216600090815260666020908152604080832093909416825291909152205460ff1690565b34801561065557600080fd5b5061031e6106643660046143a1565b61114e565b34801561067557600080fd5b5061031e61068436600461444b565b6111e1565b34801561069557600080fd5b5061031e6106a4366004613f57565b611226565b3480156106b557600080fd5b5061031e6106c43660046144af565b61129c565b3480156106d557600080fd5b5061031e6106e4366004613ba0565b6112df565b3480156106f557600080fd5b5061031e6107043660046144e2565b6112f1565b60006001600160a01b0383166107795760405162461bcd60e51b815260206004820152602a60248201527f455243313135353a2061646472657373207a65726f206973206e6f742061207660448201526930b634b21037bbb732b960b11b60648201526084015b60405180910390fd5b5060008181526065602090815260408083206001600160a01b03861684529091529020545b92915050565b60006001600160e01b03198216636cdb3d1360e11b14806107d557506001600160e01b031982166303a24d0760e21b145b8061079e57506301ffc9a760e01b6001600160e01b031983161461079e565b606061079e826113a3565b600061080b83836113b9565b9392505050565b61081a6113f1565b336001600160a01b0387161461084357604051631eb49d6d60e11b815260040160405180910390fd5b8461088085858080602002602001604051908101604052809392919081815260200183836020028082843760009201919091525061143892505050565b1461089e57604051636dac6a0960e01b815260040160405180910390fd5b60006108ac878686866114b7565b60008181526101ff602052604090208054919250839160ff191660018360028111156108da576108da614549565b0217905550807f19789dde2d660b739733377add05f87576a360d2d4adea587c2592264f7f6d4e848860405161091192919061455f565b60405180910390a250505050505050565b6001600160a01b03851633148061093e575061093e853361061b565b61095a5760405162461bcd60e51b815260040161077090614581565b6109678585858585611531565b5050505050565b6001600160a01b037f00000000000000000000000000000000000000000000000000000000000000001630036109b65760405162461bcd60e51b8152600401610770906145cf565b7f00000000000000000000000000000000000000000000000000000000000000006001600160a01b03166109ff600080516020614df3833981519152546001600160a01b031690565b6001600160a01b031614610a255760405162461bcd60e51b81526004016107709061461b565b610a2e816116e4565b60408051600080825260208201909252610a4a918391906116ec565b50565b60008281526101af6020526040812054610a6b908690869085611857565b95945050505050565b610a7c61186f565b610a846118c9565b565b6001600160801b0319811660009081526101ff602052604081205460609160ff90911690816002811115610abc57610abc614549565b03610ae7575050604080518082019091526008815267105b1b1bddd05b1b60c21b6020820152919050565b6001816002811115610afb57610afb614549565b03610b2957505060408051808201909152600b81526a111a5cd85b1b1bddd05b1b60aa1b6020820152919050565b6002816002811115610b3d57610b3d614549565b03610b6f57505060408051808201909152600f81526e46726f6d43726561746f724f6e6c7960881b6020820152919050565b5050604080516020810190915260008152919050565b60608151835114610bea5760405162461bcd60e51b815260206004820152602960248201527f455243313135353a206163636f756e747320616e6420696473206c656e677468604482015268040dad2e6dac2e8c6d60bb1b6064820152608401610770565b600083516001600160401b03811115610c0557610c05613cc4565b604051908082528060200260200182016040528015610c2e578160200160208202803683370190505b50905060005b8451811015610ca657610c79858281518110610c5257610c52614667565b6020026020010151858381518110610c6c57610c6c614667565b6020026020010151610709565b828281518110610c8b57610c8b614667565b6020908102919091010152610c9f81614693565b9050610c34565b509392505050565b6001600160a01b037f0000000000000000000000000000000000000000000000000000000000000000163003610cf65760405162461bcd60e51b8152600401610770906145cf565b7f00000000000000000000000000000000000000000000000000000000000000006001600160a01b0316610d3f600080516020614df3833981519152546001600160a01b031690565b6001600160a01b031614610d655760405162461bcd60e51b81526004016107709061461b565b610d6e826116e4565b610d7a828260016116ec565b5050565b6000306001600160a01b037f00000000000000000000000000000000000000000000000000000000000000001614610e1e5760405162461bcd60e51b815260206004820152603860248201527f555550535570677261646561626c653a206d757374206e6f742062652063616c60448201527f6c6564207468726f7567682064656c656761746563616c6c00000000000000006064820152608401610770565b50600080516020614df38339815191525b90565b6001600160a01b038316331480610e4e5750610e4e833361061b565b610e6a5760405162461bcd60e51b815260040161077090614581565b610e7583838361191c565b505050565b610e826113f1565b610e8e84848484611ac5565b50505050565b610e9c61186f565b610a846000611fca565b600054610100900460ff1615808015610ec65750600054600160ff909116105b80610ee05750303b158015610ee0575060005460ff166001145b610f435760405162461bcd60e51b815260206004820152602e60248201527f496e697469616c697a61626c653a20636f6e747261637420697320616c72656160448201526d191e481a5b9a5d1a585b1a5e995960921b6064820152608401610770565b6000805460ff191660011790558015610f66576000805461ff0019166101001790555b610f6e610fce565b610f7661201c565b8015610a4a576000805461ff0019169055604051600181527f7f26b83ff96e1f2b6a682f133852f6798a09c465da95921460cefb38474024989060200160405180910390a150565b610fc661186f565b610a8461204b565b600054610100900460ff16610ff55760405162461bcd60e51b8152600401610770906146ac565b61100d60405180602001604052806000815250612089565b6110156120b9565b61101d6120e0565b61102561210f565b610a846120b9565b6110356113f1565b6110418484848461213e565b61104c858383612295565b505050505050565b6000818152610194602052604081205461079e565b610d7a33838361236d565b61107c6113f1565b600061108986868561244d565b90506110968185876124f4565b60008181526101ff60205260409020805483919060ff191660018360028111156110c2576110c2614549565b0217905550807f19789dde2d660b739733377add05f87576a360d2d4adea587c2592264f7f6d4e84876040516110f992919061455f565b60405180910390a2505050505050565b6111116113f1565b610e75838383808060200260200160405190810160405280939291908181526020018383602002808284376000920191909152506125a892505050565b6111566113f1565b8260005b818110156111c8576111c088888381811061117757611177614667565b905060200281019061118991906146f7565b88888581811061119b5761119b614667565b905060200201358787868181106111b4576111b4614667565b9050602002013561213e565b60010161115a565b506111d6888686868661289f565b505050505050505050565b6001600160a01b0385163314806111fd57506111fd853361061b565b6112195760405162461bcd60e51b815260040161077090614581565b6109678585858585612ad7565b61122e61186f565b6001600160a01b0381166112935760405162461bcd60e51b815260206004820152602660248201527f4f776e61626c653a206e6577206f776e657220697320746865207a65726f206160448201526564647265737360d01b6064820152608401610770565b610a4a81611fca565b6001600160a01b0383163314806112b857506112b8833361061b565b6112d45760405162461bcd60e51b815260040161077090614581565b610e75838383612c04565b6112e76113f1565b610d7a8282612d21565b6112f96113f1565b336001600160a01b0385161461132257604051631eb49d6d60e11b815260040160405180910390fd5b600061132f858585612dce565b60008181526101ff602052604090208054919250839160ff1916600183600281111561135d5761135d614549565b0217905550807f19789dde2d660b739733377add05f87576a360d2d4adea587c2592264f7f6d4e848660405161139492919061455f565b60405180910390a25050505050565b60606001600160801b0319821661080b81612eb3565b600081815261019260205260408120546001600160a01b0384811691160361079e575060009081526101946020526040902054919050565b6101cd5460ff1615610a845760405162461bcd60e51b815260206004820152601060248201526f14185d5cd8589b194e881c185d5cd95960821b6044820152606401610770565b8051600090815b818110156114b05783818151811061145957611459614667565b602002602001015160000361148157604051631eb49d6d60e11b815260040160405180910390fd5b83818151811061149357611493614667565b6020026020010151836114a69190614740565b925060010161143f565b5050919050565b60006114ff856114f986868080602002602001604051908101604052809392919081815260200183836020028082843760009201919091525061143892505050565b84612dce565b600081815261019560205260409020549091506115299086906115229084614740565b8686611ac5565b949350505050565b81518351146115525760405162461bcd60e51b815260040161077090614753565b6001600160a01b0384166115785760405162461bcd60e51b81526004016107709061479b565b33611587818787878787612f92565b60005b84518110156116705760008582815181106115a7576115a7614667565b6020026020010151905060008583815181106115c5576115c5614667565b60209081029190910181015160008481526065835260408082206001600160a01b038e1683529093529190912054909150818110156116165760405162461bcd60e51b8152600401610770906147e0565b60008381526065602090815260408083206001600160a01b038e8116855292528083208585039055908b16825281208054849290611655908490614740565b925050819055505050508061166990614693565b905061158a565b50846001600160a01b0316866001600160a01b0316826001600160a01b03167f4a39dc06d4c0dbc64b70af90fd698a233a518aa5d07e595d983b8c0526c8f7fb87876040516116c092919061482a565b60405180910390a46116d681878787878761309f565b61104c818787878787613109565b610a4a61186f565b7f4910fdfa16fed3260ed0e7147f7cc6da11a60208b5b9406d12a635614ffd91435460ff161561171f57610e7583613264565b826001600160a01b03166352d1902d6040518163ffffffff1660e01b8152600401602060405180830381865afa925050508015611779575060408051601f3d908101601f191682019092526117769181019061484f565b60015b6117dc5760405162461bcd60e51b815260206004820152602e60248201527f45524331393637557067726164653a206e657720696d706c656d656e7461746960448201526d6f6e206973206e6f74205555505360901b6064820152608401610770565b600080516020614df3833981519152811461184b5760405162461bcd60e51b815260206004820152602960248201527f45524331393637557067726164653a20756e737570706f727465642070726f786044820152681a58589b195555525160ba1b6064820152608401610770565b50610e75838383613300565b600082611865868685613325565b1495945050505050565b60fb546001600160a01b03163314610a845760405162461bcd60e51b815260206004820181905260248201527f4f776e61626c653a2063616c6c6572206973206e6f7420746865206f776e65726044820152606401610770565b6118d1613371565b6101cd805460ff191690557f5db9ee0a495bf2e6ff9c91a7834c1ba4fdd244a5e8aa4e537bd38aeae4b073aa335b6040516001600160a01b03909116815260200160405180910390a1565b6001600160a01b0383166119425760405162461bcd60e51b815260040161077090614868565b80518251146119635760405162461bcd60e51b815260040161077090614753565b600033905061198681856000868660405180602001604052806000815250612f92565b60005b8351811015611a4e5760008482815181106119a6576119a6614667565b6020026020010151905060008483815181106119c4576119c4614667565b60209081029190910181015160008481526065835260408082206001600160a01b038c168352909352919091205490915081811015611a155760405162461bcd60e51b8152600401610770906148ab565b60009283526065602090815260408085206001600160a01b038b1686529091529092209103905580611a4681614693565b915050611989565b5060006001600160a01b0316846001600160a01b0316826001600160a01b03167f4a39dc06d4c0dbc64b70af90fd698a233a518aa5d07e595d983b8c0526c8f7fb8686604051611a9f92919061482a565b60405180910390a4610e8e8185600086866040518060200160405280600081525061309f565b60fd811180611ad45750600281105b15611af257604051633ada02e560e01b815260040160405180910390fd5b611b2e82828080602002602001604051908101604052809392919081815260200183836020028082843760009201919091525061143892505050565b6000848152610194602052604090205414611b5c57604051631eb49d6d60e11b815260040160405180910390fd5b600083815261019460205260408120546001600160801b0319851691611b836001856148ef565b90506000816001600160401b03811115611b9f57611b9f613cc4565b604051908082528060200260200182016040528015611bc8578160200160208202803683370190505b5090506000826001600160401b03811115611be557611be5613cc4565b604051908082528060200260200182016040528015611c0e578160200160208202803683370190505b5090506000836001600160401b03811115611c2b57611c2b613cc4565b604051908082528060200260200182016040528015611c54578160200160208202803683370190505b5090506000846001600160401b03811115611c7157611c71613cc4565b604051908082528060200260200182016040528015611c9a578160200160208202803683370190505b5090506000856001600160401b03811115611cb757611cb7613cc4565b604051908082528060200260200182016040528015611ce0578160200160208202803683370190505b50905060008a8a8080602002602001604051908101604052809392919081815260200183836020028082843760009201829052508451949550938593508b925082109050611d3057611d30614667565b6020026020010151905081600081518110611d4d57611d4d614667565b6020026020010151828981518110611d6757611d67614667565b6020026020010181815250508082600081518110611d8757611d87614667565b60200260200101818152505060005b88811015611ea25760008b81526101956020526040902054611db7906133bb565b8a888281518110611dca57611dca614667565b6020026020010181815250508d878281518110611de957611de9614667565b60200260200101818152505061019560008c815260200190815260200160002060008154611e1690614693565b9182905550611e25908c614740565b868281518110611e3757611e37614667565b6020026020010181815250506001858281518110611e5757611e57614667565b602002602001018181525050828181518110611e7557611e75614667565b6020026020010151848281518110611e8f57611e8f614667565b6020908102919091010152600101611d96565b505050611ec8611eaf3390565b8d868685604051806020016040528060008152506133c5565b60005b86811015611f5057818181518110611ee557611ee5614667565b602002602001015188611ef891906148ef565b9750818181518110611f0c57611f0c614667565b60200260200101516101946000868481518110611f2b57611f2b614667565b6020026020010151815260200190815260200160002081905550806001019050611ecb565b5060008b8152610194602090815260408083208a905580519182019052908152611f7f908d90859085906134b1565b7f088515a3c7b4e71520602d818f4dec002fadefde30c55e13f390c8d96046990a85858584604051611fb49493929190614902565b60405180910390a1505050505050505050505050565b60fb80546001600160a01b038381166001600160a01b0319831681179093556040519116919082907f8be0079c531659141344cd1fd0a4f28419497f9722a3daafe3b4186f6b6457e090600090a35050565b600054610100900460ff166120435760405162461bcd60e51b8152600401610770906146ac565b610a8461361b565b6120536113f1565b6101cd805460ff191660011790557f62e78cea01bee320cd4e420270b5ea74000d11b0c9f74754ebdbfc544b05a2586118ff3390565b600054610100900460ff166120b05760405162461bcd60e51b8152600401610770906146ac565b610a4a8161364f565b600054610100900460ff16610a845760405162461bcd60e51b8152600401610770906146ac565b600054610100900460ff166121075760405162461bcd60e51b8152600401610770906146ac565b610a8461367f565b600054610100900460ff166121365760405162461bcd60e51b8152600401610770906146ac565b610a846136c2565b60008281526101af60209081526040805133818401528082018590528151808203830181526060820183528051908401206080808301919091528251808303909101815260a090910182528051908301208584526101b083528184208185529092529091205460ff16156121c557604051630c8d9eab60e31b815260040160405180910390fd5b60008381526101af60205260409020546121e3908690869084611857565b1580612214575060008381526101b160209081526040808320546101b290925290912054612212908490614740565b115b1561223257604051636dac6a0960e01b815260040160405180910390fd5b60008381526101b060209081526040808320848452825291829020805460ff1916600117905581518581529081018390527f51483c8cc684284e9ba3215822230838b766f1698bcc7e922a31e02c3c203bd7910160405180910390a15050505050565b60006122a0836136f2565b6122bd57604051631eb49d6d60e11b815260040160405180910390fd5b600083815261019560205260409020546122d6906133bb565b506000828152610195602090815260408083208054600180820190925586018101808552610194845282852086905582519384019092529282529161231e9186918491613716565b6040805184815260006020820152908101829052606081018390527f5e65fcde72b913ac2870f9df6ea5b6bca757862f44636cb368ed5e339fc524fb9060800160405180910390a19392505050565b816001600160a01b0316836001600160a01b0316036123e05760405162461bcd60e51b815260206004820152602960248201527f455243313135353a2073657474696e6720617070726f76616c20737461747573604482015268103337b91039b2b63360b91b6064820152608401610770565b6001600160a01b03838116600081815260666020908152604080832094871680845294825291829020805460ff191686151590811790915591519182527f17307eab39ab6107e8899845ad3d59bd9653f200f220920489ca2b5937696c31910160405180910390a3505050565b600061245b610191546137f5565b60806101916000815461246d90614693565b9182905550901b60008181526101936020908152604080832080546001600160a01b0319166001600160a01b038a16179055610194909152902084905590506124b68183613803565b604080518281526000602082018190529182916001600160a01b03881691600080516020614dd3833981519152910160405180910390a49392505050565b8115806124ff575080155b1561251d57604051636dac6a0960e01b815260040160405180910390fd5b60008381526101af60205260409020541561254b57604051630d5f433160e21b815260040160405180910390fd5b60008381526101af602090815260408083208590556101b182529182902083905581518581529081018490527f233c854c30aaaad173f2dd900c76d53c64e556d1d009d71466ec1afcb7b5844d91015b60405180910390a1505050565b60fd815111806125b9575060028151105b156125d757604051633ada02e560e01b815260040160405180910390fd5b6000600182516125e791906148ef565b905060008282815181106125fd576125fd614667565b60200260200101519050600080836001600160401b0381111561262257612622613cc4565b60405190808252806020026020018201604052801561264b578160200160208202803683370190505b5090506000846001600160401b0381111561266857612668613cc4565b604051908082528060200260200182016040528015612691578160200160208202803683370190505b5090506000856001600160401b038111156126ae576126ae613cc4565b6040519080825280602002602001820160405280156126d7578160200160208202803683370190505b5090506000866001600160401b038111156126f4576126f4613cc4565b60405190808252806020026020018201604052801561271d578160200160208202803683370190505b50905060005b878110156127e257600089828151811061273f5761273f614667565b602002602001015190508086838151811061275c5761275c614667565b6020026020010181815250508785838151811061277b5761277b614667565b602002602001018181525050600183838151811061279b5761279b614667565b6020026020010181815250506101946000828152602001908152602001600020548483815181106127ce576127ce614667565b602090810291909101015250600101612723565b50612800338a868686604051806020016040528060008152506133c5565b60005b8781101561286e5782818151811061281d5761281d614667565b6020026020010151866128309190614740565b9550610194600086838151811061284957612849614667565b6020026020010151815260200190815260200160002060009055806001019050612803565b50600086815261019460205260408120805487929061288e908490614740565b909155506111d6905089858361191c565b606083806001600160401b038111156128ba576128ba613cc4565b6040519080825280602002602001820160405280156128e3578160200160208202803683370190505b5091506000816001600160401b0381111561290057612900613cc4565b604051908082528060200260200182016040528015612929578160200160208202803683370190505b5090506000826001600160401b0381111561294657612946613cc4565b60405190808252806020026020018201604052801561296f578160200160208202803683370190505b50905060005b83811015612a6e57600089898381811061299157612991614667565b9050602002013590506129a3816136f2565b6129c057604051631eb49d6d60e11b815260040160405180910390fd5b600081815261019560205260409020546129d9906133bb565b60008181526101956020526040902080546001808201909255820101888884818110612a0757612a07614667565b9050602002013561019460008381526020019081526020016000208190555080878481518110612a3957612a39614667565b6020026020010181815250506001858481518110612a5957612a59614667565b60209081029190910101525050600101612975565b50612a8a898584604051806020016040528060008152506134b1565b7f088515a3c7b4e71520602d818f4dec002fadefde30c55e13f390c8d96046990a888883878a8a604051612ac39695949392919061498c565b60405180910390a150505095945050505050565b6001600160a01b038416612afd5760405162461bcd60e51b81526004016107709061479b565b336000612b0985613860565b90506000612b1685613860565b9050612b26838989858589612f92565b60008681526065602090815260408083206001600160a01b038c16845290915290205485811015612b695760405162461bcd60e51b8152600401610770906147e0565b60008781526065602090815260408083206001600160a01b038d8116855292528083208985039055908a16825281208054889290612ba8908490614740565b909155505060408051888152602081018890526001600160a01b03808b16928c82169291881691600080516020614dd3833981519152910160405180910390a4612bf6848a8a86868a61309f565b6111d6848a8a8a8a8a6138ab565b6001600160a01b038316612c2a5760405162461bcd60e51b815260040161077090614868565b336000612c3684613860565b90506000612c4384613860565b9050612c6383876000858560405180602001604052806000815250612f92565b60008581526065602090815260408083206001600160a01b038a16845290915290205484811015612ca65760405162461bcd60e51b8152600401610770906148ab565b60008681526065602090815260408083206001600160a01b038b81168086529184528285208a8703905582518b81529384018a9052909290881691600080516020614dd3833981519152910160405180910390a4612d188488600086866040518060200160405280600081525061309f565b50505050505050565b6001600160a01b0382163314801590612d415750612d3f823361061b565b155b15612d5f5760405163390cdd9b60e21b815260040160405180910390fd5b6000818152610194602052604081208054919055612d7f83836001612c04565b7f5e65fcde72b913ac2870f9df6ea5b6bca757862f44636cb368ed5e339fc524fb6001600160801b0319831660408051918252602082018590526000908201526060810183905260800161259b565b600082600003612df157604051631eb49d6d60e11b815260040160405180910390fd5b612dfc84848461244d565b600081815261019560205260408120805492935090918290612e1d90614693565b9182905550612e2c9083614740565b905083610194600083815260200190815260200160002081905550612e638582600160405180602001604052806000815250613716565b6040805183815260006020820152908101829052606081018590527f5e65fcde72b913ac2870f9df6ea5b6bca757862f44636cb368ed5e339fc524fb9060800160405180910390a1509392505050565b600081815260ca6020526040812080546060929190612ed1906149e8565b80601f0160208091040260200160405190810160405280929190818152602001828054612efd906149e8565b8015612f4a5780601f10612f1f57610100808354040283529160200191612f4a565b820191906000526020600020905b815481529060010190602001808311612f2d57829003601f168201915b505050505090506000815111612f6857612f6383613966565b61080b565b60c981604051602001612f7c929190614a22565b6040516020818303038152906040529392505050565b6001600160a01b0385161561104c576001600160a01b0384161561104c57825160005b81811015613095576000612fe9868381518110612fd457612fd4614667565b60200260200101516001600160801b03191690565b60008181526101ff602052604090205490915060ff16600181600281111561301357613013614549565b036130315760405163ab064ad360e01b815260040160405180910390fd5b600281600281111561304557613045614549565b14801561306d5750600082815261019360205260409020546001600160a01b038a8116911614155b1561308b5760405163ab064ad360e01b815260040160405180910390fd5b5050600101612fb5565b5050505050505050565b825160005b81811015613095578561019260008784815181106130c4576130c4614667565b6020026020010151815260200190815260200160002060006101000a8154816001600160a01b0302191690836001600160a01b031602179055508060010190506130a4565b6001600160a01b0384163b1561104c5760405163bc197c8160e01b81526001600160a01b0385169063bc197c819061314d9089908990889088908890600401614aa9565b6020604051808303816000875af1925050508015613188575060408051601f3d908101601f1916820190925261318591810190614b07565b60015b61323457613194614b24565b806308c379a0036131cd57506131a8614b3f565b806131b357506131cf565b8060405162461bcd60e51b81526004016107709190613c4d565b505b60405162461bcd60e51b815260206004820152603460248201527f455243313135353a207472616e7366657220746f206e6f6e2d455243313135356044820152732932b1b2b4bb32b91034b6b83632b6b2b73a32b960611b6064820152608401610770565b6001600160e01b0319811663bc197c8160e01b14612d185760405162461bcd60e51b815260040161077090614bc8565b6001600160a01b0381163b6132d15760405162461bcd60e51b815260206004820152602d60248201527f455243313936373a206e657720696d706c656d656e746174696f6e206973206e60448201526c1bdd08184818dbdb9d1c9858dd609a1b6064820152608401610770565b600080516020614df383398151915280546001600160a01b0319166001600160a01b0392909216919091179055565b613309836139fa565b6000825111806133165750805b15610e7557610e8e8383613a3a565b600081815b84811015613368576133548287878481811061334857613348614667565b90506020020135613b25565b91508061336081614693565b91505061332a565b50949350505050565b6101cd5460ff16610a845760405162461bcd60e51b815260206004820152601460248201527314185d5cd8589b194e881b9bdd081c185d5cd95960621b6044820152606401610770565b80610e7581614c10565b835160005b818110156130955760008682815181106133e6576133e6614667565b60200260200101519050600086838151811061340457613404614667565b60200260200101519050613417826136f2565b1561343557604051631eb49d6d60e11b815260040160405180910390fd5b6001600160801b031981166001600160801b03198316146134695760405163b4902a1360e01b815260040160405180910390fd5b6001600160a01b03891633148015906134895750613487893361061b565b155b156134a75760405163390cdd9b60e21b815260040160405180910390fd5b50506001016133ca565b6001600160a01b0384166134d75760405162461bcd60e51b815260040161077090614c36565b81518351146134f85760405162461bcd60e51b815260040161077090614753565b3361350881600087878787612f92565b60005b84518110156135a45783818151811061352657613526614667565b60200260200101516065600087848151811061354457613544614667565b602002602001015181526020019081526020016000206000886001600160a01b03166001600160a01b03168152602001908152602001600020600082825461358c9190614740565b9091555081905061359c81614693565b91505061350b565b50846001600160a01b031660006001600160a01b0316826001600160a01b03167f4a39dc06d4c0dbc64b70af90fd698a233a518aa5d07e595d983b8c0526c8f7fb87876040516135f592919061482a565b60405180910390a461360c8160008787878761309f565b61096781600087878787613109565b600054610100900460ff166136425760405162461bcd60e51b8152600401610770906146ac565b6101cd805460ff19169055565b600054610100900460ff166136765760405162461bcd60e51b8152600401610770906146ac565b610a4a81613b54565b600054610100900460ff166136a65760405162461bcd60e51b8152600401610770906146ac565b60408051602081019091526000815260c990610a4a9082614cbd565b600054610100900460ff166136e95760405162461bcd60e51b8152600401610770906146ac565b610a8433611fca565b60006001600160801b031982168214801561079e5750506001600160801b03161590565b6001600160a01b03841661373c5760405162461bcd60e51b815260040161077090614c36565b33600061374885613860565b9050600061375585613860565b905061376683600089858589612f92565b60008681526065602090815260408083206001600160a01b038b16845290915281208054879290613798908490614740565b909155505060408051878152602081018790526001600160a01b03808a169260009291871691600080516020614dd3833981519152910160405180910390a46137e68360008985858961309f565b612d18836000898989896138ab565b608081901c610e7581614c10565b600082815260ca6020526040902061381b8282614cbd565b50817f6bb7ff708619ba0610cba295a58592e0451dee2622938c8755667688daf3529b613847846107f4565b6040516138549190613c4d565b60405180910390a25050565b6040805160018082528183019092526060916000919060208083019080368337019050509050828160008151811061389a5761389a614667565b602090810291909101015292915050565b6001600160a01b0384163b1561104c5760405163f23a6e6160e01b81526001600160a01b0385169063f23a6e61906138ef9089908990889088908890600401614d7c565b6020604051808303816000875af192505050801561392a575060408051601f3d908101601f1916820190925261392791810190614b07565b60015b61393657613194614b24565b6001600160e01b0319811663f23a6e6160e01b14612d185760405162461bcd60e51b815260040161077090614bc8565b606060678054613975906149e8565b80601f01602080910402602001604051908101604052809291908181526020018280546139a1906149e8565b80156139ee5780601f106139c3576101008083540402835291602001916139ee565b820191906000526020600020905b8154815290600101906020018083116139d157829003601f168201915b50505050509050919050565b613a0381613264565b6040516001600160a01b038216907fbc7cd75a20ee27fd9adebab32041f755214dbc6bffa90cc0225b39da2e5c2d3b90600090a250565b60606001600160a01b0383163b613aa25760405162461bcd60e51b815260206004820152602660248201527f416464726573733a2064656c65676174652063616c6c20746f206e6f6e2d636f6044820152651b9d1c9858dd60d21b6064820152608401610770565b600080846001600160a01b031684604051613abd9190614db6565b600060405180830381855af49150503d8060008114613af8576040519150601f19603f3d011682016040523d82523d6000602084013e613afd565b606091505b5091509150610a6b8282604051806060016040528060278152602001614e1360279139613b60565b6000818310613b4157600082815260208490526040902061080b565b600083815260208390526040902061080b565b6067610d7a8282614cbd565b60608315613b6f57508161080b565b61080b83838151156131b35781518083602001fd5b80356001600160a01b0381168114613b9b57600080fd5b919050565b60008060408385031215613bb357600080fd5b613bbc83613b84565b946020939093013593505050565b6001600160e01b031981168114610a4a57600080fd5b600060208284031215613bf257600080fd5b813561080b81613bca565b60005b83811015613c18578181015183820152602001613c00565b50506000910152565b60008151808452613c39816020860160208601613bfd565b601f01601f19169290920160200192915050565b60208152600061080b6020830184613c21565b600060208284031215613c7257600080fd5b5035919050565b60008083601f840112613c8b57600080fd5b5081356001600160401b03811115613ca257600080fd5b6020830191508360208260051b8501011115613cbd57600080fd5b9250929050565b634e487b7160e01b600052604160045260246000fd5b601f8201601f191681016001600160401b0381118282101715613cff57613cff613cc4565b6040525050565b600082601f830112613d1757600080fd5b81356001600160401b03811115613d3057613d30613cc4565b604051613d47601f8301601f191660200182613cda565b818152846020838601011115613d5c57600080fd5b816020850160208301376000918101602001919091529392505050565b803560038110613b9b57600080fd5b60008060008060008060a08789031215613da157600080fd5b613daa87613b84565b95506020870135945060408701356001600160401b0380821115613dcd57600080fd5b613dd98a838b01613c79565b90965094506060890135915080821115613df257600080fd5b50613dff89828a01613d06565b925050613e0e60808801613d79565b90509295509295509295565b60006001600160401b03821115613e3357613e33613cc4565b5060051b60200190565b600082601f830112613e4e57600080fd5b81356020613e5b82613e1a565b604051613e688282613cda565b83815260059390931b8501820192828101915086841115613e8857600080fd5b8286015b84811015613ea35780358352918301918301613e8c565b509695505050505050565b600080600080600060a08688031215613ec657600080fd5b613ecf86613b84565b9450613edd60208701613b84565b935060408601356001600160401b0380821115613ef957600080fd5b613f0589838a01613e3d565b94506060880135915080821115613f1b57600080fd5b613f2789838a01613e3d565b93506080880135915080821115613f3d57600080fd5b50613f4a88828901613d06565b9150509295509295909350565b600060208284031215613f6957600080fd5b61080b82613b84565b60008060008060608587031215613f8857600080fd5b84356001600160401b03811115613f9e57600080fd5b613faa87828801613c79565b90989097506020870135966040013595509350505050565b60008060408385031215613fd557600080fd5b82356001600160401b0380821115613fec57600080fd5b818501915085601f83011261400057600080fd5b8135602061400d82613e1a565b60405161401a8282613cda565b83815260059390931b850182019282810191508984111561403a57600080fd5b948201945b8386101561405f5761405086613b84565b8252948201949082019061403f565b9650508601359250508082111561407557600080fd5b5061408285828601613e3d565b9150509250929050565b600081518084526020808501945080840160005b838110156140bc578151875295820195908201906001016140a0565b509495945050505050565b60208152600061080b602083018461408c565b600080604083850312156140ed57600080fd5b6140f683613b84565b915060208301356001600160401b0381111561411157600080fd5b61408285828601613d06565b60008060006060848603121561413257600080fd5b61413b84613b84565b925060208401356001600160401b038082111561415757600080fd5b61416387838801613e3d565b9350604086013591508082111561417957600080fd5b5061418686828701613e3d565b9150509250925092565b600080600080606085870312156141a657600080fd5b6141af85613b84565b93506020850135925060408501356001600160401b038111156141d157600080fd5b6141dd87828801613c79565b95989497509550505050565b60008060008060006080868803121561420157600080fd5b61420a86613b84565b945060208601356001600160401b0381111561422557600080fd5b61423188828901613c79565b9699909850959660408101359660609091013595509350505050565b6000806040838503121561426057600080fd5b50508035926020909101359150565b6000806040838503121561428257600080fd5b61428b83613b84565b9150602083013580151581146142a057600080fd5b809150509250929050565b600080600080600060a086880312156142c357600080fd5b6142cc86613b84565b9450602086013593506040860135925060608601356001600160401b038111156142f557600080fd5b61430188828901613d06565b92505061431060808701613d79565b90509295509295909350565b60008060006040848603121561433157600080fd5b61433a84613b84565b925060208401356001600160401b0381111561435557600080fd5b61436186828701613c79565b9497909650939450505050565b6000806040838503121561438157600080fd5b61438a83613b84565b915061439860208401613b84565b90509250929050565b60008060008060008060006080888a0312156143bc57600080fd5b6143c588613b84565b965060208801356001600160401b03808211156143e157600080fd5b6143ed8b838c01613c79565b909850965060408a013591508082111561440657600080fd5b6144128b838c01613c79565b909650945060608a013591508082111561442b57600080fd5b506144388a828b01613c79565b989b979a50959850939692959293505050565b600080600080600060a0868803121561446357600080fd5b61446c86613b84565b945061447a60208701613b84565b9350604086013592506060860135915060808601356001600160401b038111156144a357600080fd5b613f4a88828901613d06565b6000806000606084860312156144c457600080fd5b6144cd84613b84565b95602085013595506040909401359392505050565b600080600080608085870312156144f857600080fd5b61450185613b84565b93506020850135925060408501356001600160401b0381111561452357600080fd5b61452f87828801613d06565b92505061453e60608601613d79565b905092959194509250565b634e487b7160e01b600052602160045260246000fd5b6040815260006145726040830185613c21565b90508260208301529392505050565b6020808252602e908201527f455243313135353a2063616c6c6572206973206e6f7420746f6b656e206f776e60408201526d195c881bdc88185c1c1c9bdd995960921b606082015260800190565b6020808252602c908201527f46756e6374696f6e206d7573742062652063616c6c6564207468726f7567682060408201526b19195b1959d85d1958d85b1b60a21b606082015260800190565b6020808252602c908201527f46756e6374696f6e206d7573742062652063616c6c6564207468726f7567682060408201526b6163746976652070726f787960a01b606082015260800190565b634e487b7160e01b600052603260045260246000fd5b634e487b7160e01b600052601160045260246000fd5b6000600182016146a5576146a561467d565b5060010190565b6020808252602b908201527f496e697469616c697a61626c653a20636f6e7472616374206973206e6f74206960408201526a6e697469616c697a696e6760a81b606082015260800190565b6000808335601e1984360301811261470e57600080fd5b8301803591506001600160401b0382111561472857600080fd5b6020019150600581901b3603821315613cbd57600080fd5b8082018082111561079e5761079e61467d565b60208082526028908201527f455243313135353a2069647320616e6420616d6f756e7473206c656e677468206040820152670dad2e6dac2e8c6d60c31b606082015260800190565b60208082526025908201527f455243313135353a207472616e7366657220746f20746865207a65726f206164604082015264647265737360d81b606082015260800190565b6020808252602a908201527f455243313135353a20696e73756666696369656e742062616c616e636520666f60408201526939103a3930b739b332b960b11b606082015260800190565b60408152600061483d604083018561408c565b8281036020840152610a6b818561408c565b60006020828403121561486157600080fd5b5051919050565b60208082526023908201527f455243313135353a206275726e2066726f6d20746865207a65726f206164647260408201526265737360e81b606082015260800190565b60208082526024908201527f455243313135353a206275726e20616d6f756e7420657863656564732062616c604082015263616e636560e01b606082015260800190565b8181038181111561079e5761079e61467d565b608081526000614915608083018761408c565b8281036020840152614927818761408c565b9050828103604084015261493b818661408c565b9050828103606084015261494f818561408c565b979650505050505050565b81835260006001600160fb1b0383111561497357600080fd5b8260051b80836020870137939093016020019392505050565b6080815260006149a060808301888a61495a565b82810360208401526149b2818861408c565b905082810360408401526149c6818761408c565b905082810360608401526149db81858761495a565b9998505050505050505050565b600181811c908216806149fc57607f821691505b602082108103614a1c57634e487b7160e01b600052602260045260246000fd5b50919050565b6000808454614a30816149e8565b60018281168015614a485760018114614a5d57614a8c565b60ff1984168752821515830287019450614a8c565b8860005260208060002060005b85811015614a835781548a820152908401908201614a6a565b50505082870194505b505050508351614aa0818360208801613bfd565b01949350505050565b6001600160a01b0386811682528516602082015260a060408201819052600090614ad59083018661408c565b8281036060840152614ae7818661408c565b90508281036080840152614afb8185613c21565b98975050505050505050565b600060208284031215614b1957600080fd5b815161080b81613bca565b600060033d1115610e2f5760046000803e5060005160e01c90565b600060443d1015614b4d5790565b6040516003193d81016004833e81513d6001600160401b038160248401118184111715614b7c57505050505090565b8285019150815181811115614b945750505050505090565b843d8701016020828501011115614bae5750505050505090565b614bbd60208286010187613cda565b509095945050505050565b60208082526028908201527f455243313135353a204552433131353552656365697665722072656a656374656040820152676420746f6b656e7360c01b606082015260800190565b60006001600160801b03808316818103614c2c57614c2c61467d565b6001019392505050565b60208082526021908201527f455243313135353a206d696e7420746f20746865207a65726f206164647265736040820152607360f81b606082015260800190565b601f821115610e7557600081815260208120601f850160051c81016020861015614c9e5750805b601f850160051c820191505b8181101561104c57828155600101614caa565b81516001600160401b03811115614cd657614cd6613cc4565b614cea81614ce484546149e8565b84614c77565b602080601f831160018114614d1f5760008415614d075750858301515b600019600386901b1c1916600185901b17855561104c565b600085815260208120601f198616915b82811015614d4e57888601518255948401946001909101908401614d2f565b5085821015614d6c5787850151600019600388901b60f8161c191681555b5050505050600190811b01905550565b6001600160a01b03868116825285166020820152604081018490526060810183905260a06080820181905260009061494f90830184613c21565b60008251614dc8818460208701613bfd565b919091019291505056fec3d58168c5ae7397731d063d5bbf3d657854427343f4c083240f7aacaa2d0f62360894a13ba1a3210667c828492db98dca3e2076cc3735a920a3ca505d382bbc416464726573733a206c6f772d6c6576656c2064656c65676174652063616c6c206661696c6564a26469706673582212206bd9188a6f25751cf80512ae83ebf5e8f8870eef2aa152ae3dfc008fe682ea3764736f6c63430008100033",
			"opcodes": "PUSH1 0xA0 PUSH1 0x40 MSTORE ADDRESS PUSH1 0x80 MSTORE CALLVALUE DUP1 ISZERO PUSH3 0x15 JUMPI PUSH1 0x0 DUP1 REVERT JUMPDEST POP PUSH3 0x20 PUSH3 0x26 JUMP JUMPDEST PUSH3 0xE7 JUMP JUMPDEST PUSH1 0x0 SLOAD PUSH2 0x100 SWAP1 DIV PUSH1 0xFF AND ISZERO PUSH3 0x93 JUMPI PUSH1 0x40 MLOAD PUSH3 0x461BCD PUSH1 0xE5 SHL DUP2 MSTORE PUSH1 0x20 PUSH1 0x4 DUP3 ADD MSTORE PUSH1 0x27 PUSH1 0x24 DUP3 ADD MSTORE PUSH32 0x496E697469616C697A61626C653A20636F6E747261637420697320696E697469 PUSH1 0x44 DUP3 ADD MSTORE PUSH7 0x616C697A696E67 PUSH1 0xC8 SHL PUSH1 0x64 DUP3 ADD MSTORE PUSH1 0x84 ADD PUSH1 0x40 MLOAD DUP1 SWAP2 SUB SWAP1 REVERT JUMPDEST PUSH1 0x0 SLOAD PUSH1 0xFF SWAP1 DUP2 AND EQ PUSH3 0xE5 JUMPI PUSH1 0x0 DUP1 SLOAD PUSH1 0xFF NOT AND PUSH1 0xFF SWAP1 DUP2 OR SWAP1 SWAP2 SSTORE PUSH1 0x40 MLOAD SWAP1 DUP2 MSTORE PUSH32 0x7F26B83FF96E1F2B6A682F133852F6798A09C465DA95921460CEFB3847402498 SWAP1 PUSH1 0x20 ADD PUSH1 0x40 MLOAD DUP1 SWAP2 SUB SWAP1 LOG1 JUMPDEST JUMP JUMPDEST PUSH1 0x80 MLOAD PUSH2 0x4E6F PUSH3 0x11F PUSH1 0x0 CODECOPY PUSH1 0x0 DUP2 DUP2 PUSH2 0x978 ADD MSTORE DUP2 DUP2 PUSH2 0x9B8 ADD MSTORE DUP2 DUP2 PUSH2 0xCB8 ADD MSTORE DUP2 DUP2 PUSH2 0xCF8 ADD MSTORE PUSH2 0xD8B ADD MSTORE PUSH2 0x4E6F PUSH1 0x0 RETURN INVALID PUSH1 0x80 PUSH1 0x40 MSTORE PUSH1 0x4 CALLDATASIZE LT PUSH2 0x20E JUMPI PUSH1 0x0 CALLDATALOAD PUSH1 0xE0 SHR DUP1 PUSH4 0x715018A6 GT PUSH2 0x118 JUMPI DUP1 PUSH4 0xB316962F GT PUSH2 0xA0 JUMPI DUP1 PUSH4 0xF242432A GT PUSH2 0x6F JUMPI DUP1 PUSH4 0xF242432A EQ PUSH2 0x669 JUMPI DUP1 PUSH4 0xF2FDE38B EQ PUSH2 0x689 JUMPI DUP1 PUSH4 0xF5298ACA EQ PUSH2 0x6A9 JUMPI DUP1 PUSH4 0xF6B12293 EQ PUSH2 0x6C9 JUMPI DUP1 PUSH4 0xFDA4823C EQ PUSH2 0x6E9 JUMPI PUSH1 0x0 DUP1 REVERT JUMPDEST DUP1 PUSH4 0xB316962F EQ PUSH2 0x5C0 JUMPI DUP1 PUSH4 0xC7B26C54 EQ PUSH2 0x5E0 JUMPI DUP1 PUSH4 0xE985E9C5 EQ PUSH2 0x600 JUMPI DUP1 PUSH4 0xF1169062 EQ PUSH2 0x649 JUMPI PUSH1 0x0 DUP1 REVERT JUMPDEST DUP1 PUSH4 0x8FC202DD GT PUSH2 0xE7 JUMPI DUP1 PUSH4 0x8FC202DD EQ PUSH2 0x50F JUMPI DUP1 PUSH4 0x993DE184 EQ PUSH2 0x524 JUMPI DUP1 PUSH4 0x99F771A7 EQ PUSH2 0x544 JUMPI DUP1 PUSH4 0xA21ED980 EQ PUSH2 0x564 JUMPI DUP1 PUSH4 0xA22CB465 EQ PUSH2 0x5A0 JUMPI PUSH1 0x0 DUP1 REVERT JUMPDEST DUP1 PUSH4 0x715018A6 EQ PUSH2 0x4B2 JUMPI DUP1 PUSH4 0x8129FC1C EQ PUSH2 0x4C7 JUMPI DUP1 PUSH4 0x8456CB59 EQ PUSH2 0x4DC JUMPI DUP1 PUSH4 0x8DA5CB5B EQ PUSH2 0x4F1 JUMPI PUSH1 0x0 DUP1 REVERT JUMPDEST DUP1 PUSH4 0x3F4BA83A GT PUSH2 0x19B JUMPI DUP1 PUSH4 0x52D1902D GT PUSH2 0x16A JUMPI DUP1 PUSH4 0x52D1902D EQ PUSH2 0x3F5 JUMPI DUP1 PUSH4 0x5C975ABB EQ PUSH2 0x40A JUMPI DUP1 PUSH4 0x6352211E EQ PUSH2 0x423 JUMPI DUP1 PUSH4 0x6B20C454 EQ PUSH2 0x472 JUMPI DUP1 PUSH4 0x6EBD893F EQ PUSH2 0x492 JUMPI PUSH1 0x0 DUP1 REVERT JUMPDEST DUP1 PUSH4 0x3F4BA83A EQ PUSH2 0x380 JUMPI DUP1 PUSH4 0x3F71E944 EQ PUSH2 0x395 JUMPI DUP1 PUSH4 0x4E1273F4 EQ PUSH2 0x3B5 JUMPI DUP1 PUSH4 0x4F1EF286 EQ PUSH2 0x3E2 JUMPI PUSH1 0x0 DUP1 REVERT JUMPDEST DUP1 PUSH4 0x1A2E9824 GT PUSH2 0x1E2 JUMPI DUP1 PUSH4 0x1A2E9824 EQ PUSH2 0x2DE JUMPI DUP1 PUSH4 0x1E75A8B5 EQ PUSH2 0x2FE JUMPI DUP1 PUSH4 0x2EB2C2D6 EQ PUSH2 0x320 JUMPI DUP1 PUSH4 0x3659CFE6 EQ PUSH2 0x340 JUMPI DUP1 PUSH4 0x3E11EEFE EQ PUSH2 0x360 JUMPI PUSH1 0x0 DUP1 REVERT JUMPDEST DUP1 PUSH3 0xFDD58E EQ PUSH2 0x213 JUMPI DUP1 PUSH4 0x1FFC9A7 EQ PUSH2 0x246 JUMPI DUP1 PUSH4 0x6FDDE03 EQ PUSH2 0x276 JUMPI DUP1 PUSH4 0xE89341C EQ PUSH2 0x2BE JUMPI JUMPDEST PUSH1 0x0 DUP1 REVERT JUMPDEST CALLVALUE DUP1 ISZERO PUSH2 0x21F JUMPI PUSH1 0x0 DUP1 REVERT JUMPDEST POP PUSH2 0x233 PUSH2 0x22E CALLDATASIZE PUSH1 0x4 PUSH2 0x3BA0 JUMP JUMPDEST PUSH2 0x709 JUMP JUMPDEST PUSH1 0x40 MLOAD SWAP1 DUP2 MSTORE PUSH1 0x20 ADD JUMPDEST PUSH1 0x40 MLOAD DUP1 SWAP2 SUB SWAP1 RETURN JUMPDEST CALLVALUE DUP1 ISZERO PUSH2 0x252 JUMPI PUSH1 0x0 DUP1 REVERT JUMPDEST POP PUSH2 0x266 PUSH2 0x261 CALLDATASIZE PUSH1 0x4 PUSH2 0x3BE0 JUMP JUMPDEST PUSH2 0x7A4 JUMP JUMPDEST PUSH1 0x40 MLOAD SWAP1 ISZERO ISZERO DUP2 MSTORE PUSH1 0x20 ADD PUSH2 0x23D JUMP JUMPDEST CALLVALUE DUP1 ISZERO PUSH2 0x282 JUMPI PUSH1 0x0 DUP1 REVERT JUMPDEST POP PUSH2 0x2B1 PUSH1 0x40 MLOAD DUP1 PUSH1 0x40 ADD PUSH1 0x40 MSTORE DUP1 PUSH1 0xF DUP2 MSTORE PUSH1 0x20 ADD PUSH15 0x243CB832B931B2B93A26B4B73A32B9 PUSH1 0x89 SHL DUP2 MSTORE POP DUP2 JUMP JUMPDEST PUSH1 0x40 MLOAD PUSH2 0x23D SWAP2 SWAP1 PUSH2 0x3C4D JUMP JUMPDEST CALLVALUE DUP1 ISZERO PUSH2 0x2CA JUMPI PUSH1 0x0 DUP1 REVERT JUMPDEST POP PUSH2 0x2B1 PUSH2 0x2D9 CALLDATASIZE PUSH1 0x4 PUSH2 0x3C60 JUMP JUMPDEST PUSH2 0x7F4 JUMP JUMPDEST CALLVALUE DUP1 ISZERO PUSH2 0x2EA JUMPI PUSH1 0x0 DUP1 REVERT JUMPDEST POP PUSH2 0x233 PUSH2 0x2F9 CALLDATASIZE PUSH1 0x4 PUSH2 0x3BA0 JUMP JUMPDEST PUSH2 0x7FF JUMP JUMPDEST CALLVALUE DUP1 ISZERO PUSH2 0x30A JUMPI PUSH1 0x0 DUP1 REVERT JUMPDEST POP PUSH2 0x31E PUSH2 0x319 CALLDATASIZE PUSH1 0x4 PUSH2 0x3D88 JUMP JUMPDEST PUSH2 0x812 JUMP JUMPDEST STOP JUMPDEST CALLVALUE DUP1 ISZERO PUSH2 0x32C JUMPI PUSH1 0x0 DUP1 REVERT JUMPDEST POP PUSH2 0x31E PUSH2 0x33B CALLDATASIZE PUSH1 0x4 PUSH2 0x3EAE JUMP JUMPDEST PUSH2 0x922 JUMP JUMPDEST CALLVALUE DUP1 ISZERO PUSH2 0x34C JUMPI PUSH1 0x0 DUP1 REVERT JUMPDEST POP PUSH2 0x31E PUSH2 0x35B CALLDATASIZE PUSH1 0x4 PUSH2 0x3F57 JUMP JUMPDEST PUSH2 0x96E JUMP JUMPDEST CALLVALUE DUP1 ISZERO PUSH2 0x36C JUMPI PUSH1 0x0 DUP1 REVERT JUMPDEST POP PUSH2 0x266 PUSH2 0x37B CALLDATASIZE PUSH1 0x4 PUSH2 0x3F72 JUMP JUMPDEST PUSH2 0xA4D JUMP JUMPDEST CALLVALUE DUP1 ISZERO PUSH2 0x38C JUMPI PUSH1 0x0 DUP1 REVERT JUMPDEST POP PUSH2 0x31E PUSH2 0xA74 JUMP JUMPDEST CALLVALUE DUP1 ISZERO PUSH2 0x3A1 JUMPI PUSH1 0x0 DUP1 REVERT JUMPDEST POP PUSH2 0x2B1 PUSH2 0x3B0 CALLDATASIZE PUSH1 0x4 PUSH2 0x3C60 JUMP JUMPDEST PUSH2 0xA86 JUMP JUMPDEST CALLVALUE DUP1 ISZERO PUSH2 0x3C1 JUMPI PUSH1 0x0 DUP1 REVERT JUMPDEST POP PUSH2 0x3D5 PUSH2 0x3D0 CALLDATASIZE PUSH1 0x4 PUSH2 0x3FC2 JUMP JUMPDEST PUSH2 0xB85 JUMP JUMPDEST PUSH1 0x40 MLOAD PUSH2 0x23D SWAP2 SWAP1 PUSH2 0x40C7 JUMP JUMPDEST PUSH2 0x31E PUSH2 0x3F0 CALLDATASIZE PUSH1 0x4 PUSH2 0x40DA JUMP JUMPDEST PUSH2 0xCAE JUMP JUMPDEST CALLVALUE DUP1 ISZERO PUSH2 0x401 JUMPI PUSH1 0x0 DUP1 REVERT JUMPDEST POP PUSH2 0x233 PUSH2 0xD7E JUMP JUMPDEST CALLVALUE DUP1 ISZERO PUSH2 0x416 JUMPI PUSH1 0x0 DUP1 REVERT JUMPDEST POP PUSH2 0x1CD SLOAD PUSH1 0xFF AND PUSH2 0x266 JUMP JUMPDEST CALLVALUE DUP1 ISZERO PUSH2 0x42F JUMPI PUSH1 0x0 DUP1 REVERT JUMPDEST POP PUSH2 0x45A PUSH2 0x43E CALLDATASIZE PUSH1 0x4 PUSH2 0x3C60 JUMP JUMPDEST PUSH1 0x0 SWAP1 DUP2 MSTORE PUSH2 0x192 PUSH1 0x20 MSTORE PUSH1 0x40 SWAP1 KECCAK256 SLOAD PUSH1 0x1 PUSH1 0x1 PUSH1 0xA0 SHL SUB AND SWAP1 JUMP JUMPDEST PUSH1 0x40 MLOAD PUSH1 0x1 PUSH1 0x1 PUSH1 0xA0 SHL SUB SWAP1 SWAP2 AND DUP2 MSTORE PUSH1 0x20 ADD PUSH2 0x23D JUMP JUMPDEST CALLVALUE DUP1 ISZERO PUSH2 0x47E JUMPI PUSH1 0x0 DUP1 REVERT JUMPDEST POP PUSH2 0x31E PUSH2 0x48D CALLDATASIZE PUSH1 0x4 PUSH2 0x411D JUMP JUMPDEST PUSH2 0xE32 JUMP JUMPDEST CALLVALUE DUP1 ISZERO PUSH2 0x49E JUMPI PUSH1 0x0 DUP1 REVERT JUMPDEST POP PUSH2 0x31E PUSH2 0x4AD CALLDATASIZE PUSH1 0x4 PUSH2 0x4190 JUMP JUMPDEST PUSH2 0xE7A JUMP JUMPDEST CALLVALUE DUP1 ISZERO PUSH2 0x4BE JUMPI PUSH1 0x0 DUP1 REVERT JUMPDEST POP PUSH2 0x31E PUSH2 0xE94 JUMP JUMPDEST CALLVALUE DUP1 ISZERO PUSH2 0x4D3 JUMPI PUSH1 0x0 DUP1 REVERT JUMPDEST POP PUSH2 0x31E PUSH2 0xEA6 JUMP JUMPDEST CALLVALUE DUP1 ISZERO PUSH2 0x4E8 JUMPI PUSH1 0x0 DUP1 REVERT JUMPDEST POP PUSH2 0x31E PUSH2 0xFBE JUMP JUMPDEST CALLVALUE DUP1 ISZERO PUSH2 0x4FD JUMPI PUSH1 0x0 DUP1 REVERT JUMPDEST POP PUSH1 0xFB SLOAD PUSH1 0x1 PUSH1 0x1 PUSH1 0xA0 SHL SUB AND PUSH2 0x45A JUMP JUMPDEST CALLVALUE DUP1 ISZERO PUSH2 0x51B JUMPI PUSH1 0x0 DUP1 REVERT JUMPDEST POP PUSH2 0x31E PUSH2 0xFCE JUMP JUMPDEST CALLVALUE DUP1 ISZERO PUSH2 0x530 JUMPI PUSH1 0x0 DUP1 REVERT JUMPDEST POP PUSH2 0x31E PUSH2 0x53F CALLDATASIZE PUSH1 0x4 PUSH2 0x41E9 JUMP JUMPDEST PUSH2 0x102D JUMP JUMPDEST CALLVALUE DUP1 ISZERO PUSH2 0x550 JUMPI PUSH1 0x0 DUP1 REVERT JUMPDEST POP PUSH2 0x233 PUSH2 0x55F CALLDATASIZE PUSH1 0x4 PUSH2 0x3C60 JUMP JUMPDEST PUSH2 0x1054 JUMP JUMPDEST CALLVALUE DUP1 ISZERO PUSH2 0x570 JUMPI PUSH1 0x0 DUP1 REVERT JUMPDEST POP PUSH2 0x266 PUSH2 0x57F CALLDATASIZE PUSH1 0x4 PUSH2 0x424D JUMP JUMPDEST PUSH2 0x1B0 PUSH1 0x20 SWAP1 DUP2 MSTORE PUSH1 0x0 SWAP3 DUP4 MSTORE PUSH1 0x40 DUP1 DUP5 KECCAK256 SWAP1 SWAP2 MSTORE SWAP1 DUP3 MSTORE SWAP1 KECCAK256 SLOAD PUSH1 0xFF AND DUP2 JUMP JUMPDEST CALLVALUE DUP1 ISZERO PUSH2 0x5AC JUMPI PUSH1 0x0 DUP1 REVERT JUMPDEST POP PUSH2 0x31E PUSH2 0x5BB CALLDATASIZE PUSH1 0x4 PUSH2 0x426F JUMP JUMPDEST PUSH2 0x1069 JUMP JUMPDEST CALLVALUE DUP1 ISZERO PUSH2 0x5CC JUMPI PUSH1 0x0 DUP1 REVERT JUMPDEST POP PUSH2 0x31E PUSH2 0x5DB CALLDATASIZE PUSH1 0x4 PUSH2 0x42AB JUMP JUMPDEST PUSH2 0x1074 JUMP JUMPDEST CALLVALUE DUP1 ISZERO PUSH2 0x5EC JUMPI PUSH1 0x0 DUP1 REVERT JUMPDEST POP PUSH2 0x31E PUSH2 0x5FB CALLDATASIZE PUSH1 0x4 PUSH2 0x431C JUMP JUMPDEST PUSH2 0x1109 JUMP JUMPDEST CALLVALUE DUP1 ISZERO PUSH2 0x60C JUMPI PUSH1 0x0 DUP1 REVERT JUMPDEST POP PUSH2 0x266 PUSH2 0x61B CALLDATASIZE PUSH1 0x4 PUSH2 0x436E JUMP JUMPDEST PUSH1 0x1 PUSH1 0x1 PUSH1 0xA0 SHL SUB SWAP2 DUP3 AND PUSH1 0x0 SWAP1 DUP2 MSTORE PUSH1 0x66 PUSH1 0x20 SWAP1 DUP2 MSTORE PUSH1 0x40 DUP1 DUP4 KECCAK256 SWAP4 SWAP1 SWAP5 AND DUP3 MSTORE SWAP2 SWAP1 SWAP2 MSTORE KECCAK256 SLOAD PUSH1 0xFF AND SWAP1 JUMP JUMPDEST CALLVALUE DUP1 ISZERO PUSH2 0x655 JUMPI PUSH1 0x0 DUP1 REVERT JUMPDEST POP PUSH2 0x31E PUSH2 0x664 CALLDATASIZE PUSH1 0x4 PUSH2 0x43A1 JUMP JUMPDEST PUSH2 0x114E JUMP JUMPDEST CALLVALUE DUP1 ISZERO PUSH2 0x675 JUMPI PUSH1 0x0 DUP1 REVERT JUMPDEST POP PUSH2 0x31E PUSH2 0x684 CALLDATASIZE PUSH1 0x4 PUSH2 0x444B JUMP JUMPDEST PUSH2 0x11E1 JUMP JUMPDEST CALLVALUE DUP1 ISZERO PUSH2 0x695 JUMPI PUSH1 0x0 DUP1 REVERT JUMPDEST POP PUSH2 0x31E PUSH2 0x6A4 CALLDATASIZE PUSH1 0x4 PUSH2 0x3F57 JUMP JUMPDEST PUSH2 0x1226 JUMP JUMPDEST CALLVALUE DUP1 ISZERO PUSH2 0x6B5 JUMPI PUSH1 0x0 DUP1 REVERT JUMPDEST POP PUSH2 0x31E PUSH2 0x6C4 CALLDATASIZE PUSH1 0x4 PUSH2 0x44AF JUMP JUMPDEST PUSH2 0x129C JUMP JUMPDEST CALLVALUE DUP1 ISZERO PUSH2 0x6D5 JUMPI PUSH1 0x0 DUP1 REVERT JUMPDEST POP PUSH2 0x31E PUSH2 0x6E4 CALLDATASIZE PUSH1 0x4 PUSH2 0x3BA0 JUMP JUMPDEST PUSH2 0x12DF JUMP JUMPDEST CALLVALUE DUP1 ISZERO PUSH2 0x6F5 JUMPI PUSH1 0x0 DUP1 REVERT JUMPDEST POP PUSH2 0x31E PUSH2 0x704 CALLDATASIZE PUSH1 0x4 PUSH2 0x44E2 JUMP JUMPDEST PUSH2 0x12F1 JUMP JUMPDEST PUSH1 0x0 PUSH1 0x1 PUSH1 0x1 PUSH1 0xA0 SHL SUB DUP4 AND PUSH2 0x779 JUMPI PUSH1 0x40 MLOAD PUSH3 0x461BCD PUSH1 0xE5 SHL DUP2 MSTORE PUSH1 0x20 PUSH1 0x4 DUP3 ADD MSTORE PUSH1 0x2A PUSH1 0x24 DUP3 ADD MSTORE PUSH32 0x455243313135353A2061646472657373207A65726F206973206E6F7420612076 PUSH1 0x44 DUP3 ADD MSTORE PUSH10 0x30B634B21037BBB732B9 PUSH1 0xB1 SHL PUSH1 0x64 DUP3 ADD MSTORE PUSH1 0x84 ADD JUMPDEST PUSH1 0x40 MLOAD DUP1 SWAP2 SUB SWAP1 REVERT JUMPDEST POP PUSH1 0x0 DUP2 DUP2 MSTORE PUSH1 0x65 PUSH1 0x20 SWAP1 DUP2 MSTORE PUSH1 0x40 DUP1 DUP4 KECCAK256 PUSH1 0x1 PUSH1 0x1 PUSH1 0xA0 SHL SUB DUP7 AND DUP5 MSTORE SWAP1 SWAP2 MSTORE SWAP1 KECCAK256 SLOAD JUMPDEST SWAP3 SWAP2 POP POP JUMP JUMPDEST PUSH1 0x0 PUSH1 0x1 PUSH1 0x1 PUSH1 0xE0 SHL SUB NOT DUP3 AND PUSH4 0x6CDB3D13 PUSH1 0xE1 SHL EQ DUP1 PUSH2 0x7D5 JUMPI POP PUSH1 0x1 PUSH1 0x1 PUSH1 0xE0 SHL SUB NOT DUP3 AND PUSH4 0x3A24D07 PUSH1 0xE2 SHL EQ JUMPDEST DUP1 PUSH2 0x79E JUMPI POP PUSH4 0x1FFC9A7 PUSH1 0xE0 SHL PUSH1 0x1 PUSH1 0x1 PUSH1 0xE0 SHL SUB NOT DUP4 AND EQ PUSH2 0x79E JUMP JUMPDEST PUSH1 0x60 PUSH2 0x79E DUP3 PUSH2 0x13A3 JUMP JUMPDEST PUSH1 0x0 PUSH2 0x80B DUP4 DUP4 PUSH2 0x13B9 JUMP JUMPDEST SWAP4 SWAP3 POP POP POP JUMP JUMPDEST PUSH2 0x81A PUSH2 0x13F1 JUMP JUMPDEST CALLER PUSH1 0x1 PUSH1 0x1 PUSH1 0xA0 SHL SUB DUP8 AND EQ PUSH2 0x843 JUMPI PUSH1 0x40 MLOAD PUSH4 0x1EB49D6D PUSH1 0xE1 SHL DUP2 MSTORE PUSH1 0x4 ADD PUSH1 0x40 MLOAD DUP1 SWAP2 SUB SWAP1 REVERT JUMPDEST DUP5 PUSH2 0x880 DUP6 DUP6 DUP1 DUP1 PUSH1 0x20 MUL PUSH1 0x20 ADD PUSH1 0x40 MLOAD SWAP1 DUP2 ADD PUSH1 0x40 MSTORE DUP1 SWAP4 SWAP3 SWAP2 SWAP1 DUP2 DUP2 MSTORE PUSH1 0x20 ADD DUP4 DUP4 PUSH1 0x20 MUL DUP1 DUP3 DUP5 CALLDATACOPY PUSH1 0x0 SWAP3 ADD SWAP2 SWAP1 SWAP2 MSTORE POP PUSH2 0x1438 SWAP3 POP POP POP JUMP JUMPDEST EQ PUSH2 0x89E JUMPI PUSH1 0x40 MLOAD PUSH4 0x6DAC6A09 PUSH1 0xE0 SHL DUP2 MSTORE PUSH1 0x4 ADD PUSH1 0x40 MLOAD DUP1 SWAP2 SUB SWAP1 REVERT JUMPDEST PUSH1 0x0 PUSH2 0x8AC DUP8 DUP7 DUP7 DUP7 PUSH2 0x14B7 JUMP JUMPDEST PUSH1 0x0 DUP2 DUP2 MSTORE PUSH2 0x1FF PUSH1 0x20 MSTORE PUSH1 0x40 SWAP1 KECCAK256 DUP1 SLOAD SWAP2 SWAP3 POP DUP4 SWAP2 PUSH1 0xFF NOT AND PUSH1 0x1 DUP4 PUSH1 0x2 DUP2 GT ISZERO PUSH2 0x8DA JUMPI PUSH2 0x8DA PUSH2 0x4549 JUMP JUMPDEST MUL OR SWAP1 SSTORE POP DUP1 PUSH32 0x19789DDE2D660B739733377ADD05F87576A360D2D4ADEA587C2592264F7F6D4E DUP5 DUP9 PUSH1 0x40 MLOAD PUSH2 0x911 SWAP3 SWAP2 SWAP1 PUSH2 0x455F JUMP JUMPDEST PUSH1 0x40 MLOAD DUP1 SWAP2 SUB SWAP1 LOG2 POP POP POP POP POP POP POP JUMP JUMPDEST PUSH1 0x1 PUSH1 0x1 PUSH1 0xA0 SHL SUB DUP6 AND CALLER EQ DUP1 PUSH2 0x93E JUMPI POP PUSH2 0x93E DUP6 CALLER PUSH2 0x61B JUMP JUMPDEST PUSH2 0x95A JUMPI PUSH1 0x40 MLOAD PUSH3 0x461BCD PUSH1 0xE5 SHL DUP2 MSTORE PUSH1 0x4 ADD PUSH2 0x770 SWAP1 PUSH2 0x4581 JUMP JUMPDEST PUSH2 0x967 DUP6 DUP6 DUP6 DUP6 DUP6 PUSH2 0x1531 JUMP JUMPDEST POP POP POP POP POP JUMP JUMPDEST PUSH1 0x1 PUSH1 0x1 PUSH1 0xA0 SHL SUB PUSH32 0x0 AND ADDRESS SUB PUSH2 0x9B6 JUMPI PUSH1 0x40 MLOAD PUSH3 0x461BCD PUSH1 0xE5 SHL DUP2 MSTORE PUSH1 0x4 ADD PUSH2 0x770 SWAP1 PUSH2 0x45CF JUMP JUMPDEST PUSH32 0x0 PUSH1 0x1 PUSH1 0x1 PUSH1 0xA0 SHL SUB AND PUSH2 0x9FF PUSH1 0x0 DUP1 MLOAD PUSH1 0x20 PUSH2 0x4DF3 DUP4 CODECOPY DUP2 MLOAD SWAP2 MSTORE SLOAD PUSH1 0x1 PUSH1 0x1 PUSH1 0xA0 SHL SUB AND SWAP1 JUMP JUMPDEST PUSH1 0x1 PUSH1 0x1 PUSH1 0xA0 SHL SUB AND EQ PUSH2 0xA25 JUMPI PUSH1 0x40 MLOAD PUSH3 0x461BCD PUSH1 0xE5 SHL DUP2 MSTORE PUSH1 0x4 ADD PUSH2 0x770 SWAP1 PUSH2 0x461B JUMP JUMPDEST PUSH2 0xA2E DUP2 PUSH2 0x16E4 JUMP JUMPDEST PUSH1 0x40 DUP1 MLOAD PUSH1 0x0 DUP1 DUP3 MSTORE PUSH1 0x20 DUP3 ADD SWAP1 SWAP3 MSTORE PUSH2 0xA4A SWAP2 DUP4 SWAP2 SWAP1 PUSH2 0x16EC JUMP JUMPDEST POP JUMP JUMPDEST PUSH1 0x0 DUP3 DUP2 MSTORE PUSH2 0x1AF PUSH1 0x20 MSTORE PUSH1 0x40 DUP2 KECCAK256 SLOAD PUSH2 0xA6B SWAP1 DUP7 SWAP1 DUP7 SWAP1 DUP6 PUSH2 0x1857 JUMP JUMPDEST SWAP6 SWAP5 POP POP POP POP POP JUMP JUMPDEST PUSH2 0xA7C PUSH2 0x186F JUMP JUMPDEST PUSH2 0xA84 PUSH2 0x18C9 JUMP JUMPDEST JUMP JUMPDEST PUSH1 0x1 PUSH1 0x1 PUSH1 0x80 SHL SUB NOT DUP2 AND PUSH1 0x0 SWAP1 DUP2 MSTORE PUSH2 0x1FF PUSH1 0x20 MSTORE PUSH1 0x40 DUP2 KECCAK256 SLOAD PUSH1 0x60 SWAP2 PUSH1 0xFF SWAP1 SWAP2 AND SWAP1 DUP2 PUSH1 0x2 DUP2 GT ISZERO PUSH2 0xABC JUMPI PUSH2 0xABC PUSH2 0x4549 JUMP JUMPDEST SUB PUSH2 0xAE7 JUMPI POP POP PUSH1 0x40 DUP1 MLOAD DUP1 DUP3 ADD SWAP1 SWAP2 MSTORE PUSH1 0x8 DUP2 MSTORE PUSH8 0x105B1B1BDDD05B1B PUSH1 0xC2 SHL PUSH1 0x20 DUP3 ADD MSTORE SWAP2 SWAP1 POP JUMP JUMPDEST PUSH1 0x1 DUP2 PUSH1 0x2 DUP2 GT ISZERO PUSH2 0xAFB JUMPI PUSH2 0xAFB PUSH2 0x4549 JUMP JUMPDEST SUB PUSH2 0xB29 JUMPI POP POP PUSH1 0x40 DUP1 MLOAD DUP1 DUP3 ADD SWAP1 SWAP2 MSTORE PUSH1 0xB DUP2 MSTORE PUSH11 0x111A5CD85B1B1BDDD05B1B PUSH1 0xAA SHL PUSH1 0x20 DUP3 ADD MSTORE SWAP2 SWAP1 POP JUMP JUMPDEST PUSH1 0x2 DUP2 PUSH1 0x2 DUP2 GT ISZERO PUSH2 0xB3D JUMPI PUSH2 0xB3D PUSH2 0x4549 JUMP JUMPDEST SUB PUSH2 0xB6F JUMPI POP POP PUSH1 0x40 DUP1 MLOAD DUP1 DUP3 ADD SWAP1 SWAP2 MSTORE PUSH1 0xF DUP2 MSTORE PUSH15 0x46726F6D43726561746F724F6E6C79 PUSH1 0x88 SHL PUSH1 0x20 DUP3 ADD MSTORE SWAP2 SWAP1 POP JUMP JUMPDEST POP POP PUSH1 0x40 DUP1 MLOAD PUSH1 0x20 DUP2 ADD SWAP1 SWAP2 MSTORE PUSH1 0x0 DUP2 MSTORE SWAP2 SWAP1 POP JUMP JUMPDEST PUSH1 0x60 DUP2 MLOAD DUP4 MLOAD EQ PUSH2 0xBEA JUMPI PUSH1 0x40 MLOAD PUSH3 0x461BCD PUSH1 0xE5 SHL DUP2 MSTORE PUSH1 0x20 PUSH1 0x4 DUP3 ADD MSTORE PUSH1 0x29 PUSH1 0x24 DUP3 ADD MSTORE PUSH32 0x455243313135353A206163636F756E747320616E6420696473206C656E677468 PUSH1 0x44 DUP3 ADD MSTORE PUSH9 0x40DAD2E6DAC2E8C6D PUSH1 0xBB SHL PUSH1 0x64 DUP3 ADD MSTORE PUSH1 0x84 ADD PUSH2 0x770 JUMP JUMPDEST PUSH1 0x0 DUP4 MLOAD PUSH1 0x1 PUSH1 0x1 PUSH1 0x40 SHL SUB DUP2 GT ISZERO PUSH2 0xC05 JUMPI PUSH2 0xC05 PUSH2 0x3CC4 JUMP JUMPDEST PUSH1 0x40 MLOAD SWAP1 DUP1 DUP3 MSTORE DUP1 PUSH1 0x20 MUL PUSH1 0x20 ADD DUP3 ADD PUSH1 0x40 MSTORE DUP1 ISZERO PUSH2 0xC2E JUMPI DUP2 PUSH1 0x20 ADD PUSH1 0x20 DUP3 MUL DUP1 CALLDATASIZE DUP4 CALLDATACOPY ADD SWAP1 POP JUMPDEST POP SWAP1 POP PUSH1 0x0 JUMPDEST DUP5 MLOAD DUP2 LT ISZERO PUSH2 0xCA6 JUMPI PUSH2 0xC79 DUP6 DUP3 DUP2 MLOAD DUP2 LT PUSH2 0xC52 JUMPI PUSH2 0xC52 PUSH2 0x4667 JUMP JUMPDEST PUSH1 0x20 MUL PUSH1 0x20 ADD ADD MLOAD DUP6 DUP4 DUP2 MLOAD DUP2 LT PUSH2 0xC6C JUMPI PUSH2 0xC6C PUSH2 0x4667 JUMP JUMPDEST PUSH1 0x20 MUL PUSH1 0x20 ADD ADD MLOAD PUSH2 0x709 JUMP JUMPDEST DUP3 DUP3 DUP2 MLOAD DUP2 LT PUSH2 0xC8B JUMPI PUSH2 0xC8B PUSH2 0x4667 JUMP JUMPDEST PUSH1 0x20 SWAP1 DUP2 MUL SWAP2 SWAP1 SWAP2 ADD ADD MSTORE PUSH2 0xC9F DUP2 PUSH2 0x4693 JUMP JUMPDEST SWAP1 POP PUSH2 0xC34 JUMP JUMPDEST POP SWAP4 SWAP3 POP POP POP JUMP JUMPDEST PUSH1 0x1 PUSH1 0x1 PUSH1 0xA0 SHL SUB PUSH32 0x0 AND ADDRESS SUB PUSH2 0xCF6 JUMPI PUSH1 0x40 MLOAD PUSH3 0x461BCD PUSH1 0xE5 SHL DUP2 MSTORE PUSH1 0x4 ADD PUSH2 0x770 SWAP1 PUSH2 0x45CF JUMP JUMPDEST PUSH32 0x0 PUSH1 0x1 PUSH1 0x1 PUSH1 0xA0 SHL SUB AND PUSH2 0xD3F PUSH1 0x0 DUP1 MLOAD PUSH1 0x20 PUSH2 0x4DF3 DUP4 CODECOPY DUP2 MLOAD SWAP2 MSTORE SLOAD PUSH1 0x1 PUSH1 0x1 PUSH1 0xA0 SHL SUB AND SWAP1 JUMP JUMPDEST PUSH1 0x1 PUSH1 0x1 PUSH1 0xA0 SHL SUB AND EQ PUSH2 0xD65 JUMPI PUSH1 0x40 MLOAD PUSH3 0x461BCD PUSH1 0xE5 SHL DUP2 MSTORE PUSH1 0x4 ADD PUSH2 0x770 SWAP1 PUSH2 0x461B JUMP JUMPDEST PUSH2 0xD6E DUP3 PUSH2 0x16E4 JUMP JUMPDEST PUSH2 0xD7A DUP3 DUP3 PUSH1 0x1 PUSH2 0x16EC JUMP JUMPDEST POP POP JUMP JUMPDEST PUSH1 0x0 ADDRESS PUSH1 0x1 PUSH1 0x1 PUSH1 0xA0 SHL SUB PUSH32 0x0 AND EQ PUSH2 0xE1E JUMPI PUSH1 0x40 MLOAD PUSH3 0x461BCD PUSH1 0xE5 SHL DUP2 MSTORE PUSH1 0x20 PUSH1 0x4 DUP3 ADD MSTORE PUSH1 0x38 PUSH1 0x24 DUP3 ADD MSTORE PUSH32 0x555550535570677261646561626C653A206D757374206E6F742062652063616C PUSH1 0x44 DUP3 ADD MSTORE PUSH32 0x6C6564207468726F7567682064656C656761746563616C6C0000000000000000 PUSH1 0x64 DUP3 ADD MSTORE PUSH1 0x84 ADD PUSH2 0x770 JUMP JUMPDEST POP PUSH1 0x0 DUP1 MLOAD PUSH1 0x20 PUSH2 0x4DF3 DUP4 CODECOPY DUP2 MLOAD SWAP2 MSTORE JUMPDEST SWAP1 JUMP JUMPDEST PUSH1 0x1 PUSH1 0x1 PUSH1 0xA0 SHL SUB DUP4 AND CALLER EQ DUP1 PUSH2 0xE4E JUMPI POP PUSH2 0xE4E DUP4 CALLER PUSH2 0x61B JUMP JUMPDEST PUSH2 0xE6A JUMPI PUSH1 0x40 MLOAD PUSH3 0x461BCD PUSH1 0xE5 SHL DUP2 MSTORE PUSH1 0x4 ADD PUSH2 0x770 SWAP1 PUSH2 0x4581 JUMP JUMPDEST PUSH2 0xE75 DUP4 DUP4 DUP4 PUSH2 0x191C JUMP JUMPDEST POP POP POP JUMP JUMPDEST PUSH2 0xE82 PUSH2 0x13F1 JUMP JUMPDEST PUSH2 0xE8E DUP5 DUP5 DUP5 DUP5 PUSH2 0x1AC5 JUMP JUMPDEST POP POP POP POP JUMP JUMPDEST PUSH2 0xE9C PUSH2 0x186F JUMP JUMPDEST PUSH2 0xA84 PUSH1 0x0 PUSH2 0x1FCA JUMP JUMPDEST PUSH1 0x0 SLOAD PUSH2 0x100 SWAP1 DIV PUSH1 0xFF AND ISZERO DUP1 DUP1 ISZERO PUSH2 0xEC6 JUMPI POP PUSH1 0x0 SLOAD PUSH1 0x1 PUSH1 0xFF SWAP1 SWAP2 AND LT JUMPDEST DUP1 PUSH2 0xEE0 JUMPI POP ADDRESS EXTCODESIZE ISZERO DUP1 ISZERO PUSH2 0xEE0 JUMPI POP PUSH1 0x0 SLOAD PUSH1 0xFF AND PUSH1 0x1 EQ JUMPDEST PUSH2 0xF43 JUMPI PUSH1 0x40 MLOAD PUSH3 0x461BCD PUSH1 0xE5 SHL DUP2 MSTORE PUSH1 0x20 PUSH1 0x4 DUP3 ADD MSTORE PUSH1 0x2E PUSH1 0x24 DUP3 ADD MSTORE PUSH32 0x496E697469616C697A61626C653A20636F6E747261637420697320616C726561 PUSH1 0x44 DUP3 ADD MSTORE PUSH14 0x191E481A5B9A5D1A585B1A5E9959 PUSH1 0x92 SHL PUSH1 0x64 DUP3 ADD MSTORE PUSH1 0x84 ADD PUSH2 0x770 JUMP JUMPDEST PUSH1 0x0 DUP1 SLOAD PUSH1 0xFF NOT AND PUSH1 0x1 OR SWAP1 SSTORE DUP1 ISZERO PUSH2 0xF66 JUMPI PUSH1 0x0 DUP1 SLOAD PUSH2 0xFF00 NOT AND PUSH2 0x100 OR SWAP1 SSTORE JUMPDEST PUSH2 0xF6E PUSH2 0xFCE JUMP JUMPDEST PUSH2 0xF76 PUSH2 0x201C JUMP JUMPDEST DUP1 ISZERO PUSH2 0xA4A JUMPI PUSH1 0x0 DUP1 SLOAD PUSH2 0xFF00 NOT AND SWAP1 SSTORE PUSH1 0x40 MLOAD PUSH1 0x1 DUP2 MSTORE PUSH32 0x7F26B83FF96E1F2B6A682F133852F6798A09C465DA95921460CEFB3847402498 SWAP1 PUSH1 0x20 ADD PUSH1 0x40 MLOAD DUP1 SWAP2 SUB SWAP1 LOG1 POP JUMP JUMPDEST PUSH2 0xFC6 PUSH2 0x186F JUMP JUMPDEST PUSH2 0xA84 PUSH2 0x204B JUMP JUMPDEST PUSH1 0x0 SLOAD PUSH2 0x100 SWAP1 DIV PUSH1 0xFF AND PUSH2 0xFF5 JUMPI PUSH1 0x40 MLOAD PUSH3 0x461BCD PUSH1 0xE5 SHL DUP2 MSTORE PUSH1 0x4 ADD PUSH2 0x770 SWAP1 PUSH2 0x46AC JUMP JUMPDEST PUSH2 0x100D PUSH1 0x40 MLOAD DUP1 PUSH1 0x20 ADD PUSH1 0x40 MSTORE DUP1 PUSH1 0x0 DUP2 MSTORE POP PUSH2 0x2089 JUMP JUMPDEST PUSH2 0x1015 PUSH2 0x20B9 JUMP JUMPDEST PUSH2 0x101D PUSH2 0x20E0 JUMP JUMPDEST PUSH2 0x1025 PUSH2 0x210F JUMP JUMPDEST PUSH2 0xA84 PUSH2 0x20B9 JUMP JUMPDEST PUSH2 0x1035 PUSH2 0x13F1 JUMP JUMPDEST PUSH2 0x1041 DUP5 DUP5 DUP5 DUP5 PUSH2 0x213E JUMP JUMPDEST PUSH2 0x104C DUP6 DUP4 DUP4 PUSH2 0x2295 JUMP JUMPDEST POP POP POP POP POP POP JUMP JUMPDEST PUSH1 0x0 DUP2 DUP2 MSTORE PUSH2 0x194 PUSH1 0x20 MSTORE PUSH1 0x40 DUP2 KECCAK256 SLOAD PUSH2 0x79E JUMP JUMPDEST PUSH2 0xD7A CALLER DUP4 DUP4 PUSH2 0x236D JUMP JUMPDEST PUSH2 0x107C PUSH2 0x13F1 JUMP JUMPDEST PUSH1 0x0 PUSH2 0x1089 DUP7 DUP7 DUP6 PUSH2 0x244D JUMP JUMPDEST SWAP1 POP PUSH2 0x1096 DUP2 DUP6 DUP8 PUSH2 0x24F4 JUMP JUMPDEST PUSH1 0x0 DUP2 DUP2 MSTORE PUSH2 0x1FF PUSH1 0x20 MSTORE PUSH1 0x40 SWAP1 KECCAK256 DUP1 SLOAD DUP4 SWAP2 SWAP1 PUSH1 0xFF NOT AND PUSH1 0x1 DUP4 PUSH1 0x2 DUP2 GT ISZERO PUSH2 0x10C2 JUMPI PUSH2 0x10C2 PUSH2 0x4549 JUMP JUMPDEST MUL OR SWAP1 SSTORE POP DUP1 PUSH32 0x19789DDE2D660B739733377ADD05F87576A360D2D4ADEA587C2592264F7F6D4E DUP5 DUP8 PUSH1 0x40 MLOAD PUSH2 0x10F9 SWAP3 SWAP2 SWAP1 PUSH2 0x455F JUMP JUMPDEST PUSH1 0x40 MLOAD DUP1 SWAP2 SUB SWAP1 LOG2 POP POP POP POP POP POP JUMP JUMPDEST PUSH2 0x1111 PUSH2 0x13F1 JUMP JUMPDEST PUSH2 0xE75 DUP4 DUP4 DUP4 DUP1 DUP1 PUSH1 0x20 MUL PUSH1 0x20 ADD PUSH1 0x40 MLOAD SWAP1 DUP2 ADD PUSH1 0x40 MSTORE DUP1 SWAP4 SWAP3 SWAP2 SWAP1 DUP2 DUP2 MSTORE PUSH1 0x20 ADD DUP4 DUP4 PUSH1 0x20 MUL DUP1 DUP3 DUP5 CALLDATACOPY PUSH1 0x0 SWAP3 ADD SWAP2 SWAP1 SWAP2 MSTORE POP PUSH2 0x25A8 SWAP3 POP POP POP JUMP JUMPDEST PUSH2 0x1156 PUSH2 0x13F1 JUMP JUMPDEST DUP3 PUSH1 0x0 JUMPDEST DUP2 DUP2 LT ISZERO PUSH2 0x11C8 JUMPI PUSH2 0x11C0 DUP9 DUP9 DUP4 DUP2 DUP2 LT PUSH2 0x1177 JUMPI PUSH2 0x1177 PUSH2 0x4667 JUMP JUMPDEST SWAP1 POP PUSH1 0x20 MUL DUP2 ADD SWAP1 PUSH2 0x1189 SWAP2 SWAP1 PUSH2 0x46F7 JUMP JUMPDEST DUP9 DUP9 DUP6 DUP2 DUP2 LT PUSH2 0x119B JUMPI PUSH2 0x119B PUSH2 0x4667 JUMP JUMPDEST SWAP1 POP PUSH1 0x20 MUL ADD CALLDATALOAD DUP8 DUP8 DUP7 DUP2 DUP2 LT PUSH2 0x11B4 JUMPI PUSH2 0x11B4 PUSH2 0x4667 JUMP JUMPDEST SWAP1 POP PUSH1 0x20 MUL ADD CALLDATALOAD PUSH2 0x213E JUMP JUMPDEST PUSH1 0x1 ADD PUSH2 0x115A JUMP JUMPDEST POP PUSH2 0x11D6 DUP9 DUP7 DUP7 DUP7 DUP7 PUSH2 0x289F JUMP JUMPDEST POP POP POP POP POP POP POP POP POP JUMP JUMPDEST PUSH1 0x1 PUSH1 0x1 PUSH1 0xA0 SHL SUB DUP6 AND CALLER EQ DUP1 PUSH2 0x11FD JUMPI POP PUSH2 0x11FD DUP6 CALLER PUSH2 0x61B JUMP JUMPDEST PUSH2 0x1219 JUMPI PUSH1 0x40 MLOAD PUSH3 0x461BCD PUSH1 0xE5 SHL DUP2 MSTORE PUSH1 0x4 ADD PUSH2 0x770 SWAP1 PUSH2 0x4581 JUMP JUMPDEST PUSH2 0x967 DUP6 DUP6 DUP6 DUP6 DUP6 PUSH2 0x2AD7 JUMP JUMPDEST PUSH2 0x122E PUSH2 0x186F JUMP JUMPDEST PUSH1 0x1 PUSH1 0x1 PUSH1 0xA0 SHL SUB DUP2 AND PUSH2 0x1293 JUMPI PUSH1 0x40 MLOAD PUSH3 0x461BCD PUSH1 0xE5 SHL DUP2 MSTORE PUSH1 0x20 PUSH1 0x4 DUP3 ADD MSTORE PUSH1 0x26 PUSH1 0x24 DUP3 ADD MSTORE PUSH32 0x4F776E61626C653A206E6577206F776E657220697320746865207A65726F2061 PUSH1 0x44 DUP3 ADD MSTORE PUSH6 0x646472657373 PUSH1 0xD0 SHL PUSH1 0x64 DUP3 ADD MSTORE PUSH1 0x84 ADD PUSH2 0x770 JUMP JUMPDEST PUSH2 0xA4A DUP2 PUSH2 0x1FCA JUMP JUMPDEST PUSH1 0x1 PUSH1 0x1 PUSH1 0xA0 SHL SUB DUP4 AND CALLER EQ DUP1 PUSH2 0x12B8 JUMPI POP PUSH2 0x12B8 DUP4 CALLER PUSH2 0x61B JUMP JUMPDEST PUSH2 0x12D4 JUMPI PUSH1 0x40 MLOAD PUSH3 0x461BCD PUSH1 0xE5 SHL DUP2 MSTORE PUSH1 0x4 ADD PUSH2 0x770 SWAP1 PUSH2 0x4581 JUMP JUMPDEST PUSH2 0xE75 DUP4 DUP4 DUP4 PUSH2 0x2C04 JUMP JUMPDEST PUSH2 0x12E7 PUSH2 0x13F1 JUMP JUMPDEST PUSH2 0xD7A DUP3 DUP3 PUSH2 0x2D21 JUMP JUMPDEST PUSH2 0x12F9 PUSH2 0x13F1 JUMP JUMPDEST CALLER PUSH1 0x1 PUSH1 0x1 PUSH1 0xA0 SHL SUB DUP6 AND EQ PUSH2 0x1322 JUMPI PUSH1 0x40 MLOAD PUSH4 0x1EB49D6D PUSH1 0xE1 SHL DUP2 MSTORE PUSH1 0x4 ADD PUSH1 0x40 MLOAD DUP1 SWAP2 SUB SWAP1 REVERT JUMPDEST PUSH1 0x0 PUSH2 0x132F DUP6 DUP6 DUP6 PUSH2 0x2DCE JUMP JUMPDEST PUSH1 0x0 DUP2 DUP2 MSTORE PUSH2 0x1FF PUSH1 0x20 MSTORE PUSH1 0x40 SWAP1 KECCAK256 DUP1 SLOAD SWAP2 SWAP3 POP DUP4 SWAP2 PUSH1 0xFF NOT AND PUSH1 0x1 DUP4 PUSH1 0x2 DUP2 GT ISZERO PUSH2 0x135D JUMPI PUSH2 0x135D PUSH2 0x4549 JUMP JUMPDEST MUL OR SWAP1 SSTORE POP DUP1 PUSH32 0x19789DDE2D660B739733377ADD05F87576A360D2D4ADEA587C2592264F7F6D4E DUP5 DUP7 PUSH1 0x40 MLOAD PUSH2 0x1394 SWAP3 SWAP2 SWAP1 PUSH2 0x455F JUMP JUMPDEST PUSH1 0x40 MLOAD DUP1 SWAP2 SUB SWAP1 LOG2 POP POP POP POP POP JUMP JUMPDEST PUSH1 0x60 PUSH1 0x1 PUSH1 0x1 PUSH1 0x80 SHL SUB NOT DUP3 AND PUSH2 0x80B DUP2 PUSH2 0x2EB3 JUMP JUMPDEST PUSH1 0x0 DUP2 DUP2 MSTORE PUSH2 0x192 PUSH1 0x20 MSTORE PUSH1 0x40 DUP2 KECCAK256 SLOAD PUSH1 0x1 PUSH1 0x1 PUSH1 0xA0 SHL SUB DUP5 DUP2 AND SWAP2 AND SUB PUSH2 0x79E JUMPI POP PUSH1 0x0 SWAP1 DUP2 MSTORE PUSH2 0x194 PUSH1 0x20 MSTORE PUSH1 0x40 SWAP1 KECCAK256 SLOAD SWAP2 SWAP1 POP JUMP JUMPDEST PUSH2 0x1CD SLOAD PUSH1 0xFF AND ISZERO PUSH2 0xA84 JUMPI PUSH1 0x40 MLOAD PUSH3 0x461BCD PUSH1 0xE5 SHL DUP2 MSTORE PUSH1 0x20 PUSH1 0x4 DUP3 ADD MSTORE PUSH1 0x10 PUSH1 0x24 DUP3 ADD MSTORE PUSH16 0x14185D5CD8589B194E881C185D5CD959 PUSH1 0x82 SHL PUSH1 0x44 DUP3 ADD MSTORE PUSH1 0x64 ADD PUSH2 0x770 JUMP JUMPDEST DUP1 MLOAD PUSH1 0x0 SWAP1 DUP2 JUMPDEST DUP2 DUP2 LT ISZERO PUSH2 0x14B0 JUMPI DUP4 DUP2 DUP2 MLOAD DUP2 LT PUSH2 0x1459 JUMPI PUSH2 0x1459 PUSH2 0x4667 JUMP JUMPDEST PUSH1 0x20 MUL PUSH1 0x20 ADD ADD MLOAD PUSH1 0x0 SUB PUSH2 0x1481 JUMPI PUSH1 0x40 MLOAD PUSH4 0x1EB49D6D PUSH1 0xE1 SHL DUP2 MSTORE PUSH1 0x4 ADD PUSH1 0x40 MLOAD DUP1 SWAP2 SUB SWAP1 REVERT JUMPDEST DUP4 DUP2 DUP2 MLOAD DUP2 LT PUSH2 0x1493 JUMPI PUSH2 0x1493 PUSH2 0x4667 JUMP JUMPDEST PUSH1 0x20 MUL PUSH1 0x20 ADD ADD MLOAD DUP4 PUSH2 0x14A6 SWAP2 SWAP1 PUSH2 0x4740 JUMP JUMPDEST SWAP3 POP PUSH1 0x1 ADD PUSH2 0x143F JUMP JUMPDEST POP POP SWAP2 SWAP1 POP JUMP JUMPDEST PUSH1 0x0 PUSH2 0x14FF DUP6 PUSH2 0x14F9 DUP7 DUP7 DUP1 DUP1 PUSH1 0x20 MUL PUSH1 0x20 ADD PUSH1 0x40 MLOAD SWAP1 DUP2 ADD PUSH1 0x40 MSTORE DUP1 SWAP4 SWAP3 SWAP2 SWAP1 DUP2 DUP2 MSTORE PUSH1 0x20 ADD DUP4 DUP4 PUSH1 0x20 MUL DUP1 DUP3 DUP5 CALLDATACOPY PUSH1 0x0 SWAP3 ADD SWAP2 SWAP1 SWAP2 MSTORE POP PUSH2 0x1438 SWAP3 POP POP POP JUMP JUMPDEST DUP5 PUSH2 0x2DCE JUMP JUMPDEST PUSH1 0x0 DUP2 DUP2 MSTORE PUSH2 0x195 PUSH1 0x20 MSTORE PUSH1 0x40 SWAP1 KECCAK256 SLOAD SWAP1 SWAP2 POP PUSH2 0x1529 SWAP1 DUP7 SWAP1 PUSH2 0x1522 SWAP1 DUP5 PUSH2 0x4740 JUMP JUMPDEST DUP7 DUP7 PUSH2 0x1AC5 JUMP JUMPDEST SWAP5 SWAP4 POP POP POP POP JUMP JUMPDEST DUP2 MLOAD DUP4 MLOAD EQ PUSH2 0x1552 JUMPI PUSH1 0x40 MLOAD PUSH3 0x461BCD PUSH1 0xE5 SHL DUP2 MSTORE PUSH1 0x4 ADD PUSH2 0x770 SWAP1 PUSH2 0x4753 JUMP JUMPDEST PUSH1 0x1 PUSH1 0x1 PUSH1 0xA0 SHL SUB DUP5 AND PUSH2 0x1578 JUMPI PUSH1 0x40 MLOAD PUSH3 0x461BCD PUSH1 0xE5 SHL DUP2 MSTORE PUSH1 0x4 ADD PUSH2 0x770 SWAP1 PUSH2 0x479B JUMP JUMPDEST CALLER PUSH2 0x1587 DUP2 DUP8 DUP8 DUP8 DUP8 DUP8 PUSH2 0x2F92 JUMP JUMPDEST PUSH1 0x0 JUMPDEST DUP5 MLOAD DUP2 LT ISZERO PUSH2 0x1670 JUMPI PUSH1 0x0 DUP6 DUP3 DUP2 MLOAD DUP2 LT PUSH2 0x15A7 JUMPI PUSH2 0x15A7 PUSH2 0x4667 JUMP JUMPDEST PUSH1 0x20 MUL PUSH1 0x20 ADD ADD MLOAD SWAP1 POP PUSH1 0x0 DUP6 DUP4 DUP2 MLOAD DUP2 LT PUSH2 0x15C5 JUMPI PUSH2 0x15C5 PUSH2 0x4667 JUMP JUMPDEST PUSH1 0x20 SWAP1 DUP2 MUL SWAP2 SWAP1 SWAP2 ADD DUP2 ADD MLOAD PUSH1 0x0 DUP5 DUP2 MSTORE PUSH1 0x65 DUP4 MSTORE PUSH1 0x40 DUP1 DUP3 KECCAK256 PUSH1 0x1 PUSH1 0x1 PUSH1 0xA0 SHL SUB DUP15 AND DUP4 MSTORE SWAP1 SWAP4 MSTORE SWAP2 SWAP1 SWAP2 KECCAK256 SLOAD SWAP1 SWAP2 POP DUP2 DUP2 LT ISZERO PUSH2 0x1616 JUMPI PUSH1 0x40 MLOAD PUSH3 0x461BCD PUSH1 0xE5 SHL DUP2 MSTORE PUSH1 0x4 ADD PUSH2 0x770 SWAP1 PUSH2 0x47E0 JUMP JUMPDEST PUSH1 0x0 DUP4 DUP2 MSTORE PUSH1 0x65 PUSH1 0x20 SWAP1 DUP2 MSTORE PUSH1 0x40 DUP1 DUP4 KECCAK256 PUSH1 0x1 PUSH1 0x1 PUSH1 0xA0 SHL SUB DUP15 DUP2 AND DUP6 MSTORE SWAP3 MSTORE DUP1 DUP4 KECCAK256 DUP6 DUP6 SUB SWAP1 SSTORE SWAP1 DUP12 AND DUP3 MSTORE DUP2 KECCAK256 DUP1 SLOAD DUP5 SWAP3 SWAP1 PUSH2 0x1655 SWAP1 DUP5 SWAP1 PUSH2 0x4740 JUMP JUMPDEST SWAP3 POP POP DUP2 SWAP1 SSTORE POP POP POP POP DUP1 PUSH2 0x1669 SWAP1 PUSH2 0x4693 JUMP JUMPDEST SWAP1 POP PUSH2 0x158A JUMP JUMPDEST POP DUP5 PUSH1 0x1 PUSH1 0x1 PUSH1 0xA0 SHL SUB AND DUP7 PUSH1 0x1 PUSH1 0x1 PUSH1 0xA0 SHL SUB AND DUP3 PUSH1 0x1 PUSH1 0x1 PUSH1 0xA0 SHL SUB AND PUSH32 0x4A39DC06D4C0DBC64B70AF90FD698A233A518AA5D07E595D983B8C0526C8F7FB DUP8 DUP8 PUSH1 0x40 MLOAD PUSH2 0x16C0 SWAP3 SWAP2 SWAP1 PUSH2 0x482A JUMP JUMPDEST PUSH1 0x40 MLOAD DUP1 SWAP2 SUB SWAP1 LOG4 PUSH2 0x16D6 DUP2 DUP8 DUP8 DUP8 DUP8 DUP8 PUSH2 0x309F JUMP JUMPDEST PUSH2 0x104C DUP2 DUP8 DUP8 DUP8 DUP8 DUP8 PUSH2 0x3109 JUMP JUMPDEST PUSH2 0xA4A PUSH2 0x186F JUMP JUMPDEST PUSH32 0x4910FDFA16FED3260ED0E7147F7CC6DA11A60208B5B9406D12A635614FFD9143 SLOAD PUSH1 0xFF AND ISZERO PUSH2 0x171F JUMPI PUSH2 0xE75 DUP4 PUSH2 0x3264 JUMP JUMPDEST DUP3 PUSH1 0x1 PUSH1 0x1 PUSH1 0xA0 SHL SUB AND PUSH4 0x52D1902D PUSH1 0x40 MLOAD DUP2 PUSH4 0xFFFFFFFF AND PUSH1 0xE0 SHL DUP2 MSTORE PUSH1 0x4 ADD PUSH1 0x20 PUSH1 0x40 MLOAD DUP1 DUP4 SUB DUP2 DUP7 GAS STATICCALL SWAP3 POP POP POP DUP1 ISZERO PUSH2 0x1779 JUMPI POP PUSH1 0x40 DUP1 MLOAD PUSH1 0x1F RETURNDATASIZE SWAP1 DUP2 ADD PUSH1 0x1F NOT AND DUP3 ADD SWAP1 SWAP3 MSTORE PUSH2 0x1776 SWAP2 DUP2 ADD SWAP1 PUSH2 0x484F JUMP JUMPDEST PUSH1 0x1 JUMPDEST PUSH2 0x17DC JUMPI PUSH1 0x40 MLOAD PUSH3 0x461BCD PUSH1 0xE5 SHL DUP2 MSTORE PUSH1 0x20 PUSH1 0x4 DUP3 ADD MSTORE PUSH1 0x2E PUSH1 0x24 DUP3 ADD MSTORE PUSH32 0x45524331393637557067726164653A206E657720696D706C656D656E74617469 PUSH1 0x44 DUP3 ADD MSTORE PUSH14 0x6F6E206973206E6F742055555053 PUSH1 0x90 SHL PUSH1 0x64 DUP3 ADD MSTORE PUSH1 0x84 ADD PUSH2 0x770 JUMP JUMPDEST PUSH1 0x0 DUP1 MLOAD PUSH1 0x20 PUSH2 0x4DF3 DUP4 CODECOPY DUP2 MLOAD SWAP2 MSTORE DUP2 EQ PUSH2 0x184B JUMPI PUSH1 0x40 MLOAD PUSH3 0x461BCD PUSH1 0xE5 SHL DUP2 MSTORE PUSH1 0x20 PUSH1 0x4 DUP3 ADD MSTORE PUSH1 0x29 PUSH1 0x24 DUP3 ADD MSTORE PUSH32 0x45524331393637557067726164653A20756E737570706F727465642070726F78 PUSH1 0x44 DUP3 ADD MSTORE PUSH9 0x1A58589B1955555251 PUSH1 0xBA SHL PUSH1 0x64 DUP3 ADD MSTORE PUSH1 0x84 ADD PUSH2 0x770 JUMP JUMPDEST POP PUSH2 0xE75 DUP4 DUP4 DUP4 PUSH2 0x3300 JUMP JUMPDEST PUSH1 0x0 DUP3 PUSH2 0x1865 DUP7 DUP7 DUP6 PUSH2 0x3325 JUMP JUMPDEST EQ SWAP6 SWAP5 POP POP POP POP POP JUMP JUMPDEST PUSH1 0xFB SLOAD PUSH1 0x1 PUSH1 0x1 PUSH1 0xA0 SHL SUB AND CALLER EQ PUSH2 0xA84 JUMPI PUSH1 0x40 MLOAD PUSH3 0x461BCD PUSH1 0xE5 SHL DUP2 MSTORE PUSH1 0x20 PUSH1 0x4 DUP3 ADD DUP2 SWAP1 MSTORE PUSH1 0x24 DUP3 ADD MSTORE PUSH32 0x4F776E61626C653A2063616C6C6572206973206E6F7420746865206F776E6572 PUSH1 0x44 DUP3 ADD MSTORE PUSH1 0x64 ADD PUSH2 0x770 JUMP JUMPDEST PUSH2 0x18D1 PUSH2 0x3371 JUMP JUMPDEST PUSH2 0x1CD DUP1 SLOAD PUSH1 0xFF NOT AND SWAP1 SSTORE PUSH32 0x5DB9EE0A495BF2E6FF9C91A7834C1BA4FDD244A5E8AA4E537BD38AEAE4B073AA CALLER JUMPDEST PUSH1 0x40 MLOAD PUSH1 0x1 PUSH1 0x1 PUSH1 0xA0 SHL SUB SWAP1 SWAP2 AND DUP2 MSTORE PUSH1 0x20 ADD PUSH1 0x40 MLOAD DUP1 SWAP2 SUB SWAP1 LOG1 JUMP JUMPDEST PUSH1 0x1 PUSH1 0x1 PUSH1 0xA0 SHL SUB DUP4 AND PUSH2 0x1942 JUMPI PUSH1 0x40 MLOAD PUSH3 0x461BCD PUSH1 0xE5 SHL DUP2 MSTORE PUSH1 0x4 ADD PUSH2 0x770 SWAP1 PUSH2 0x4868 JUMP JUMPDEST DUP1 MLOAD DUP3 MLOAD EQ PUSH2 0x1963 JUMPI PUSH1 0x40 MLOAD PUSH3 0x461BCD PUSH1 0xE5 SHL DUP2 MSTORE PUSH1 0x4 ADD PUSH2 0x770 SWAP1 PUSH2 0x4753 JUMP JUMPDEST PUSH1 0x0 CALLER SWAP1 POP PUSH2 0x1986 DUP2 DUP6 PUSH1 0x0 DUP7 DUP7 PUSH1 0x40 MLOAD DUP1 PUSH1 0x20 ADD PUSH1 0x40 MSTORE DUP1 PUSH1 0x0 DUP2 MSTORE POP PUSH2 0x2F92 JUMP JUMPDEST PUSH1 0x0 JUMPDEST DUP4 MLOAD DUP2 LT ISZERO PUSH2 0x1A4E JUMPI PUSH1 0x0 DUP5 DUP3 DUP2 MLOAD DUP2 LT PUSH2 0x19A6 JUMPI PUSH2 0x19A6 PUSH2 0x4667 JUMP JUMPDEST PUSH1 0x20 MUL PUSH1 0x20 ADD ADD MLOAD SWAP1 POP PUSH1 0x0 DUP5 DUP4 DUP2 MLOAD DUP2 LT PUSH2 0x19C4 JUMPI PUSH2 0x19C4 PUSH2 0x4667 JUMP JUMPDEST PUSH1 0x20 SWAP1 DUP2 MUL SWAP2 SWAP1 SWAP2 ADD DUP2 ADD MLOAD PUSH1 0x0 DUP5 DUP2 MSTORE PUSH1 0x65 DUP4 MSTORE PUSH1 0x40 DUP1 DUP3 KECCAK256 PUSH1 0x1 PUSH1 0x1 PUSH1 0xA0 SHL SUB DUP13 AND DUP4 MSTORE SWAP1 SWAP4 MSTORE SWAP2 SWAP1 SWAP2 KECCAK256 SLOAD SWAP1 SWAP2 POP DUP2 DUP2 LT ISZERO PUSH2 0x1A15 JUMPI PUSH1 0x40 MLOAD PUSH3 0x461BCD PUSH1 0xE5 SHL DUP2 MSTORE PUSH1 0x4 ADD PUSH2 0x770 SWAP1 PUSH2 0x48AB JUMP JUMPDEST PUSH1 0x0 SWAP3 DUP4 MSTORE PUSH1 0x65 PUSH1 0x20 SWAP1 DUP2 MSTORE PUSH1 0x40 DUP1 DUP6 KECCAK256 PUSH1 0x1 PUSH1 0x1 PUSH1 0xA0 SHL SUB DUP12 AND DUP7 MSTORE SWAP1 SWAP2 MSTORE SWAP1 SWAP3 KECCAK256 SWAP2 SUB SWAP1 SSTORE DUP1 PUSH2 0x1A46 DUP2 PUSH2 0x4693 JUMP JUMPDEST SWAP2 POP POP PUSH2 0x1989 JUMP JUMPDEST POP PUSH1 0x0 PUSH1 0x1 PUSH1 0x1 PUSH1 0xA0 SHL SUB AND DUP5 PUSH1 0x1 PUSH1 0x1 PUSH1 0xA0 SHL SUB AND DUP3 PUSH1 0x1 PUSH1 0x1 PUSH1 0xA0 SHL SUB AND PUSH32 0x4A39DC06D4C0DBC64B70AF90FD698A233A518AA5D07E595D983B8C0526C8F7FB DUP7 DUP7 PUSH1 0x40 MLOAD PUSH2 0x1A9F SWAP3 SWAP2 SWAP1 PUSH2 0x482A JUMP JUMPDEST PUSH1 0x40 MLOAD DUP1 SWAP2 SUB SWAP1 LOG4 PUSH2 0xE8E DUP2 DUP6 PUSH1 0x0 DUP7 DUP7 PUSH1 0x40 MLOAD DUP1 PUSH1 0x20 ADD PUSH1 0x40 MSTORE DUP1 PUSH1 0x0 DUP2 MSTORE POP PUSH2 0x309F JUMP JUMPDEST PUSH1 0xFD DUP2 GT DUP1 PUSH2 0x1AD4 JUMPI POP PUSH1 0x2 DUP2 LT JUMPDEST ISZERO PUSH2 0x1AF2 JUMPI PUSH1 0x40 MLOAD PUSH4 0x3ADA02E5 PUSH1 0xE0 SHL DUP2 MSTORE PUSH1 0x4 ADD PUSH1 0x40 MLOAD DUP1 SWAP2 SUB SWAP1 REVERT JUMPDEST PUSH2 0x1B2E DUP3 DUP3 DUP1 DUP1 PUSH1 0x20 MUL PUSH1 0x20 ADD PUSH1 0x40 MLOAD SWAP1 DUP2 ADD PUSH1 0x40 MSTORE DUP1 SWAP4 SWAP3 SWAP2 SWAP1 DUP2 DUP2 MSTORE PUSH1 0x20 ADD DUP4 DUP4 PUSH1 0x20 MUL DUP1 DUP3 DUP5 CALLDATACOPY PUSH1 0x0 SWAP3 ADD SWAP2 SWAP1 SWAP2 MSTORE POP PUSH2 0x1438 SWAP3 POP POP POP JUMP JUMPDEST PUSH1 0x0 DUP5 DUP2 MSTORE PUSH2 0x194 PUSH1 0x20 MSTORE PUSH1 0x40 SWAP1 KECCAK256 SLOAD EQ PUSH2 0x1B5C JUMPI PUSH1 0x40 MLOAD PUSH4 0x1EB49D6D PUSH1 0xE1 SHL DUP2 MSTORE PUSH1 0x4 ADD PUSH1 0x40 MLOAD DUP1 SWAP2 SUB SWAP1 REVERT JUMPDEST PUSH1 0x0 DUP4 DUP2 MSTORE PUSH2 0x194 PUSH1 0x20 MSTORE PUSH1 0x40 DUP2 KECCAK256 SLOAD PUSH1 0x1 PUSH1 0x1 PUSH1 0x80 SHL SUB NOT DUP6 AND SWAP2 PUSH2 0x1B83 PUSH1 0x1 DUP6 PUSH2 0x48EF JUMP JUMPDEST SWAP1 POP PUSH1 0x0 DUP2 PUSH1 0x1 PUSH1 0x1 PUSH1 0x40 SHL SUB DUP2 GT ISZERO PUSH2 0x1B9F JUMPI PUSH2 0x1B9F PUSH2 0x3CC4 JUMP JUMPDEST PUSH1 0x40 MLOAD SWAP1 DUP1 DUP3 MSTORE DUP1 PUSH1 0x20 MUL PUSH1 0x20 ADD DUP3 ADD PUSH1 0x40 MSTORE DUP1 ISZERO PUSH2 0x1BC8 JUMPI DUP2 PUSH1 0x20 ADD PUSH1 0x20 DUP3 MUL DUP1 CALLDATASIZE DUP4 CALLDATACOPY ADD SWAP1 POP JUMPDEST POP SWAP1 POP PUSH1 0x0 DUP3 PUSH1 0x1 PUSH1 0x1 PUSH1 0x40 SHL SUB DUP2 GT ISZERO PUSH2 0x1BE5 JUMPI PUSH2 0x1BE5 PUSH2 0x3CC4 JUMP JUMPDEST PUSH1 0x40 MLOAD SWAP1 DUP1 DUP3 MSTORE DUP1 PUSH1 0x20 MUL PUSH1 0x20 ADD DUP3 ADD PUSH1 0x40 MSTORE DUP1 ISZERO PUSH2 0x1C0E JUMPI DUP2 PUSH1 0x20 ADD PUSH1 0x20 DUP3 MUL DUP1 CALLDATASIZE DUP4 CALLDATACOPY ADD SWAP1 POP JUMPDEST POP SWAP1 POP PUSH1 0x0 DUP4 PUSH1 0x1 PUSH1 0x1 PUSH1 0x40 SHL SUB DUP2 GT ISZERO PUSH2 0x1C2B JUMPI PUSH2 0x1C2B PUSH2 0x3CC4 JUMP JUMPDEST PUSH1 0x40 MLOAD SWAP1 DUP1 DUP3 MSTORE DUP1 PUSH1 0x20 MUL PUSH1 0x20 ADD DUP3 ADD PUSH1 0x40 MSTORE DUP1 ISZERO PUSH2 0x1C54 JUMPI DUP2 PUSH1 0x20 ADD PUSH1 0x20 DUP3 MUL DUP1 CALLDATASIZE DUP4 CALLDATACOPY ADD SWAP1 POP JUMPDEST POP SWAP1 POP PUSH1 0x0 DUP5 PUSH1 0x1 PUSH1 0x1 PUSH1 0x40 SHL SUB DUP2 GT ISZERO PUSH2 0x1C71 JUMPI PUSH2 0x1C71 PUSH2 0x3CC4 JUMP JUMPDEST PUSH1 0x40 MLOAD SWAP1 DUP1 DUP3 MSTORE DUP1 PUSH1 0x20 MUL PUSH1 0x20 ADD DUP3 ADD PUSH1 0x40 MSTORE DUP1 ISZERO PUSH2 0x1C9A JUMPI DUP2 PUSH1 0x20 ADD PUSH1 0x20 DUP3 MUL DUP1 CALLDATASIZE DUP4 CALLDATACOPY ADD SWAP1 POP JUMPDEST POP SWAP1 POP PUSH1 0x0 DUP6 PUSH1 0x1 PUSH1 0x1 PUSH1 0x40 SHL SUB DUP2 GT ISZERO PUSH2 0x1CB7 JUMPI PUSH2 0x1CB7 PUSH2 0x3CC4 JUMP JUMPDEST PUSH1 0x40 MLOAD SWAP1 DUP1 DUP3 MSTORE DUP1 PUSH1 0x20 MUL PUSH1 0x20 ADD DUP3 ADD PUSH1 0x40 MSTORE DUP1 ISZERO PUSH2 0x1CE0 JUMPI DUP2 PUSH1 0x20 ADD PUSH1 0x20 DUP3 MUL DUP1 CALLDATASIZE DUP4 CALLDATACOPY ADD SWAP1 POP JUMPDEST POP SWAP1 POP PUSH1 0x0 DUP11 DUP11 DUP1 DUP1 PUSH1 0x20 MUL PUSH1 0x20 ADD PUSH1 0x40 MLOAD SWAP1 DUP2 ADD PUSH1 0x40 MSTORE DUP1 SWAP4 SWAP3 SWAP2 SWAP1 DUP2 DUP2 MSTORE PUSH1 0x20 ADD DUP4 DUP4 PUSH1 0x20 MUL DUP1 DUP3 DUP5 CALLDATACOPY PUSH1 0x0 SWAP3 ADD DUP3 SWAP1 MSTORE POP DUP5 MLOAD SWAP5 SWAP6 POP SWAP4 DUP6 SWAP4 POP DUP12 SWAP3 POP DUP3 LT SWAP1 POP PUSH2 0x1D30 JUMPI PUSH2 0x1D30 PUSH2 0x4667 JUMP JUMPDEST PUSH1 0x20 MUL PUSH1 0x20 ADD ADD MLOAD SWAP1 POP DUP2 PUSH1 0x0 DUP2 MLOAD DUP2 LT PUSH2 0x1D4D JUMPI PUSH2 0x1D4D PUSH2 0x4667 JUMP JUMPDEST PUSH1 0x20 MUL PUSH1 0x20 ADD ADD MLOAD DUP3 DUP10 DUP2 MLOAD DUP2 LT PUSH2 0x1D67 JUMPI PUSH2 0x1D67 PUSH2 0x4667 JUMP JUMPDEST PUSH1 0x20 MUL PUSH1 0x20 ADD ADD DUP2 DUP2 MSTORE POP POP DUP1 DUP3 PUSH1 0x0 DUP2 MLOAD DUP2 LT PUSH2 0x1D87 JUMPI PUSH2 0x1D87 PUSH2 0x4667 JUMP JUMPDEST PUSH1 0x20 MUL PUSH1 0x20 ADD ADD DUP2 DUP2 MSTORE POP POP PUSH1 0x0 JUMPDEST DUP9 DUP2 LT ISZERO PUSH2 0x1EA2 JUMPI PUSH1 0x0 DUP12 DUP2 MSTORE PUSH2 0x195 PUSH1 0x20 MSTORE PUSH1 0x40 SWAP1 KECCAK256 SLOAD PUSH2 0x1DB7 SWAP1 PUSH2 0x33BB JUMP JUMPDEST DUP11 DUP9 DUP3 DUP2 MLOAD DUP2 LT PUSH2 0x1DCA JUMPI PUSH2 0x1DCA PUSH2 0x4667 JUMP JUMPDEST PUSH1 0x20 MUL PUSH1 0x20 ADD ADD DUP2 DUP2 MSTORE POP POP DUP14 DUP8 DUP3 DUP2 MLOAD DUP2 LT PUSH2 0x1DE9 JUMPI PUSH2 0x1DE9 PUSH2 0x4667 JUMP JUMPDEST PUSH1 0x20 MUL PUSH1 0x20 ADD ADD DUP2 DUP2 MSTORE POP POP PUSH2 0x195 PUSH1 0x0 DUP13 DUP2 MSTORE PUSH1 0x20 ADD SWAP1 DUP2 MSTORE PUSH1 0x20 ADD PUSH1 0x0 KECCAK256 PUSH1 0x0 DUP2 SLOAD PUSH2 0x1E16 SWAP1 PUSH2 0x4693 JUMP JUMPDEST SWAP2 DUP3 SWAP1 SSTORE POP PUSH2 0x1E25 SWAP1 DUP13 PUSH2 0x4740 JUMP JUMPDEST DUP7 DUP3 DUP2 MLOAD DUP2 LT PUSH2 0x1E37 JUMPI PUSH2 0x1E37 PUSH2 0x4667 JUMP JUMPDEST PUSH1 0x20 MUL PUSH1 0x20 ADD ADD DUP2 DUP2 MSTORE POP POP PUSH1 0x1 DUP6 DUP3 DUP2 MLOAD DUP2 LT PUSH2 0x1E57 JUMPI PUSH2 0x1E57 PUSH2 0x4667 JUMP JUMPDEST PUSH1 0x20 MUL PUSH1 0x20 ADD ADD DUP2 DUP2 MSTORE POP POP DUP3 DUP2 DUP2 MLOAD DUP2 LT PUSH2 0x1E75 JUMPI PUSH2 0x1E75 PUSH2 0x4667 JUMP JUMPDEST PUSH1 0x20 MUL PUSH1 0x20 ADD ADD MLOAD DUP5 DUP3 DUP2 MLOAD DUP2 LT PUSH2 0x1E8F JUMPI PUSH2 0x1E8F PUSH2 0x4667 JUMP JUMPDEST PUSH1 0x20 SWAP1 DUP2 MUL SWAP2 SWAP1 SWAP2 ADD ADD MSTORE PUSH1 0x1 ADD PUSH2 0x1D96 JUMP JUMPDEST POP POP POP PUSH2 0x1EC8 PUSH2 0x1EAF CALLER SWAP1 JUMP JUMPDEST DUP14 DUP7 DUP7 DUP6 PUSH1 0x40 MLOAD DUP1 PUSH1 0x20 ADD PUSH1 0x40 MSTORE DUP1 PUSH1 0x0 DUP2 MSTORE POP PUSH2 0x33C5 JUMP JUMPDEST PUSH1 0x0 JUMPDEST DUP7 DUP2 LT ISZERO PUSH2 0x1F50 JUMPI DUP2 DUP2 DUP2 MLOAD DUP2 LT PUSH2 0x1EE5 JUMPI PUSH2 0x1EE5 PUSH2 0x4667 JUMP JUMPDEST PUSH1 0x20 MUL PUSH1 0x20 ADD ADD MLOAD DUP9 PUSH2 0x1EF8 SWAP2 SWAP1 PUSH2 0x48EF JUMP JUMPDEST SWAP8 POP DUP2 DUP2 DUP2 MLOAD DUP2 LT PUSH2 0x1F0C JUMPI PUSH2 0x1F0C PUSH2 0x4667 JUMP JUMPDEST PUSH1 0x20 MUL PUSH1 0x20 ADD ADD MLOAD PUSH2 0x194 PUSH1 0x0 DUP7 DUP5 DUP2 MLOAD DUP2 LT PUSH2 0x1F2B JUMPI PUSH2 0x1F2B PUSH2 0x4667 JUMP JUMPDEST PUSH1 0x20 MUL PUSH1 0x20 ADD ADD MLOAD DUP2 MSTORE PUSH1 0x20 ADD SWAP1 DUP2 MSTORE PUSH1 0x20 ADD PUSH1 0x0 KECCAK256 DUP2 SWAP1 SSTORE POP DUP1 PUSH1 0x1 ADD SWAP1 POP PUSH2 0x1ECB JUMP JUMPDEST POP PUSH1 0x0 DUP12 DUP2 MSTORE PUSH2 0x194 PUSH1 0x20 SWAP1 DUP2 MSTORE PUSH1 0x40 DUP1 DUP4 KECCAK256 DUP11 SWAP1 SSTORE DUP1 MLOAD SWAP2 DUP3 ADD SWAP1 MSTORE SWAP1 DUP2 MSTORE PUSH2 0x1F7F SWAP1 DUP14 SWAP1 DUP6 SWAP1 DUP6 SWAP1 PUSH2 0x34B1 JUMP JUMPDEST PUSH32 0x88515A3C7B4E71520602D818F4DEC002FADEFDE30C55E13F390C8D96046990A DUP6 DUP6 DUP6 DUP5 PUSH1 0x40 MLOAD PUSH2 0x1FB4 SWAP5 SWAP4 SWAP3 SWAP2 SWAP1 PUSH2 0x4902 JUMP JUMPDEST PUSH1 0x40 MLOAD DUP1 SWAP2 SUB SWAP1 LOG1 POP POP POP POP POP POP POP POP POP POP POP POP JUMP JUMPDEST PUSH1 0xFB DUP1 SLOAD PUSH1 0x1 PUSH1 0x1 PUSH1 0xA0 SHL SUB DUP4 DUP2 AND PUSH1 0x1 PUSH1 0x1 PUSH1 0xA0 SHL SUB NOT DUP4 AND DUP2 OR SWAP1 SWAP4 SSTORE PUSH1 0x40 MLOAD SWAP2 AND SWAP2 SWAP1 DUP3 SWAP1 PUSH32 0x8BE0079C531659141344CD1FD0A4F28419497F9722A3DAAFE3B4186F6B6457E0 SWAP1 PUSH1 0x0 SWAP1 LOG3 POP POP JUMP JUMPDEST PUSH1 0x0 SLOAD PUSH2 0x100 SWAP1 DIV PUSH1 0xFF AND PUSH2 0x2043 JUMPI PUSH1 0x40 MLOAD PUSH3 0x461BCD PUSH1 0xE5 SHL DUP2 MSTORE PUSH1 0x4 ADD PUSH2 0x770 SWAP1 PUSH2 0x46AC JUMP JUMPDEST PUSH2 0xA84 PUSH2 0x361B JUMP JUMPDEST PUSH2 0x2053 PUSH2 0x13F1 JUMP JUMPDEST PUSH2 0x1CD DUP1 SLOAD PUSH1 0xFF NOT AND PUSH1 0x1 OR SWAP1 SSTORE PUSH32 0x62E78CEA01BEE320CD4E420270B5EA74000D11B0C9F74754EBDBFC544B05A258 PUSH2 0x18FF CALLER SWAP1 JUMP JUMPDEST PUSH1 0x0 SLOAD PUSH2 0x100 SWAP1 DIV PUSH1 0xFF AND PUSH2 0x20B0 JUMPI PUSH1 0x40 MLOAD PUSH3 0x461BCD PUSH1 0xE5 SHL DUP2 MSTORE PUSH1 0x4 ADD PUSH2 0x770 SWAP1 PUSH2 0x46AC JUMP JUMPDEST PUSH2 0xA4A DUP2 PUSH2 0x364F JUMP JUMPDEST PUSH1 0x0 SLOAD PUSH2 0x100 SWAP1 DIV PUSH1 0xFF AND PUSH2 0xA84 JUMPI PUSH1 0x40 MLOAD PUSH3 0x461BCD PUSH1 0xE5 SHL DUP2 MSTORE PUSH1 0x4 ADD PUSH2 0x770 SWAP1 PUSH2 0x46AC JUMP JUMPDEST PUSH1 0x0 SLOAD PUSH2 0x100 SWAP1 DIV PUSH1 0xFF AND PUSH2 0x2107 JUMPI PUSH1 0x40 MLOAD PUSH3 0x461BCD PUSH1 0xE5 SHL DUP2 MSTORE PUSH1 0x4 ADD PUSH2 0x770 SWAP1 PUSH2 0x46AC JUMP JUMPDEST PUSH2 0xA84 PUSH2 0x367F JUMP JUMPDEST PUSH1 0x0 SLOAD PUSH2 0x100 SWAP1 DIV PUSH1 0xFF AND PUSH2 0x2136 JUMPI PUSH1 0x40 MLOAD PUSH3 0x461BCD PUSH1 0xE5 SHL DUP2 MSTORE PUSH1 0x4 ADD PUSH2 0x770 SWAP1 PUSH2 0x46AC JUMP JUMPDEST PUSH2 0xA84 PUSH2 0x36C2 JUMP JUMPDEST PUSH1 0x0 DUP3 DUP2 MSTORE PUSH2 0x1AF PUSH1 0x20 SWAP1 DUP2 MSTORE PUSH1 0x40 DUP1 MLOAD CALLER DUP2 DUP5 ADD MSTORE DUP1 DUP3 ADD DUP6 SWAP1 MSTORE DUP2 MLOAD DUP1 DUP3 SUB DUP4 ADD DUP2 MSTORE PUSH1 0x60 DUP3 ADD DUP4 MSTORE DUP1 MLOAD SWAP1 DUP5 ADD KECCAK256 PUSH1 0x80 DUP1 DUP4 ADD SWAP2 SWAP1 SWAP2 MSTORE DUP3 MLOAD DUP1 DUP4 SUB SWAP1 SWAP2 ADD DUP2 MSTORE PUSH1 0xA0 SWAP1 SWAP2 ADD DUP3 MSTORE DUP1 MLOAD SWAP1 DUP4 ADD KECCAK256 DUP6 DUP5 MSTORE PUSH2 0x1B0 DUP4 MSTORE DUP2 DUP5 KECCAK256 DUP2 DUP6 MSTORE SWAP1 SWAP3 MSTORE SWAP1 SWAP2 KECCAK256 SLOAD PUSH1 0xFF AND ISZERO PUSH2 0x21C5 JUMPI PUSH1 0x40 MLOAD PUSH4 0xC8D9EAB PUSH1 0xE3 SHL DUP2 MSTORE PUSH1 0x4 ADD PUSH1 0x40 MLOAD DUP1 SWAP2 SUB SWAP1 REVERT JUMPDEST PUSH1 0x0 DUP4 DUP2 MSTORE PUSH2 0x1AF PUSH1 0x20 MSTORE PUSH1 0x40 SWAP1 KECCAK256 SLOAD PUSH2 0x21E3 SWAP1 DUP7 SWAP1 DUP7 SWAP1 DUP5 PUSH2 0x1857 JUMP JUMPDEST ISZERO DUP1 PUSH2 0x2214 JUMPI POP PUSH1 0x0 DUP4 DUP2 MSTORE PUSH2 0x1B1 PUSH1 0x20 SWAP1 DUP2 MSTORE PUSH1 0x40 DUP1 DUP4 KECCAK256 SLOAD PUSH2 0x1B2 SWAP1 SWAP3 MSTORE SWAP1 SWAP2 KECCAK256 SLOAD PUSH2 0x2212 SWAP1 DUP5 SWAP1 PUSH2 0x4740 JUMP JUMPDEST GT JUMPDEST ISZERO PUSH2 0x2232 JUMPI PUSH1 0x40 MLOAD PUSH4 0x6DAC6A09 PUSH1 0xE0 SHL DUP2 MSTORE PUSH1 0x4 ADD PUSH1 0x40 MLOAD DUP1 SWAP2 SUB SWAP1 REVERT JUMPDEST PUSH1 0x0 DUP4 DUP2 MSTORE PUSH2 0x1B0 PUSH1 0x20 SWAP1 DUP2 MSTORE PUSH1 0x40 DUP1 DUP4 KECCAK256 DUP5 DUP5 MSTORE DUP3 MSTORE SWAP2 DUP3 SWAP1 KECCAK256 DUP1 SLOAD PUSH1 0xFF NOT AND PUSH1 0x1 OR SWAP1 SSTORE DUP2 MLOAD DUP6 DUP2 MSTORE SWAP1 DUP2 ADD DUP4 SWAP1 MSTORE PUSH32 0x51483C8CC684284E9BA3215822230838B766F1698BCC7E922A31E02C3C203BD7 SWAP2 ADD PUSH1 0x40 MLOAD DUP1 SWAP2 SUB SWAP1 LOG1 POP POP POP POP POP JUMP JUMPDEST PUSH1 0x0 PUSH2 0x22A0 DUP4 PUSH2 0x36F2 JUMP JUMPDEST PUSH2 0x22BD JUMPI PUSH1 0x40 MLOAD PUSH4 0x1EB49D6D PUSH1 0xE1 SHL DUP2 MSTORE PUSH1 0x4 ADD PUSH1 0x40 MLOAD DUP1 SWAP2 SUB SWAP1 REVERT JUMPDEST PUSH1 0x0 DUP4 DUP2 MSTORE PUSH2 0x195 PUSH1 0x20 MSTORE PUSH1 0x40 SWAP1 KECCAK256 SLOAD PUSH2 0x22D6 SWAP1 PUSH2 0x33BB JUMP JUMPDEST POP PUSH1 0x0 DUP3 DUP2 MSTORE PUSH2 0x195 PUSH1 0x20 SWAP1 DUP2 MSTORE PUSH1 0x40 DUP1 DUP4 KECCAK256 DUP1 SLOAD PUSH1 0x1 DUP1 DUP3 ADD SWAP1 SWAP3 SSTORE DUP7 ADD DUP2 ADD DUP1 DUP6 MSTORE PUSH2 0x194 DUP5 MSTORE DUP3 DUP6 KECCAK256 DUP7 SWAP1 SSTORE DUP3 MLOAD SWAP4 DUP5 ADD SWAP1 SWAP3 MSTORE SWAP3 DUP3 MSTORE SWAP2 PUSH2 0x231E SWAP2 DUP7 SWAP2 DUP5 SWAP2 PUSH2 0x3716 JUMP JUMPDEST PUSH1 0x40 DUP1 MLOAD DUP5 DUP2 MSTORE PUSH1 0x0 PUSH1 0x20 DUP3 ADD MSTORE SWAP1 DUP2 ADD DUP3 SWAP1 MSTORE PUSH1 0x60 DUP2 ADD DUP4 SWAP1 MSTORE PUSH32 0x5E65FCDE72B913AC2870F9DF6EA5B6BCA757862F44636CB368ED5E339FC524FB SWAP1 PUSH1 0x80 ADD PUSH1 0x40 MLOAD DUP1 SWAP2 SUB SWAP1 LOG1 SWAP4 SWAP3 POP POP POP JUMP JUMPDEST DUP2 PUSH1 0x1 PUSH1 0x1 PUSH1 0xA0 SHL SUB AND DUP4 PUSH1 0x1 PUSH1 0x1 PUSH1 0xA0 SHL SUB AND SUB PUSH2 0x23E0 JUMPI PUSH1 0x40 MLOAD PUSH3 0x461BCD PUSH1 0xE5 SHL DUP2 MSTORE PUSH1 0x20 PUSH1 0x4 DUP3 ADD MSTORE PUSH1 0x29 PUSH1 0x24 DUP3 ADD MSTORE PUSH32 0x455243313135353A2073657474696E6720617070726F76616C20737461747573 PUSH1 0x44 DUP3 ADD MSTORE PUSH9 0x103337B91039B2B633 PUSH1 0xB9 SHL PUSH1 0x64 DUP3 ADD MSTORE PUSH1 0x84 ADD PUSH2 0x770 JUMP JUMPDEST PUSH1 0x1 PUSH1 0x1 PUSH1 0xA0 SHL SUB DUP4 DUP2 AND PUSH1 0x0 DUP2 DUP2 MSTORE PUSH1 0x66 PUSH1 0x20 SWAP1 DUP2 MSTORE PUSH1 0x40 DUP1 DUP4 KECCAK256 SWAP5 DUP8 AND DUP1 DUP5 MSTORE SWAP5 DUP3 MSTORE SWAP2 DUP3 SWAP1 KECCAK256 DUP1 SLOAD PUSH1 0xFF NOT AND DUP7 ISZERO ISZERO SWAP1 DUP2 OR SWAP1 SWAP2 SSTORE SWAP2 MLOAD SWAP2 DUP3 MSTORE PUSH32 0x17307EAB39AB6107E8899845AD3D59BD9653F200F220920489CA2B5937696C31 SWAP2 ADD PUSH1 0x40 MLOAD DUP1 SWAP2 SUB SWAP1 LOG3 POP POP POP JUMP JUMPDEST PUSH1 0x0 PUSH2 0x245B PUSH2 0x191 SLOAD PUSH2 0x37F5 JUMP JUMPDEST PUSH1 0x80 PUSH2 0x191 PUSH1 0x0 DUP2 SLOAD PUSH2 0x246D SWAP1 PUSH2 0x4693 JUMP JUMPDEST SWAP2 DUP3 SWAP1 SSTORE POP SWAP1 SHL PUSH1 0x0 DUP2 DUP2 MSTORE PUSH2 0x193 PUSH1 0x20 SWAP1 DUP2 MSTORE PUSH1 0x40 DUP1 DUP4 KECCAK256 DUP1 SLOAD PUSH1 0x1 PUSH1 0x1 PUSH1 0xA0 SHL SUB NOT AND PUSH1 0x1 PUSH1 0x1 PUSH1 0xA0 SHL SUB DUP11 AND OR SWAP1 SSTORE PUSH2 0x194 SWAP1 SWAP2 MSTORE SWAP1 KECCAK256 DUP5 SWAP1 SSTORE SWAP1 POP PUSH2 0x24B6 DUP2 DUP4 PUSH2 0x3803 JUMP JUMPDEST PUSH1 0x40 DUP1 MLOAD DUP3 DUP2 MSTORE PUSH1 0x0 PUSH1 0x20 DUP3 ADD DUP2 SWAP1 MSTORE SWAP2 DUP3 SWAP2 PUSH1 0x1 PUSH1 0x1 PUSH1 0xA0 SHL SUB DUP9 AND SWAP2 PUSH1 0x0 DUP1 MLOAD PUSH1 0x20 PUSH2 0x4DD3 DUP4 CODECOPY DUP2 MLOAD SWAP2 MSTORE SWAP2 ADD PUSH1 0x40 MLOAD DUP1 SWAP2 SUB SWAP1 LOG4 SWAP4 SWAP3 POP POP POP JUMP JUMPDEST DUP2 ISZERO DUP1 PUSH2 0x24FF JUMPI POP DUP1 ISZERO JUMPDEST ISZERO PUSH2 0x251D JUMPI PUSH1 0x40 MLOAD PUSH4 0x6DAC6A09 PUSH1 0xE0 SHL DUP2 MSTORE PUSH1 0x4 ADD PUSH1 0x40 MLOAD DUP1 SWAP2 SUB SWAP1 REVERT JUMPDEST PUSH1 0x0 DUP4 DUP2 MSTORE PUSH2 0x1AF PUSH1 0x20 MSTORE PUSH1 0x40 SWAP1 KECCAK256 SLOAD ISZERO PUSH2 0x254B JUMPI PUSH1 0x40 MLOAD PUSH4 0xD5F4331 PUSH1 0xE2 SHL DUP2 MSTORE PUSH1 0x4 ADD PUSH1 0x40 MLOAD DUP1 SWAP2 SUB SWAP1 REVERT JUMPDEST PUSH1 0x0 DUP4 DUP2 MSTORE PUSH2 0x1AF PUSH1 0x20 SWAP1 DUP2 MSTORE PUSH1 0x40 DUP1 DUP4 KECCAK256 DUP6 SWAP1 SSTORE PUSH2 0x1B1 DUP3 MSTORE SWAP2 DUP3 SWAP1 KECCAK256 DUP4 SWAP1 SSTORE DUP2 MLOAD DUP6 DUP2 MSTORE SWAP1 DUP2 ADD DUP5 SWAP1 MSTORE PUSH32 0x233C854C30AAAAD173F2DD900C76D53C64E556D1D009D71466EC1AFCB7B5844D SWAP2 ADD JUMPDEST PUSH1 0x40 MLOAD DUP1 SWAP2 SUB SWAP1 LOG1 POP POP POP JUMP JUMPDEST PUSH1 0xFD DUP2 MLOAD GT DUP1 PUSH2 0x25B9 JUMPI POP PUSH1 0x2 DUP2 MLOAD LT JUMPDEST ISZERO PUSH2 0x25D7 JUMPI PUSH1 0x40 MLOAD PUSH4 0x3ADA02E5 PUSH1 0xE0 SHL DUP2 MSTORE PUSH1 0x4 ADD PUSH1 0x40 MLOAD DUP1 SWAP2 SUB SWAP1 REVERT JUMPDEST PUSH1 0x0 PUSH1 0x1 DUP3 MLOAD PUSH2 0x25E7 SWAP2 SWAP1 PUSH2 0x48EF JUMP JUMPDEST SWAP1 POP PUSH1 0x0 DUP3 DUP3 DUP2 MLOAD DUP2 LT PUSH2 0x25FD JUMPI PUSH2 0x25FD PUSH2 0x4667 JUMP JUMPDEST PUSH1 0x20 MUL PUSH1 0x20 ADD ADD MLOAD SWAP1 POP PUSH1 0x0 DUP1 DUP4 PUSH1 0x1 PUSH1 0x1 PUSH1 0x40 SHL SUB DUP2 GT ISZERO PUSH2 0x2622 JUMPI PUSH2 0x2622 PUSH2 0x3CC4 JUMP JUMPDEST PUSH1 0x40 MLOAD SWAP1 DUP1 DUP3 MSTORE DUP1 PUSH1 0x20 MUL PUSH1 0x20 ADD DUP3 ADD PUSH1 0x40 MSTORE DUP1 ISZERO PUSH2 0x264B JUMPI DUP2 PUSH1 0x20 ADD PUSH1 0x20 DUP3 MUL DUP1 CALLDATASIZE DUP4 CALLDATACOPY ADD SWAP1 POP JUMPDEST POP SWAP1 POP PUSH1 0x0 DUP5 PUSH1 0x1 PUSH1 0x1 PUSH1 0x40 SHL SUB DUP2 GT ISZERO PUSH2 0x2668 JUMPI PUSH2 0x2668 PUSH2 0x3CC4 JUMP JUMPDEST PUSH1 0x40 MLOAD SWAP1 DUP1 DUP3 MSTORE DUP1 PUSH1 0x20 MUL PUSH1 0x20 ADD DUP3 ADD PUSH1 0x40 MSTORE DUP1 ISZERO PUSH2 0x2691 JUMPI DUP2 PUSH1 0x20 ADD PUSH1 0x20 DUP3 MUL DUP1 CALLDATASIZE DUP4 CALLDATACOPY ADD SWAP1 POP JUMPDEST POP SWAP1 POP PUSH1 0x0 DUP6 PUSH1 0x1 PUSH1 0x1 PUSH1 0x40 SHL SUB DUP2 GT ISZERO PUSH2 0x26AE JUMPI PUSH2 0x26AE PUSH2 0x3CC4 JUMP JUMPDEST PUSH1 0x40 MLOAD SWAP1 DUP1 DUP3 MSTORE DUP1 PUSH1 0x20 MUL PUSH1 0x20 ADD DUP3 ADD PUSH1 0x40 MSTORE DUP1 ISZERO PUSH2 0x26D7 JUMPI DUP2 PUSH1 0x20 ADD PUSH1 0x20 DUP3 MUL DUP1 CALLDATASIZE DUP4 CALLDATACOPY ADD SWAP1 POP JUMPDEST POP SWAP1 POP PUSH1 0x0 DUP7 PUSH1 0x1 PUSH1 0x1 PUSH1 0x40 SHL SUB DUP2 GT ISZERO PUSH2 0x26F4 JUMPI PUSH2 0x26F4 PUSH2 0x3CC4 JUMP JUMPDEST PUSH1 0x40 MLOAD SWAP1 DUP1 DUP3 MSTORE DUP1 PUSH1 0x20 MUL PUSH1 0x20 ADD DUP3 ADD PUSH1 0x40 MSTORE DUP1 ISZERO PUSH2 0x271D JUMPI DUP2 PUSH1 0x20 ADD PUSH1 0x20 DUP3 MUL DUP1 CALLDATASIZE DUP4 CALLDATACOPY ADD SWAP1 POP JUMPDEST POP SWAP1 POP PUSH1 0x0 JUMPDEST DUP8 DUP2 LT ISZERO PUSH2 0x27E2 JUMPI PUSH1 0x0 DUP10 DUP3 DUP2 MLOAD DUP2 LT PUSH2 0x273F JUMPI PUSH2 0x273F PUSH2 0x4667 JUMP JUMPDEST PUSH1 0x20 MUL PUSH1 0x20 ADD ADD MLOAD SWAP1 POP DUP1 DUP7 DUP4 DUP2 MLOAD DUP2 LT PUSH2 0x275C JUMPI PUSH2 0x275C PUSH2 0x4667 JUMP JUMPDEST PUSH1 0x20 MUL PUSH1 0x20 ADD ADD DUP2 DUP2 MSTORE POP POP DUP8 DUP6 DUP4 DUP2 MLOAD DUP2 LT PUSH2 0x277B JUMPI PUSH2 0x277B PUSH2 0x4667 JUMP JUMPDEST PUSH1 0x20 MUL PUSH1 0x20 ADD ADD DUP2 DUP2 MSTORE POP POP PUSH1 0x1 DUP4 DUP4 DUP2 MLOAD DUP2 LT PUSH2 0x279B JUMPI PUSH2 0x279B PUSH2 0x4667 JUMP JUMPDEST PUSH1 0x20 MUL PUSH1 0x20 ADD ADD DUP2 DUP2 MSTORE POP POP PUSH2 0x194 PUSH1 0x0 DUP3 DUP2 MSTORE PUSH1 0x20 ADD SWAP1 DUP2 MSTORE PUSH1 0x20 ADD PUSH1 0x0 KECCAK256 SLOAD DUP5 DUP4 DUP2 MLOAD DUP2 LT PUSH2 0x27CE JUMPI PUSH2 0x27CE PUSH2 0x4667 JUMP JUMPDEST PUSH1 0x20 SWAP1 DUP2 MUL SWAP2 SWAP1 SWAP2 ADD ADD MSTORE POP PUSH1 0x1 ADD PUSH2 0x2723 JUMP JUMPDEST POP PUSH2 0x2800 CALLER DUP11 DUP7 DUP7 DUP7 PUSH1 0x40 MLOAD DUP1 PUSH1 0x20 ADD PUSH1 0x40 MSTORE DUP1 PUSH1 0x0 DUP2 MSTORE POP PUSH2 0x33C5 JUMP JUMPDEST PUSH1 0x0 JUMPDEST DUP8 DUP2 LT ISZERO PUSH2 0x286E JUMPI DUP3 DUP2 DUP2 MLOAD DUP2 LT PUSH2 0x281D JUMPI PUSH2 0x281D PUSH2 0x4667 JUMP JUMPDEST PUSH1 0x20 MUL PUSH1 0x20 ADD ADD MLOAD DUP7 PUSH2 0x2830 SWAP2 SWAP1 PUSH2 0x4740 JUMP JUMPDEST SWAP6 POP PUSH2 0x194 PUSH1 0x0 DUP7 DUP4 DUP2 MLOAD DUP2 LT PUSH2 0x2849 JUMPI PUSH2 0x2849 PUSH2 0x4667 JUMP JUMPDEST PUSH1 0x20 MUL PUSH1 0x20 ADD ADD MLOAD DUP2 MSTORE PUSH1 0x20 ADD SWAP1 DUP2 MSTORE PUSH1 0x20 ADD PUSH1 0x0 KECCAK256 PUSH1 0x0 SWAP1 SSTORE DUP1 PUSH1 0x1 ADD SWAP1 POP PUSH2 0x2803 JUMP JUMPDEST POP PUSH1 0x0 DUP7 DUP2 MSTORE PUSH2 0x194 PUSH1 0x20 MSTORE PUSH1 0x40 DUP2 KECCAK256 DUP1 SLOAD DUP8 SWAP3 SWAP1 PUSH2 0x288E SWAP1 DUP5 SWAP1 PUSH2 0x4740 JUMP JUMPDEST SWAP1 SWAP2 SSTORE POP PUSH2 0x11D6 SWAP1 POP DUP10 DUP6 DUP4 PUSH2 0x191C JUMP JUMPDEST PUSH1 0x60 DUP4 DUP1 PUSH1 0x1 PUSH1 0x1 PUSH1 0x40 SHL SUB DUP2 GT ISZERO PUSH2 0x28BA JUMPI PUSH2 0x28BA PUSH2 0x3CC4 JUMP JUMPDEST PUSH1 0x40 MLOAD SWAP1 DUP1 DUP3 MSTORE DUP1 PUSH1 0x20 MUL PUSH1 0x20 ADD DUP3 ADD PUSH1 0x40 MSTORE DUP1 ISZERO PUSH2 0x28E3 JUMPI DUP2 PUSH1 0x20 ADD PUSH1 0x20 DUP3 MUL DUP1 CALLDATASIZE DUP4 CALLDATACOPY ADD SWAP1 POP JUMPDEST POP SWAP2 POP PUSH1 0x0 DUP2 PUSH1 0x1 PUSH1 0x1 PUSH1 0x40 SHL SUB DUP2 GT ISZERO PUSH2 0x2900 JUMPI PUSH2 0x2900 PUSH2 0x3CC4 JUMP JUMPDEST PUSH1 0x40 MLOAD SWAP1 DUP1 DUP3 MSTORE DUP1 PUSH1 0x20 MUL PUSH1 0x20 ADD DUP3 ADD PUSH1 0x40 MSTORE DUP1 ISZERO PUSH2 0x2929 JUMPI DUP2 PUSH1 0x20 ADD PUSH1 0x20 DUP3 MUL DUP1 CALLDATASIZE DUP4 CALLDATACOPY ADD SWAP1 POP JUMPDEST POP SWAP1 POP PUSH1 0x0 DUP3 PUSH1 0x1 PUSH1 0x1 PUSH1 0x40 SHL SUB DUP2 GT ISZERO PUSH2 0x2946 JUMPI PUSH2 0x2946 PUSH2 0x3CC4 JUMP JUMPDEST PUSH1 0x40 MLOAD SWAP1 DUP1 DUP3 MSTORE DUP1 PUSH1 0x20 MUL PUSH1 0x20 ADD DUP3 ADD PUSH1 0x40 MSTORE DUP1 ISZERO PUSH2 0x296F JUMPI DUP2 PUSH1 0x20 ADD PUSH1 0x20 DUP3 MUL DUP1 CALLDATASIZE DUP4 CALLDATACOPY ADD SWAP1 POP JUMPDEST POP SWAP1 POP PUSH1 0x0 JUMPDEST DUP4 DUP2 LT ISZERO PUSH2 0x2A6E JUMPI PUSH1 0x0 DUP10 DUP10 DUP4 DUP2 DUP2 LT PUSH2 0x2991 JUMPI PUSH2 0x2991 PUSH2 0x4667 JUMP JUMPDEST SWAP1 POP PUSH1 0x20 MUL ADD CALLDATALOAD SWAP1 POP PUSH2 0x29A3 DUP2 PUSH2 0x36F2 JUMP JUMPDEST PUSH2 0x29C0 JUMPI PUSH1 0x40 MLOAD PUSH4 0x1EB49D6D PUSH1 0xE1 SHL DUP2 MSTORE PUSH1 0x4 ADD PUSH1 0x40 MLOAD DUP1 SWAP2 SUB SWAP1 REVERT JUMPDEST PUSH1 0x0 DUP2 DUP2 MSTORE PUSH2 0x195 PUSH1 0x20 MSTORE PUSH1 0x40 SWAP1 KECCAK256 SLOAD PUSH2 0x29D9 SWAP1 PUSH2 0x33BB JUMP JUMPDEST PUSH1 0x0 DUP2 DUP2 MSTORE PUSH2 0x195 PUSH1 0x20 MSTORE PUSH1 0x40 SWAP1 KECCAK256 DUP1 SLOAD PUSH1 0x1 DUP1 DUP3 ADD SWAP1 SWAP3 SSTORE DUP3 ADD ADD DUP9 DUP9 DUP5 DUP2 DUP2 LT PUSH2 0x2A07 JUMPI PUSH2 0x2A07 PUSH2 0x4667 JUMP JUMPDEST SWAP1 POP PUSH1 0x20 MUL ADD CALLDATALOAD PUSH2 0x194 PUSH1 0x0 DUP4 DUP2 MSTORE PUSH1 0x20 ADD SWAP1 DUP2 MSTORE PUSH1 0x20 ADD PUSH1 0x0 KECCAK256 DUP2 SWAP1 SSTORE POP DUP1 DUP8 DUP5 DUP2 MLOAD DUP2 LT PUSH2 0x2A39 JUMPI PUSH2 0x2A39 PUSH2 0x4667 JUMP JUMPDEST PUSH1 0x20 MUL PUSH1 0x20 ADD ADD DUP2 DUP2 MSTORE POP POP PUSH1 0x1 DUP6 DUP5 DUP2 MLOAD DUP2 LT PUSH2 0x2A59 JUMPI PUSH2 0x2A59 PUSH2 0x4667 JUMP JUMPDEST PUSH1 0x20 SWAP1 DUP2 MUL SWAP2 SWAP1 SWAP2 ADD ADD MSTORE POP POP PUSH1 0x1 ADD PUSH2 0x2975 JUMP JUMPDEST POP PUSH2 0x2A8A DUP10 DUP6 DUP5 PUSH1 0x40 MLOAD DUP1 PUSH1 0x20 ADD PUSH1 0x40 MSTORE DUP1 PUSH1 0x0 DUP2 MSTORE POP PUSH2 0x34B1 JUMP JUMPDEST PUSH32 0x88515A3C7B4E71520602D818F4DEC002FADEFDE30C55E13F390C8D96046990A DUP9 DUP9 DUP4 DUP8 DUP11 DUP11 PUSH1 0x40 MLOAD PUSH2 0x2AC3 SWAP7 SWAP6 SWAP5 SWAP4 SWAP3 SWAP2 SWAP1 PUSH2 0x498C JUMP JUMPDEST PUSH1 0x40 MLOAD DUP1 SWAP2 SUB SWAP1 LOG1 POP POP POP SWAP6 SWAP5 POP POP POP POP POP JUMP JUMPDEST PUSH1 0x1 PUSH1 0x1 PUSH1 0xA0 SHL SUB DUP5 AND PUSH2 0x2AFD JUMPI PUSH1 0x40 MLOAD PUSH3 0x461BCD PUSH1 0xE5 SHL DUP2 MSTORE PUSH1 0x4 ADD PUSH2 0x770 SWAP1 PUSH2 0x479B JUMP JUMPDEST CALLER PUSH1 0x0 PUSH2 0x2B09 DUP6 PUSH2 0x3860 JUMP JUMPDEST SWAP1 POP PUSH1 0x0 PUSH2 0x2B16 DUP6 PUSH2 0x3860 JUMP JUMPDEST SWAP1 POP PUSH2 0x2B26 DUP4 DUP10 DUP10 DUP6 DUP6 DUP10 PUSH2 0x2F92 JUMP JUMPDEST PUSH1 0x0 DUP7 DUP2 MSTORE PUSH1 0x65 PUSH1 0x20 SWAP1 DUP2 MSTORE PUSH1 0x40 DUP1 DUP4 KECCAK256 PUSH1 0x1 PUSH1 0x1 PUSH1 0xA0 SHL SUB DUP13 AND DUP5 MSTORE SWAP1 SWAP2 MSTORE SWAP1 KECCAK256 SLOAD DUP6 DUP2 LT ISZERO PUSH2 0x2B69 JUMPI PUSH1 0x40 MLOAD PUSH3 0x461BCD PUSH1 0xE5 SHL DUP2 MSTORE PUSH1 0x4 ADD PUSH2 0x770 SWAP1 PUSH2 0x47E0 JUMP JUMPDEST PUSH1 0x0 DUP8 DUP2 MSTORE PUSH1 0x65 PUSH1 0x20 SWAP1 DUP2 MSTORE PUSH1 0x40 DUP1 DUP4 KECCAK256 PUSH1 0x1 PUSH1 0x1 PUSH1 0xA0 SHL SUB DUP14 DUP2 AND DUP6 MSTORE SWAP3 MSTORE DUP1 DUP4 KECCAK256 DUP10 DUP6 SUB SWAP1 SSTORE SWAP1 DUP11 AND DUP3 MSTORE DUP2 KECCAK256 DUP1 SLOAD DUP9 SWAP3 SWAP1 PUSH2 0x2BA8 SWAP1 DUP5 SWAP1 PUSH2 0x4740 JUMP JUMPDEST SWAP1 SWAP2 SSTORE POP POP PUSH1 0x40 DUP1 MLOAD DUP9 DUP2 MSTORE PUSH1 0x20 DUP2 ADD DUP9 SWAP1 MSTORE PUSH1 0x1 PUSH1 0x1 PUSH1 0xA0 SHL SUB DUP1 DUP12 AND SWAP3 DUP13 DUP3 AND SWAP3 SWAP2 DUP9 AND SWAP2 PUSH1 0x0 DUP1 MLOAD PUSH1 0x20 PUSH2 0x4DD3 DUP4 CODECOPY DUP2 MLOAD SWAP2 MSTORE SWAP2 ADD PUSH1 0x40 MLOAD DUP1 SWAP2 SUB SWAP1 LOG4 PUSH2 0x2BF6 DUP5 DUP11 DUP11 DUP7 DUP7 DUP11 PUSH2 0x309F JUMP JUMPDEST PUSH2 0x11D6 DUP5 DUP11 DUP11 DUP11 DUP11 DUP11 PUSH2 0x38AB JUMP JUMPDEST PUSH1 0x1 PUSH1 0x1 PUSH1 0xA0 SHL SUB DUP4 AND PUSH2 0x2C2A JUMPI PUSH1 0x40 MLOAD PUSH3 0x461BCD PUSH1 0xE5 SHL DUP2 MSTORE PUSH1 0x4 ADD PUSH2 0x770 SWAP1 PUSH2 0x4868 JUMP JUMPDEST CALLER PUSH1 0x0 PUSH2 0x2C36 DUP5 PUSH2 0x3860 JUMP JUMPDEST SWAP1 POP PUSH1 0x0 PUSH2 0x2C43 DUP5 PUSH2 0x3860 JUMP JUMPDEST SWAP1 POP PUSH2 0x2C63 DUP4 DUP8 PUSH1 0x0 DUP6 DUP6 PUSH1 0x40 MLOAD DUP1 PUSH1 0x20 ADD PUSH1 0x40 MSTORE DUP1 PUSH1 0x0 DUP2 MSTORE POP PUSH2 0x2F92 JUMP JUMPDEST PUSH1 0x0 DUP6 DUP2 MSTORE PUSH1 0x65 PUSH1 0x20 SWAP1 DUP2 MSTORE PUSH1 0x40 DUP1 DUP4 KECCAK256 PUSH1 0x1 PUSH1 0x1 PUSH1 0xA0 SHL SUB DUP11 AND DUP5 MSTORE SWAP1 SWAP2 MSTORE SWAP1 KECCAK256 SLOAD DUP5 DUP2 LT ISZERO PUSH2 0x2CA6 JUMPI PUSH1 0x40 MLOAD PUSH3 0x461BCD PUSH1 0xE5 SHL DUP2 MSTORE PUSH1 0x4 ADD PUSH2 0x770 SWAP1 PUSH2 0x48AB JUMP JUMPDEST PUSH1 0x0 DUP7 DUP2 MSTORE PUSH1 0x65 PUSH1 0x20 SWAP1 DUP2 MSTORE PUSH1 0x40 DUP1 DUP4 KECCAK256 PUSH1 0x1 PUSH1 0x1 PUSH1 0xA0 SHL SUB DUP12 DUP2 AND DUP1 DUP7 MSTORE SWAP2 DUP5 MSTORE DUP3 DUP6 KECCAK256 DUP11 DUP8 SUB SWAP1 SSTORE DUP3 MLOAD DUP12 DUP2 MSTORE SWAP4 DUP5 ADD DUP11 SWAP1 MSTORE SWAP1 SWAP3 SWAP1 DUP9 AND SWAP2 PUSH1 0x0 DUP1 MLOAD PUSH1 0x20 PUSH2 0x4DD3 DUP4 CODECOPY DUP2 MLOAD SWAP2 MSTORE SWAP2 ADD PUSH1 0x40 MLOAD DUP1 SWAP2 SUB SWAP1 LOG4 PUSH2 0x2D18 DUP5 DUP9 PUSH1 0x0 DUP7 DUP7 PUSH1 0x40 MLOAD DUP1 PUSH1 0x20 ADD PUSH1 0x40 MSTORE DUP1 PUSH1 0x0 DUP2 MSTORE POP PUSH2 0x309F JUMP JUMPDEST POP POP POP POP POP POP POP JUMP JUMPDEST PUSH1 0x1 PUSH1 0x1 PUSH1 0xA0 SHL SUB DUP3 AND CALLER EQ DUP1 ISZERO SWAP1 PUSH2 0x2D41 JUMPI POP PUSH2 0x2D3F DUP3 CALLER PUSH2 0x61B JUMP JUMPDEST ISZERO JUMPDEST ISZERO PUSH2 0x2D5F JUMPI PUSH1 0x40 MLOAD PUSH4 0x390CDD9B PUSH1 0xE2 SHL DUP2 MSTORE PUSH1 0x4 ADD PUSH1 0x40 MLOAD DUP1 SWAP2 SUB SWAP1 REVERT JUMPDEST PUSH1 0x0 DUP2 DUP2 MSTORE PUSH2 0x194 PUSH1 0x20 MSTORE PUSH1 0x40 DUP2 KECCAK256 DUP1 SLOAD SWAP2 SWAP1 SSTORE PUSH2 0x2D7F DUP4 DUP4 PUSH1 0x1 PUSH2 0x2C04 JUMP JUMPDEST PUSH32 0x5E65FCDE72B913AC2870F9DF6EA5B6BCA757862F44636CB368ED5E339FC524FB PUSH1 0x1 PUSH1 0x1 PUSH1 0x80 SHL SUB NOT DUP4 AND PUSH1 0x40 DUP1 MLOAD SWAP2 DUP3 MSTORE PUSH1 0x20 DUP3 ADD DUP6 SWAP1 MSTORE PUSH1 0x0 SWAP1 DUP3 ADD MSTORE PUSH1 0x60 DUP2 ADD DUP4 SWAP1 MSTORE PUSH1 0x80 ADD PUSH2 0x259B JUMP JUMPDEST PUSH1 0x0 DUP3 PUSH1 0x0 SUB PUSH2 0x2DF1 JUMPI PUSH1 0x40 MLOAD PUSH4 0x1EB49D6D PUSH1 0xE1 SHL DUP2 MSTORE PUSH1 0x4 ADD PUSH1 0x40 MLOAD DUP1 SWAP2 SUB SWAP1 REVERT JUMPDEST PUSH2 0x2DFC DUP5 DUP5 DUP5 PUSH2 0x244D JUMP JUMPDEST PUSH1 0x0 DUP2 DUP2 MSTORE PUSH2 0x195 PUSH1 0x20 MSTORE PUSH1 0x40 DUP2 KECCAK256 DUP1 SLOAD SWAP3 SWAP4 POP SWAP1 SWAP2 DUP3 SWAP1 PUSH2 0x2E1D SWAP1 PUSH2 0x4693 JUMP JUMPDEST SWAP2 DUP3 SWAP1 SSTORE POP PUSH2 0x2E2C SWAP1 DUP4 PUSH2 0x4740 JUMP JUMPDEST SWAP1 POP DUP4 PUSH2 0x194 PUSH1 0x0 DUP4 DUP2 MSTORE PUSH1 0x20 ADD SWAP1 DUP2 MSTORE PUSH1 0x20 ADD PUSH1 0x0 KECCAK256 DUP2 SWAP1 SSTORE POP PUSH2 0x2E63 DUP6 DUP3 PUSH1 0x1 PUSH1 0x40 MLOAD DUP1 PUSH1 0x20 ADD PUSH1 0x40 MSTORE DUP1 PUSH1 0x0 DUP2 MSTORE POP PUSH2 0x3716 JUMP JUMPDEST PUSH1 0x40 DUP1 MLOAD DUP4 DUP2 MSTORE PUSH1 0x0 PUSH1 0x20 DUP3 ADD MSTORE SWAP1 DUP2 ADD DUP3 SWAP1 MSTORE PUSH1 0x60 DUP2 ADD DUP6 SWAP1 MSTORE PUSH32 0x5E65FCDE72B913AC2870F9DF6EA5B6BCA757862F44636CB368ED5E339FC524FB SWAP1 PUSH1 0x80 ADD PUSH1 0x40 MLOAD DUP1 SWAP2 SUB SWAP1 LOG1 POP SWAP4 SWAP3 POP POP POP JUMP JUMPDEST PUSH1 0x0 DUP2 DUP2 MSTORE PUSH1 0xCA PUSH1 0x20 MSTORE PUSH1 0x40 DUP2 KECCAK256 DUP1 SLOAD PUSH1 0x60 SWAP3 SWAP2 SWAP1 PUSH2 0x2ED1 SWAP1 PUSH2 0x49E8 JUMP JUMPDEST DUP1 PUSH1 0x1F ADD PUSH1 0x20 DUP1 SWAP2 DIV MUL PUSH1 0x20 ADD PUSH1 0x40 MLOAD SWAP1 DUP2 ADD PUSH1 0x40 MSTORE DUP1 SWAP3 SWAP2 SWAP1 DUP2 DUP2 MSTORE PUSH1 0x20 ADD DUP3 DUP1 SLOAD PUSH2 0x2EFD SWAP1 PUSH2 0x49E8 JUMP JUMPDEST DUP1 ISZERO PUSH2 0x2F4A JUMPI DUP1 PUSH1 0x1F LT PUSH2 0x2F1F JUMPI PUSH2 0x100 DUP1 DUP4 SLOAD DIV MUL DUP4 MSTORE SWAP2 PUSH1 0x20 ADD SWAP2 PUSH2 0x2F4A JUMP JUMPDEST DUP3 ADD SWAP2 SWAP1 PUSH1 0x0 MSTORE PUSH1 0x20 PUSH1 0x0 KECCAK256 SWAP1 JUMPDEST DUP2 SLOAD DUP2 MSTORE SWAP1 PUSH1 0x1 ADD SWAP1 PUSH1 0x20 ADD DUP1 DUP4 GT PUSH2 0x2F2D JUMPI DUP3 SWAP1 SUB PUSH1 0x1F AND DUP3 ADD SWAP2 JUMPDEST POP POP POP POP POP SWAP1 POP PUSH1 0x0 DUP2 MLOAD GT PUSH2 0x2F68 JUMPI PUSH2 0x2F63 DUP4 PUSH2 0x3966 JUMP JUMPDEST PUSH2 0x80B JUMP JUMPDEST PUSH1 0xC9 DUP2 PUSH1 0x40 MLOAD PUSH1 0x20 ADD PUSH2 0x2F7C SWAP3 SWAP2 SWAP1 PUSH2 0x4A22 JUMP JUMPDEST PUSH1 0x40 MLOAD PUSH1 0x20 DUP2 DUP4 SUB SUB DUP2 MSTORE SWAP1 PUSH1 0x40 MSTORE SWAP4 SWAP3 POP POP POP JUMP JUMPDEST PUSH1 0x1 PUSH1 0x1 PUSH1 0xA0 SHL SUB DUP6 AND ISZERO PUSH2 0x104C JUMPI PUSH1 0x1 PUSH1 0x1 PUSH1 0xA0 SHL SUB DUP5 AND ISZERO PUSH2 0x104C JUMPI DUP3 MLOAD PUSH1 0x0 JUMPDEST DUP2 DUP2 LT ISZERO PUSH2 0x3095 JUMPI PUSH1 0x0 PUSH2 0x2FE9 DUP7 DUP4 DUP2 MLOAD DUP2 LT PUSH2 0x2FD4 JUMPI PUSH2 0x2FD4 PUSH2 0x4667 JUMP JUMPDEST PUSH1 0x20 MUL PUSH1 0x20 ADD ADD MLOAD PUSH1 0x1 PUSH1 0x1 PUSH1 0x80 SHL SUB NOT AND SWAP1 JUMP JUMPDEST PUSH1 0x0 DUP2 DUP2 MSTORE PUSH2 0x1FF PUSH1 0x20 MSTORE PUSH1 0x40 SWAP1 KECCAK256 SLOAD SWAP1 SWAP2 POP PUSH1 0xFF AND PUSH1 0x1 DUP2 PUSH1 0x2 DUP2 GT ISZERO PUSH2 0x3013 JUMPI PUSH2 0x3013 PUSH2 0x4549 JUMP JUMPDEST SUB PUSH2 0x3031 JUMPI PUSH1 0x40 MLOAD PUSH4 0xAB064AD3 PUSH1 0xE0 SHL DUP2 MSTORE PUSH1 0x4 ADD PUSH1 0x40 MLOAD DUP1 SWAP2 SUB SWAP1 REVERT JUMPDEST PUSH1 0x2 DUP2 PUSH1 0x2 DUP2 GT ISZERO PUSH2 0x3045 JUMPI PUSH2 0x3045 PUSH2 0x4549 JUMP JUMPDEST EQ DUP1 ISZERO PUSH2 0x306D JUMPI POP PUSH1 0x0 DUP3 DUP2 MSTORE PUSH2 0x193 PUSH1 0x20 MSTORE PUSH1 0x40 SWAP1 KECCAK256 SLOAD PUSH1 0x1 PUSH1 0x1 PUSH1 0xA0 SHL SUB DUP11 DUP2 AND SWAP2 AND EQ ISZERO JUMPDEST ISZERO PUSH2 0x308B JUMPI PUSH1 0x40 MLOAD PUSH4 0xAB064AD3 PUSH1 0xE0 SHL DUP2 MSTORE PUSH1 0x4 ADD PUSH1 0x40 MLOAD DUP1 SWAP2 SUB SWAP1 REVERT JUMPDEST POP POP PUSH1 0x1 ADD PUSH2 0x2FB5 JUMP JUMPDEST POP POP POP POP POP POP POP POP JUMP JUMPDEST DUP3 MLOAD PUSH1 0x0 JUMPDEST DUP2 DUP2 LT ISZERO PUSH2 0x3095 JUMPI DUP6 PUSH2 0x192 PUSH1 0x0 DUP8 DUP5 DUP2 MLOAD DUP2 LT PUSH2 0x30C4 JUMPI PUSH2 0x30C4 PUSH2 0x4667 JUMP JUMPDEST PUSH1 0x20 MUL PUSH1 0x20 ADD ADD MLOAD DUP2 MSTORE PUSH1 0x20 ADD SWAP1 DUP2 MSTORE PUSH1 0x20 ADD PUSH1 0x0 KECCAK256 PUSH1 0x0 PUSH2 0x100 EXP DUP2 SLOAD DUP2 PUSH1 0x1 PUSH1 0x1 PUSH1 0xA0 SHL SUB MUL NOT AND SWAP1 DUP4 PUSH1 0x1 PUSH1 0x1 PUSH1 0xA0 SHL SUB AND MUL OR SWAP1 SSTORE POP DUP1 PUSH1 0x1 ADD SWAP1 POP PUSH2 0x30A4 JUMP JUMPDEST PUSH1 0x1 PUSH1 0x1 PUSH1 0xA0 SHL SUB DUP5 AND EXTCODESIZE ISZERO PUSH2 0x104C JUMPI PUSH1 0x40 MLOAD PUSH4 0xBC197C81 PUSH1 0xE0 SHL DUP2 MSTORE PUSH1 0x1 PUSH1 0x1 PUSH1 0xA0 SHL SUB DUP6 AND SWAP1 PUSH4 0xBC197C81 SWAP1 PUSH2 0x314D SWAP1 DUP10 SWAP1 DUP10 SWAP1 DUP9 SWAP1 DUP9 SWAP1 DUP9 SWAP1 PUSH1 0x4 ADD PUSH2 0x4AA9 JUMP JUMPDEST PUSH1 0x20 PUSH1 0x40 MLOAD DUP1 DUP4 SUB DUP2 PUSH1 0x0 DUP8 GAS CALL SWAP3 POP POP POP DUP1 ISZERO PUSH2 0x3188 JUMPI POP PUSH1 0x40 DUP1 MLOAD PUSH1 0x1F RETURNDATASIZE SWAP1 DUP2 ADD PUSH1 0x1F NOT AND DUP3 ADD SWAP1 SWAP3 MSTORE PUSH2 0x3185 SWAP2 DUP2 ADD SWAP1 PUSH2 0x4B07 JUMP JUMPDEST PUSH1 0x1 JUMPDEST PUSH2 0x3234 JUMPI PUSH2 0x3194 PUSH2 0x4B24 JUMP JUMPDEST DUP1 PUSH4 0x8C379A0 SUB PUSH2 0x31CD JUMPI POP PUSH2 0x31A8 PUSH2 0x4B3F JUMP JUMPDEST DUP1 PUSH2 0x31B3 JUMPI POP PUSH2 0x31CF JUMP JUMPDEST DUP1 PUSH1 0x40 MLOAD PUSH3 0x461BCD PUSH1 0xE5 SHL DUP2 MSTORE PUSH1 0x4 ADD PUSH2 0x770 SWAP2 SWAP1 PUSH2 0x3C4D JUMP JUMPDEST POP JUMPDEST PUSH1 0x40 MLOAD PUSH3 0x461BCD PUSH1 0xE5 SHL DUP2 MSTORE PUSH1 0x20 PUSH1 0x4 DUP3 ADD MSTORE PUSH1 0x34 PUSH1 0x24 DUP3 ADD MSTORE PUSH32 0x455243313135353A207472616E7366657220746F206E6F6E2D45524331313535 PUSH1 0x44 DUP3 ADD MSTORE PUSH20 0x2932B1B2B4BB32B91034B6B83632B6B2B73A32B9 PUSH1 0x61 SHL PUSH1 0x64 DUP3 ADD MSTORE PUSH1 0x84 ADD PUSH2 0x770 JUMP JUMPDEST PUSH1 0x1 PUSH1 0x1 PUSH1 0xE0 SHL SUB NOT DUP2 AND PUSH4 0xBC197C81 PUSH1 0xE0 SHL EQ PUSH2 0x2D18 JUMPI PUSH1 0x40 MLOAD PUSH3 0x461BCD PUSH1 0xE5 SHL DUP2 MSTORE PUSH1 0x4 ADD PUSH2 0x770 SWAP1 PUSH2 0x4BC8 JUMP JUMPDEST PUSH1 0x1 PUSH1 0x1 PUSH1 0xA0 SHL SUB DUP2 AND EXTCODESIZE PUSH2 0x32D1 JUMPI PUSH1 0x40 MLOAD PUSH3 0x461BCD PUSH1 0xE5 SHL DUP2 MSTORE PUSH1 0x20 PUSH1 0x4 DUP3 ADD MSTORE PUSH1 0x2D PUSH1 0x24 DUP3 ADD MSTORE PUSH32 0x455243313936373A206E657720696D706C656D656E746174696F6E206973206E PUSH1 0x44 DUP3 ADD MSTORE PUSH13 0x1BDD08184818DBDB9D1C9858DD PUSH1 0x9A SHL PUSH1 0x64 DUP3 ADD MSTORE PUSH1 0x84 ADD PUSH2 0x770 JUMP JUMPDEST PUSH1 0x0 DUP1 MLOAD PUSH1 0x20 PUSH2 0x4DF3 DUP4 CODECOPY DUP2 MLOAD SWAP2 MSTORE DUP1 SLOAD PUSH1 0x1 PUSH1 0x1 PUSH1 0xA0 SHL SUB NOT AND PUSH1 0x1 PUSH1 0x1 PUSH1 0xA0 SHL SUB SWAP3 SWAP1 SWAP3 AND SWAP2 SWAP1 SWAP2 OR SWAP1 SSTORE JUMP JUMPDEST PUSH2 0x3309 DUP4 PUSH2 0x39FA JUMP JUMPDEST PUSH1 0x0 DUP3 MLOAD GT DUP1 PUSH2 0x3316 JUMPI POP DUP1 JUMPDEST ISZERO PUSH2 0xE75 JUMPI PUSH2 0xE8E DUP4 DUP4 PUSH2 0x3A3A JUMP JUMPDEST PUSH1 0x0 DUP2 DUP2 JUMPDEST DUP5 DUP2 LT ISZERO PUSH2 0x3368 JUMPI PUSH2 0x3354 DUP3 DUP8 DUP8 DUP5 DUP2 DUP2 LT PUSH2 0x3348 JUMPI PUSH2 0x3348 PUSH2 0x4667 JUMP JUMPDEST SWAP1 POP PUSH1 0x20 MUL ADD CALLDATALOAD PUSH2 0x3B25 JUMP JUMPDEST SWAP2 POP DUP1 PUSH2 0x3360 DUP2 PUSH2 0x4693 JUMP JUMPDEST SWAP2 POP POP PUSH2 0x332A JUMP JUMPDEST POP SWAP5 SWAP4 POP POP POP POP JUMP JUMPDEST PUSH2 0x1CD SLOAD PUSH1 0xFF AND PUSH2 0xA84 JUMPI PUSH1 0x40 MLOAD PUSH3 0x461BCD PUSH1 0xE5 SHL DUP2 MSTORE PUSH1 0x20 PUSH1 0x4 DUP3 ADD MSTORE PUSH1 0x14 PUSH1 0x24 DUP3 ADD MSTORE PUSH20 0x14185D5CD8589B194E881B9BDD081C185D5CD959 PUSH1 0x62 SHL PUSH1 0x44 DUP3 ADD MSTORE PUSH1 0x64 ADD PUSH2 0x770 JUMP JUMPDEST DUP1 PUSH2 0xE75 DUP2 PUSH2 0x4C10 JUMP JUMPDEST DUP4 MLOAD PUSH1 0x0 JUMPDEST DUP2 DUP2 LT ISZERO PUSH2 0x3095 JUMPI PUSH1 0x0 DUP7 DUP3 DUP2 MLOAD DUP2 LT PUSH2 0x33E6 JUMPI PUSH2 0x33E6 PUSH2 0x4667 JUMP JUMPDEST PUSH1 0x20 MUL PUSH1 0x20 ADD ADD MLOAD SWAP1 POP PUSH1 0x0 DUP7 DUP4 DUP2 MLOAD DUP2 LT PUSH2 0x3404 JUMPI PUSH2 0x3404 PUSH2 0x4667 JUMP JUMPDEST PUSH1 0x20 MUL PUSH1 0x20 ADD ADD MLOAD SWAP1 POP PUSH2 0x3417 DUP3 PUSH2 0x36F2 JUMP JUMPDEST ISZERO PUSH2 0x3435 JUMPI PUSH1 0x40 MLOAD PUSH4 0x1EB49D6D PUSH1 0xE1 SHL DUP2 MSTORE PUSH1 0x4 ADD PUSH1 0x40 MLOAD DUP1 SWAP2 SUB SWAP1 REVERT JUMPDEST PUSH1 0x1 PUSH1 0x1 PUSH1 0x80 SHL SUB NOT DUP2 AND PUSH1 0x1 PUSH1 0x1 PUSH1 0x80 SHL SUB NOT DUP4 AND EQ PUSH2 0x3469 JUMPI PUSH1 0x40 MLOAD PUSH4 0xB4902A13 PUSH1 0xE0 SHL DUP2 MSTORE PUSH1 0x4 ADD PUSH1 0x40 MLOAD DUP1 SWAP2 SUB SWAP1 REVERT JUMPDEST PUSH1 0x1 PUSH1 0x1 PUSH1 0xA0 SHL SUB DUP10 AND CALLER EQ DUP1 ISZERO SWAP1 PUSH2 0x3489 JUMPI POP PUSH2 0x3487 DUP10 CALLER PUSH2 0x61B JUMP JUMPDEST ISZERO JUMPDEST ISZERO PUSH2 0x34A7 JUMPI PUSH1 0x40 MLOAD PUSH4 0x390CDD9B PUSH1 0xE2 SHL DUP2 MSTORE PUSH1 0x4 ADD PUSH1 0x40 MLOAD DUP1 SWAP2 SUB SWAP1 REVERT JUMPDEST POP POP PUSH1 0x1 ADD PUSH2 0x33CA JUMP JUMPDEST PUSH1 0x1 PUSH1 0x1 PUSH1 0xA0 SHL SUB DUP5 AND PUSH2 0x34D7 JUMPI PUSH1 0x40 MLOAD PUSH3 0x461BCD PUSH1 0xE5 SHL DUP2 MSTORE PUSH1 0x4 ADD PUSH2 0x770 SWAP1 PUSH2 0x4C36 JUMP JUMPDEST DUP2 MLOAD DUP4 MLOAD EQ PUSH2 0x34F8 JUMPI PUSH1 0x40 MLOAD PUSH3 0x461BCD PUSH1 0xE5 SHL DUP2 MSTORE PUSH1 0x4 ADD PUSH2 0x770 SWAP1 PUSH2 0x4753 JUMP JUMPDEST CALLER PUSH2 0x3508 DUP2 PUSH1 0x0 DUP8 DUP8 DUP8 DUP8 PUSH2 0x2F92 JUMP JUMPDEST PUSH1 0x0 JUMPDEST DUP5 MLOAD DUP2 LT ISZERO PUSH2 0x35A4 JUMPI DUP4 DUP2 DUP2 MLOAD DUP2 LT PUSH2 0x3526 JUMPI PUSH2 0x3526 PUSH2 0x4667 JUMP JUMPDEST PUSH1 0x20 MUL PUSH1 0x20 ADD ADD MLOAD PUSH1 0x65 PUSH1 0x0 DUP8 DUP5 DUP2 MLOAD DUP2 LT PUSH2 0x3544 JUMPI PUSH2 0x3544 PUSH2 0x4667 JUMP JUMPDEST PUSH1 0x20 MUL PUSH1 0x20 ADD ADD MLOAD DUP2 MSTORE PUSH1 0x20 ADD SWAP1 DUP2 MSTORE PUSH1 0x20 ADD PUSH1 0x0 KECCAK256 PUSH1 0x0 DUP9 PUSH1 0x1 PUSH1 0x1 PUSH1 0xA0 SHL SUB AND PUSH1 0x1 PUSH1 0x1 PUSH1 0xA0 SHL SUB AND DUP2 MSTORE PUSH1 0x20 ADD SWAP1 DUP2 MSTORE PUSH1 0x20 ADD PUSH1 0x0 KECCAK256 PUSH1 0x0 DUP3 DUP3 SLOAD PUSH2 0x358C SWAP2 SWAP1 PUSH2 0x4740 JUMP JUMPDEST SWAP1 SWAP2 SSTORE POP DUP2 SWAP1 POP PUSH2 0x359C DUP2 PUSH2 0x4693 JUMP JUMPDEST SWAP2 POP POP PUSH2 0x350B JUMP JUMPDEST POP DUP5 PUSH1 0x1 PUSH1 0x1 PUSH1 0xA0 SHL SUB AND PUSH1 0x0 PUSH1 0x1 PUSH1 0x1 PUSH1 0xA0 SHL SUB AND DUP3 PUSH1 0x1 PUSH1 0x1 PUSH1 0xA0 SHL SUB AND PUSH32 0x4A39DC06D4C0DBC64B70AF90FD698A233A518AA5D07E595D983B8C0526C8F7FB DUP8 DUP8 PUSH1 0x40 MLOAD PUSH2 0x35F5 SWAP3 SWAP2 SWAP1 PUSH2 0x482A JUMP JUMPDEST PUSH1 0x40 MLOAD DUP1 SWAP2 SUB SWAP1 LOG4 PUSH2 0x360C DUP2 PUSH1 0x0 DUP8 DUP8 DUP8 DUP8 PUSH2 0x309F JUMP JUMPDEST PUSH2 0x967 DUP2 PUSH1 0x0 DUP8 DUP8 DUP8 DUP8 PUSH2 0x3109 JUMP JUMPDEST PUSH1 0x0 SLOAD PUSH2 0x100 SWAP1 DIV PUSH1 0xFF AND PUSH2 0x3642 JUMPI PUSH1 0x40 MLOAD PUSH3 0x461BCD PUSH1 0xE5 SHL DUP2 MSTORE PUSH1 0x4 ADD PUSH2 0x770 SWAP1 PUSH2 0x46AC JUMP JUMPDEST PUSH2 0x1CD DUP1 SLOAD PUSH1 0xFF NOT AND SWAP1 SSTORE JUMP JUMPDEST PUSH1 0x0 SLOAD PUSH2 0x100 SWAP1 DIV PUSH1 0xFF AND PUSH2 0x3676 JUMPI PUSH1 0x40 MLOAD PUSH3 0x461BCD PUSH1 0xE5 SHL DUP2 MSTORE PUSH1 0x4 ADD PUSH2 0x770 SWAP1 PUSH2 0x46AC JUMP JUMPDEST PUSH2 0xA4A DUP2 PUSH2 0x3B54 JUMP JUMPDEST PUSH1 0x0 SLOAD PUSH2 0x100 SWAP1 DIV PUSH1 0xFF AND PUSH2 0x36A6 JUMPI PUSH1 0x40 MLOAD PUSH3 0x461BCD PUSH1 0xE5 SHL DUP2 MSTORE PUSH1 0x4 ADD PUSH2 0x770 SWAP1 PUSH2 0x46AC JUMP JUMPDEST PUSH1 0x40 DUP1 MLOAD PUSH1 0x20 DUP2 ADD SWAP1 SWAP2 MSTORE PUSH1 0x0 DUP2 MSTORE PUSH1 0xC9 SWAP1 PUSH2 0xA4A SWAP1 DUP3 PUSH2 0x4CBD JUMP JUMPDEST PUSH1 0x0 SLOAD PUSH2 0x100 SWAP1 DIV PUSH1 0xFF AND PUSH2 0x36E9 JUMPI PUSH1 0x40 MLOAD PUSH3 0x461BCD PUSH1 0xE5 SHL DUP2 MSTORE PUSH1 0x4 ADD PUSH2 0x770 SWAP1 PUSH2 0x46AC JUMP JUMPDEST PUSH2 0xA84 CALLER PUSH2 0x1FCA JUMP JUMPDEST PUSH1 0x0 PUSH1 0x1 PUSH1 0x1 PUSH1 0x80 SHL SUB NOT DUP3 AND DUP3 EQ DUP1 ISZERO PUSH2 0x79E JUMPI POP POP PUSH1 0x1 PUSH1 0x1 PUSH1 0x80 SHL SUB AND ISZERO SWAP1 JUMP JUMPDEST PUSH1 0x1 PUSH1 0x1 PUSH1 0xA0 SHL SUB DUP5 AND PUSH2 0x373C JUMPI PUSH1 0x40 MLOAD PUSH3 0x461BCD PUSH1 0xE5 SHL DUP2 MSTORE PUSH1 0x4 ADD PUSH2 0x770 SWAP1 PUSH2 0x4C36 JUMP JUMPDEST CALLER PUSH1 0x0 PUSH2 0x3748 DUP6 PUSH2 0x3860 JUMP JUMPDEST SWAP1 POP PUSH1 0x0 PUSH2 0x3755 DUP6 PUSH2 0x3860 JUMP JUMPDEST SWAP1 POP PUSH2 0x3766 DUP4 PUSH1 0x0 DUP10 DUP6 DUP6 DUP10 PUSH2 0x2F92 JUMP JUMPDEST PUSH1 0x0 DUP7 DUP2 MSTORE PUSH1 0x65 PUSH1 0x20 SWAP1 DUP2 MSTORE PUSH1 0x40 DUP1 DUP4 KECCAK256 PUSH1 0x1 PUSH1 0x1 PUSH1 0xA0 SHL SUB DUP12 AND DUP5 MSTORE SWAP1 SWAP2 MSTORE DUP2 KECCAK256 DUP1 SLOAD DUP8 SWAP3 SWAP1 PUSH2 0x3798 SWAP1 DUP5 SWAP1 PUSH2 0x4740 JUMP JUMPDEST SWAP1 SWAP2 SSTORE POP POP PUSH1 0x40 DUP1 MLOAD DUP8 DUP2 MSTORE PUSH1 0x20 DUP2 ADD DUP8 SWAP1 MSTORE PUSH1 0x1 PUSH1 0x1 PUSH1 0xA0 SHL SUB DUP1 DUP11 AND SWAP3 PUSH1 0x0 SWAP3 SWAP2 DUP8 AND SWAP2 PUSH1 0x0 DUP1 MLOAD PUSH1 0x20 PUSH2 0x4DD3 DUP4 CODECOPY DUP2 MLOAD SWAP2 MSTORE SWAP2 ADD PUSH1 0x40 MLOAD DUP1 SWAP2 SUB SWAP1 LOG4 PUSH2 0x37E6 DUP4 PUSH1 0x0 DUP10 DUP6 DUP6 DUP10 PUSH2 0x309F JUMP JUMPDEST PUSH2 0x2D18 DUP4 PUSH1 0x0 DUP10 DUP10 DUP10 DUP10 PUSH2 0x38AB JUMP JUMPDEST PUSH1 0x80 DUP2 SWAP1 SHR PUSH2 0xE75 DUP2 PUSH2 0x4C10 JUMP JUMPDEST PUSH1 0x0 DUP3 DUP2 MSTORE PUSH1 0xCA PUSH1 0x20 MSTORE PUSH1 0x40 SWAP1 KECCAK256 PUSH2 0x381B DUP3 DUP3 PUSH2 0x4CBD JUMP JUMPDEST POP DUP2 PUSH32 0x6BB7FF708619BA0610CBA295A58592E0451DEE2622938C8755667688DAF3529B PUSH2 0x3847 DUP5 PUSH2 0x7F4 JUMP JUMPDEST PUSH1 0x40 MLOAD PUSH2 0x3854 SWAP2 SWAP1 PUSH2 0x3C4D JUMP JUMPDEST PUSH1 0x40 MLOAD DUP1 SWAP2 SUB SWAP1 LOG2 POP POP JUMP JUMPDEST PUSH1 0x40 DUP1 MLOAD PUSH1 0x1 DUP1 DUP3 MSTORE DUP2 DUP4 ADD SWAP1 SWAP3 MSTORE PUSH1 0x60 SWAP2 PUSH1 0x0 SWAP2 SWAP1 PUSH1 0x20 DUP1 DUP4 ADD SWAP1 DUP1 CALLDATASIZE DUP4 CALLDATACOPY ADD SWAP1 POP POP SWAP1 POP DUP3 DUP2 PUSH1 0x0 DUP2 MLOAD DUP2 LT PUSH2 0x389A JUMPI PUSH2 0x389A PUSH2 0x4667 JUMP JUMPDEST PUSH1 0x20 SWAP1 DUP2 MUL SWAP2 SWAP1 SWAP2 ADD ADD MSTORE SWAP3 SWAP2 POP POP JUMP JUMPDEST PUSH1 0x1 PUSH1 0x1 PUSH1 0xA0 SHL SUB DUP5 AND EXTCODESIZE ISZERO PUSH2 0x104C JUMPI PUSH1 0x40 MLOAD PUSH4 0xF23A6E61 PUSH1 0xE0 SHL DUP2 MSTORE PUSH1 0x1 PUSH1 0x1 PUSH1 0xA0 SHL SUB DUP6 AND SWAP1 PUSH4 0xF23A6E61 SWAP1 PUSH2 0x38EF SWAP1 DUP10 SWAP1 DUP10 SWAP1 DUP9 SWAP1 DUP9 SWAP1 DUP9 SWAP1 PUSH1 0x4 ADD PUSH2 0x4D7C JUMP JUMPDEST PUSH1 0x20 PUSH1 0x40 MLOAD DUP1 DUP4 SUB DUP2 PUSH1 0x0 DUP8 GAS CALL SWAP3 POP POP POP DUP1 ISZERO PUSH2 0x392A JUMPI POP PUSH1 0x40 DUP1 MLOAD PUSH1 0x1F RETURNDATASIZE SWAP1 DUP2 ADD PUSH1 0x1F NOT AND DUP3 ADD SWAP1 SWAP3 MSTORE PUSH2 0x3927 SWAP2 DUP2 ADD SWAP1 PUSH2 0x4B07 JUMP JUMPDEST PUSH1 0x1 JUMPDEST PUSH2 0x3936 JUMPI PUSH2 0x3194 PUSH2 0x4B24 JUMP JUMPDEST PUSH1 0x1 PUSH1 0x1 PUSH1 0xE0 SHL SUB NOT DUP2 AND PUSH4 0xF23A6E61 PUSH1 0xE0 SHL EQ PUSH2 0x2D18 JUMPI PUSH1 0x40 MLOAD PUSH3 0x461BCD PUSH1 0xE5 SHL DUP2 MSTORE PUSH1 0x4 ADD PUSH2 0x770 SWAP1 PUSH2 0x4BC8 JUMP JUMPDEST PUSH1 0x60 PUSH1 0x67 DUP1 SLOAD PUSH2 0x3975 SWAP1 PUSH2 0x49E8 JUMP JUMPDEST DUP1 PUSH1 0x1F ADD PUSH1 0x20 DUP1 SWAP2 DIV MUL PUSH1 0x20 ADD PUSH1 0x40 MLOAD SWAP1 DUP2 ADD PUSH1 0x40 MSTORE DUP1 SWAP3 SWAP2 SWAP1 DUP2 DUP2 MSTORE PUSH1 0x20 ADD DUP3 DUP1 SLOAD PUSH2 0x39A1 SWAP1 PUSH2 0x49E8 JUMP JUMPDEST DUP1 ISZERO PUSH2 0x39EE JUMPI DUP1 PUSH1 0x1F LT PUSH2 0x39C3 JUMPI PUSH2 0x100 DUP1 DUP4 SLOAD DIV MUL DUP4 MSTORE SWAP2 PUSH1 0x20 ADD SWAP2 PUSH2 0x39EE JUMP JUMPDEST DUP3 ADD SWAP2 SWAP1 PUSH1 0x0 MSTORE PUSH1 0x20 PUSH1 0x0 KECCAK256 SWAP1 JUMPDEST DUP2 SLOAD DUP2 MSTORE SWAP1 PUSH1 0x1 ADD SWAP1 PUSH1 0x20 ADD DUP1 DUP4 GT PUSH2 0x39D1 JUMPI DUP3 SWAP1 SUB PUSH1 0x1F AND DUP3 ADD SWAP2 JUMPDEST POP POP POP POP POP SWAP1 POP SWAP2 SWAP1 POP JUMP JUMPDEST PUSH2 0x3A03 DUP2 PUSH2 0x3264 JUMP JUMPDEST PUSH1 0x40 MLOAD PUSH1 0x1 PUSH1 0x1 PUSH1 0xA0 SHL SUB DUP3 AND SWAP1 PUSH32 0xBC7CD75A20EE27FD9ADEBAB32041F755214DBC6BFFA90CC0225B39DA2E5C2D3B SWAP1 PUSH1 0x0 SWAP1 LOG2 POP JUMP JUMPDEST PUSH1 0x60 PUSH1 0x1 PUSH1 0x1 PUSH1 0xA0 SHL SUB DUP4 AND EXTCODESIZE PUSH2 0x3AA2 JUMPI PUSH1 0x40 MLOAD PUSH3 0x461BCD PUSH1 0xE5 SHL DUP2 MSTORE PUSH1 0x20 PUSH1 0x4 DUP3 ADD MSTORE PUSH1 0x26 PUSH1 0x24 DUP3 ADD MSTORE PUSH32 0x416464726573733A2064656C65676174652063616C6C20746F206E6F6E2D636F PUSH1 0x44 DUP3 ADD MSTORE PUSH6 0x1B9D1C9858DD PUSH1 0xD2 SHL PUSH1 0x64 DUP3 ADD MSTORE PUSH1 0x84 ADD PUSH2 0x770 JUMP JUMPDEST PUSH1 0x0 DUP1 DUP5 PUSH1 0x1 PUSH1 0x1 PUSH1 0xA0 SHL SUB AND DUP5 PUSH1 0x40 MLOAD PUSH2 0x3ABD SWAP2 SWAP1 PUSH2 0x4DB6 JUMP JUMPDEST PUSH1 0x0 PUSH1 0x40 MLOAD DUP1 DUP4 SUB DUP2 DUP6 GAS DELEGATECALL SWAP2 POP POP RETURNDATASIZE DUP1 PUSH1 0x0 DUP2 EQ PUSH2 0x3AF8 JUMPI PUSH1 0x40 MLOAD SWAP2 POP PUSH1 0x1F NOT PUSH1 0x3F RETURNDATASIZE ADD AND DUP3 ADD PUSH1 0x40 MSTORE RETURNDATASIZE DUP3 MSTORE RETURNDATASIZE PUSH1 0x0 PUSH1 0x20 DUP5 ADD RETURNDATACOPY PUSH2 0x3AFD JUMP JUMPDEST PUSH1 0x60 SWAP2 POP JUMPDEST POP SWAP2 POP SWAP2 POP PUSH2 0xA6B DUP3 DUP3 PUSH1 0x40 MLOAD DUP1 PUSH1 0x60 ADD PUSH1 0x40 MSTORE DUP1 PUSH1 0x27 DUP2 MSTORE PUSH1 0x20 ADD PUSH2 0x4E13 PUSH1 0x27 SWAP2 CODECOPY PUSH2 0x3B60 JUMP JUMPDEST PUSH1 0x0 DUP2 DUP4 LT PUSH2 0x3B41 JUMPI PUSH1 0x0 DUP3 DUP2 MSTORE PUSH1 0x20 DUP5 SWAP1 MSTORE PUSH1 0x40 SWAP1 KECCAK256 PUSH2 0x80B JUMP JUMPDEST PUSH1 0x0 DUP4 DUP2 MSTORE PUSH1 0x20 DUP4 SWAP1 MSTORE PUSH1 0x40 SWAP1 KECCAK256 PUSH2 0x80B JUMP JUMPDEST PUSH1 0x67 PUSH2 0xD7A DUP3 DUP3 PUSH2 0x4CBD JUMP JUMPDEST PUSH1 0x60 DUP4 ISZERO PUSH2 0x3B6F JUMPI POP DUP2 PUSH2 0x80B JUMP JUMPDEST PUSH2 0x80B DUP4 DUP4 DUP2 MLOAD ISZERO PUSH2 0x31B3 JUMPI DUP2 MLOAD DUP1 DUP4 PUSH1 0x20 ADD REVERT JUMPDEST DUP1 CALLDATALOAD PUSH1 0x1 PUSH1 0x1 PUSH1 0xA0 SHL SUB DUP2 AND DUP2 EQ PUSH2 0x3B9B JUMPI PUSH1 0x0 DUP1 REVERT JUMPDEST SWAP2 SWAP1 POP JUMP JUMPDEST PUSH1 0x0 DUP1 PUSH1 0x40 DUP4 DUP6 SUB SLT ISZERO PUSH2 0x3BB3 JUMPI PUSH1 0x0 DUP1 REVERT JUMPDEST PUSH2 0x3BBC DUP4 PUSH2 0x3B84 JUMP JUMPDEST SWAP5 PUSH1 0x20 SWAP4 SWAP1 SWAP4 ADD CALLDATALOAD SWAP4 POP POP POP JUMP JUMPDEST PUSH1 0x1 PUSH1 0x1 PUSH1 0xE0 SHL SUB NOT DUP2 AND DUP2 EQ PUSH2 0xA4A JUMPI PUSH1 0x0 DUP1 REVERT JUMPDEST PUSH1 0x0 PUSH1 0x20 DUP3 DUP5 SUB SLT ISZERO PUSH2 0x3BF2 JUMPI PUSH1 0x0 DUP1 REVERT JUMPDEST DUP2 CALLDATALOAD PUSH2 0x80B DUP2 PUSH2 0x3BCA JUMP JUMPDEST PUSH1 0x0 JUMPDEST DUP4 DUP2 LT ISZERO PUSH2 0x3C18 JUMPI DUP2 DUP2 ADD MLOAD DUP4 DUP3 ADD MSTORE PUSH1 0x20 ADD PUSH2 0x3C00 JUMP JUMPDEST POP POP PUSH1 0x0 SWAP2 ADD MSTORE JUMP JUMPDEST PUSH1 0x0 DUP2 MLOAD DUP1 DUP5 MSTORE PUSH2 0x3C39 DUP2 PUSH1 0x20 DUP7 ADD PUSH1 0x20 DUP7 ADD PUSH2 0x3BFD JUMP JUMPDEST PUSH1 0x1F ADD PUSH1 0x1F NOT AND SWAP3 SWAP1 SWAP3 ADD PUSH1 0x20 ADD SWAP3 SWAP2 POP POP JUMP JUMPDEST PUSH1 0x20 DUP2 MSTORE PUSH1 0x0 PUSH2 0x80B PUSH1 0x20 DUP4 ADD DUP5 PUSH2 0x3C21 JUMP JUMPDEST PUSH1 0x0 PUSH1 0x20 DUP3 DUP5 SUB SLT ISZERO PUSH2 0x3C72 JUMPI PUSH1 0x0 DUP1 REVERT JUMPDEST POP CALLDATALOAD SWAP2 SWAP1 POP JUMP JUMPDEST PUSH1 0x0 DUP1 DUP4 PUSH1 0x1F DUP5 ADD SLT PUSH2 0x3C8B JUMPI PUSH1 0x0 DUP1 REVERT JUMPDEST POP DUP2 CALLDATALOAD PUSH1 0x1 PUSH1 0x1 PUSH1 0x40 SHL SUB DUP2 GT ISZERO PUSH2 0x3CA2 JUMPI PUSH1 0x0 DUP1 REVERT JUMPDEST PUSH1 0x20 DUP4 ADD SWAP2 POP DUP4 PUSH1 0x20 DUP3 PUSH1 0x5 SHL DUP6 ADD ADD GT ISZERO PUSH2 0x3CBD JUMPI PUSH1 0x0 DUP1 REVERT JUMPDEST SWAP3 POP SWAP3 SWAP1 POP JUMP JUMPDEST PUSH4 0x4E487B71 PUSH1 0xE0 SHL PUSH1 0x0 MSTORE PUSH1 0x41 PUSH1 0x4 MSTORE PUSH1 0x24 PUSH1 0x0 REVERT JUMPDEST PUSH1 0x1F DUP3 ADD PUSH1 0x1F NOT AND DUP2 ADD PUSH1 0x1 PUSH1 0x1 PUSH1 0x40 SHL SUB DUP2 GT DUP3 DUP3 LT OR ISZERO PUSH2 0x3CFF JUMPI PUSH2 0x3CFF PUSH2 0x3CC4 JUMP JUMPDEST PUSH1 0x40 MSTORE POP POP JUMP JUMPDEST PUSH1 0x0 DUP3 PUSH1 0x1F DUP4 ADD SLT PUSH2 0x3D17 JUMPI PUSH1 0x0 DUP1 REVERT JUMPDEST DUP2 CALLDATALOAD PUSH1 0x1 PUSH1 0x1 PUSH1 0x40 SHL SUB DUP2 GT ISZERO PUSH2 0x3D30 JUMPI PUSH2 0x3D30 PUSH2 0x3CC4 JUMP JUMPDEST PUSH1 0x40 MLOAD PUSH2 0x3D47 PUSH1 0x1F DUP4 ADD PUSH1 0x1F NOT AND PUSH1 0x20 ADD DUP3 PUSH2 0x3CDA JUMP JUMPDEST DUP2 DUP2 MSTORE DUP5 PUSH1 0x20 DUP4 DUP7 ADD ADD GT ISZERO PUSH2 0x3D5C JUMPI PUSH1 0x0 DUP1 REVERT JUMPDEST DUP2 PUSH1 0x20 DUP6 ADD PUSH1 0x20 DUP4 ADD CALLDATACOPY PUSH1 0x0 SWAP2 DUP2 ADD PUSH1 0x20 ADD SWAP2 SWAP1 SWAP2 MSTORE SWAP4 SWAP3 POP POP POP JUMP JUMPDEST DUP1 CALLDATALOAD PUSH1 0x3 DUP2 LT PUSH2 0x3B9B JUMPI PUSH1 0x0 DUP1 REVERT JUMPDEST PUSH1 0x0 DUP1 PUSH1 0x0 DUP1 PUSH1 0x0 DUP1 PUSH1 0xA0 DUP8 DUP10 SUB SLT ISZERO PUSH2 0x3DA1 JUMPI PUSH1 0x0 DUP1 REVERT JUMPDEST PUSH2 0x3DAA DUP8 PUSH2 0x3B84 JUMP JUMPDEST SWAP6 POP PUSH1 0x20 DUP8 ADD CALLDATALOAD SWAP5 POP PUSH1 0x40 DUP8 ADD CALLDATALOAD PUSH1 0x1 PUSH1 0x1 PUSH1 0x40 SHL SUB DUP1 DUP3 GT ISZERO PUSH2 0x3DCD JUMPI PUSH1 0x0 DUP1 REVERT JUMPDEST PUSH2 0x3DD9 DUP11 DUP4 DUP12 ADD PUSH2 0x3C79 JUMP JUMPDEST SWAP1 SWAP7 POP SWAP5 POP PUSH1 0x60 DUP10 ADD CALLDATALOAD SWAP2 POP DUP1 DUP3 GT ISZERO PUSH2 0x3DF2 JUMPI PUSH1 0x0 DUP1 REVERT JUMPDEST POP PUSH2 0x3DFF DUP10 DUP3 DUP11 ADD PUSH2 0x3D06 JUMP JUMPDEST SWAP3 POP POP PUSH2 0x3E0E PUSH1 0x80 DUP9 ADD PUSH2 0x3D79 JUMP JUMPDEST SWAP1 POP SWAP3 SWAP6 POP SWAP3 SWAP6 POP SWAP3 SWAP6 JUMP JUMPDEST PUSH1 0x0 PUSH1 0x1 PUSH1 0x1 PUSH1 0x40 SHL SUB DUP3 GT ISZERO PUSH2 0x3E33 JUMPI PUSH2 0x3E33 PUSH2 0x3CC4 JUMP JUMPDEST POP PUSH1 0x5 SHL PUSH1 0x20 ADD SWAP1 JUMP JUMPDEST PUSH1 0x0 DUP3 PUSH1 0x1F DUP4 ADD SLT PUSH2 0x3E4E JUMPI PUSH1 0x0 DUP1 REVERT JUMPDEST DUP2 CALLDATALOAD PUSH1 0x20 PUSH2 0x3E5B DUP3 PUSH2 0x3E1A JUMP JUMPDEST PUSH1 0x40 MLOAD PUSH2 0x3E68 DUP3 DUP3 PUSH2 0x3CDA JUMP JUMPDEST DUP4 DUP2 MSTORE PUSH1 0x5 SWAP4 SWAP1 SWAP4 SHL DUP6 ADD DUP3 ADD SWAP3 DUP3 DUP2 ADD SWAP2 POP DUP7 DUP5 GT ISZERO PUSH2 0x3E88 JUMPI PUSH1 0x0 DUP1 REVERT JUMPDEST DUP3 DUP7 ADD JUMPDEST DUP5 DUP2 LT ISZERO PUSH2 0x3EA3 JUMPI DUP1 CALLDATALOAD DUP4 MSTORE SWAP2 DUP4 ADD SWAP2 DUP4 ADD PUSH2 0x3E8C JUMP JUMPDEST POP SWAP7 SWAP6 POP POP POP POP POP POP JUMP JUMPDEST PUSH1 0x0 DUP1 PUSH1 0x0 DUP1 PUSH1 0x0 PUSH1 0xA0 DUP7 DUP9 SUB SLT ISZERO PUSH2 0x3EC6 JUMPI PUSH1 0x0 DUP1 REVERT JUMPDEST PUSH2 0x3ECF DUP7 PUSH2 0x3B84 JUMP JUMPDEST SWAP5 POP PUSH2 0x3EDD PUSH1 0x20 DUP8 ADD PUSH2 0x3B84 JUMP JUMPDEST SWAP4 POP PUSH1 0x40 DUP7 ADD CALLDATALOAD PUSH1 0x1 PUSH1 0x1 PUSH1 0x40 SHL SUB DUP1 DUP3 GT ISZERO PUSH2 0x3EF9 JUMPI PUSH1 0x0 DUP1 REVERT JUMPDEST PUSH2 0x3F05 DUP10 DUP4 DUP11 ADD PUSH2 0x3E3D JUMP JUMPDEST SWAP5 POP PUSH1 0x60 DUP9 ADD CALLDATALOAD SWAP2 POP DUP1 DUP3 GT ISZERO PUSH2 0x3F1B JUMPI PUSH1 0x0 DUP1 REVERT JUMPDEST PUSH2 0x3F27 DUP10 DUP4 DUP11 ADD PUSH2 0x3E3D JUMP JUMPDEST SWAP4 POP PUSH1 0x80 DUP9 ADD CALLDATALOAD SWAP2 POP DUP1 DUP3 GT ISZERO PUSH2 0x3F3D JUMPI PUSH1 0x0 DUP1 REVERT JUMPDEST POP PUSH2 0x3F4A DUP9 DUP3 DUP10 ADD PUSH2 0x3D06 JUMP JUMPDEST SWAP2 POP POP SWAP3 SWAP6 POP SWAP3 SWAP6 SWAP1 SWAP4 POP JUMP JUMPDEST PUSH1 0x0 PUSH1 0x20 DUP3 DUP5 SUB SLT ISZERO PUSH2 0x3F69 JUMPI PUSH1 0x0 DUP1 REVERT JUMPDEST PUSH2 0x80B DUP3 PUSH2 0x3B84 JUMP JUMPDEST PUSH1 0x0 DUP1 PUSH1 0x0 DUP1 PUSH1 0x60 DUP6 DUP8 SUB SLT ISZERO PUSH2 0x3F88 JUMPI PUSH1 0x0 DUP1 REVERT JUMPDEST DUP5 CALLDATALOAD PUSH1 0x1 PUSH1 0x1 PUSH1 0x40 SHL SUB DUP2 GT ISZERO PUSH2 0x3F9E JUMPI PUSH1 0x0 DUP1 REVERT JUMPDEST PUSH2 0x3FAA DUP8 DUP3 DUP9 ADD PUSH2 0x3C79 JUMP JUMPDEST SWAP1 SWAP9 SWAP1 SWAP8 POP PUSH1 0x20 DUP8 ADD CALLDATALOAD SWAP7 PUSH1 0x40 ADD CALLDATALOAD SWAP6 POP SWAP4 POP POP POP POP JUMP JUMPDEST PUSH1 0x0 DUP1 PUSH1 0x40 DUP4 DUP6 SUB SLT ISZERO PUSH2 0x3FD5 JUMPI PUSH1 0x0 DUP1 REVERT JUMPDEST DUP3 CALLDATALOAD PUSH1 0x1 PUSH1 0x1 PUSH1 0x40 SHL SUB DUP1 DUP3 GT ISZERO PUSH2 0x3FEC JUMPI PUSH1 0x0 DUP1 REVERT JUMPDEST DUP2 DUP6 ADD SWAP2 POP DUP6 PUSH1 0x1F DUP4 ADD SLT PUSH2 0x4000 JUMPI PUSH1 0x0 DUP1 REVERT JUMPDEST DUP2 CALLDATALOAD PUSH1 0x20 PUSH2 0x400D DUP3 PUSH2 0x3E1A JUMP JUMPDEST PUSH1 0x40 MLOAD PUSH2 0x401A DUP3 DUP3 PUSH2 0x3CDA JUMP JUMPDEST DUP4 DUP2 MSTORE PUSH1 0x5 SWAP4 SWAP1 SWAP4 SHL DUP6 ADD DUP3 ADD SWAP3 DUP3 DUP2 ADD SWAP2 POP DUP10 DUP5 GT ISZERO PUSH2 0x403A JUMPI PUSH1 0x0 DUP1 REVERT JUMPDEST SWAP5 DUP3 ADD SWAP5 JUMPDEST DUP4 DUP7 LT ISZERO PUSH2 0x405F JUMPI PUSH2 0x4050 DUP7 PUSH2 0x3B84 JUMP JUMPDEST DUP3 MSTORE SWAP5 DUP3 ADD SWAP5 SWAP1 DUP3 ADD SWAP1 PUSH2 0x403F JUMP JUMPDEST SWAP7 POP POP DUP7 ADD CALLDATALOAD SWAP3 POP POP DUP1 DUP3 GT ISZERO PUSH2 0x4075 JUMPI PUSH1 0x0 DUP1 REVERT JUMPDEST POP PUSH2 0x4082 DUP6 DUP3 DUP7 ADD PUSH2 0x3E3D JUMP JUMPDEST SWAP2 POP POP SWAP3 POP SWAP3 SWAP1 POP JUMP JUMPDEST PUSH1 0x0 DUP2 MLOAD DUP1 DUP5 MSTORE PUSH1 0x20 DUP1 DUP6 ADD SWAP5 POP DUP1 DUP5 ADD PUSH1 0x0 JUMPDEST DUP4 DUP2 LT ISZERO PUSH2 0x40BC JUMPI DUP2 MLOAD DUP8 MSTORE SWAP6 DUP3 ADD SWAP6 SWAP1 DUP3 ADD SWAP1 PUSH1 0x1 ADD PUSH2 0x40A0 JUMP JUMPDEST POP SWAP5 SWAP6 SWAP5 POP POP POP POP POP JUMP JUMPDEST PUSH1 0x20 DUP2 MSTORE PUSH1 0x0 PUSH2 0x80B PUSH1 0x20 DUP4 ADD DUP5 PUSH2 0x408C JUMP JUMPDEST PUSH1 0x0 DUP1 PUSH1 0x40 DUP4 DUP6 SUB SLT ISZERO PUSH2 0x40ED JUMPI PUSH1 0x0 DUP1 REVERT JUMPDEST PUSH2 0x40F6 DUP4 PUSH2 0x3B84 JUMP JUMPDEST SWAP2 POP PUSH1 0x20 DUP4 ADD CALLDATALOAD PUSH1 0x1 PUSH1 0x1 PUSH1 0x40 SHL SUB DUP2 GT ISZERO PUSH2 0x4111 JUMPI PUSH1 0x0 DUP1 REVERT JUMPDEST PUSH2 0x4082 DUP6 DUP3 DUP7 ADD PUSH2 0x3D06 JUMP JUMPDEST PUSH1 0x0 DUP1 PUSH1 0x0 PUSH1 0x60 DUP5 DUP7 SUB SLT ISZERO PUSH2 0x4132 JUMPI PUSH1 0x0 DUP1 REVERT JUMPDEST PUSH2 0x413B DUP5 PUSH2 0x3B84 JUMP JUMPDEST SWAP3 POP PUSH1 0x20 DUP5 ADD CALLDATALOAD PUSH1 0x1 PUSH1 0x1 PUSH1 0x40 SHL SUB DUP1 DUP3 GT ISZERO PUSH2 0x4157 JUMPI PUSH1 0x0 DUP1 REVERT JUMPDEST PUSH2 0x4163 DUP8 DUP4 DUP9 ADD PUSH2 0x3E3D JUMP JUMPDEST SWAP4 POP PUSH1 0x40 DUP7 ADD CALLDATALOAD SWAP2 POP DUP1 DUP3 GT ISZERO PUSH2 0x4179 JUMPI PUSH1 0x0 DUP1 REVERT JUMPDEST POP PUSH2 0x4186 DUP7 DUP3 DUP8 ADD PUSH2 0x3E3D JUMP JUMPDEST SWAP2 POP POP SWAP3 POP SWAP3 POP SWAP3 JUMP JUMPDEST PUSH1 0x0 DUP1 PUSH1 0x0 DUP1 PUSH1 0x60 DUP6 DUP8 SUB SLT ISZERO PUSH2 0x41A6 JUMPI PUSH1 0x0 DUP1 REVERT JUMPDEST PUSH2 0x41AF DUP6 PUSH2 0x3B84 JUMP JUMPDEST SWAP4 POP PUSH1 0x20 DUP6 ADD CALLDATALOAD SWAP3 POP PUSH1 0x40 DUP6 ADD CALLDATALOAD PUSH1 0x1 PUSH1 0x1 PUSH1 0x40 SHL SUB DUP2 GT ISZERO PUSH2 0x41D1 JUMPI PUSH1 0x0 DUP1 REVERT JUMPDEST PUSH2 0x41DD DUP8 DUP3 DUP9 ADD PUSH2 0x3C79 JUMP JUMPDEST SWAP6 SWAP9 SWAP5 SWAP8 POP SWAP6 POP POP POP POP JUMP JUMPDEST PUSH1 0x0 DUP1 PUSH1 0x0 DUP1 PUSH1 0x0 PUSH1 0x80 DUP7 DUP9 SUB SLT ISZERO PUSH2 0x4201 JUMPI PUSH1 0x0 DUP1 REVERT JUMPDEST PUSH2 0x420A DUP7 PUSH2 0x3B84 JUMP JUMPDEST SWAP5 POP PUSH1 0x20 DUP7 ADD CALLDATALOAD PUSH1 0x1 PUSH1 0x1 PUSH1 0x40 SHL SUB DUP2 GT ISZERO PUSH2 0x4225 JUMPI PUSH1 0x0 DUP1 REVERT JUMPDEST PUSH2 0x4231 DUP9 DUP3 DUP10 ADD PUSH2 0x3C79 JUMP JUMPDEST SWAP7 SWAP10 SWAP1 SWAP9 POP SWAP6 SWAP7 PUSH1 0x40 DUP2 ADD CALLDATALOAD SWAP7 PUSH1 0x60 SWAP1 SWAP2 ADD CALLDATALOAD SWAP6 POP SWAP4 POP POP POP POP JUMP JUMPDEST PUSH1 0x0 DUP1 PUSH1 0x40 DUP4 DUP6 SUB SLT ISZERO PUSH2 0x4260 JUMPI PUSH1 0x0 DUP1 REVERT JUMPDEST POP POP DUP1 CALLDATALOAD SWAP3 PUSH1 0x20 SWAP1 SWAP2 ADD CALLDATALOAD SWAP2 POP JUMP JUMPDEST PUSH1 0x0 DUP1 PUSH1 0x40 DUP4 DUP6 SUB SLT ISZERO PUSH2 0x4282 JUMPI PUSH1 0x0 DUP1 REVERT JUMPDEST PUSH2 0x428B DUP4 PUSH2 0x3B84 JUMP JUMPDEST SWAP2 POP PUSH1 0x20 DUP4 ADD CALLDATALOAD DUP1 ISZERO ISZERO DUP2 EQ PUSH2 0x42A0 JUMPI PUSH1 0x0 DUP1 REVERT JUMPDEST DUP1 SWAP2 POP POP SWAP3 POP SWAP3 SWAP1 POP JUMP JUMPDEST PUSH1 0x0 DUP1 PUSH1 0x0 DUP1 PUSH1 0x0 PUSH1 0xA0 DUP7 DUP9 SUB SLT ISZERO PUSH2 0x42C3 JUMPI PUSH1 0x0 DUP1 REVERT JUMPDEST PUSH2 0x42CC DUP7 PUSH2 0x3B84 JUMP JUMPDEST SWAP5 POP PUSH1 0x20 DUP7 ADD CALLDATALOAD SWAP4 POP PUSH1 0x40 DUP7 ADD CALLDATALOAD SWAP3 POP PUSH1 0x60 DUP7 ADD CALLDATALOAD PUSH1 0x1 PUSH1 0x1 PUSH1 0x40 SHL SUB DUP2 GT ISZERO PUSH2 0x42F5 JUMPI PUSH1 0x0 DUP1 REVERT JUMPDEST PUSH2 0x4301 DUP9 DUP3 DUP10 ADD PUSH2 0x3D06 JUMP JUMPDEST SWAP3 POP POP PUSH2 0x4310 PUSH1 0x80 DUP8 ADD PUSH2 0x3D79 JUMP JUMPDEST SWAP1 POP SWAP3 SWAP6 POP SWAP3 SWAP6 SWAP1 SWAP4 POP JUMP JUMPDEST PUSH1 0x0 DUP1 PUSH1 0x0 PUSH1 0x40 DUP5 DUP7 SUB SLT ISZERO PUSH2 0x4331 JUMPI PUSH1 0x0 DUP1 REVERT JUMPDEST PUSH2 0x433A DUP5 PUSH2 0x3B84 JUMP JUMPDEST SWAP3 POP PUSH1 0x20 DUP5 ADD CALLDATALOAD PUSH1 0x1 PUSH1 0x1 PUSH1 0x40 SHL SUB DUP2 GT ISZERO PUSH2 0x4355 JUMPI PUSH1 0x0 DUP1 REVERT JUMPDEST PUSH2 0x4361 DUP7 DUP3 DUP8 ADD PUSH2 0x3C79 JUMP JUMPDEST SWAP5 SWAP8 SWAP1 SWAP7 POP SWAP4 SWAP5 POP POP POP POP JUMP JUMPDEST PUSH1 0x0 DUP1 PUSH1 0x40 DUP4 DUP6 SUB SLT ISZERO PUSH2 0x4381 JUMPI PUSH1 0x0 DUP1 REVERT JUMPDEST PUSH2 0x438A DUP4 PUSH2 0x3B84 JUMP JUMPDEST SWAP2 POP PUSH2 0x4398 PUSH1 0x20 DUP5 ADD PUSH2 0x3B84 JUMP JUMPDEST SWAP1 POP SWAP3 POP SWAP3 SWAP1 POP JUMP JUMPDEST PUSH1 0x0 DUP1 PUSH1 0x0 DUP1 PUSH1 0x0 DUP1 PUSH1 0x0 PUSH1 0x80 DUP9 DUP11 SUB SLT ISZERO PUSH2 0x43BC JUMPI PUSH1 0x0 DUP1 REVERT JUMPDEST PUSH2 0x43C5 DUP9 PUSH2 0x3B84 JUMP JUMPDEST SWAP7 POP PUSH1 0x20 DUP9 ADD CALLDATALOAD PUSH1 0x1 PUSH1 0x1 PUSH1 0x40 SHL SUB DUP1 DUP3 GT ISZERO PUSH2 0x43E1 JUMPI PUSH1 0x0 DUP1 REVERT JUMPDEST PUSH2 0x43ED DUP12 DUP4 DUP13 ADD PUSH2 0x3C79 JUMP JUMPDEST SWAP1 SWAP9 POP SWAP7 POP PUSH1 0x40 DUP11 ADD CALLDATALOAD SWAP2 POP DUP1 DUP3 GT ISZERO PUSH2 0x4406 JUMPI PUSH1 0x0 DUP1 REVERT JUMPDEST PUSH2 0x4412 DUP12 DUP4 DUP13 ADD PUSH2 0x3C79 JUMP JUMPDEST SWAP1 SWAP7 POP SWAP5 POP PUSH1 0x60 DUP11 ADD CALLDATALOAD SWAP2 POP DUP1 DUP3 GT ISZERO PUSH2 0x442B JUMPI PUSH1 0x0 DUP1 REVERT JUMPDEST POP PUSH2 0x4438 DUP11 DUP3 DUP12 ADD PUSH2 0x3C79 JUMP JUMPDEST SWAP9 SWAP12 SWAP8 SWAP11 POP SWAP6 SWAP9 POP SWAP4 SWAP7 SWAP3 SWAP6 SWAP3 SWAP4 POP POP POP JUMP JUMPDEST PUSH1 0x0 DUP1 PUSH1 0x0 DUP1 PUSH1 0x0 PUSH1 0xA0 DUP7 DUP9 SUB SLT ISZERO PUSH2 0x4463 JUMPI PUSH1 0x0 DUP1 REVERT JUMPDEST PUSH2 0x446C DUP7 PUSH2 0x3B84 JUMP JUMPDEST SWAP5 POP PUSH2 0x447A PUSH1 0x20 DUP8 ADD PUSH2 0x3B84 JUMP JUMPDEST SWAP4 POP PUSH1 0x40 DUP7 ADD CALLDATALOAD SWAP3 POP PUSH1 0x60 DUP7 ADD CALLDATALOAD SWAP2 POP PUSH1 0x80 DUP7 ADD CALLDATALOAD PUSH1 0x1 PUSH1 0x1 PUSH1 0x40 SHL SUB DUP2 GT ISZERO PUSH2 0x44A3 JUMPI PUSH1 0x0 DUP1 REVERT JUMPDEST PUSH2 0x3F4A DUP9 DUP3 DUP10 ADD PUSH2 0x3D06 JUMP JUMPDEST PUSH1 0x0 DUP1 PUSH1 0x0 PUSH1 0x60 DUP5 DUP7 SUB SLT ISZERO PUSH2 0x44C4 JUMPI PUSH1 0x0 DUP1 REVERT JUMPDEST PUSH2 0x44CD DUP5 PUSH2 0x3B84 JUMP JUMPDEST SWAP6 PUSH1 0x20 DUP6 ADD CALLDATALOAD SWAP6 POP PUSH1 0x40 SWAP1 SWAP5 ADD CALLDATALOAD SWAP4 SWAP3 POP POP POP JUMP JUMPDEST PUSH1 0x0 DUP1 PUSH1 0x0 DUP1 PUSH1 0x80 DUP6 DUP8 SUB SLT ISZERO PUSH2 0x44F8 JUMPI PUSH1 0x0 DUP1 REVERT JUMPDEST PUSH2 0x4501 DUP6 PUSH2 0x3B84 JUMP JUMPDEST SWAP4 POP PUSH1 0x20 DUP6 ADD CALLDATALOAD SWAP3 POP PUSH1 0x40 DUP6 ADD CALLDATALOAD PUSH1 0x1 PUSH1 0x1 PUSH1 0x40 SHL SUB DUP2 GT ISZERO PUSH2 0x4523 JUMPI PUSH1 0x0 DUP1 REVERT JUMPDEST PUSH2 0x452F DUP8 DUP3 DUP9 ADD PUSH2 0x3D06 JUMP JUMPDEST SWAP3 POP POP PUSH2 0x453E PUSH1 0x60 DUP7 ADD PUSH2 0x3D79 JUMP JUMPDEST SWAP1 POP SWAP3 SWAP6 SWAP2 SWAP5 POP SWAP3 POP JUMP JUMPDEST PUSH4 0x4E487B71 PUSH1 0xE0 SHL PUSH1 0x0 MSTORE PUSH1 0x21 PUSH1 0x4 MSTORE PUSH1 0x24 PUSH1 0x0 REVERT JUMPDEST PUSH1 0x40 DUP2 MSTORE PUSH1 0x0 PUSH2 0x4572 PUSH1 0x40 DUP4 ADD DUP6 PUSH2 0x3C21 JUMP JUMPDEST SWAP1 POP DUP3 PUSH1 0x20 DUP4 ADD MSTORE SWAP4 SWAP3 POP POP POP JUMP JUMPDEST PUSH1 0x20 DUP1 DUP3 MSTORE PUSH1 0x2E SWAP1 DUP3 ADD MSTORE PUSH32 0x455243313135353A2063616C6C6572206973206E6F7420746F6B656E206F776E PUSH1 0x40 DUP3 ADD MSTORE PUSH14 0x195C881BDC88185C1C1C9BDD9959 PUSH1 0x92 SHL PUSH1 0x60 DUP3 ADD MSTORE PUSH1 0x80 ADD SWAP1 JUMP JUMPDEST PUSH1 0x20 DUP1 DUP3 MSTORE PUSH1 0x2C SWAP1 DUP3 ADD MSTORE PUSH32 0x46756E6374696F6E206D7573742062652063616C6C6564207468726F75676820 PUSH1 0x40 DUP3 ADD MSTORE PUSH12 0x19195B1959D85D1958D85B1B PUSH1 0xA2 SHL PUSH1 0x60 DUP3 ADD MSTORE PUSH1 0x80 ADD SWAP1 JUMP JUMPDEST PUSH1 0x20 DUP1 DUP3 MSTORE PUSH1 0x2C SWAP1 DUP3 ADD MSTORE PUSH32 0x46756E6374696F6E206D7573742062652063616C6C6564207468726F75676820 PUSH1 0x40 DUP3 ADD MSTORE PUSH12 0x6163746976652070726F7879 PUSH1 0xA0 SHL PUSH1 0x60 DUP3 ADD MSTORE PUSH1 0x80 ADD SWAP1 JUMP JUMPDEST PUSH4 0x4E487B71 PUSH1 0xE0 SHL PUSH1 0x0 MSTORE PUSH1 0x32 PUSH1 0x4 MSTORE PUSH1 0x24 PUSH1 0x0 REVERT JUMPDEST PUSH4 0x4E487B71 PUSH1 0xE0 SHL PUSH1 0x0 MSTORE PUSH1 0x11 PUSH1 0x4 MSTORE PUSH1 0x24 PUSH1 0x0 REVERT JUMPDEST PUSH1 0x0 PUSH1 0x1 DUP3 ADD PUSH2 0x46A5 JUMPI PUSH2 0x46A5 PUSH2 0x467D JUMP JUMPDEST POP PUSH1 0x1 ADD SWAP1 JUMP JUMPDEST PUSH1 0x20 DUP1 DUP3 MSTORE PUSH1 0x2B SWAP1 DUP3 ADD MSTORE PUSH32 0x496E697469616C697A61626C653A20636F6E7472616374206973206E6F742069 PUSH1 0x40 DUP3 ADD MSTORE PUSH11 0x6E697469616C697A696E67 PUSH1 0xA8 SHL PUSH1 0x60 DUP3 ADD MSTORE PUSH1 0x80 ADD SWAP1 JUMP JUMPDEST PUSH1 0x0 DUP1 DUP4 CALLDATALOAD PUSH1 0x1E NOT DUP5 CALLDATASIZE SUB ADD DUP2 SLT PUSH2 0x470E JUMPI PUSH1 0x0 DUP1 REVERT JUMPDEST DUP4 ADD DUP1 CALLDATALOAD SWAP2 POP PUSH1 0x1 PUSH1 0x1 PUSH1 0x40 SHL SUB DUP3 GT ISZERO PUSH2 0x4728 JUMPI PUSH1 0x0 DUP1 REVERT JUMPDEST PUSH1 0x20 ADD SWAP2 POP PUSH1 0x5 DUP2 SWAP1 SHL CALLDATASIZE SUB DUP3 SGT ISZERO PUSH2 0x3CBD JUMPI PUSH1 0x0 DUP1 REVERT JUMPDEST DUP1 DUP3 ADD DUP1 DUP3 GT ISZERO PUSH2 0x79E JUMPI PUSH2 0x79E PUSH2 0x467D JUMP JUMPDEST PUSH1 0x20 DUP1 DUP3 MSTORE PUSH1 0x28 SWAP1 DUP3 ADD MSTORE PUSH32 0x455243313135353A2069647320616E6420616D6F756E7473206C656E67746820 PUSH1 0x40 DUP3 ADD MSTORE PUSH8 0xDAD2E6DAC2E8C6D PUSH1 0xC3 SHL PUSH1 0x60 DUP3 ADD MSTORE PUSH1 0x80 ADD SWAP1 JUMP JUMPDEST PUSH1 0x20 DUP1 DUP3 MSTORE PUSH1 0x25 SWAP1 DUP3 ADD MSTORE PUSH32 0x455243313135353A207472616E7366657220746F20746865207A65726F206164 PUSH1 0x40 DUP3 ADD MSTORE PUSH5 0x6472657373 PUSH1 0xD8 SHL PUSH1 0x60 DUP3 ADD MSTORE PUSH1 0x80 ADD SWAP1 JUMP JUMPDEST PUSH1 0x20 DUP1 DUP3 MSTORE PUSH1 0x2A SWAP1 DUP3 ADD MSTORE PUSH32 0x455243313135353A20696E73756666696369656E742062616C616E636520666F PUSH1 0x40 DUP3 ADD MSTORE PUSH10 0x39103A3930B739B332B9 PUSH1 0xB1 SHL PUSH1 0x60 DUP3 ADD MSTORE PUSH1 0x80 ADD SWAP1 JUMP JUMPDEST PUSH1 0x40 DUP2 MSTORE PUSH1 0x0 PUSH2 0x483D PUSH1 0x40 DUP4 ADD DUP6 PUSH2 0x408C JUMP JUMPDEST DUP3 DUP2 SUB PUSH1 0x20 DUP5 ADD MSTORE PUSH2 0xA6B DUP2 DUP6 PUSH2 0x408C JUMP JUMPDEST PUSH1 0x0 PUSH1 0x20 DUP3 DUP5 SUB SLT ISZERO PUSH2 0x4861 JUMPI PUSH1 0x0 DUP1 REVERT JUMPDEST POP MLOAD SWAP2 SWAP1 POP JUMP JUMPDEST PUSH1 0x20 DUP1 DUP3 MSTORE PUSH1 0x23 SWAP1 DUP3 ADD MSTORE PUSH32 0x455243313135353A206275726E2066726F6D20746865207A65726F2061646472 PUSH1 0x40 DUP3 ADD MSTORE PUSH3 0x657373 PUSH1 0xE8 SHL PUSH1 0x60 DUP3 ADD MSTORE PUSH1 0x80 ADD SWAP1 JUMP JUMPDEST PUSH1 0x20 DUP1 DUP3 MSTORE PUSH1 0x24 SWAP1 DUP3 ADD MSTORE PUSH32 0x455243313135353A206275726E20616D6F756E7420657863656564732062616C PUSH1 0x40 DUP3 ADD MSTORE PUSH4 0x616E6365 PUSH1 0xE0 SHL PUSH1 0x60 DUP3 ADD MSTORE PUSH1 0x80 ADD SWAP1 JUMP JUMPDEST DUP2 DUP2 SUB DUP2 DUP2 GT ISZERO PUSH2 0x79E JUMPI PUSH2 0x79E PUSH2 0x467D JUMP JUMPDEST PUSH1 0x80 DUP2 MSTORE PUSH1 0x0 PUSH2 0x4915 PUSH1 0x80 DUP4 ADD DUP8 PUSH2 0x408C JUMP JUMPDEST DUP3 DUP2 SUB PUSH1 0x20 DUP5 ADD MSTORE PUSH2 0x4927 DUP2 DUP8 PUSH2 0x408C JUMP JUMPDEST SWAP1 POP DUP3 DUP2 SUB PUSH1 0x40 DUP5 ADD MSTORE PUSH2 0x493B DUP2 DUP7 PUSH2 0x408C JUMP JUMPDEST SWAP1 POP DUP3 DUP2 SUB PUSH1 0x60 DUP5 ADD MSTORE PUSH2 0x494F DUP2 DUP6 PUSH2 0x408C JUMP JUMPDEST SWAP8 SWAP7 POP POP POP POP POP POP POP JUMP JUMPDEST DUP2 DUP4 MSTORE PUSH1 0x0 PUSH1 0x1 PUSH1 0x1 PUSH1 0xFB SHL SUB DUP4 GT ISZERO PUSH2 0x4973 JUMPI PUSH1 0x0 DUP1 REVERT JUMPDEST DUP3 PUSH1 0x5 SHL DUP1 DUP4 PUSH1 0x20 DUP8 ADD CALLDATACOPY SWAP4 SWAP1 SWAP4 ADD PUSH1 0x20 ADD SWAP4 SWAP3 POP POP POP JUMP JUMPDEST PUSH1 0x80 DUP2 MSTORE PUSH1 0x0 PUSH2 0x49A0 PUSH1 0x80 DUP4 ADD DUP9 DUP11 PUSH2 0x495A JUMP JUMPDEST DUP3 DUP2 SUB PUSH1 0x20 DUP5 ADD MSTORE PUSH2 0x49B2 DUP2 DUP9 PUSH2 0x408C JUMP JUMPDEST SWAP1 POP DUP3 DUP2 SUB PUSH1 0x40 DUP5 ADD MSTORE PUSH2 0x49C6 DUP2 DUP8 PUSH2 0x408C JUMP JUMPDEST SWAP1 POP DUP3 DUP2 SUB PUSH1 0x60 DUP5 ADD MSTORE PUSH2 0x49DB DUP2 DUP6 DUP8 PUSH2 0x495A JUMP JUMPDEST SWAP10 SWAP9 POP POP POP POP POP POP POP POP POP JUMP JUMPDEST PUSH1 0x1 DUP2 DUP2 SHR SWAP1 DUP3 AND DUP1 PUSH2 0x49FC JUMPI PUSH1 0x7F DUP3 AND SWAP2 POP JUMPDEST PUSH1 0x20 DUP3 LT DUP2 SUB PUSH2 0x4A1C JUMPI PUSH4 0x4E487B71 PUSH1 0xE0 SHL PUSH1 0x0 MSTORE PUSH1 0x22 PUSH1 0x4 MSTORE PUSH1 0x24 PUSH1 0x0 REVERT JUMPDEST POP SWAP2 SWAP1 POP JUMP JUMPDEST PUSH1 0x0 DUP1 DUP5 SLOAD PUSH2 0x4A30 DUP2 PUSH2 0x49E8 JUMP JUMPDEST PUSH1 0x1 DUP3 DUP2 AND DUP1 ISZERO PUSH2 0x4A48 JUMPI PUSH1 0x1 DUP2 EQ PUSH2 0x4A5D JUMPI PUSH2 0x4A8C JUMP JUMPDEST PUSH1 0xFF NOT DUP5 AND DUP8 MSTORE DUP3 ISZERO ISZERO DUP4 MUL DUP8 ADD SWAP5 POP PUSH2 0x4A8C JUMP JUMPDEST DUP9 PUSH1 0x0 MSTORE PUSH1 0x20 DUP1 PUSH1 0x0 KECCAK256 PUSH1 0x0 JUMPDEST DUP6 DUP2 LT ISZERO PUSH2 0x4A83 JUMPI DUP2 SLOAD DUP11 DUP3 ADD MSTORE SWAP1 DUP5 ADD SWAP1 DUP3 ADD PUSH2 0x4A6A JUMP JUMPDEST POP POP POP DUP3 DUP8 ADD SWAP5 POP JUMPDEST POP POP POP POP DUP4 MLOAD PUSH2 0x4AA0 DUP2 DUP4 PUSH1 0x20 DUP9 ADD PUSH2 0x3BFD JUMP JUMPDEST ADD SWAP5 SWAP4 POP POP POP POP JUMP JUMPDEST PUSH1 0x1 PUSH1 0x1 PUSH1 0xA0 SHL SUB DUP7 DUP2 AND DUP3 MSTORE DUP6 AND PUSH1 0x20 DUP3 ADD MSTORE PUSH1 0xA0 PUSH1 0x40 DUP3 ADD DUP2 SWAP1 MSTORE PUSH1 0x0 SWAP1 PUSH2 0x4AD5 SWAP1 DUP4 ADD DUP7 PUSH2 0x408C JUMP JUMPDEST DUP3 DUP2 SUB PUSH1 0x60 DUP5 ADD MSTORE PUSH2 0x4AE7 DUP2 DUP7 PUSH2 0x408C JUMP JUMPDEST SWAP1 POP DUP3 DUP2 SUB PUSH1 0x80 DUP5 ADD MSTORE PUSH2 0x4AFB DUP2 DUP6 PUSH2 0x3C21 JUMP JUMPDEST SWAP9 SWAP8 POP POP POP POP POP POP POP POP JUMP JUMPDEST PUSH1 0x0 PUSH1 0x20 DUP3 DUP5 SUB SLT ISZERO PUSH2 0x4B19 JUMPI PUSH1 0x0 DUP1 REVERT JUMPDEST DUP2 MLOAD PUSH2 0x80B DUP2 PUSH2 0x3BCA JUMP JUMPDEST PUSH1 0x0 PUSH1 0x3 RETURNDATASIZE GT ISZERO PUSH2 0xE2F JUMPI PUSH1 0x4 PUSH1 0x0 DUP1 RETURNDATACOPY POP PUSH1 0x0 MLOAD PUSH1 0xE0 SHR SWAP1 JUMP JUMPDEST PUSH1 0x0 PUSH1 0x44 RETURNDATASIZE LT ISZERO PUSH2 0x4B4D JUMPI SWAP1 JUMP JUMPDEST PUSH1 0x40 MLOAD PUSH1 0x3 NOT RETURNDATASIZE DUP2 ADD PUSH1 0x4 DUP4 RETURNDATACOPY DUP2 MLOAD RETURNDATASIZE PUSH1 0x1 PUSH1 0x1 PUSH1 0x40 SHL SUB DUP2 PUSH1 0x24 DUP5 ADD GT DUP2 DUP5 GT OR ISZERO PUSH2 0x4B7C JUMPI POP POP POP POP POP SWAP1 JUMP JUMPDEST DUP3 DUP6 ADD SWAP2 POP DUP2 MLOAD DUP2 DUP2 GT ISZERO PUSH2 0x4B94 JUMPI POP POP POP POP POP POP SWAP1 JUMP JUMPDEST DUP5 RETURNDATASIZE DUP8 ADD ADD PUSH1 0x20 DUP3 DUP6 ADD ADD GT ISZERO PUSH2 0x4BAE JUMPI POP POP POP POP POP POP SWAP1 JUMP JUMPDEST PUSH2 0x4BBD PUSH1 0x20 DUP3 DUP7 ADD ADD DUP8 PUSH2 0x3CDA JUMP JUMPDEST POP SWAP1 SWAP6 SWAP5 POP POP POP POP POP JUMP JUMPDEST PUSH1 0x20 DUP1 DUP3 MSTORE PUSH1 0x28 SWAP1 DUP3 ADD MSTORE PUSH32 0x455243313135353A204552433131353552656365697665722072656A65637465 PUSH1 0x40 DUP3 ADD MSTORE PUSH8 0x6420746F6B656E73 PUSH1 0xC0 SHL PUSH1 0x60 DUP3 ADD MSTORE PUSH1 0x80 ADD SWAP1 JUMP JUMPDEST PUSH1 0x0 PUSH1 0x1 PUSH1 0x1 PUSH1 0x80 SHL SUB DUP1 DUP4 AND DUP2 DUP2 SUB PUSH2 0x4C2C JUMPI PUSH2 0x4C2C PUSH2 0x467D JUMP JUMPDEST PUSH1 0x1 ADD SWAP4 SWAP3 POP POP POP JUMP JUMPDEST PUSH1 0x20 DUP1 DUP3 MSTORE PUSH1 0x21 SWAP1 DUP3 ADD MSTORE PUSH32 0x455243313135353A206D696E7420746F20746865207A65726F20616464726573 PUSH1 0x40 DUP3 ADD MSTORE PUSH1 0x73 PUSH1 0xF8 SHL PUSH1 0x60 DUP3 ADD MSTORE PUSH1 0x80 ADD SWAP1 JUMP JUMPDEST PUSH1 0x1F DUP3 GT ISZERO PUSH2 0xE75 JUMPI PUSH1 0x0 DUP2 DUP2 MSTORE PUSH1 0x20 DUP2 KECCAK256 PUSH1 0x1F DUP6 ADD PUSH1 0x5 SHR DUP2 ADD PUSH1 0x20 DUP7 LT ISZERO PUSH2 0x4C9E JUMPI POP DUP1 JUMPDEST PUSH1 0x1F DUP6 ADD PUSH1 0x5 SHR DUP3 ADD SWAP2 POP JUMPDEST DUP2 DUP2 LT ISZERO PUSH2 0x104C JUMPI DUP3 DUP2 SSTORE PUSH1 0x1 ADD PUSH2 0x4CAA JUMP JUMPDEST DUP2 MLOAD PUSH1 0x1 PUSH1 0x1 PUSH1 0x40 SHL SUB DUP2 GT ISZERO PUSH2 0x4CD6 JUMPI PUSH2 0x4CD6 PUSH2 0x3CC4 JUMP JUMPDEST PUSH2 0x4CEA DUP2 PUSH2 0x4CE4 DUP5 SLOAD PUSH2 0x49E8 JUMP JUMPDEST DUP5 PUSH2 0x4C77 JUMP JUMPDEST PUSH1 0x20 DUP1 PUSH1 0x1F DUP4 GT PUSH1 0x1 DUP2 EQ PUSH2 0x4D1F JUMPI PUSH1 0x0 DUP5 ISZERO PUSH2 0x4D07 JUMPI POP DUP6 DUP4 ADD MLOAD JUMPDEST PUSH1 0x0 NOT PUSH1 0x3 DUP7 SWAP1 SHL SHR NOT AND PUSH1 0x1 DUP6 SWAP1 SHL OR DUP6 SSTORE PUSH2 0x104C JUMP JUMPDEST PUSH1 0x0 DUP6 DUP2 MSTORE PUSH1 0x20 DUP2 KECCAK256 PUSH1 0x1F NOT DUP7 AND SWAP2 JUMPDEST DUP3 DUP2 LT ISZERO PUSH2 0x4D4E JUMPI DUP9 DUP7 ADD MLOAD DUP3 SSTORE SWAP5 DUP5 ADD SWAP5 PUSH1 0x1 SWAP1 SWAP2 ADD SWAP1 DUP5 ADD PUSH2 0x4D2F JUMP JUMPDEST POP DUP6 DUP3 LT ISZERO PUSH2 0x4D6C JUMPI DUP8 DUP6 ADD MLOAD PUSH1 0x0 NOT PUSH1 0x3 DUP9 SWAP1 SHL PUSH1 0xF8 AND SHR NOT AND DUP2 SSTORE JUMPDEST POP POP POP POP POP PUSH1 0x1 SWAP1 DUP2 SHL ADD SWAP1 SSTORE POP JUMP JUMPDEST PUSH1 0x1 PUSH1 0x1 PUSH1 0xA0 SHL SUB DUP7 DUP2 AND DUP3 MSTORE DUP6 AND PUSH1 0x20 DUP3 ADD MSTORE PUSH1 0x40 DUP2 ADD DUP5 SWAP1 MSTORE PUSH1 0x60 DUP2 ADD DUP4 SWAP1 MSTORE PUSH1 0xA0 PUSH1 0x80 DUP3 ADD DUP2 SWAP1 MSTORE PUSH1 0x0 SWAP1 PUSH2 0x494F SWAP1 DUP4 ADD DUP5 PUSH2 0x3C21 JUMP JUMPDEST PUSH1 0x0 DUP3 MLOAD PUSH2 0x4DC8 DUP2 DUP5 PUSH1 0x20 DUP8 ADD PUSH2 0x3BFD JUMP JUMPDEST SWAP2 SWAP1 SWAP2 ADD SWAP3 SWAP2 POP POP JUMP INVALID 0xC3 0xD5 DUP2 PUSH9 0xC5AE7397731D063D5B 0xBF RETURNDATASIZE PUSH6 0x7854427343F4 0xC0 DUP4 0x24 0xF PUSH27 0xACAA2D0F62360894A13BA1A3210667C828492DB98DCA3E2076CC37 CALLDATALOAD 0xA9 KECCAK256 LOG3 0xCA POP 0x5D CODESIZE 0x2B 0xBC COINBASE PUSH5 0x6472657373 GASPRICE KECCAK256 PUSH13 0x6F772D6C6576656C2064656C65 PUSH8 0x6174652063616C6C KECCAK256 PUSH7 0x61696C6564A264 PUSH10 0x706673582212206BD918 DUP11 PUSH16 0x25751CF80512AE83EBF5E8F8870EEF2A LOG1 MSTORE 0xAE RETURNDATASIZE 0xFC STOP DUP16 0xE6 DUP3 0xEA CALLDATACOPY PUSH5 0x736F6C6343 STOP ADDMOD LT STOP CALLER "
		},
		"gasEstimates": {
			"creation": {
				"codeDepositCost": "4015800",
				"executionCost": "infinite",
				"totalCost": "infinite"
			},
			"external": {
				"__SemiFungible1155_init()": "infinite",
				"balanceOf(address,uint256)": "2726",
				"balanceOfBatch(address[],uint256[])": "infinite",
				"batchMintClaimsFromAllowlists(address,bytes32[][],uint256[],uint256[])": "infinite",
				"burn(address,uint256,uint256)": "infinite",
				"burnBatch(address,uint256[],uint256[])": "infinite",
				"burnFraction(address,uint256)": "infinite",
				"createAllowlist(address,uint256,bytes32,string,uint8)": "infinite",
				"hasBeenClaimed(uint256,bytes32)": "2656",
				"initialize()": "infinite",
				"isAllowedToClaim(bytes32[],uint256,bytes32)": "infinite",
				"isApprovedForAll(address,address)": "infinite",
				"mergeFractions(address,uint256[])": "infinite",
				"mintClaim(address,uint256,string,uint8)": "infinite",
				"mintClaimFromAllowlist(address,bytes32[],uint256,uint256)": "infinite",
				"mintClaimWithFractions(address,uint256,uint256[],string,uint8)": "infinite",
				"name()": "infinite",
				"owner()": "2443",
				"ownerOf(uint256)": "2566",
				"pause()": "infinite",
				"paused()": "2371",
				"proxiableUUID()": "infinite",
				"readTransferRestriction(uint256)": "infinite",
				"renounceOwnership()": "infinite",
				"safeBatchTransferFrom(address,address,uint256[],uint256[],bytes)": "infinite",
				"safeTransferFrom(address,address,uint256,uint256,bytes)": "infinite",
				"setApprovalForAll(address,bool)": "26816",
				"splitFraction(address,uint256,uint256[])": "infinite",
				"supportsInterface(bytes4)": "601",
				"transferOwnership(address)": "28402",
				"unitsOf(address,uint256)": "4854",
				"unitsOf(uint256)": "2547",
				"unpause()": "infinite",
				"upgradeTo(address)": "infinite",
				"upgradeToAndCall(address,bytes)": "infinite",
				"uri(uint256)": "infinite"
			},
			"internal": {
				"_authorizeUpgrade(address)": "infinite",
				"_beforeTokenTransfer(address,address,address,uint256[] memory,uint256[] memory,bytes memory)": "infinite"
			}
		},
		"methodIdentifiers": {
			"__SemiFungible1155_init()": "8fc202dd",
			"balanceOf(address,uint256)": "00fdd58e",
			"balanceOfBatch(address[],uint256[])": "4e1273f4",
			"batchMintClaimsFromAllowlists(address,bytes32[][],uint256[],uint256[])": "f1169062",
			"burn(address,uint256,uint256)": "f5298aca",
			"burnBatch(address,uint256[],uint256[])": "6b20c454",
			"burnFraction(address,uint256)": "f6b12293",
			"createAllowlist(address,uint256,bytes32,string,uint8)": "b316962f",
			"hasBeenClaimed(uint256,bytes32)": "a21ed980",
			"initialize()": "8129fc1c",
			"isAllowedToClaim(bytes32[],uint256,bytes32)": "3e11eefe",
			"isApprovedForAll(address,address)": "e985e9c5",
			"mergeFractions(address,uint256[])": "c7b26c54",
			"mintClaim(address,uint256,string,uint8)": "fda4823c",
			"mintClaimFromAllowlist(address,bytes32[],uint256,uint256)": "993de184",
			"mintClaimWithFractions(address,uint256,uint256[],string,uint8)": "1e75a8b5",
			"name()": "06fdde03",
			"owner()": "8da5cb5b",
			"ownerOf(uint256)": "6352211e",
			"pause()": "8456cb59",
			"paused()": "5c975abb",
			"proxiableUUID()": "52d1902d",
			"readTransferRestriction(uint256)": "3f71e944",
			"renounceOwnership()": "715018a6",
			"safeBatchTransferFrom(address,address,uint256[],uint256[],bytes)": "2eb2c2d6",
			"safeTransferFrom(address,address,uint256,uint256,bytes)": "f242432a",
			"setApprovalForAll(address,bool)": "a22cb465",
			"splitFraction(address,uint256,uint256[])": "6ebd893f",
			"supportsInterface(bytes4)": "01ffc9a7",
			"transferOwnership(address)": "f2fde38b",
			"unitsOf(address,uint256)": "1a2e9824",
			"unitsOf(uint256)": "99f771a7",
			"unpause()": "3f4ba83a",
			"upgradeTo(address)": "3659cfe6",
			"upgradeToAndCall(address,bytes)": "4f1ef286",
			"uri(uint256)": "0e89341c"
		}
	},
	"abi": [
		{
			"inputs": [],
			"stateMutability": "nonpayable",
			"type": "constructor"
		},
		{
			"inputs": [],
			"name": "AlreadyClaimed",
			"type": "error"
		},
		{
			"inputs": [],
			"name": "ArraySize",
			"type": "error"
		},
		{
			"inputs": [],
			"name": "DoesNotExist",
			"type": "error"
		},
		{
			"inputs": [],
			"name": "DuplicateEntry",
			"type": "error"
		},
		{
			"inputs": [],
			"name": "Invalid",
			"type": "error"
		},
		{
			"inputs": [],
			"name": "NotAllowed",
			"type": "error"
		},
		{
			"inputs": [],
			"name": "NotApprovedOrOwner",
			"type": "error"
		},
		{
			"inputs": [],
			"name": "TransfersNotAllowed",
			"type": "error"
		},
		{
			"inputs": [],
			"name": "TypeMismatch",
			"type": "error"
		},
		{
			"anonymous": false,
			"inputs": [
				{
					"indexed": false,
					"internalType": "address",
					"name": "previousAdmin",
					"type": "address"
				},
				{
					"indexed": false,
					"internalType": "address",
					"name": "newAdmin",
					"type": "address"
				}
			],
			"name": "AdminChanged",
			"type": "event"
		},
		{
			"anonymous": false,
			"inputs": [
				{
					"indexed": false,
					"internalType": "uint256",
					"name": "tokenID",
					"type": "uint256"
				},
				{
					"indexed": false,
					"internalType": "bytes32",
					"name": "root",
					"type": "bytes32"
				}
			],
			"name": "AllowlistCreated",
			"type": "event"
		},
		{
			"anonymous": false,
			"inputs": [
				{
					"indexed": true,
					"internalType": "address",
					"name": "account",
					"type": "address"
				},
				{
					"indexed": true,
					"internalType": "address",
					"name": "operator",
					"type": "address"
				},
				{
					"indexed": false,
					"internalType": "bool",
					"name": "approved",
					"type": "bool"
				}
			],
			"name": "ApprovalForAll",
			"type": "event"
		},
		{
			"anonymous": false,
			"inputs": [
				{
					"indexed": false,
					"internalType": "uint256[]",
					"name": "claimIDs",
					"type": "uint256[]"
				},
				{
					"indexed": false,
					"internalType": "uint256[]",
					"name": "fromTokenIDs",
					"type": "uint256[]"
				},
				{
					"indexed": false,
					"internalType": "uint256[]",
					"name": "toTokenIDs",
					"type": "uint256[]"
				},
				{
					"indexed": false,
					"internalType": "uint256[]",
					"name": "values",
					"type": "uint256[]"
				}
			],
			"name": "BatchValueTransfer",
			"type": "event"
		},
		{
			"anonymous": false,
			"inputs": [
				{
					"indexed": true,
					"internalType": "address",
					"name": "beacon",
					"type": "address"
				}
			],
			"name": "BeaconUpgraded",
			"type": "event"
		},
		{
			"anonymous": false,
			"inputs": [
				{
					"indexed": true,
					"internalType": "uint256",
					"name": "claimID",
					"type": "uint256"
				},
				{
					"indexed": false,
					"internalType": "string",
					"name": "uri",
					"type": "string"
				},
				{
					"indexed": false,
					"internalType": "uint256",
					"name": "totalUnits",
					"type": "uint256"
				}
			],
			"name": "ClaimStored",
			"type": "event"
		},
		{
			"anonymous": false,
			"inputs": [
				{
					"indexed": false,
					"internalType": "uint8",
					"name": "version",
					"type": "uint8"
				}
			],
			"name": "Initialized",
			"type": "event"
		},
		{
			"anonymous": false,
			"inputs": [
				{
					"indexed": false,
					"internalType": "uint256",
					"name": "tokenID",
					"type": "uint256"
				},
				{
					"indexed": false,
					"internalType": "bytes32",
					"name": "leaf",
					"type": "bytes32"
				}
			],
			"name": "LeafClaimed",
			"type": "event"
		},
		{
			"anonymous": false,
			"inputs": [
				{
					"indexed": true,
					"internalType": "address",
					"name": "previousOwner",
					"type": "address"
				},
				{
					"indexed": true,
					"internalType": "address",
					"name": "newOwner",
					"type": "address"
				}
			],
			"name": "OwnershipTransferred",
			"type": "event"
		},
		{
			"anonymous": false,
			"inputs": [
				{
					"indexed": false,
					"internalType": "address",
					"name": "account",
					"type": "address"
				}
			],
			"name": "Paused",
			"type": "event"
		},
		{
			"anonymous": false,
			"inputs": [
				{
					"indexed": true,
					"internalType": "address",
					"name": "operator",
					"type": "address"
				},
				{
					"indexed": true,
					"internalType": "address",
					"name": "from",
					"type": "address"
				},
				{
					"indexed": true,
					"internalType": "address",
					"name": "to",
					"type": "address"
				},
				{
					"indexed": false,
					"internalType": "uint256[]",
					"name": "ids",
					"type": "uint256[]"
				},
				{
					"indexed": false,
					"internalType": "uint256[]",
					"name": "values",
					"type": "uint256[]"
				}
			],
			"name": "TransferBatch",
			"type": "event"
		},
		{
			"anonymous": false,
			"inputs": [
				{
					"indexed": true,
					"internalType": "address",
					"name": "operator",
					"type": "address"
				},
				{
					"indexed": true,
					"internalType": "address",
					"name": "from",
					"type": "address"
				},
				{
					"indexed": true,
					"internalType": "address",
					"name": "to",
					"type": "address"
				},
				{
					"indexed": false,
					"internalType": "uint256",
					"name": "id",
					"type": "uint256"
				},
				{
					"indexed": false,
					"internalType": "uint256",
					"name": "value",
					"type": "uint256"
				}
			],
			"name": "TransferSingle",
			"type": "event"
		},
		{
			"anonymous": false,
			"inputs": [
				{
					"indexed": false,
					"internalType": "string",
					"name": "value",
					"type": "string"
				},
				{
					"indexed": true,
					"internalType": "uint256",
					"name": "id",
					"type": "uint256"
				}
			],
			"name": "URI",
			"type": "event"
		},
		{
			"anonymous": false,
			"inputs": [
				{
					"indexed": false,
					"internalType": "address",
					"name": "account",
					"type": "address"
				}
			],
			"name": "Unpaused",
			"type": "event"
		},
		{
			"anonymous": false,
			"inputs": [
				{
					"indexed": true,
					"internalType": "address",
					"name": "implementation",
					"type": "address"
				}
			],
			"name": "Upgraded",
			"type": "event"
		},
		{
			"anonymous": false,
			"inputs": [
				{
					"indexed": false,
					"internalType": "uint256",
					"name": "claimID",
					"type": "uint256"
				},
				{
					"indexed": false,
					"internalType": "uint256",
					"name": "fromTokenID",
					"type": "uint256"
				},
				{
					"indexed": false,
					"internalType": "uint256",
					"name": "toTokenID",
					"type": "uint256"
				},
				{
					"indexed": false,
					"internalType": "uint256",
					"name": "value",
					"type": "uint256"
				}
			],
			"name": "ValueTransfer",
			"type": "event"
		},
		{
			"inputs": [],
			"name": "__SemiFungible1155_init",
			"outputs": [],
			"stateMutability": "nonpayable",
			"type": "function"
		},
		{
			"inputs": [
				{
					"internalType": "address",
					"name": "account",
					"type": "address"
				},
				{
					"internalType": "uint256",
					"name": "id",
					"type": "uint256"
				}
			],
			"name": "balanceOf",
			"outputs": [
				{
					"internalType": "uint256",
					"name": "",
					"type": "uint256"
				}
			],
			"stateMutability": "view",
			"type": "function"
		},
		{
			"inputs": [
				{
					"internalType": "address[]",
					"name": "accounts",
					"type": "address[]"
				},
				{
					"internalType": "uint256[]",
					"name": "ids",
					"type": "uint256[]"
				}
			],
			"name": "balanceOfBatch",
			"outputs": [
				{
					"internalType": "uint256[]",
					"name": "",
					"type": "uint256[]"
				}
			],
			"stateMutability": "view",
			"type": "function"
		},
		{
			"inputs": [
				{
					"internalType": "address",
					"name": "account",
					"type": "address"
				},
				{
					"internalType": "bytes32[][]",
					"name": "proofs",
					"type": "bytes32[][]"
				},
				{
					"internalType": "uint256[]",
					"name": "claimIDs",
					"type": "uint256[]"
				},
				{
					"internalType": "uint256[]",
					"name": "units",
					"type": "uint256[]"
				}
			],
			"name": "batchMintClaimsFromAllowlists",
			"outputs": [],
			"stateMutability": "nonpayable",
			"type": "function"
		},
		{
			"inputs": [
				{
					"internalType": "address",
					"name": "account",
					"type": "address"
				},
				{
					"internalType": "uint256",
					"name": "id",
					"type": "uint256"
				},
				{
					"internalType": "uint256",
					"name": "value",
					"type": "uint256"
				}
			],
			"name": "burn",
			"outputs": [],
			"stateMutability": "nonpayable",
			"type": "function"
		},
		{
			"inputs": [
				{
					"internalType": "address",
					"name": "account",
					"type": "address"
				},
				{
					"internalType": "uint256[]",
					"name": "ids",
					"type": "uint256[]"
				},
				{
					"internalType": "uint256[]",
					"name": "values",
					"type": "uint256[]"
				}
			],
			"name": "burnBatch",
			"outputs": [],
			"stateMutability": "nonpayable",
			"type": "function"
		},
		{
			"inputs": [
				{
					"internalType": "address",
					"name": "_account",
					"type": "address"
				},
				{
					"internalType": "uint256",
					"name": "_tokenID",
					"type": "uint256"
				}
			],
			"name": "burnFraction",
			"outputs": [],
			"stateMutability": "nonpayable",
			"type": "function"
		},
		{
			"inputs": [
				{
					"internalType": "address",
					"name": "account",
					"type": "address"
				},
				{
					"internalType": "uint256",
					"name": "units",
					"type": "uint256"
				},
				{
					"internalType": "bytes32",
					"name": "merkleRoot",
					"type": "bytes32"
				},
				{
					"internalType": "string",
					"name": "_uri",
					"type": "string"
				},
				{
					"internalType": "enum IHypercertToken.TransferRestrictions",
					"name": "restrictions",
					"type": "uint8"
				}
			],
			"name": "createAllowlist",
			"outputs": [],
			"stateMutability": "nonpayable",
			"type": "function"
		},
		{
			"inputs": [
				{
					"internalType": "uint256",
					"name": "",
					"type": "uint256"
				},
				{
					"internalType": "bytes32",
					"name": "",
					"type": "bytes32"
				}
			],
			"name": "hasBeenClaimed",
			"outputs": [
				{
					"internalType": "bool",
					"name": "",
					"type": "bool"
				}
			],
			"stateMutability": "view",
			"type": "function"
		},
		{
			"inputs": [],
			"name": "initialize",
			"outputs": [],
			"stateMutability": "nonpayable",
			"type": "function"
		},
		{
			"inputs": [
				{
					"internalType": "bytes32[]",
					"name": "proof",
					"type": "bytes32[]"
				},
				{
					"internalType": "uint256",
					"name": "claimID",
					"type": "uint256"
				},
				{
					"internalType": "bytes32",
					"name": "leaf",
					"type": "bytes32"
				}
			],
			"name": "isAllowedToClaim",
			"outputs": [
				{
					"internalType": "bool",
					"name": "isAllowed",
					"type": "bool"
				}
			],
			"stateMutability": "view",
			"type": "function"
		},
		{
			"inputs": [
				{
					"internalType": "address",
					"name": "account",
					"type": "address"
				},
				{
					"internalType": "address",
					"name": "operator",
					"type": "address"
				}
			],
			"name": "isApprovedForAll",
			"outputs": [
				{
					"internalType": "bool",
					"name": "",
					"type": "bool"
				}
			],
			"stateMutability": "view",
			"type": "function"
		},
		{
			"inputs": [
				{
					"internalType": "address",
					"name": "_account",
					"type": "address"
				},
				{
					"internalType": "uint256[]",
					"name": "_fractionIDs",
					"type": "uint256[]"
				}
			],
			"name": "mergeFractions",
			"outputs": [],
			"stateMutability": "nonpayable",
			"type": "function"
		},
		{
			"inputs": [
				{
					"internalType": "address",
					"name": "account",
					"type": "address"
				},
				{
					"internalType": "uint256",
					"name": "units",
					"type": "uint256"
				},
				{
					"internalType": "string",
					"name": "_uri",
					"type": "string"
				},
				{
					"internalType": "enum IHypercertToken.TransferRestrictions",
					"name": "restrictions",
					"type": "uint8"
				}
			],
			"name": "mintClaim",
			"outputs": [],
			"stateMutability": "nonpayable",
			"type": "function"
		},
		{
			"inputs": [
				{
					"internalType": "address",
					"name": "account",
					"type": "address"
				},
				{
					"internalType": "bytes32[]",
					"name": "proof",
					"type": "bytes32[]"
				},
				{
					"internalType": "uint256",
					"name": "claimID",
					"type": "uint256"
				},
				{
					"internalType": "uint256",
					"name": "units",
					"type": "uint256"
				}
			],
			"name": "mintClaimFromAllowlist",
			"outputs": [],
			"stateMutability": "nonpayable",
			"type": "function"
		},
		{
			"inputs": [
				{
					"internalType": "address",
					"name": "account",
					"type": "address"
				},
				{
					"internalType": "uint256",
					"name": "units",
					"type": "uint256"
				},
				{
					"internalType": "uint256[]",
					"name": "fractions",
					"type": "uint256[]"
				},
				{
					"internalType": "string",
					"name": "_uri",
					"type": "string"
				},
				{
					"internalType": "enum IHypercertToken.TransferRestrictions",
					"name": "restrictions",
					"type": "uint8"
				}
			],
			"name": "mintClaimWithFractions",
			"outputs": [],
			"stateMutability": "nonpayable",
			"type": "function"
		},
		{
			"inputs": [],
			"name": "name",
			"outputs": [
				{
					"internalType": "string",
					"name": "",
					"type": "string"
				}
			],
			"stateMutability": "view",
			"type": "function"
		},
		{
			"inputs": [],
			"name": "owner",
			"outputs": [
				{
					"internalType": "address",
					"name": "",
					"type": "address"
				}
			],
			"stateMutability": "view",
			"type": "function"
		},
		{
			"inputs": [
				{
					"internalType": "uint256",
					"name": "tokenID",
					"type": "uint256"
				}
			],
			"name": "ownerOf",
			"outputs": [
				{
					"internalType": "address",
					"name": "_owner",
					"type": "address"
				}
			],
			"stateMutability": "view",
			"type": "function"
		},
		{
			"inputs": [],
			"name": "pause",
			"outputs": [],
			"stateMutability": "nonpayable",
			"type": "function"
		},
		{
			"inputs": [],
			"name": "paused",
			"outputs": [
				{
					"internalType": "bool",
					"name": "",
					"type": "bool"
				}
			],
			"stateMutability": "view",
			"type": "function"
		},
		{
			"inputs": [],
			"name": "proxiableUUID",
			"outputs": [
				{
					"internalType": "bytes32",
					"name": "",
					"type": "bytes32"
				}
			],
			"stateMutability": "view",
			"type": "function"
		},
		{
			"inputs": [
				{
					"internalType": "uint256",
					"name": "tokenID",
					"type": "uint256"
				}
			],
			"name": "readTransferRestriction",
			"outputs": [
				{
					"internalType": "string",
					"name": "",
					"type": "string"
				}
			],
			"stateMutability": "view",
			"type": "function"
		},
		{
			"inputs": [],
			"name": "renounceOwnership",
			"outputs": [],
			"stateMutability": "nonpayable",
			"type": "function"
		},
		{
			"inputs": [
				{
					"internalType": "address",
					"name": "from",
					"type": "address"
				},
				{
					"internalType": "address",
					"name": "to",
					"type": "address"
				},
				{
					"internalType": "uint256[]",
					"name": "ids",
					"type": "uint256[]"
				},
				{
					"internalType": "uint256[]",
					"name": "amounts",
					"type": "uint256[]"
				},
				{
					"internalType": "bytes",
					"name": "data",
					"type": "bytes"
				}
			],
			"name": "safeBatchTransferFrom",
			"outputs": [],
			"stateMutability": "nonpayable",
			"type": "function"
		},
		{
			"inputs": [
				{
					"internalType": "address",
					"name": "from",
					"type": "address"
				},
				{
					"internalType": "address",
					"name": "to",
					"type": "address"
				},
				{
					"internalType": "uint256",
					"name": "id",
					"type": "uint256"
				},
				{
					"internalType": "uint256",
					"name": "amount",
					"type": "uint256"
				},
				{
					"internalType": "bytes",
					"name": "data",
					"type": "bytes"
				}
			],
			"name": "safeTransferFrom",
			"outputs": [],
			"stateMutability": "nonpayable",
			"type": "function"
		},
		{
			"inputs": [
				{
					"internalType": "address",
					"name": "operator",
					"type": "address"
				},
				{
					"internalType": "bool",
					"name": "approved",
					"type": "bool"
				}
			],
			"name": "setApprovalForAll",
			"outputs": [],
			"stateMutability": "nonpayable",
			"type": "function"
		},
		{
			"inputs": [
				{
					"internalType": "address",
					"name": "_account",
					"type": "address"
				},
				{
					"internalType": "uint256",
					"name": "_tokenID",
					"type": "uint256"
				},
				{
					"internalType": "uint256[]",
					"name": "_newFractions",
					"type": "uint256[]"
				}
			],
			"name": "splitFraction",
			"outputs": [],
			"stateMutability": "nonpayable",
			"type": "function"
		},
		{
			"inputs": [
				{
					"internalType": "bytes4",
					"name": "interfaceId",
					"type": "bytes4"
				}
			],
			"name": "supportsInterface",
			"outputs": [
				{
					"internalType": "bool",
					"name": "",
					"type": "bool"
				}
			],
			"stateMutability": "view",
			"type": "function"
		},
		{
			"inputs": [
				{
					"internalType": "address",
					"name": "newOwner",
					"type": "address"
				}
			],
			"name": "transferOwnership",
			"outputs": [],
			"stateMutability": "nonpayable",
			"type": "function"
		},
		{
			"inputs": [
				{
					"internalType": "address",
					"name": "account",
					"type": "address"
				},
				{
					"internalType": "uint256",
					"name": "tokenID",
					"type": "uint256"
				}
			],
			"name": "unitsOf",
			"outputs": [
				{
					"internalType": "uint256",
					"name": "units",
					"type": "uint256"
				}
			],
			"stateMutability": "view",
			"type": "function"
		},
		{
			"inputs": [
				{
					"internalType": "uint256",
					"name": "tokenID",
					"type": "uint256"
				}
			],
			"name": "unitsOf",
			"outputs": [
				{
					"internalType": "uint256",
					"name": "units",
					"type": "uint256"
				}
			],
			"stateMutability": "view",
			"type": "function"
		},
		{
			"inputs": [],
			"name": "unpause",
			"outputs": [],
			"stateMutability": "nonpayable",
			"type": "function"
		},
		{
			"inputs": [
				{
					"internalType": "address",
					"name": "newImplementation",
					"type": "address"
				}
			],
			"name": "upgradeTo",
			"outputs": [],
			"stateMutability": "nonpayable",
			"type": "function"
		},
		{
			"inputs": [
				{
					"internalType": "address",
					"name": "newImplementation",
					"type": "address"
				},
				{
					"internalType": "bytes",
					"name": "data",
					"type": "bytes"
				}
			],
			"name": "upgradeToAndCall",
			"outputs": [],
			"stateMutability": "payable",
			"type": "function"
		},
		{
			"inputs": [
				{
					"internalType": "uint256",
					"name": "tokenID",
					"type": "uint256"
				}
			],
			"name": "uri",
			"outputs": [
				{
					"internalType": "string",
					"name": "_uri",
					"type": "string"
				}
			],
			"stateMutability": "view",
			"type": "function"
		}
	]
}